{
  "contractName": "Auction",
  "abi": [
    {
      "inputs": [
        {
          "internalType": "contract Profile",
          "name": "_profile",
          "type": "address"
        },
        {
          "internalType": "contract RentalAgreement",
          "name": "_rentalAgreement",
          "type": "address"
        },
        {
          "internalType": "uint256",
          "name": "_logsId",
          "type": "uint256"
        },
        {
          "internalType": "uint256",
          "name": "_minIncrement",
          "type": "uint256"
        },
        {
          "internalType": "uint256",
          "name": "_timeInDays",
          "type": "uint256"
        }
      ],
      "stateMutability": "nonpayable",
      "type": "constructor"
    },
    {
      "anonymous": false,
      "inputs": [],
      "name": "AuctionCancelled",
      "type": "event"
    },
    {
      "anonymous": false,
      "inputs": [],
      "name": "AuctionEnded",
      "type": "event"
    },
    {
      "anonymous": false,
      "inputs": [
        {
          "indexed": false,
          "internalType": "address",
          "name": "bidder",
          "type": "address"
        },
        {
          "indexed": false,
          "internalType": "uint256",
          "name": "bid",
          "type": "uint256"
        },
        {
          "indexed": false,
          "internalType": "address",
          "name": "highestBidder",
          "type": "address"
        },
        {
          "indexed": false,
          "internalType": "uint256",
          "name": "highestBid",
          "type": "uint256"
        },
        {
          "indexed": false,
          "internalType": "uint256",
          "name": "highestBindingBid",
          "type": "uint256"
        }
      ],
      "name": "BidReceived",
      "type": "event"
    },
    {
      "anonymous": false,
      "inputs": [
        {
          "indexed": false,
          "internalType": "address",
          "name": "withdrawer",
          "type": "address"
        },
        {
          "indexed": false,
          "internalType": "address",
          "name": "withdrawalAccount",
          "type": "address"
        },
        {
          "indexed": false,
          "internalType": "uint256",
          "name": "amount",
          "type": "uint256"
        }
      ],
      "name": "WithdrawalDone",
      "type": "event"
    },
    {
      "inputs": [],
      "name": "canceled",
      "outputs": [
        {
          "internalType": "bool",
          "name": "",
          "type": "bool"
        }
      ],
      "stateMutability": "view",
      "type": "function",
      "constant": true
    },
    {
      "inputs": [],
      "name": "endBlock",
      "outputs": [
        {
          "internalType": "uint256",
          "name": "",
          "type": "uint256"
        }
      ],
      "stateMutability": "view",
      "type": "function",
      "constant": true
    },
    {
      "inputs": [],
      "name": "endedSuccessfully",
      "outputs": [
        {
          "internalType": "bool",
          "name": "",
          "type": "bool"
        }
      ],
      "stateMutability": "view",
      "type": "function",
      "constant": true
    },
    {
      "inputs": [
        {
          "internalType": "address",
          "name": "",
          "type": "address"
        }
      ],
      "name": "fundsByBidder",
      "outputs": [
        {
          "internalType": "uint256",
          "name": "",
          "type": "uint256"
        }
      ],
      "stateMutability": "view",
      "type": "function",
      "constant": true
    },
    {
      "inputs": [],
      "name": "highestBidder",
      "outputs": [
        {
          "internalType": "address",
          "name": "",
          "type": "address"
        }
      ],
      "stateMutability": "view",
      "type": "function",
      "constant": true
    },
    {
      "inputs": [],
      "name": "highestBindingBid",
      "outputs": [
        {
          "internalType": "uint256",
          "name": "",
          "type": "uint256"
        }
      ],
      "stateMutability": "view",
      "type": "function",
      "constant": true
    },
    {
      "inputs": [],
      "name": "minIncrement",
      "outputs": [
        {
          "internalType": "uint256",
          "name": "",
          "type": "uint256"
        }
      ],
      "stateMutability": "view",
      "type": "function",
      "constant": true
    },
    {
      "inputs": [],
      "name": "ownerHasWithdrawn",
      "outputs": [
        {
          "internalType": "bool",
          "name": "",
          "type": "bool"
        }
      ],
      "stateMutability": "view",
      "type": "function",
      "constant": true
    },
    {
      "inputs": [],
      "name": "startBlock",
      "outputs": [
        {
          "internalType": "uint256",
          "name": "",
          "type": "uint256"
        }
      ],
      "stateMutability": "view",
      "type": "function",
      "constant": true
    },
    {
      "inputs": [],
      "name": "getHighestBid",
      "outputs": [
        {
          "internalType": "uint256",
          "name": "",
          "type": "uint256"
        }
      ],
      "stateMutability": "view",
      "type": "function",
      "constant": true
    },
    {
      "inputs": [],
      "name": "placeBid",
      "outputs": [
        {
          "internalType": "bool",
          "name": "success",
          "type": "bool"
        }
      ],
      "stateMutability": "payable",
      "type": "function",
      "payable": true
    },
    {
      "inputs": [],
      "name": "endAuction",
      "outputs": [
        {
          "internalType": "bool",
          "name": "success",
          "type": "bool"
        }
      ],
      "stateMutability": "nonpayable",
      "type": "function"
    },
    {
      "inputs": [],
      "name": "cancelAuction",
      "outputs": [
        {
          "internalType": "bool",
          "name": "success",
          "type": "bool"
        }
      ],
      "stateMutability": "nonpayable",
      "type": "function"
    },
    {
      "inputs": [],
      "name": "withdraw",
      "outputs": [
        {
          "internalType": "bool",
          "name": "success",
          "type": "bool"
        }
      ],
      "stateMutability": "payable",
      "type": "function",
      "payable": true
    }
  ],
  "bytecode": "0x608060405233600160006101000a81548173ffffffffffffffffffffffffffffffffffffffff021916908373ffffffffffffffffffffffffffffffffffffffff1602179055503480156200005257600080fd5b5060405162001d3938038062001d3983398181016040528101906200007891906200018d565b6001600081905550816002819055504260038190555062015180816200009f91906200026c565b600354620000ae91906200020f565b60048190555083600a60006101000a81548173ffffffffffffffffffffffffffffffffffffffff021916908373ffffffffffffffffffffffffffffffffffffffff16021790555084600960016101000a81548173ffffffffffffffffffffffffffffffffffffffff021916908373ffffffffffffffffffffffffffffffffffffffff16021790555082600c819055505050505050620003b0565b600081519050620001598162000362565b92915050565b60008151905062000170816200037c565b92915050565b600081519050620001878162000396565b92915050565b600080600080600060a08688031215620001a657600080fd5b6000620001b68882890162000148565b9550506020620001c9888289016200015f565b9450506040620001dc8882890162000176565b9350506060620001ef8882890162000176565b9250506080620002028882890162000176565b9150509295509295909350565b60006200021c8262000329565b9150620002298362000329565b9250827fffffffffffffffffffffffffffffffffffffffffffffffffffffffffffffffff0382111562000261576200026062000333565b5b828201905092915050565b6000620002798262000329565b9150620002868362000329565b9250817fffffffffffffffffffffffffffffffffffffffffffffffffffffffffffffffff0483118215151615620002c257620002c162000333565b5b828202905092915050565b6000620002da8262000309565b9050919050565b6000620002ee82620002cd565b9050919050565b60006200030282620002cd565b9050919050565b600073ffffffffffffffffffffffffffffffffffffffff82169050919050565b6000819050919050565b7f4e487b7100000000000000000000000000000000000000000000000000000000600052601160045260246000fd5b6200036d81620002e1565b81146200037957600080fd5b50565b6200038781620002f5565b81146200039357600080fd5b50565b620003a18162000329565b8114620003ad57600080fd5b50565b61197980620003c06000396000f3fe6080604052600436106100dd5760003560e01c80638fa8b7901161007f578063ce10cf8011610059578063ce10cf8014610283578063ecfc7ecc146102c0578063f5b56c56146102de578063fe67a54b14610309576100dd565b80638fa8b7901461020257806391f901571461022d578063c9a14dd214610258576100dd565b80633f9942ff116100bb5780633f9942ff1461015657806348cd4cb1146101815780634979440a146101ac5780638afcb14d146101d7576100dd565b8063083c6323146100e25780631bf822e51461010d5780633ccfd60b14610138575b600080fd5b3480156100ee57600080fd5b506100f7610334565b6040516101049190611643565b60405180910390f35b34801561011957600080fd5b5061012261033a565b60405161012f9190611508565b60405180910390f35b61014061034d565b60405161014d9190611508565b60405180910390f35b34801561016257600080fd5b5061016b610839565b6040516101789190611508565b60405180910390f35b34801561018d57600080fd5b5061019661084c565b6040516101a39190611643565b60405180910390f35b3480156101b857600080fd5b506101c1610852565b6040516101ce9190611643565b60405180910390f35b3480156101e357600080fd5b506101ec6108bb565b6040516101f99190611643565b60405180910390f35b34801561020e57600080fd5b506102176108c1565b6040516102249190611508565b60405180910390f35b34801561023957600080fd5b50610242610a36565b60405161024f9190611410565b60405180910390f35b34801561026457600080fd5b5061026d610a5c565b60405161027a9190611508565b60405180910390f35b34801561028f57600080fd5b506102aa60048036038101906102a5919061121e565b610a6f565b6040516102b79190611643565b60405180910390f35b6102c8610a87565b6040516102d59190611508565b60405180910390f35b3480156102ea57600080fd5b506102f3611003565b6040516103009190611643565b60405180910390f35b34801561031557600080fd5b5061031e611009565b60405161032b9190611508565b60405180910390f35b60045481565b600960009054906101000a900460ff1681565b600060045442118061036b5750600560019054906101000a900460ff165b806103825750600560009054906101000a900460ff165b6103c1576040517f08c379a00000000000000000000000000000000000000000000000000000000081526004016103b890611543565b60405180910390fd5b6103c961117e565b600080600560009054906101000a900460ff161561042b57339150600860008373ffffffffffffffffffffffffffffffffffffffff1673ffffffffffffffffffffffffffffffffffffffff16815260200190815260200160002054905061074c565b600160009054906101000a900473ffffffffffffffffffffffffffffffffffffffff1673ffffffffffffffffffffffffffffffffffffffff163373ffffffffffffffffffffffffffffffffffffffff16141561059457600760009054906101000a900473ffffffffffffffffffffffffffffffffffffffff16915060065490506001600960006101000a81548160ff021916908315150217905550600a60009054906101000a900473ffffffffffffffffffffffffffffffffffffffff1673ffffffffffffffffffffffffffffffffffffffff1663bfdfac84600760009054906101000a900473ffffffffffffffffffffffffffffffffffffffff164262093a8042610537919061167a565b600654600c546040518663ffffffff1660e01b815260040161055d9594939291906114b5565b600060405180830381600087803b15801561057757600080fd5b505af115801561058b573d6000803e3d6000fd5b5050505061074b565b600760009054906101000a900473ffffffffffffffffffffffffffffffffffffffff1673ffffffffffffffffffffffffffffffffffffffff163373ffffffffffffffffffffffffffffffffffffffff16141561070457600760009054906101000a900473ffffffffffffffffffffffffffffffffffffffff169150600960009054906101000a900460ff161561068d5760086000600760009054906101000a900473ffffffffffffffffffffffffffffffffffffffff1673ffffffffffffffffffffffffffffffffffffffff1673ffffffffffffffffffffffffffffffffffffffff1681526020019081526020016000205490506106ff565b60065460086000600760009054906101000a900473ffffffffffffffffffffffffffffffffffffffff1673ffffffffffffffffffffffffffffffffffffffff1673ffffffffffffffffffffffffffffffffffffffff168152602001908152602001600020546106fc91906116d0565b90505b61074a565b339150600860008373ffffffffffffffffffffffffffffffffffffffff1673ffffffffffffffffffffffffffffffffffffffff1681526020019081526020016000205490505b5b5b6000811161075957600080fd5b80600860008473ffffffffffffffffffffffffffffffffffffffff1673ffffffffffffffffffffffffffffffffffffffff16815260200190815260200160002060008282546107a891906116d0565b925050819055503373ffffffffffffffffffffffffffffffffffffffff166108fc829081150290604051600060405180830381858888f193505050506107ed57600080fd5b7f845a7ca1f32bbea0d19ac7d55d684b9eafc00256bed9f4ffc3def8bad106ec5a3383836040516108209392919061142b565b60405180910390a16001925050506108366111ce565b90565b600560009054906101000a900460ff1681565b60035481565b600060086000600760009054906101000a900473ffffffffffffffffffffffffffffffffffffffff1673ffffffffffffffffffffffffffffffffffffffff1673ffffffffffffffffffffffffffffffffffffffff16815260200190815260200160002054905090565b60025481565b6000600160009054906101000a900473ffffffffffffffffffffffffffffffffffffffff1673ffffffffffffffffffffffffffffffffffffffff163373ffffffffffffffffffffffffffffffffffffffff1614610953576040517f08c379a000000000000000000000000000000000000000000000000000000000815260040161094a90611523565b60405180910390fd5b600454421115610998576040517f08c379a000000000000000000000000000000000000000000000000000000000815260040161098f90611603565b60405180910390fd5b600560009054906101000a900460ff16156109e8576040517f08c379a00000000000000000000000000000000000000000000000000000000081526004016109df90611583565b60405180910390fd5b6001600560006101000a81548160ff0219169083151502179055507fa5fb31e47bd1eca58bf14a3312d5e6aeafdc4ee787c8ed348c15c2b092324d9360405160405180910390a16001905090565b600760009054906101000a900473ffffffffffffffffffffffffffffffffffffffff1681565b600560019054906101000a900460ff1681565b60086020528060005260406000206000915090505481565b6000600354421015610ace576040517f08c379a0000000000000000000000000000000000000000000000000000000008152600401610ac5906115a3565b60405180910390fd5b600454421115610b13576040517f08c379a0000000000000000000000000000000000000000000000000000000008152600401610b0a90611603565b60405180910390fd5b600560009054906101000a900460ff1615610b63576040517f08c379a0000000000000000000000000000000000000000000000000000000008152600401610b5a90611583565b60405180910390fd5b600160009054906101000a900473ffffffffffffffffffffffffffffffffffffffff1673ffffffffffffffffffffffffffffffffffffffff163373ffffffffffffffffffffffffffffffffffffffff161415610bf4576040517f08c379a0000000000000000000000000000000000000000000000000000000008152600401610beb906115c3565b60405180910390fd5b610bfc61117e565b60011515600960019054906101000a900473ffffffffffffffffffffffffffffffffffffffff1673ffffffffffffffffffffffffffffffffffffffff16635fb64fd6336040518263ffffffff1660e01b8152600401610c5b9190611410565b60206040518083038186803b158015610c7357600080fd5b505afa158015610c87573d6000803e3d6000fd5b505050506040513d601f19601f82011682018060405250810190610cab9190611247565b151514610ced576040517f08c379a0000000000000000000000000000000000000000000000000000000008152600401610ce4906115e3565b60405180910390fd5b60003411610cfa57600080fd5b600034600860003373ffffffffffffffffffffffffffffffffffffffff1673ffffffffffffffffffffffffffffffffffffffff16815260200190815260200160002054610d47919061167a565b90506006548111610d5757600080fd5b600060086000600760009054906101000a900473ffffffffffffffffffffffffffffffffffffffff1673ffffffffffffffffffffffffffffffffffffffff1673ffffffffffffffffffffffffffffffffffffffff16815260200190815260200160002054905081600860003373ffffffffffffffffffffffffffffffffffffffff1673ffffffffffffffffffffffffffffffffffffffff16815260200190815260200160002081905550808211610e2a57610e1f60025483610e19919061167a565b826111d8565b600681905550610ee2565b600760009054906101000a900473ffffffffffffffffffffffffffffffffffffffff1673ffffffffffffffffffffffffffffffffffffffff163373ffffffffffffffffffffffffffffffffffffffff1614610ede5733600760006101000a81548173ffffffffffffffffffffffffffffffffffffffff021916908373ffffffffffffffffffffffffffffffffffffffff160217905550610ed78260025483610ed2919061167a565b6111d8565b6006819055505b8190505b60003073ffffffffffffffffffffffffffffffffffffffff1634604051610f08906113fb565b60006040518083038185875af1925050503d8060008114610f45576040519150601f19603f3d011682016040523d82523d6000602084013e610f4a565b606091505b5050905080610f8e576040517f08c379a0000000000000000000000000000000000000000000000000000000008152600401610f8590611563565b60405180910390fd5b7fb43c338b56f8eaf5602553bfb22b47d8a01680cf19037072605b07d7c0947c723384600760009054906101000a900473ffffffffffffffffffffffffffffffffffffffff1685600654604051610fe9959493929190611462565b60405180910390a1600193505050506110006111ce565b90565b60065481565b6000600160009054906101000a900473ffffffffffffffffffffffffffffffffffffffff1673ffffffffffffffffffffffffffffffffffffffff163373ffffffffffffffffffffffffffffffffffffffff161461109b576040517f08c379a000000000000000000000000000000000000000000000000000000000815260040161109290611523565b60405180910390fd5b6004544211156110e0576040517f08c379a00000000000000000000000000000000000000000000000000000000081526004016110d790611603565b60405180910390fd5b600560009054906101000a900460ff1615611130576040517f08c379a000000000000000000000000000000000000000000000000000000000815260040161112790611583565b60405180910390fd5b6001600560016101000a81548160ff0219169083151502179055507fa0e92984607195c326795751263414ee1074526323552e694c90ef2b99ae3f2960405160405180910390a16001905090565b600260005414156111c4576040517f08c379a00000000000000000000000000000000000000000000000000000000081526004016111bb90611623565b60405180910390fd5b6002600081905550565b6001600081905550565b6000818310156111ea578290506111ee565b8190505b92915050565b60008135905061120381611915565b92915050565b6000815190506112188161192c565b92915050565b60006020828403121561123057600080fd5b600061123e848285016111f4565b91505092915050565b60006020828403121561125957600080fd5b600061126784828501611209565b91505092915050565b61127981611704565b82525050565b61128881611716565b82525050565b600061129b600a83611669565b91506112a68261177b565b602082019050919050565b60006112be601783611669565b91506112c9826117a4565b602082019050919050565b60006112e1600f83611669565b91506112ec826117cd565b602082019050919050565b6000611304601283611669565b915061130f826117f6565b602082019050919050565b6000611327601683611669565b91506113328261181f565b602082019050919050565b600061134a600e83611669565b915061135582611848565b602082019050919050565b600061136d603183611669565b915061137882611871565b604082019050919050565b6000611390601583611669565b915061139b826118c0565b602082019050919050565b60006113b360008361165e565b91506113be826118e9565b600082019050919050565b60006113d6601f83611669565b91506113e1826118ec565b602082019050919050565b6113f581611742565b82525050565b6000611406826113a6565b9150819050919050565b60006020820190506114256000830184611270565b92915050565b60006060820190506114406000830186611270565b61144d6020830185611270565b61145a60408301846113ec565b949350505050565b600060a0820190506114776000830188611270565b61148460208301876113ec565b6114916040830186611270565b61149e60608301856113ec565b6114ab60808301846113ec565b9695505050505050565b600060a0820190506114ca6000830188611270565b6114d760208301876113ec565b6114e460408301866113ec565b6114f160608301856113ec565b6114fe60808301846113ec565b9695505050505050565b600060208201905061151d600083018461127f565b92915050565b6000602082019050818103600083015261153c8161128e565b9050919050565b6000602082019050818103600083015261155c816112b1565b9050919050565b6000602082019050818103600083015261157c816112d4565b9050919050565b6000602082019050818103600083015261159c816112f7565b9050919050565b600060208201905081810360008301526115bc8161131a565b9050919050565b600060208201905081810360008301526115dc8161133d565b9050919050565b600060208201905081810360008301526115fc81611360565b9050919050565b6000602082019050818103600083015261161c81611383565b9050919050565b6000602082019050818103600083015261163c816113c9565b9050919050565b600060208201905061165860008301846113ec565b92915050565b600081905092915050565b600082825260208201905092915050565b600061168582611742565b915061169083611742565b9250827fffffffffffffffffffffffffffffffffffffffffffffffffffffffffffffffff038211156116c5576116c461174c565b5b828201905092915050565b60006116db82611742565b91506116e683611742565b9250828210156116f9576116f861174c565b5b828203905092915050565b600061170f82611722565b9050919050565b60008115159050919050565b600073ffffffffffffffffffffffffffffffffffffffff82169050919050565b6000819050919050565b7f4e487b7100000000000000000000000000000000000000000000000000000000600052601160045260246000fd5b7f4f6e6c79206f776e657200000000000000000000000000000000000000000000600082015250565b7f4f6e6c792063616e63656c6c6564206f7220656e646564000000000000000000600082015250565b7f5472616e73666572206661696c65640000000000000000000000000000000000600082015250565b7f4f6e6c79206e6f742063616e63656c6c65640000000000000000000000000000600082015250565b7f4f6e6c7920616674657220737461727420626c6f636b00000000000000000000600082015250565b7f4f6e6c79206e6f74206f776e6572000000000000000000000000000000000000600082015250565b7f4e6f7420617574686f72697a656420746f20706c6163652061206269642e205360008201527f69676e207570206f6e2050726f66696c65000000000000000000000000000000602082015250565b7f4f6e6c79206265666f726520656e6420626c6f636b0000000000000000000000600082015250565b50565b7f5265656e7472616e637947756172643a207265656e7472616e742063616c6c00600082015250565b61191e81611704565b811461192957600080fd5b50565b61193581611716565b811461194057600080fd5b5056fea264697066735822122038c9d7c82a71b86f9a2f4d445d3cd7d7a193539292438e00f5513c614cf30e9c64736f6c63430008040033",
  "immutableReferences": {},
  "source": "pragma solidity ^0.8.4;\r\n\r\nimport \"./Profile.sol\";\r\nimport \"./RentalAgreement.sol\";\r\nimport \"@openzeppelin/contracts/security/ReentrancyGuard.sol\";\r\n\r\ncontract Auction is ReentrancyGuard{\r\n    // static\r\n    address _owner = msg.sender;\r\n    uint256 public minIncrement;\r\n    uint256 public startBlock;\r\n    uint256 public endBlock;\r\n\r\n    // state\r\n    bool public canceled;\r\n    bool public endedSuccessfully;\r\n    uint256 public highestBindingBid;\r\n    address public highestBidder;\r\n    mapping(address => uint256) public fundsByBidder;\r\n    bool public ownerHasWithdrawn;\r\n\r\n    event BidReceived(address bidder, uint256 bid, address highestBidder, uint256 highestBid, uint256 highestBindingBid);\r\n    event WithdrawalDone(address withdrawer, address withdrawalAccount, uint256 amount);\r\n    event AuctionCancelled();\r\n    event AuctionEnded();\r\n\r\n    Profile profile;\r\n    RentalAgreement rentalAgreement;\r\n    address logsAddress;\r\n    uint256 logsId;\r\n\r\n    // receive address during deployment script\r\n    constructor(Profile _profile, RentalAgreement _rentalAgreement, uint256 _logsId, uint256 _minIncrement, uint256 _timeInDays) {\r\n        minIncrement = _minIncrement;\r\n        startBlock = block.timestamp;\r\n        endBlock = startBlock + (_timeInDays * 1 days);\r\n        rentalAgreement = _rentalAgreement;\r\n        profile = _profile;\r\n        logsId = _logsId;\r\n    }\r\n\r\n    function getHighestBid() public view\r\n        returns (uint256)\r\n    {\r\n        return fundsByBidder[highestBidder];\r\n    }\r\n\r\n    function placeBid() public\r\n        payable\r\n        onlyAfterStart\r\n        onlyBeforeEnd\r\n        onlyNotCanceled\r\n        onlyNotOwner\r\n        nonReentrant\r\n        returns (bool success)\r\n    {\r\n        require(profile.checkMembership(msg.sender) == true, \"Not authorized to place a bid. Sign up on Profile\");\r\n        // reject payments of 0 ETH\r\n        require(msg.value > 0);\r\n\r\n        uint256 newBid = fundsByBidder[msg.sender] + msg.value;\r\n        require(newBid > highestBindingBid);\r\n\r\n        // grab the previous highest bid (before updating fundsByBidder, in case msg.sender is the\r\n        // highestBidder and is just increasing their maximum bid).\r\n        uint256 highestBid = fundsByBidder[highestBidder];\r\n\r\n        fundsByBidder[msg.sender] = newBid;\r\n\r\n        if (newBid <= highestBid) {\r\n            highestBindingBid = min(newBid + minIncrement, highestBid);\r\n        } else {\r\n            if (msg.sender != highestBidder) {\r\n                highestBidder = msg.sender;\r\n                highestBindingBid = min(newBid, highestBid + minIncrement);\r\n            }\r\n            highestBid = newBid;\r\n        }\r\n\r\n        (bool success, ) = payable(address(this)).call{\r\n            value: msg.value\r\n        }(\"\");\r\n        require(success, \"Transfer failed\");\r\n        emit BidReceived(msg.sender, newBid, highestBidder, highestBid, highestBindingBid);\r\n        return true;\r\n    }\r\n\r\n    function min(uint256 a, uint256 b)\r\n        private pure\r\n        returns (uint256)\r\n    {\r\n        if (a < b) return a;\r\n        return b;\r\n    }\r\n\r\n    function endAuction() public\r\n        onlyOwner\r\n        onlyBeforeEnd\r\n        onlyNotCanceled\r\n        returns (bool success)\r\n    {\r\n        endedSuccessfully = true;\r\n        emit AuctionEnded();\r\n        return true;\r\n    }\r\n\r\n    function cancelAuction() public\r\n        onlyOwner\r\n        onlyBeforeEnd\r\n        onlyNotCanceled\r\n        returns (bool success)\r\n    {\r\n        canceled = true;\r\n        emit AuctionCancelled();\r\n        return true;\r\n    }\r\n\r\n    function withdraw() public payable\r\n        onlyEndedOrCanceled\r\n        nonReentrant\r\n        returns (bool success)\r\n    {\r\n        address withdrawalAccount;\r\n        uint256 withdrawalAmount;\r\n\r\n        if (canceled) {\r\n            // if the auction was canceled, everyone should simply be allowed to withdraw their funds\r\n            withdrawalAccount = msg.sender;\r\n            withdrawalAmount = fundsByBidder[withdrawalAccount];\r\n\r\n        } else {\r\n            // the auction finished without being canceled\r\n\r\n            if (msg.sender == _owner) {\r\n                // the auction's owner should be allowed to withdraw the highestBindingBid\r\n                withdrawalAccount = highestBidder;\r\n                withdrawalAmount = highestBindingBid;\r\n                ownerHasWithdrawn = true;\r\n\r\n                // start a logistics contract with winner address\r\n                rentalAgreement.createRent(highestBidder, block.timestamp, block.timestamp + 7 days, highestBindingBid, logsId);\r\n            } else if (msg.sender == highestBidder) {\r\n                withdrawalAccount = highestBidder;\r\n                if (ownerHasWithdrawn) {\r\n                    withdrawalAmount = fundsByBidder[highestBidder];\r\n                } else {\r\n                    withdrawalAmount = fundsByBidder[highestBidder] - highestBindingBid;\r\n                }\r\n\r\n            } else {\r\n                withdrawalAccount = msg.sender;\r\n                withdrawalAmount = fundsByBidder[withdrawalAccount];\r\n            }\r\n        }\r\n\r\n        require(withdrawalAmount > 0);\r\n\r\n        fundsByBidder[withdrawalAccount] -= withdrawalAmount;\r\n\r\n        // send funds back\r\n        require(payable(msg.sender).send(withdrawalAmount));\r\n\r\n        emit WithdrawalDone(msg.sender, withdrawalAccount, withdrawalAmount);\r\n\r\n        return true;\r\n    }\r\n\r\n    modifier onlyOwner {\r\n        require(msg.sender == _owner, \"Only owner\");\r\n        _;\r\n    }\r\n\r\n    modifier onlyNotOwner {\r\n        require(msg.sender != _owner, \"Only not owner\");\r\n        _;\r\n    }\r\n\r\n    modifier onlyAfterStart {\r\n        require(block.timestamp >= startBlock, \"Only after start block\");\r\n        _;\r\n    }\r\n\r\n    modifier onlyBeforeEnd {\r\n        require(block.timestamp <= endBlock, \"Only before end block\");\r\n        _;\r\n    }\r\n\r\n    modifier onlyNotCanceled {\r\n        require(!canceled, \"Only not cancelled\");\r\n        _;\r\n    }\r\n\r\n    modifier onlyEndedOrCanceled {\r\n        require(block.timestamp > endBlock || endedSuccessfully || canceled, \"Only cancelled or ended\");\r\n        _;\r\n    }\r\n}\r\n",
  "sourcePath": "C:\\Users\\tingy\\Documents\\GitHub\\tt_contracts\\contracts\\Auction.sol",
  "compiler": {
    "name": "solc",
    "version": "0.8.4+commit.c7e474f2.Emscripten.clang"
  },
  "schemaVersion": "3.4.11",
  "updatedAt": "2023-03-30T13:59:56.070Z",
  "networkType": "ethereum",
  "devdoc": {
    "kind": "dev",
    "methods": {},
    "version": 1
  },
  "userdoc": {
    "kind": "user",
    "methods": {},
    "version": 1
  }
}