{
  "contractName": "Auction",
  "abi": [
    {
      "inputs": [
        {
          "internalType": "contract Profile",
          "name": "_profile",
          "type": "address"
        },
        {
          "internalType": "contract RentalAgreement",
          "name": "_rentalAgreement",
          "type": "address"
        },
        {
          "internalType": "address",
          "name": "_logsAddress",
          "type": "address"
        },
        {
          "internalType": "uint256",
          "name": "_logsId",
          "type": "uint256"
        },
        {
          "internalType": "uint256",
          "name": "_minIncrement",
          "type": "uint256"
        },
        {
          "internalType": "uint256",
          "name": "_timeInDays",
          "type": "uint256"
        }
      ],
      "stateMutability": "nonpayable",
      "type": "constructor"
    },
    {
      "anonymous": false,
      "inputs": [],
      "name": "AuctionCancelled",
      "type": "event"
    },
    {
      "anonymous": false,
      "inputs": [],
      "name": "AuctionEnded",
      "type": "event"
    },
    {
      "anonymous": false,
      "inputs": [
        {
          "indexed": false,
          "internalType": "address",
          "name": "bidder",
          "type": "address"
        },
        {
          "indexed": false,
          "internalType": "uint256",
          "name": "bid",
          "type": "uint256"
        },
        {
          "indexed": false,
          "internalType": "address",
          "name": "highestBidder",
          "type": "address"
        },
        {
          "indexed": false,
          "internalType": "uint256",
          "name": "highestBid",
          "type": "uint256"
        },
        {
          "indexed": false,
          "internalType": "uint256",
          "name": "highestBindingBid",
          "type": "uint256"
        }
      ],
      "name": "BidReceived",
      "type": "event"
    },
    {
      "anonymous": false,
      "inputs": [
        {
          "indexed": false,
          "internalType": "address",
          "name": "withdrawer",
          "type": "address"
        },
        {
          "indexed": false,
          "internalType": "address",
          "name": "withdrawalAccount",
          "type": "address"
        },
        {
          "indexed": false,
          "internalType": "uint256",
          "name": "amount",
          "type": "uint256"
        }
      ],
      "name": "WithdrawalDone",
      "type": "event"
    },
    {
      "inputs": [],
      "name": "canceled",
      "outputs": [
        {
          "internalType": "bool",
          "name": "",
          "type": "bool"
        }
      ],
      "stateMutability": "view",
      "type": "function"
    },
    {
      "inputs": [],
      "name": "endBlock",
      "outputs": [
        {
          "internalType": "uint256",
          "name": "",
          "type": "uint256"
        }
      ],
      "stateMutability": "view",
      "type": "function"
    },
    {
      "inputs": [],
      "name": "endedSuccessfully",
      "outputs": [
        {
          "internalType": "bool",
          "name": "",
          "type": "bool"
        }
      ],
      "stateMutability": "view",
      "type": "function"
    },
    {
      "inputs": [
        {
          "internalType": "address",
          "name": "",
          "type": "address"
        }
      ],
      "name": "fundsByBidder",
      "outputs": [
        {
          "internalType": "uint256",
          "name": "",
          "type": "uint256"
        }
      ],
      "stateMutability": "view",
      "type": "function"
    },
    {
      "inputs": [],
      "name": "highestBidder",
      "outputs": [
        {
          "internalType": "address",
          "name": "",
          "type": "address"
        }
      ],
      "stateMutability": "view",
      "type": "function"
    },
    {
      "inputs": [],
      "name": "highestBindingBid",
      "outputs": [
        {
          "internalType": "uint256",
          "name": "",
          "type": "uint256"
        }
      ],
      "stateMutability": "view",
      "type": "function"
    },
    {
      "inputs": [],
      "name": "minIncrement",
      "outputs": [
        {
          "internalType": "uint256",
          "name": "",
          "type": "uint256"
        }
      ],
      "stateMutability": "view",
      "type": "function"
    },
    {
      "inputs": [],
      "name": "startBlock",
      "outputs": [
        {
          "internalType": "uint256",
          "name": "",
          "type": "uint256"
        }
      ],
      "stateMutability": "view",
      "type": "function"
    },
    {
      "inputs": [],
      "name": "getHighestBid",
      "outputs": [
        {
          "internalType": "uint256",
          "name": "",
          "type": "uint256"
        }
      ],
      "stateMutability": "view",
      "type": "function"
    },
    {
      "inputs": [],
      "name": "placeBid",
      "outputs": [
        {
          "internalType": "bool",
          "name": "success",
          "type": "bool"
        }
      ],
      "stateMutability": "payable",
      "type": "function"
    },
    {
      "inputs": [],
      "name": "endAuction",
      "outputs": [
        {
          "internalType": "bool",
          "name": "success",
          "type": "bool"
        }
      ],
      "stateMutability": "nonpayable",
      "type": "function"
    },
    {
      "inputs": [],
      "name": "cancelAuction",
      "outputs": [
        {
          "internalType": "bool",
          "name": "success",
          "type": "bool"
        }
      ],
      "stateMutability": "nonpayable",
      "type": "function"
    },
    {
      "inputs": [],
      "name": "withdraw",
      "outputs": [
        {
          "internalType": "bool",
          "name": "success",
          "type": "bool"
        }
      ],
      "stateMutability": "payable",
      "type": "function"
    }
  ],
  "bytecode": "0x6080604052336000806101000a81548173ffffffffffffffffffffffffffffffffffffffff021916908373ffffffffffffffffffffffffffffffffffffffff1602179055503480156200005157600080fd5b5060405162001b4538038062001b458339818101604052810190620000779190620001dd565b81600181905550426002819055506201518081620000969190620002d0565b600254620000a5919062000273565b60038190555084600960006101000a81548173ffffffffffffffffffffffffffffffffffffffff021916908373ffffffffffffffffffffffffffffffffffffffff16021790555085600860016101000a81548173ffffffffffffffffffffffffffffffffffffffff021916908373ffffffffffffffffffffffffffffffffffffffff16021790555083600a60006101000a81548173ffffffffffffffffffffffffffffffffffffffff021916908373ffffffffffffffffffffffffffffffffffffffff16021790555082600b819055505050505050506200042e565b6000815190506200019281620003c6565b92915050565b600081519050620001a981620003e0565b92915050565b600081519050620001c081620003fa565b92915050565b600081519050620001d78162000414565b92915050565b60008060008060008060c08789031215620001f757600080fd5b60006200020789828a0162000198565b96505060206200021a89828a01620001af565b95505060406200022d89828a0162000181565b94505060606200024089828a01620001c6565b93505060806200025389828a01620001c6565b92505060a06200026689828a01620001c6565b9150509295509295509295565b600062000280826200038d565b91506200028d836200038d565b9250827fffffffffffffffffffffffffffffffffffffffffffffffffffffffffffffffff03821115620002c557620002c462000397565b5b828201905092915050565b6000620002dd826200038d565b9150620002ea836200038d565b9250817fffffffffffffffffffffffffffffffffffffffffffffffffffffffffffffffff048311821515161562000326576200032562000397565b5b828202905092915050565b60006200033e826200036d565b9050919050565b6000620003528262000331565b9050919050565b6000620003668262000331565b9050919050565b600073ffffffffffffffffffffffffffffffffffffffff82169050919050565b6000819050919050565b7f4e487b7100000000000000000000000000000000000000000000000000000000600052601160045260246000fd5b620003d18162000331565b8114620003dd57600080fd5b50565b620003eb8162000345565b8114620003f757600080fd5b50565b620004058162000359565b81146200041157600080fd5b50565b6200041f816200038d565b81146200042b57600080fd5b50565b611707806200043e6000396000f3fe6080604052600436106100c25760003560e01c80638fa8b7901161007f578063ce10cf8011610059578063ce10cf801461023d578063ecfc7ecc1461027a578063f5b56c5614610298578063fe67a54b146102c3576100c2565b80638fa8b790146101bc57806391f90157146101e7578063c9a14dd214610212576100c2565b8063083c6323146100c75780633ccfd60b146100f25780633f9942ff1461011057806348cd4cb11461013b5780634979440a146101665780638afcb14d14610191575b600080fd5b3480156100d357600080fd5b506100dc6102ee565b6040516100e99190611431565b60405180910390f35b6100fa6102f4565b6040516101079190611336565b60405180910390f35b34801561011c57600080fd5b506101256107f2565b6040516101329190611336565b60405180910390f35b34801561014757600080fd5b50610150610805565b60405161015d9190611431565b60405180910390f35b34801561017257600080fd5b5061017b61080b565b6040516101889190611431565b60405180910390f35b34801561019d57600080fd5b506101a6610874565b6040516101b39190611431565b60405180910390f35b3480156101c857600080fd5b506101d161087a565b6040516101de9190611336565b60405180910390f35b3480156101f357600080fd5b506101fc6109ee565b6040516102099190611230565b60405180910390f35b34801561021e57600080fd5b50610227610a14565b6040516102349190611336565b60405180910390f35b34801561024957600080fd5b50610264600480360381019061025f91906110bc565b610a27565b6040516102719190611431565b60405180910390f35b610282610a3f565b60405161028f9190611336565b60405180910390f35b3480156102a457600080fd5b506102ad610efc565b6040516102ba9190611431565b60405180910390f35b3480156102cf57600080fd5b506102d8610f02565b6040516102e59190611336565b60405180910390f35b60035481565b60006003544211806103125750600460019054906101000a900460ff165b806103295750600460009054906101000a900460ff165b610368576040517f08c379a000000000000000000000000000000000000000000000000000000000815260040161035f90611371565b60405180910390fd5b600080600460009054906101000a900460ff16156103ca57339150600760008373ffffffffffffffffffffffffffffffffffffffff1673ffffffffffffffffffffffffffffffffffffffff16815260200190815260200160002054905061070d565b60008054906101000a900473ffffffffffffffffffffffffffffffffffffffff1673ffffffffffffffffffffffffffffffffffffffff163373ffffffffffffffffffffffffffffffffffffffff16141561055557600660009054906101000a900473ffffffffffffffffffffffffffffffffffffffff16915060055490506001600860006101000a81548160ff021916908315150217905550600960009054906101000a900473ffffffffffffffffffffffffffffffffffffffff1673ffffffffffffffffffffffffffffffffffffffff166302d6c003600660009054906101000a900473ffffffffffffffffffffffffffffffffffffffff164262093a80426104d4919061145d565b600554600a60009054906101000a900473ffffffffffffffffffffffffffffffffffffffff16600b546040518763ffffffff1660e01b815260040161051e969594939291906112d5565b600060405180830381600087803b15801561053857600080fd5b505af115801561054c573d6000803e3d6000fd5b5050505061070c565b600660009054906101000a900473ffffffffffffffffffffffffffffffffffffffff1673ffffffffffffffffffffffffffffffffffffffff163373ffffffffffffffffffffffffffffffffffffffff1614156106c557600660009054906101000a900473ffffffffffffffffffffffffffffffffffffffff169150600860009054906101000a900460ff161561064e5760076000600660009054906101000a900473ffffffffffffffffffffffffffffffffffffffff1673ffffffffffffffffffffffffffffffffffffffff1673ffffffffffffffffffffffffffffffffffffffff1681526020019081526020016000205490506106c0565b60055460076000600660009054906101000a900473ffffffffffffffffffffffffffffffffffffffff1673ffffffffffffffffffffffffffffffffffffffff1673ffffffffffffffffffffffffffffffffffffffff168152602001908152602001600020546106bd91906114b3565b90505b61070b565b339150600760008373ffffffffffffffffffffffffffffffffffffffff1673ffffffffffffffffffffffffffffffffffffffff1681526020019081526020016000205490505b5b5b6000811161071a57600080fd5b80600760008473ffffffffffffffffffffffffffffffffffffffff1673ffffffffffffffffffffffffffffffffffffffff168152602001908152602001600020600082825461076991906114b3565b925050819055503373ffffffffffffffffffffffffffffffffffffffff166108fc829081150290604051600060405180830381858888f193505050506107ae57600080fd5b7f845a7ca1f32bbea0d19ac7d55d684b9eafc00256bed9f4ffc3def8bad106ec5a3383836040516107e19392919061124b565b60405180910390a160019250505090565b600460009054906101000a900460ff1681565b60025481565b600060076000600660009054906101000a900473ffffffffffffffffffffffffffffffffffffffff1673ffffffffffffffffffffffffffffffffffffffff1673ffffffffffffffffffffffffffffffffffffffff16815260200190815260200160002054905090565b60015481565b60008060009054906101000a900473ffffffffffffffffffffffffffffffffffffffff1673ffffffffffffffffffffffffffffffffffffffff163373ffffffffffffffffffffffffffffffffffffffff161461090b576040517f08c379a000000000000000000000000000000000000000000000000000000000815260040161090290611351565b60405180910390fd5b600354431115610950576040517f08c379a000000000000000000000000000000000000000000000000000000000815260040161094790611411565b60405180910390fd5b600460009054906101000a900460ff16156109a0576040517f08c379a000000000000000000000000000000000000000000000000000000000815260040161099790611391565b60405180910390fd5b6001600460006101000a81548160ff0219169083151502179055507fa5fb31e47bd1eca58bf14a3312d5e6aeafdc4ee787c8ed348c15c2b092324d9360405160405180910390a16001905090565b600660009054906101000a900473ffffffffffffffffffffffffffffffffffffffff1681565b600460019054906101000a900460ff1681565b60076020528060005260406000206000915090505481565b6000600254431015610a86576040517f08c379a0000000000000000000000000000000000000000000000000000000008152600401610a7d906113b1565b60405180910390fd5b600354431115610acb576040517f08c379a0000000000000000000000000000000000000000000000000000000008152600401610ac290611411565b60405180910390fd5b600460009054906101000a900460ff1615610b1b576040517f08c379a0000000000000000000000000000000000000000000000000000000008152600401610b1290611391565b60405180910390fd5b60008054906101000a900473ffffffffffffffffffffffffffffffffffffffff1673ffffffffffffffffffffffffffffffffffffffff163373ffffffffffffffffffffffffffffffffffffffff161415610baa576040517f08c379a0000000000000000000000000000000000000000000000000000000008152600401610ba1906113d1565b60405180910390fd5b60011515600860019054906101000a900473ffffffffffffffffffffffffffffffffffffffff1673ffffffffffffffffffffffffffffffffffffffff16635fb64fd6336040518263ffffffff1660e01b8152600401610c099190611230565b60206040518083038186803b158015610c2157600080fd5b505afa158015610c35573d6000803e3d6000fd5b505050506040513d601f19601f82011682018060405250810190610c5991906110e5565b151514610c9b576040517f08c379a0000000000000000000000000000000000000000000000000000000008152600401610c92906113f1565b60405180910390fd5b60003411610ca857600080fd5b600034600760003373ffffffffffffffffffffffffffffffffffffffff1673ffffffffffffffffffffffffffffffffffffffff16815260200190815260200160002054610cf5919061145d565b90506005548111610d0557600080fd5b600060076000600660009054906101000a900473ffffffffffffffffffffffffffffffffffffffff1673ffffffffffffffffffffffffffffffffffffffff1673ffffffffffffffffffffffffffffffffffffffff16815260200190815260200160002054905081600760003373ffffffffffffffffffffffffffffffffffffffff1673ffffffffffffffffffffffffffffffffffffffff16815260200190815260200160002081905550808211610dd857610dcd60015483610dc7919061145d565b82611076565b600581905550610e90565b600660009054906101000a900473ffffffffffffffffffffffffffffffffffffffff1673ffffffffffffffffffffffffffffffffffffffff163373ffffffffffffffffffffffffffffffffffffffff1614610e8c5733600660006101000a81548173ffffffffffffffffffffffffffffffffffffffff021916908373ffffffffffffffffffffffffffffffffffffffff160217905550610e858260015483610e80919061145d565b611076565b6005819055505b8190505b7fb43c338b56f8eaf5602553bfb22b47d8a01680cf19037072605b07d7c0947c723383600660009054906101000a900473ffffffffffffffffffffffffffffffffffffffff1684600554604051610eeb959493929190611282565b60405180910390a160019250505090565b60055481565b60008060009054906101000a900473ffffffffffffffffffffffffffffffffffffffff1673ffffffffffffffffffffffffffffffffffffffff163373ffffffffffffffffffffffffffffffffffffffff1614610f93576040517f08c379a0000000000000000000000000000000000000000000000000000000008152600401610f8a90611351565b60405180910390fd5b600354431115610fd8576040517f08c379a0000000000000000000000000000000000000000000000000000000008152600401610fcf90611411565b60405180910390fd5b600460009054906101000a900460ff1615611028576040517f08c379a000000000000000000000000000000000000000000000000000000000815260040161101f90611391565b60405180910390fd5b6001600460016101000a81548160ff0219169083151502179055507fa0e92984607195c326795751263414ee1074526323552e694c90ef2b99ae3f2960405160405180910390a16001905090565b6000818310156110885782905061108c565b8190505b92915050565b6000813590506110a1816116a3565b92915050565b6000815190506110b6816116ba565b92915050565b6000602082840312156110ce57600080fd5b60006110dc84828501611092565b91505092915050565b6000602082840312156110f757600080fd5b6000611105848285016110a7565b91505092915050565b611117816114e7565b82525050565b611126816114f9565b82525050565b6000611139600a8361144c565b91506111448261155e565b602082019050919050565b600061115c60178361144c565b915061116782611587565b602082019050919050565b600061117f60128361144c565b915061118a826115b0565b602082019050919050565b60006111a260168361144c565b91506111ad826115d9565b602082019050919050565b60006111c5600e8361144c565b91506111d082611602565b602082019050919050565b60006111e860318361144c565b91506111f38261162b565b604082019050919050565b600061120b60158361144c565b91506112168261167a565b602082019050919050565b61122a81611525565b82525050565b6000602082019050611245600083018461110e565b92915050565b6000606082019050611260600083018661110e565b61126d602083018561110e565b61127a6040830184611221565b949350505050565b600060a082019050611297600083018861110e565b6112a46020830187611221565b6112b1604083018661110e565b6112be6060830185611221565b6112cb6080830184611221565b9695505050505050565b600060c0820190506112ea600083018961110e565b6112f76020830188611221565b6113046040830187611221565b6113116060830186611221565b61131e608083018561110e565b61132b60a0830184611221565b979650505050505050565b600060208201905061134b600083018461111d565b92915050565b6000602082019050818103600083015261136a8161112c565b9050919050565b6000602082019050818103600083015261138a8161114f565b9050919050565b600060208201905081810360008301526113aa81611172565b9050919050565b600060208201905081810360008301526113ca81611195565b9050919050565b600060208201905081810360008301526113ea816111b8565b9050919050565b6000602082019050818103600083015261140a816111db565b9050919050565b6000602082019050818103600083015261142a816111fe565b9050919050565b60006020820190506114466000830184611221565b92915050565b600082825260208201905092915050565b600061146882611525565b915061147383611525565b9250827fffffffffffffffffffffffffffffffffffffffffffffffffffffffffffffffff038211156114a8576114a761152f565b5b828201905092915050565b60006114be82611525565b91506114c983611525565b9250828210156114dc576114db61152f565b5b828203905092915050565b60006114f282611505565b9050919050565b60008115159050919050565b600073ffffffffffffffffffffffffffffffffffffffff82169050919050565b6000819050919050565b7f4e487b7100000000000000000000000000000000000000000000000000000000600052601160045260246000fd5b7f4f6e6c79206f776e657200000000000000000000000000000000000000000000600082015250565b7f4f6e6c792063616e63656c6c6564206f7220656e646564000000000000000000600082015250565b7f4f6e6c79206e6f742063616e63656c6c65640000000000000000000000000000600082015250565b7f4f6e6c7920616674657220737461727420626c6f636b00000000000000000000600082015250565b7f4f6e6c79206e6f74206f776e6572000000000000000000000000000000000000600082015250565b7f4e6f7420617574686f72697a656420746f20706c6163652061206269642e205360008201527f69676e207570206f6e2050726f66696c65000000000000000000000000000000602082015250565b7f4f6e6c79206265666f726520656e6420626c6f636b0000000000000000000000600082015250565b6116ac816114e7565b81146116b757600080fd5b50565b6116c3816114f9565b81146116ce57600080fd5b5056fea2646970667358221220d190720c517d8f1625a79db486d4bcaaa9bce041059bbbabefb85977b4a6954e64736f6c63430008040033",
  "immutableReferences": {},
  "source": "pragma solidity ^0.8.4;\r\n\r\nimport \"./Profile.sol\";\r\nimport \"./RentalAgreement.sol\";\r\n\r\ncontract Auction {\r\n    // static\r\n    address _owner = msg.sender;\r\n    uint public minIncrement;\r\n    uint public startBlock;\r\n    uint public endBlock;\r\n\r\n    // state\r\n    bool public canceled;\r\n    bool public endedSuccessfully;\r\n    uint public highestBindingBid;\r\n    address public highestBidder;\r\n    mapping(address => uint256) public fundsByBidder;\r\n    bool ownerHasWithdrawn;\r\n\r\n    event BidReceived(address bidder, uint bid, address highestBidder, uint highestBid, uint highestBindingBid);\r\n    event WithdrawalDone(address withdrawer, address withdrawalAccount, uint amount);\r\n    event AuctionCancelled();\r\n    event AuctionEnded();\r\n\r\n    Profile profile;\r\n    RentalAgreement rentalAgreement;\r\n    address logsAddress;\r\n    uint256 logsId;\r\n\r\n    // receive address during deployment script\r\n    constructor(Profile _profile, RentalAgreement _rentalAgreement, address _logsAddress, uint256 _logsId, uint _minIncrement, uint _timeInDays) {\r\n        minIncrement = _minIncrement;\r\n        startBlock = block.timestamp;\r\n        endBlock = startBlock + (_timeInDays * 1 days);\r\n        rentalAgreement = _rentalAgreement;\r\n        profile = _profile;\r\n        logsAddress = _logsAddress;\r\n        logsId = _logsId;\r\n    }\r\n\r\n    function getHighestBid() public view\r\n        returns (uint)\r\n    {\r\n        return fundsByBidder[highestBidder];\r\n    }\r\n\r\n    function placeBid() public\r\n        payable\r\n        onlyAfterStart\r\n        onlyBeforeEnd\r\n        onlyNotCanceled\r\n        onlyNotOwner\r\n        returns (bool success)\r\n    {\r\n        require(profile.checkMembership(msg.sender) == true, \"Not authorized to place a bid. Sign up on Profile\");\r\n        // reject payments of 0 ETH\r\n        require(msg.value > 0);\r\n\r\n        uint newBid = fundsByBidder[msg.sender] + msg.value;\r\n        require(newBid > highestBindingBid);\r\n\r\n        // grab the previous highest bid (before updating fundsByBidder, in case msg.sender is the\r\n        // highestBidder and is just increasing their maximum bid).\r\n        uint highestBid = fundsByBidder[highestBidder];\r\n\r\n        fundsByBidder[msg.sender] = newBid;\r\n\r\n        if (newBid <= highestBid) {\r\n            highestBindingBid = min(newBid + minIncrement, highestBid);\r\n        } else {\r\n            if (msg.sender != highestBidder) {\r\n                highestBidder = msg.sender;\r\n                highestBindingBid = min(newBid, highestBid + minIncrement);\r\n            }\r\n            highestBid = newBid;\r\n        }\r\n\r\n        emit BidReceived(msg.sender, newBid, highestBidder, highestBid, highestBindingBid);\r\n        return true;\r\n    }\r\n\r\n    function min(uint a, uint b)\r\n        private pure\r\n        returns (uint)\r\n    {\r\n        if (a < b) return a;\r\n        return b;\r\n    }\r\n\r\n    function endAuction() public\r\n        onlyOwner\r\n        onlyBeforeEnd\r\n        onlyNotCanceled\r\n        returns (bool success)\r\n    {\r\n        endedSuccessfully = true;\r\n        emit AuctionEnded();\r\n        return true;\r\n    }\r\n\r\n    function cancelAuction() public\r\n        onlyOwner\r\n        onlyBeforeEnd\r\n        onlyNotCanceled\r\n        returns (bool success)\r\n    {\r\n        canceled = true;\r\n        emit AuctionCancelled();\r\n        return true;\r\n    }\r\n\r\n    function withdraw() public payable\r\n        onlyEndedOrCanceled\r\n        returns (bool success)\r\n    {\r\n        address withdrawalAccount;\r\n        uint withdrawalAmount;\r\n\r\n        if (canceled) {\r\n            // if the auction was canceled, everyone should simply be allowed to withdraw their funds\r\n            withdrawalAccount = msg.sender;\r\n            withdrawalAmount = fundsByBidder[withdrawalAccount];\r\n\r\n        } else {\r\n            // the auction finished without being canceled\r\n\r\n            if (msg.sender == _owner) {\r\n                // the auction's owner should be allowed to withdraw the highestBindingBid\r\n                withdrawalAccount = highestBidder;\r\n                withdrawalAmount = highestBindingBid;\r\n                ownerHasWithdrawn = true;\r\n\r\n                // start a logistics contract with winner address\r\n                rentalAgreement.createRent(highestBidder, block.timestamp, block.timestamp + 7 days, highestBindingBid, logsAddress, logsId);\r\n            } else if (msg.sender == highestBidder) {\r\n                withdrawalAccount = highestBidder;\r\n                if (ownerHasWithdrawn) {\r\n                    withdrawalAmount = fundsByBidder[highestBidder];\r\n                } else {\r\n                    withdrawalAmount = fundsByBidder[highestBidder] - highestBindingBid;\r\n                }\r\n\r\n            } else {\r\n                withdrawalAccount = msg.sender;\r\n                withdrawalAmount = fundsByBidder[withdrawalAccount];\r\n            }\r\n        }\r\n\r\n        require(withdrawalAmount > 0);\r\n\r\n        fundsByBidder[withdrawalAccount] -= withdrawalAmount;\r\n\r\n        // send funds back\r\n        require(payable(msg.sender).send(withdrawalAmount));\r\n\r\n        emit WithdrawalDone(msg.sender, withdrawalAccount, withdrawalAmount);\r\n\r\n        return true;\r\n    }\r\n\r\n    modifier onlyOwner {\r\n        require(msg.sender == _owner, \"Only owner\");\r\n        _;\r\n    }\r\n\r\n    modifier onlyNotOwner {\r\n        require(msg.sender != _owner, \"Only not owner\");\r\n        _;\r\n    }\r\n\r\n    modifier onlyAfterStart {\r\n        require(block.number >= startBlock, \"Only after start block\");\r\n        _;\r\n    }\r\n\r\n    modifier onlyBeforeEnd {\r\n        require(block.number <= endBlock, \"Only before end block\");\r\n        _;\r\n    }\r\n\r\n    modifier onlyNotCanceled {\r\n        require(!canceled, \"Only not cancelled\");\r\n        _;\r\n    }\r\n\r\n    modifier onlyEndedOrCanceled {\r\n        require(block.timestamp > endBlock || endedSuccessfully || canceled, \"Only cancelled or ended\");\r\n        _;\r\n    }\r\n}\r\n",
  "sourcePath": "/Users/colin/Desktop/NFT_Marketplace/contracts/Auction.sol",
  "compiler": {
    "name": "solc",
    "version": "0.8.4+commit.c7e474f2.Emscripten.clang"
  },
  "schemaVersion": "3.3.2",
  "updatedAt": "2023-03-27T02:56:54.139Z",
  "devdoc": {
    "kind": "dev",
    "methods": {},
    "version": 1
  },
  "userdoc": {
    "kind": "user",
    "methods": {},
    "version": 1
  }
}