{
  "contractName": "Auction",
  "abi": [
    {
      "inputs": [
        {
          "internalType": "contract Profile",
          "name": "_profile",
          "type": "address"
        },
        {
          "internalType": "contract RentalAgreement",
          "name": "_rentalAgreement",
          "type": "address"
        },
        {
          "internalType": "uint256",
          "name": "_logsId",
          "type": "uint256"
        },
        {
          "internalType": "uint256",
          "name": "_minIncrement",
          "type": "uint256"
        },
        {
          "internalType": "uint256",
          "name": "_timeInDays",
          "type": "uint256"
        }
      ],
      "stateMutability": "nonpayable",
      "type": "constructor"
    },
    {
      "anonymous": false,
      "inputs": [],
      "name": "AuctionCancelled",
      "type": "event"
    },
    {
      "anonymous": false,
      "inputs": [],
      "name": "AuctionEnded",
      "type": "event"
    },
    {
      "anonymous": false,
      "inputs": [
        {
          "indexed": false,
          "internalType": "address",
          "name": "bidder",
          "type": "address"
        },
        {
          "indexed": false,
          "internalType": "uint256",
          "name": "bid",
          "type": "uint256"
        },
        {
          "indexed": false,
          "internalType": "address",
          "name": "highestBidder",
          "type": "address"
        },
        {
          "indexed": false,
          "internalType": "uint256",
          "name": "highestBid",
          "type": "uint256"
        },
        {
          "indexed": false,
          "internalType": "uint256",
          "name": "highestBindingBid",
          "type": "uint256"
        }
      ],
      "name": "BidReceived",
      "type": "event"
    },
    {
      "anonymous": false,
      "inputs": [
        {
          "indexed": false,
          "internalType": "address",
          "name": "withdrawer",
          "type": "address"
        },
        {
          "indexed": false,
          "internalType": "address",
          "name": "withdrawalAccount",
          "type": "address"
        },
        {
          "indexed": false,
          "internalType": "uint256",
          "name": "amount",
          "type": "uint256"
        }
      ],
      "name": "WithdrawalDone",
      "type": "event"
    },
    {
      "inputs": [],
      "name": "canceled",
      "outputs": [
        {
          "internalType": "bool",
          "name": "",
          "type": "bool"
        }
      ],
      "stateMutability": "view",
      "type": "function",
      "constant": true
    },
    {
      "inputs": [],
      "name": "endBlock",
      "outputs": [
        {
          "internalType": "uint256",
          "name": "",
          "type": "uint256"
        }
      ],
      "stateMutability": "view",
      "type": "function",
      "constant": true
    },
    {
      "inputs": [],
      "name": "endedSuccessfully",
      "outputs": [
        {
          "internalType": "bool",
          "name": "",
          "type": "bool"
        }
      ],
      "stateMutability": "view",
      "type": "function",
      "constant": true
    },
    {
      "inputs": [
        {
          "internalType": "address",
          "name": "",
          "type": "address"
        }
      ],
      "name": "fundsByBidder",
      "outputs": [
        {
          "internalType": "uint256",
          "name": "",
          "type": "uint256"
        }
      ],
      "stateMutability": "view",
      "type": "function",
      "constant": true
    },
    {
      "inputs": [],
      "name": "highestBidder",
      "outputs": [
        {
          "internalType": "address",
          "name": "",
          "type": "address"
        }
      ],
      "stateMutability": "view",
      "type": "function",
      "constant": true
    },
    {
      "inputs": [],
      "name": "highestBindingBid",
      "outputs": [
        {
          "internalType": "uint256",
          "name": "",
          "type": "uint256"
        }
      ],
      "stateMutability": "view",
      "type": "function",
      "constant": true
    },
    {
      "inputs": [],
      "name": "minIncrement",
      "outputs": [
        {
          "internalType": "uint256",
          "name": "",
          "type": "uint256"
        }
      ],
      "stateMutability": "view",
      "type": "function",
      "constant": true
    },
    {
      "inputs": [],
      "name": "startBlock",
      "outputs": [
        {
          "internalType": "uint256",
          "name": "",
          "type": "uint256"
        }
      ],
      "stateMutability": "view",
      "type": "function",
      "constant": true
    },
    {
      "inputs": [],
      "name": "getHighestBid",
      "outputs": [
        {
          "internalType": "uint256",
          "name": "",
          "type": "uint256"
        }
      ],
      "stateMutability": "view",
      "type": "function",
      "constant": true
    },
    {
      "inputs": [],
      "name": "placeBid",
      "outputs": [
        {
          "internalType": "bool",
          "name": "success",
          "type": "bool"
        }
      ],
      "stateMutability": "payable",
      "type": "function",
      "payable": true
    },
    {
      "inputs": [],
      "name": "endAuction",
      "outputs": [
        {
          "internalType": "bool",
          "name": "success",
          "type": "bool"
        }
      ],
      "stateMutability": "nonpayable",
      "type": "function"
    },
    {
      "inputs": [],
      "name": "cancelAuction",
      "outputs": [
        {
          "internalType": "bool",
          "name": "success",
          "type": "bool"
        }
      ],
      "stateMutability": "nonpayable",
      "type": "function"
    },
    {
      "inputs": [],
      "name": "withdraw",
      "outputs": [
        {
          "internalType": "bool",
          "name": "success",
          "type": "bool"
        }
      ],
      "stateMutability": "payable",
      "type": "function",
      "payable": true
    }
  ],
  "bytecode": "0x6080604052336000806101000a81548173ffffffffffffffffffffffffffffffffffffffff021916908373ffffffffffffffffffffffffffffffffffffffff1602179055503480156200005157600080fd5b5060405162001a8c38038062001a8c833981810160405281019062000077919062000184565b8160018190555042600281905550620151808162000096919062000263565b600254620000a5919062000206565b60038190555083600960006101000a81548173ffffffffffffffffffffffffffffffffffffffff021916908373ffffffffffffffffffffffffffffffffffffffff16021790555084600860016101000a81548173ffffffffffffffffffffffffffffffffffffffff021916908373ffffffffffffffffffffffffffffffffffffffff16021790555082600b819055505050505050620003a7565b600081519050620001508162000359565b92915050565b600081519050620001678162000373565b92915050565b6000815190506200017e816200038d565b92915050565b600080600080600060a086880312156200019d57600080fd5b6000620001ad888289016200013f565b9550506020620001c08882890162000156565b9450506040620001d3888289016200016d565b9350506060620001e6888289016200016d565b9250506080620001f9888289016200016d565b9150509295509295909350565b6000620002138262000320565b9150620002208362000320565b9250827fffffffffffffffffffffffffffffffffffffffffffffffffffffffffffffffff038211156200025857620002576200032a565b5b828201905092915050565b6000620002708262000320565b91506200027d8362000320565b9250817fffffffffffffffffffffffffffffffffffffffffffffffffffffffffffffffff0483118215151615620002b957620002b86200032a565b5b828202905092915050565b6000620002d18262000300565b9050919050565b6000620002e582620002c4565b9050919050565b6000620002f982620002c4565b9050919050565b600073ffffffffffffffffffffffffffffffffffffffff82169050919050565b6000819050919050565b7f4e487b7100000000000000000000000000000000000000000000000000000000600052601160045260246000fd5b6200036481620002d8565b81146200037057600080fd5b50565b6200037e81620002ec565b81146200038a57600080fd5b50565b620003988162000320565b8114620003a457600080fd5b50565b6116d580620003b76000396000f3fe6080604052600436106100c25760003560e01c80638fa8b7901161007f578063ce10cf8011610059578063ce10cf801461023d578063ecfc7ecc1461027a578063f5b56c5614610298578063fe67a54b146102c3576100c2565b80638fa8b790146101bc57806391f90157146101e7578063c9a14dd214610212576100c2565b8063083c6323146100c75780633ccfd60b146100f25780633f9942ff1461011057806348cd4cb11461013b5780634979440a146101665780638afcb14d14610191575b600080fd5b3480156100d357600080fd5b506100dc6102ee565b6040516100e991906113ff565b60405180910390f35b6100fa6102f4565b6040516101079190611304565b60405180910390f35b34801561011c57600080fd5b506101256107ce565b6040516101329190611304565b60405180910390f35b34801561014757600080fd5b506101506107e1565b60405161015d91906113ff565b60405180910390f35b34801561017257600080fd5b5061017b6107e7565b60405161018891906113ff565b60405180910390f35b34801561019d57600080fd5b506101a6610850565b6040516101b391906113ff565b60405180910390f35b3480156101c857600080fd5b506101d1610856565b6040516101de9190611304565b60405180910390f35b3480156101f357600080fd5b506101fc6109ca565b604051610209919061120c565b60405180910390f35b34801561021e57600080fd5b506102276109f0565b6040516102349190611304565b60405180910390f35b34801561024957600080fd5b50610264600480360381019061025f9190611098565b610a03565b60405161027191906113ff565b60405180910390f35b610282610a1b565b60405161028f9190611304565b60405180910390f35b3480156102a457600080fd5b506102ad610ed8565b6040516102ba91906113ff565b60405180910390f35b3480156102cf57600080fd5b506102d8610ede565b6040516102e59190611304565b60405180910390f35b60035481565b60006003544211806103125750600460019054906101000a900460ff165b806103295750600460009054906101000a900460ff165b610368576040517f08c379a000000000000000000000000000000000000000000000000000000000815260040161035f9061133f565b60405180910390fd5b600080600460009054906101000a900460ff16156103ca57339150600760008373ffffffffffffffffffffffffffffffffffffffff1673ffffffffffffffffffffffffffffffffffffffff1681526020019081526020016000205490506106e9565b60008054906101000a900473ffffffffffffffffffffffffffffffffffffffff1673ffffffffffffffffffffffffffffffffffffffff163373ffffffffffffffffffffffffffffffffffffffff16141561053157600660009054906101000a900473ffffffffffffffffffffffffffffffffffffffff16915060055490506001600860006101000a81548160ff021916908315150217905550600960009054906101000a900473ffffffffffffffffffffffffffffffffffffffff1673ffffffffffffffffffffffffffffffffffffffff1663bfdfac84600660009054906101000a900473ffffffffffffffffffffffffffffffffffffffff164262093a80426104d4919061142b565b600554600b546040518663ffffffff1660e01b81526004016104fa9594939291906112b1565b600060405180830381600087803b15801561051457600080fd5b505af1158015610528573d6000803e3d6000fd5b505050506106e8565b600660009054906101000a900473ffffffffffffffffffffffffffffffffffffffff1673ffffffffffffffffffffffffffffffffffffffff163373ffffffffffffffffffffffffffffffffffffffff1614156106a157600660009054906101000a900473ffffffffffffffffffffffffffffffffffffffff169150600860009054906101000a900460ff161561062a5760076000600660009054906101000a900473ffffffffffffffffffffffffffffffffffffffff1673ffffffffffffffffffffffffffffffffffffffff1673ffffffffffffffffffffffffffffffffffffffff16815260200190815260200160002054905061069c565b60055460076000600660009054906101000a900473ffffffffffffffffffffffffffffffffffffffff1673ffffffffffffffffffffffffffffffffffffffff1673ffffffffffffffffffffffffffffffffffffffff168152602001908152602001600020546106999190611481565b90505b6106e7565b339150600760008373ffffffffffffffffffffffffffffffffffffffff1673ffffffffffffffffffffffffffffffffffffffff1681526020019081526020016000205490505b5b5b600081116106f657600080fd5b80600760008473ffffffffffffffffffffffffffffffffffffffff1673ffffffffffffffffffffffffffffffffffffffff16815260200190815260200160002060008282546107459190611481565b925050819055503373ffffffffffffffffffffffffffffffffffffffff166108fc829081150290604051600060405180830381858888f1935050505061078a57600080fd5b7f845a7ca1f32bbea0d19ac7d55d684b9eafc00256bed9f4ffc3def8bad106ec5a3383836040516107bd93929190611227565b60405180910390a160019250505090565b600460009054906101000a900460ff1681565b60025481565b600060076000600660009054906101000a900473ffffffffffffffffffffffffffffffffffffffff1673ffffffffffffffffffffffffffffffffffffffff1673ffffffffffffffffffffffffffffffffffffffff16815260200190815260200160002054905090565b60015481565b60008060009054906101000a900473ffffffffffffffffffffffffffffffffffffffff1673ffffffffffffffffffffffffffffffffffffffff163373ffffffffffffffffffffffffffffffffffffffff16146108e7576040517f08c379a00000000000000000000000000000000000000000000000000000000081526004016108de9061131f565b60405180910390fd5b60035443111561092c576040517f08c379a0000000000000000000000000000000000000000000000000000000008152600401610923906113df565b60405180910390fd5b600460009054906101000a900460ff161561097c576040517f08c379a00000000000000000000000000000000000000000000000000000000081526004016109739061135f565b60405180910390fd5b6001600460006101000a81548160ff0219169083151502179055507fa5fb31e47bd1eca58bf14a3312d5e6aeafdc4ee787c8ed348c15c2b092324d9360405160405180910390a16001905090565b600660009054906101000a900473ffffffffffffffffffffffffffffffffffffffff1681565b600460019054906101000a900460ff1681565b60076020528060005260406000206000915090505481565b6000600254431015610a62576040517f08c379a0000000000000000000000000000000000000000000000000000000008152600401610a599061137f565b60405180910390fd5b600354431115610aa7576040517f08c379a0000000000000000000000000000000000000000000000000000000008152600401610a9e906113df565b60405180910390fd5b600460009054906101000a900460ff1615610af7576040517f08c379a0000000000000000000000000000000000000000000000000000000008152600401610aee9061135f565b60405180910390fd5b60008054906101000a900473ffffffffffffffffffffffffffffffffffffffff1673ffffffffffffffffffffffffffffffffffffffff163373ffffffffffffffffffffffffffffffffffffffff161415610b86576040517f08c379a0000000000000000000000000000000000000000000000000000000008152600401610b7d9061139f565b60405180910390fd5b60011515600860019054906101000a900473ffffffffffffffffffffffffffffffffffffffff1673ffffffffffffffffffffffffffffffffffffffff16635fb64fd6336040518263ffffffff1660e01b8152600401610be5919061120c565b60206040518083038186803b158015610bfd57600080fd5b505afa158015610c11573d6000803e3d6000fd5b505050506040513d601f19601f82011682018060405250810190610c3591906110c1565b151514610c77576040517f08c379a0000000000000000000000000000000000000000000000000000000008152600401610c6e906113bf565b60405180910390fd5b60003411610c8457600080fd5b600034600760003373ffffffffffffffffffffffffffffffffffffffff1673ffffffffffffffffffffffffffffffffffffffff16815260200190815260200160002054610cd1919061142b565b90506005548111610ce157600080fd5b600060076000600660009054906101000a900473ffffffffffffffffffffffffffffffffffffffff1673ffffffffffffffffffffffffffffffffffffffff1673ffffffffffffffffffffffffffffffffffffffff16815260200190815260200160002054905081600760003373ffffffffffffffffffffffffffffffffffffffff1673ffffffffffffffffffffffffffffffffffffffff16815260200190815260200160002081905550808211610db457610da960015483610da3919061142b565b82611052565b600581905550610e6c565b600660009054906101000a900473ffffffffffffffffffffffffffffffffffffffff1673ffffffffffffffffffffffffffffffffffffffff163373ffffffffffffffffffffffffffffffffffffffff1614610e685733600660006101000a81548173ffffffffffffffffffffffffffffffffffffffff021916908373ffffffffffffffffffffffffffffffffffffffff160217905550610e618260015483610e5c919061142b565b611052565b6005819055505b8190505b7fb43c338b56f8eaf5602553bfb22b47d8a01680cf19037072605b07d7c0947c723383600660009054906101000a900473ffffffffffffffffffffffffffffffffffffffff1684600554604051610ec795949392919061125e565b60405180910390a160019250505090565b60055481565b60008060009054906101000a900473ffffffffffffffffffffffffffffffffffffffff1673ffffffffffffffffffffffffffffffffffffffff163373ffffffffffffffffffffffffffffffffffffffff1614610f6f576040517f08c379a0000000000000000000000000000000000000000000000000000000008152600401610f669061131f565b60405180910390fd5b600354431115610fb4576040517f08c379a0000000000000000000000000000000000000000000000000000000008152600401610fab906113df565b60405180910390fd5b600460009054906101000a900460ff1615611004576040517f08c379a0000000000000000000000000000000000000000000000000000000008152600401610ffb9061135f565b60405180910390fd5b6001600460016101000a81548160ff0219169083151502179055507fa0e92984607195c326795751263414ee1074526323552e694c90ef2b99ae3f2960405160405180910390a16001905090565b60008183101561106457829050611068565b8190505b92915050565b60008135905061107d81611671565b92915050565b60008151905061109281611688565b92915050565b6000602082840312156110aa57600080fd5b60006110b88482850161106e565b91505092915050565b6000602082840312156110d357600080fd5b60006110e184828501611083565b91505092915050565b6110f3816114b5565b82525050565b611102816114c7565b82525050565b6000611115600a8361141a565b91506111208261152c565b602082019050919050565b600061113860178361141a565b915061114382611555565b602082019050919050565b600061115b60128361141a565b91506111668261157e565b602082019050919050565b600061117e60168361141a565b9150611189826115a7565b602082019050919050565b60006111a1600e8361141a565b91506111ac826115d0565b602082019050919050565b60006111c460318361141a565b91506111cf826115f9565b604082019050919050565b60006111e760158361141a565b91506111f282611648565b602082019050919050565b611206816114f3565b82525050565b600060208201905061122160008301846110ea565b92915050565b600060608201905061123c60008301866110ea565b61124960208301856110ea565b61125660408301846111fd565b949350505050565b600060a08201905061127360008301886110ea565b61128060208301876111fd565b61128d60408301866110ea565b61129a60608301856111fd565b6112a760808301846111fd565b9695505050505050565b600060a0820190506112c660008301886110ea565b6112d360208301876111fd565b6112e060408301866111fd565b6112ed60608301856111fd565b6112fa60808301846111fd565b9695505050505050565b600060208201905061131960008301846110f9565b92915050565b6000602082019050818103600083015261133881611108565b9050919050565b600060208201905081810360008301526113588161112b565b9050919050565b600060208201905081810360008301526113788161114e565b9050919050565b6000602082019050818103600083015261139881611171565b9050919050565b600060208201905081810360008301526113b881611194565b9050919050565b600060208201905081810360008301526113d8816111b7565b9050919050565b600060208201905081810360008301526113f8816111da565b9050919050565b600060208201905061141460008301846111fd565b92915050565b600082825260208201905092915050565b6000611436826114f3565b9150611441836114f3565b9250827fffffffffffffffffffffffffffffffffffffffffffffffffffffffffffffffff03821115611476576114756114fd565b5b828201905092915050565b600061148c826114f3565b9150611497836114f3565b9250828210156114aa576114a96114fd565b5b828203905092915050565b60006114c0826114d3565b9050919050565b60008115159050919050565b600073ffffffffffffffffffffffffffffffffffffffff82169050919050565b6000819050919050565b7f4e487b7100000000000000000000000000000000000000000000000000000000600052601160045260246000fd5b7f4f6e6c79206f776e657200000000000000000000000000000000000000000000600082015250565b7f4f6e6c792063616e63656c6c6564206f7220656e646564000000000000000000600082015250565b7f4f6e6c79206e6f742063616e63656c6c65640000000000000000000000000000600082015250565b7f4f6e6c7920616674657220737461727420626c6f636b00000000000000000000600082015250565b7f4f6e6c79206e6f74206f776e6572000000000000000000000000000000000000600082015250565b7f4e6f7420617574686f72697a656420746f20706c6163652061206269642e205360008201527f69676e207570206f6e2050726f66696c65000000000000000000000000000000602082015250565b7f4f6e6c79206265666f726520656e6420626c6f636b0000000000000000000000600082015250565b61167a816114b5565b811461168557600080fd5b50565b611691816114c7565b811461169c57600080fd5b5056fea2646970667358221220eacead462a3a83c5d05bdc99eee11d74f7eb2eb86d5da4012cd2f2a9c7f1012464736f6c63430008040033",
  "immutableReferences": {},
  "source": "pragma solidity ^0.8.4;\r\n\r\nimport \"./Profile.sol\";\r\nimport \"./RentalAgreement.sol\";\r\n\r\ncontract Auction {\r\n    // static\r\n    address _owner = msg.sender;\r\n    uint256 public minIncrement;\r\n    uint256 public startBlock;\r\n    uint256 public endBlock;\r\n\r\n    // state\r\n    bool public canceled;\r\n    bool public endedSuccessfully;\r\n    uint256 public highestBindingBid;\r\n    address public highestBidder;\r\n    mapping(address => uint256) public fundsByBidder;\r\n    bool ownerHasWithdrawn;\r\n\r\n    event BidReceived(address bidder, uint256 bid, address highestBidder, uint256 highestBid, uint256 highestBindingBid);\r\n    event WithdrawalDone(address withdrawer, address withdrawalAccount, uint256 amount);\r\n    event AuctionCancelled();\r\n    event AuctionEnded();\r\n\r\n    Profile profile;\r\n    RentalAgreement rentalAgreement;\r\n    address logsAddress;\r\n    uint256 logsId;\r\n\r\n    // receive address during deployment script\r\n    constructor(Profile _profile, RentalAgreement _rentalAgreement, uint256 _logsId, uint256 _minIncrement, uint256 _timeInDays) {\r\n        minIncrement = _minIncrement;\r\n        startBlock = block.timestamp;\r\n        endBlock = startBlock + (_timeInDays * 1 days);\r\n        rentalAgreement = _rentalAgreement;\r\n        profile = _profile;\r\n        logsId = _logsId;\r\n    }\r\n\r\n    function getHighestBid() public view\r\n        returns (uint256)\r\n    {\r\n        return fundsByBidder[highestBidder];\r\n    }\r\n\r\n    function placeBid() public\r\n        payable\r\n        onlyAfterStart\r\n        onlyBeforeEnd\r\n        onlyNotCanceled\r\n        onlyNotOwner\r\n        returns (bool success)\r\n    {\r\n        require(profile.checkMembership(msg.sender) == true, \"Not authorized to place a bid. Sign up on Profile\");\r\n        // reject payments of 0 ETH\r\n        require(msg.value > 0);\r\n\r\n        uint256 newBid = fundsByBidder[msg.sender] + msg.value;\r\n        require(newBid > highestBindingBid);\r\n\r\n        // grab the previous highest bid (before updating fundsByBidder, in case msg.sender is the\r\n        // highestBidder and is just increasing their maximum bid).\r\n        uint256 highestBid = fundsByBidder[highestBidder];\r\n\r\n        fundsByBidder[msg.sender] = newBid;\r\n\r\n        if (newBid <= highestBid) {\r\n            highestBindingBid = min(newBid + minIncrement, highestBid);\r\n        } else {\r\n            if (msg.sender != highestBidder) {\r\n                highestBidder = msg.sender;\r\n                highestBindingBid = min(newBid, highestBid + minIncrement);\r\n            }\r\n            highestBid = newBid;\r\n        }\r\n\r\n        emit BidReceived(msg.sender, newBid, highestBidder, highestBid, highestBindingBid);\r\n        return true;\r\n    }\r\n\r\n    function min(uint256 a, uint256 b)\r\n        private pure\r\n        returns (uint256)\r\n    {\r\n        if (a < b) return a;\r\n        return b;\r\n    }\r\n\r\n    function endAuction() public\r\n        onlyOwner\r\n        onlyBeforeEnd\r\n        onlyNotCanceled\r\n        returns (bool success)\r\n    {\r\n        endedSuccessfully = true;\r\n        emit AuctionEnded();\r\n        return true;\r\n    }\r\n\r\n    function cancelAuction() public\r\n        onlyOwner\r\n        onlyBeforeEnd\r\n        onlyNotCanceled\r\n        returns (bool success)\r\n    {\r\n        canceled = true;\r\n        emit AuctionCancelled();\r\n        return true;\r\n    }\r\n\r\n    function withdraw() public payable\r\n        onlyEndedOrCanceled\r\n        returns (bool success)\r\n    {\r\n        address withdrawalAccount;\r\n        uint256 withdrawalAmount;\r\n\r\n        if (canceled) {\r\n            // if the auction was canceled, everyone should simply be allowed to withdraw their funds\r\n            withdrawalAccount = msg.sender;\r\n            withdrawalAmount = fundsByBidder[withdrawalAccount];\r\n\r\n        } else {\r\n            // the auction finished without being canceled\r\n\r\n            if (msg.sender == _owner) {\r\n                // the auction's owner should be allowed to withdraw the highestBindingBid\r\n                withdrawalAccount = highestBidder;\r\n                withdrawalAmount = highestBindingBid;\r\n                ownerHasWithdrawn = true;\r\n\r\n                // start a logistics contract with winner address\r\n                rentalAgreement.createRent(highestBidder, block.timestamp, block.timestamp + 7 days, highestBindingBid, logsId);\r\n            } else if (msg.sender == highestBidder) {\r\n                withdrawalAccount = highestBidder;\r\n                if (ownerHasWithdrawn) {\r\n                    withdrawalAmount = fundsByBidder[highestBidder];\r\n                } else {\r\n                    withdrawalAmount = fundsByBidder[highestBidder] - highestBindingBid;\r\n                }\r\n\r\n            } else {\r\n                withdrawalAccount = msg.sender;\r\n                withdrawalAmount = fundsByBidder[withdrawalAccount];\r\n            }\r\n        }\r\n\r\n        require(withdrawalAmount > 0);\r\n\r\n        fundsByBidder[withdrawalAccount] -= withdrawalAmount;\r\n\r\n        // send funds back\r\n        require(payable(msg.sender).send(withdrawalAmount));\r\n\r\n        emit WithdrawalDone(msg.sender, withdrawalAccount, withdrawalAmount);\r\n\r\n        return true;\r\n    }\r\n\r\n    modifier onlyOwner {\r\n        require(msg.sender == _owner, \"Only owner\");\r\n        _;\r\n    }\r\n\r\n    modifier onlyNotOwner {\r\n        require(msg.sender != _owner, \"Only not owner\");\r\n        _;\r\n    }\r\n\r\n    modifier onlyAfterStart {\r\n        require(block.number >= startBlock, \"Only after start block\");\r\n        _;\r\n    }\r\n\r\n    modifier onlyBeforeEnd {\r\n        require(block.number <= endBlock, \"Only before end block\");\r\n        _;\r\n    }\r\n\r\n    modifier onlyNotCanceled {\r\n        require(!canceled, \"Only not cancelled\");\r\n        _;\r\n    }\r\n\r\n    modifier onlyEndedOrCanceled {\r\n        require(block.timestamp > endBlock || endedSuccessfully || canceled, \"Only cancelled or ended\");\r\n        _;\r\n    }\r\n}\r\n",
  "sourcePath": "C:\\Users\\tingy\\Documents\\GitHub\\tt_contracts\\contracts\\Auction.sol",
  "compiler": {
    "name": "solc",
    "version": "0.8.4+commit.c7e474f2.Emscripten.clang"
  },
  "schemaVersion": "3.4.11",
  "updatedAt": "2023-03-27T14:29:48.861Z",
  "networkType": "ethereum",
  "devdoc": {
    "kind": "dev",
    "methods": {},
    "version": 1
  },
  "userdoc": {
    "kind": "user",
    "methods": {},
    "version": 1
  }
}