{
  "contractName": "DAO",
  "abi": [
    {
      "inputs": [
        {
          "internalType": "address",
          "name": "_profile",
          "type": "address"
        }
      ],
      "stateMutability": "nonpayable",
      "type": "constructor"
    },
    {
      "anonymous": false,
      "inputs": [
        {
          "indexed": false,
          "internalType": "uint256",
          "name": "proposalID",
          "type": "uint256"
        },
        {
          "indexed": false,
          "internalType": "address",
          "name": "voter",
          "type": "address"
        },
        {
          "indexed": false,
          "internalType": "uint256",
          "name": "votingPower",
          "type": "uint256"
        }
      ],
      "name": "EarnPoints",
      "type": "event"
    },
    {
      "anonymous": false,
      "inputs": [
        {
          "indexed": false,
          "internalType": "uint256",
          "name": "proposalID",
          "type": "uint256"
        },
        {
          "indexed": false,
          "internalType": "string",
          "name": "description",
          "type": "string"
        }
      ],
      "name": "ProposalAdded",
      "type": "event"
    },
    {
      "anonymous": false,
      "inputs": [
        {
          "indexed": false,
          "internalType": "uint256",
          "name": "proposalID",
          "type": "uint256"
        },
        {
          "indexed": false,
          "internalType": "address",
          "name": "voter",
          "type": "address"
        },
        {
          "indexed": false,
          "internalType": "bool",
          "name": "vote",
          "type": "bool"
        }
      ],
      "name": "Voted",
      "type": "event"
    },
    {
      "inputs": [],
      "name": "minimumVotes",
      "outputs": [
        {
          "internalType": "uint256",
          "name": "",
          "type": "uint256"
        }
      ],
      "stateMutability": "view",
      "type": "function",
      "constant": true
    },
    {
      "inputs": [],
      "name": "proposalIDCounter",
      "outputs": [
        {
          "internalType": "uint256",
          "name": "",
          "type": "uint256"
        }
      ],
      "stateMutability": "view",
      "type": "function",
      "constant": true
    },
    {
      "inputs": [
        {
          "internalType": "uint256",
          "name": "",
          "type": "uint256"
        }
      ],
      "name": "proposals",
      "outputs": [
        {
          "internalType": "uint256",
          "name": "proposalID",
          "type": "uint256"
        },
        {
          "internalType": "string",
          "name": "description",
          "type": "string"
        },
        {
          "internalType": "uint256",
          "name": "positiveVotes",
          "type": "uint256"
        },
        {
          "internalType": "uint256",
          "name": "negativeVotes",
          "type": "uint256"
        },
        {
          "internalType": "bool",
          "name": "passed",
          "type": "bool"
        }
      ],
      "stateMutability": "view",
      "type": "function",
      "constant": true
    },
    {
      "inputs": [
        {
          "internalType": "address",
          "name": "",
          "type": "address"
        }
      ],
      "name": "users",
      "outputs": [
        {
          "internalType": "bool",
          "name": "",
          "type": "bool"
        }
      ],
      "stateMutability": "view",
      "type": "function",
      "constant": true
    },
    {
      "inputs": [
        {
          "internalType": "string",
          "name": "description",
          "type": "string"
        }
      ],
      "name": "createProposal",
      "outputs": [],
      "stateMutability": "nonpayable",
      "type": "function"
    },
    {
      "inputs": [
        {
          "internalType": "uint256",
          "name": "proposalID",
          "type": "uint256"
        },
        {
          "internalType": "bool",
          "name": "choice",
          "type": "bool"
        }
      ],
      "name": "vote",
      "outputs": [],
      "stateMutability": "nonpayable",
      "type": "function"
    },
    {
      "inputs": [
        {
          "internalType": "uint256",
          "name": "proposalID",
          "type": "uint256"
        }
      ],
      "name": "endProposal",
      "outputs": [],
      "stateMutability": "nonpayable",
      "type": "function"
    }
  ],
  "bytecode": "0x608060405233600260006101000a81548173ffffffffffffffffffffffffffffffffffffffff021916908373ffffffffffffffffffffffffffffffffffffffff160217905550600060035560026004553480156200005c57600080fd5b50604051620015d2380380620015d28339818101604052810190620000829190620000e0565b806000806101000a81548173ffffffffffffffffffffffffffffffffffffffff021916908373ffffffffffffffffffffffffffffffffffffffff160217905550506200015a565b600081519050620000da8162000140565b92915050565b600060208284031215620000f357600080fd5b60006200010384828501620000c9565b91505092915050565b6000620001198262000120565b9050919050565b600073ffffffffffffffffffffffffffffffffffffffff82169050919050565b6200014b816200010c565b81146200015757600080fd5b50565b611468806200016a6000396000f3fe608060405234801561001057600080fd5b506004361061007d5760003560e01c806392f3a7e21161005b57806392f3a7e2146100f0578063a07bd4001461010e578063a87430ba1461012a578063c9d27afe1461015a5761007d565b8063013cf08b1461008257806349c2a1a6146100b65780636407e0d4146100d2575b600080fd5b61009c60048036038101906100979190610cc5565b610176565b6040516100ad959493929190611012565b60405180910390f35b6100d060048036038101906100cb9190610c84565b610251565b005b6100da610454565b6040516100e79190610f90565b60405180910390f35b6100f861045a565b6040516101059190610f90565b60405180910390f35b61012860048036038101906101239190610cc5565b610460565b005b610144600480360381019061013f9190610c32565b610634565b6040516101519190610eb5565b60405180910390f35b610174600480360381019061016f9190610cee565b610654565b005b6001818154811061018657600080fd5b90600052602060002090600502016000915090508060000154908060010180546101af906111d0565b80601f01602080910402602001604051908101604052809291908181526020018280546101db906111d0565b80156102285780601f106101fd57610100808354040283529160200191610228565b820191906000526020600020905b81548152906001019060200180831161020b57829003601f168201915b5050505050908060020154908060030154908060040160009054906101000a900460ff16905085565b6001151560008054906101000a900473ffffffffffffffffffffffffffffffffffffffff1673ffffffffffffffffffffffffffffffffffffffff16635fb64fd6336040518263ffffffff1660e01b81526004016102ae9190610e71565b60206040518083038186803b1580156102c657600080fd5b505afa1580156102da573d6000803e3d6000fd5b505050506040513d601f19601f820116820180604052508101906102fe9190610c5b565b151514610340576040517f08c379a000000000000000000000000000000000000000000000000000000000815260040161033790610f10565b60405180910390fd5b60006040518060a001604052806003548152602001838152602001600081526020016000815260200160001515815250905060016003600082825461038591906110de565b9250508190555060018190806001815401808255809150506001900390600052602060002090600502016000909190919091506000820151816000015560208201518160010190805190602001906103de929190610ad3565b50604082015181600201556060820151816003015560808201518160040160006101000a81548160ff02191690831515021790555050507ff970aa486598017b8116c2beb18c50d4584ecbc3c688817f59b26796725f31bf60035483604051610448929190610fe2565b60405180910390a15050565b60045481565b60035481565b600260009054906101000a900473ffffffffffffffffffffffffffffffffffffffff1673ffffffffffffffffffffffffffffffffffffffff163373ffffffffffffffffffffffffffffffffffffffff16146104f0576040517f08c379a00000000000000000000000000000000000000000000000000000000081526004016104e790610f70565b60405180910390fd5b6001805490508110610537576040517f08c379a000000000000000000000000000000000000000000000000000000000815260040161052e90610f50565b60405180910390fd5b600060018281548110610573577f4e487b7100000000000000000000000000000000000000000000000000000000600052603260045260246000fd5b9060005260206000209060050201905060008160030154826002015461059991906110de565b905060045481116105df576040517f08c379a00000000000000000000000000000000000000000000000000000000081526004016105d690610f30565b60405180910390fd5b8160030154826002015411156106115760018260040160006101000a81548160ff02191690831515021790555061062f565b60008260040160006101000a81548160ff0219169083151502179055505b505050565b60056020528060005260406000206000915054906101000a900460ff1681565b600180549050821061069b576040517f08c379a000000000000000000000000000000000000000000000000000000000815260040161069290610f50565b60405180910390fd5b60001515600183815481106106d9577f4e487b7100000000000000000000000000000000000000000000000000000000600052603260045260246000fd5b906000526020600020906005020160040160009054906101000a900460ff1615151461073a576040517f08c379a000000000000000000000000000000000000000000000000000000000815260040161073190610ed0565b60405180910390fd5b6001151560008054906101000a900473ffffffffffffffffffffffffffffffffffffffff1673ffffffffffffffffffffffffffffffffffffffff16635fb64fd6336040518263ffffffff1660e01b81526004016107979190610e71565b60206040518083038186803b1580156107af57600080fd5b505afa1580156107c3573d6000803e3d6000fd5b505050506040513d601f19601f820116820180604052508101906107e79190610c5b565b151514610829576040517f08c379a000000000000000000000000000000000000000000000000000000000815260040161082090610f10565b60405180910390fd5b60001515600660003373ffffffffffffffffffffffffffffffffffffffff1673ffffffffffffffffffffffffffffffffffffffff168152602001908152602001600020600084815260200190815260200160002060009054906101000a900460ff161515146108cd576040517f08c379a00000000000000000000000000000000000000000000000000000000081526004016108c490610ef0565b60405180910390fd5b801561093a57600180838154811061090e577f4e487b7100000000000000000000000000000000000000000000000000000000600052603260045260246000fd5b9060005260206000209060050201600201600082825461092e91906110de565b9250508190555061099d565b6001808381548110610975577f4e487b7100000000000000000000000000000000000000000000000000000000600052603260045260246000fd5b9060005260206000209060050201600301600082825461099591906110de565b925050819055505b6001600660003373ffffffffffffffffffffffffffffffffffffffff1673ffffffffffffffffffffffffffffffffffffffff168152602001908152602001600020600084815260200190815260200160002060006101000a81548160ff0219169083151502179055507ff2913dbe661ee2acc4a046d8fbcdc792373bda34c41c6086484b5345e5785e5f823383604051610a3993929190610fab565b60405180910390a160008054906101000a900473ffffffffffffffffffffffffffffffffffffffff1673ffffffffffffffffffffffffffffffffffffffff1663d909d5e33360026040518363ffffffff1660e01b8152600401610a9d929190610e8c565b600060405180830381600087803b158015610ab757600080fd5b505af1158015610acb573d6000803e3d6000fd5b505050505050565b828054610adf906111d0565b90600052602060002090601f016020900481019282610b015760008555610b48565b82601f10610b1a57805160ff1916838001178555610b48565b82800160010185558215610b48579182015b82811115610b47578251825591602001919060010190610b2c565b5b509050610b559190610b59565b5090565b5b80821115610b72576000816000905550600101610b5a565b5090565b6000610b89610b8484611091565b61106c565b905082815260208101848484011115610ba157600080fd5b610bac84828561118e565b509392505050565b600081359050610bc3816113ed565b92915050565b600081359050610bd881611404565b92915050565b600081519050610bed81611404565b92915050565b600082601f830112610c0457600080fd5b8135610c14848260208601610b76565b91505092915050565b600081359050610c2c8161141b565b92915050565b600060208284031215610c4457600080fd5b6000610c5284828501610bb4565b91505092915050565b600060208284031215610c6d57600080fd5b6000610c7b84828501610bde565b91505092915050565b600060208284031215610c9657600080fd5b600082013567ffffffffffffffff811115610cb057600080fd5b610cbc84828501610bf3565b91505092915050565b600060208284031215610cd757600080fd5b6000610ce584828501610c1d565b91505092915050565b60008060408385031215610d0157600080fd5b6000610d0f85828601610c1d565b9250506020610d2085828601610bc9565b9150509250929050565b610d3381611134565b82525050565b610d4281611146565b82525050565b610d518161117c565b82525050565b6000610d62826110c2565b610d6c81856110cd565b9350610d7c81856020860161119d565b610d85816112c0565b840191505092915050565b6000610d9d6012836110cd565b9150610da8826112d1565b602082019050919050565b6000610dc0600d836110cd565b9150610dcb826112fa565b602082019050919050565b6000610de36037836110cd565b9150610dee82611323565b604082019050919050565b6000610e066012836110cd565b9150610e1182611372565b602082019050919050565b6000610e296010836110cd565b9150610e348261139b565b602082019050919050565b6000610e4c600e836110cd565b9150610e57826113c4565b602082019050919050565b610e6b81611172565b82525050565b6000602082019050610e866000830184610d2a565b92915050565b6000604082019050610ea16000830185610d2a565b610eae6020830184610d48565b9392505050565b6000602082019050610eca6000830184610d39565b92915050565b60006020820190508181036000830152610ee981610d90565b9050919050565b60006020820190508181036000830152610f0981610db3565b9050919050565b60006020820190508181036000830152610f2981610dd6565b9050919050565b60006020820190508181036000830152610f4981610df9565b9050919050565b60006020820190508181036000830152610f6981610e1c565b9050919050565b60006020820190508181036000830152610f8981610e3f565b9050919050565b6000602082019050610fa56000830184610e62565b92915050565b6000606082019050610fc06000830186610e62565b610fcd6020830185610d2a565b610fda6040830184610d39565b949350505050565b6000604082019050610ff76000830185610e62565b81810360208301526110098184610d57565b90509392505050565b600060a0820190506110276000830188610e62565b81810360208301526110398187610d57565b90506110486040830186610e62565b6110556060830185610e62565b6110626080830184610d39565b9695505050505050565b6000611076611087565b90506110828282611202565b919050565b6000604051905090565b600067ffffffffffffffff8211156110ac576110ab611291565b5b6110b5826112c0565b9050602081019050919050565b600081519050919050565b600082825260208201905092915050565b60006110e982611172565b91506110f483611172565b9250827fffffffffffffffffffffffffffffffffffffffffffffffffffffffffffffffff0382111561112957611128611233565b5b828201905092915050565b600061113f82611152565b9050919050565b60008115159050919050565b600073ffffffffffffffffffffffffffffffffffffffff82169050919050565b6000819050919050565b600061118782611172565b9050919050565b82818337600083830152505050565b60005b838110156111bb5780820151818401526020810190506111a0565b838111156111ca576000848401525b50505050565b600060028204905060018216806111e857607f821691505b602082108114156111fc576111fb611262565b5b50919050565b61120b826112c0565b810181811067ffffffffffffffff8211171561122a57611229611291565b5b80604052505050565b7f4e487b7100000000000000000000000000000000000000000000000000000000600052601160045260246000fd5b7f4e487b7100000000000000000000000000000000000000000000000000000000600052602260045260246000fd5b7f4e487b7100000000000000000000000000000000000000000000000000000000600052604160045260246000fd5b6000601f19601f8301169050919050565b7f50726f706f73616c2068617320656e6465640000000000000000000000000000600082015250565b7f416c726561647920766f74656400000000000000000000000000000000000000600082015250565b7f4e6f7420617574686f72697a656420746f2063726561746520612070726f706f60008201527f73616c2e205369676e207570206f6e2050726f66696c65000000000000000000602082015250565b7f51756f72756d206e6f7420726561636865640000000000000000000000000000600082015250565b7f496e76616c69642070726f706f73616c00000000000000000000000000000000600082015250565b7f4e6f7420617574686f72697a6564000000000000000000000000000000000000600082015250565b6113f681611134565b811461140157600080fd5b50565b61140d81611146565b811461141857600080fd5b50565b61142481611172565b811461142f57600080fd5b5056fea264697066735822122012ba998ac62f495b1d100a1828560fc68eeca194d7207c27f364e3cb75aeb7f064736f6c63430008040033",
  "immutableReferences": {},
  "source": "pragma solidity ^0.8.4;\r\n\r\nimport \"./Profile.sol\";\r\n\r\ncontract DAO {\r\n    Profile profile;\r\n    struct Proposal {\r\n        uint256 proposalID;\r\n        string description;\r\n        uint256 positiveVotes;\r\n        uint256 negativeVotes;\r\n        bool passed;\r\n    }\r\n\r\n    Proposal[] public proposals;\r\n    address owner = msg.sender;\r\n    uint256 public proposalIDCounter = 0;\r\n    uint256 public minimumVotes = 2;\r\n    mapping(address => bool) public users;\r\n    mapping(address => mapping(uint256 => bool)) hasVoted;\r\n\r\n    event ProposalAdded(uint256 proposalID, string description);\r\n    event Voted(uint256 proposalID, address voter, bool vote);\r\n    event EarnPoints(uint256 proposalID, address voter, uint256 votingPower);\r\n    modifier onlyOwner() {\r\n        require(msg.sender == owner, \"Not authorized\");\r\n        _;\r\n    }\r\n\r\n    // receive address during deployment script\r\n    constructor(address _profile) public{\r\n        profile = Profile(_profile);\r\n    }\r\n\r\n\r\n    function createProposal(string memory description) public {\r\n        require(profile.checkMembership(msg.sender) == true, \"Not authorized to create a proposal. Sign up on Profile\");\r\n        Proposal memory newProposal = Proposal(\r\n            proposalIDCounter,\r\n            description,\r\n            0,\r\n            0,\r\n            false\r\n        );\r\n        proposalIDCounter += 1;\r\n        proposals.push(newProposal);\r\n        emit ProposalAdded(proposalIDCounter, description);\r\n    }\r\n\r\n    function vote(uint256 proposalID, bool choice) public {\r\n        require(proposalID < proposals.length, \"Invalid proposal\");\r\n        require(proposals[proposalID].passed == false, \"Proposal has ended\");\r\n\r\n        require(profile.checkMembership(msg.sender) == true, \"Not authorized to create a proposal. Sign up on Profile\");\r\n        require(hasVoted[msg.sender][proposalID] == false, \"Already voted\");\r\n        if (choice) {\r\n            proposals[proposalID].positiveVotes += 1;\r\n        } else {\r\n            proposals[proposalID].negativeVotes += 1;\r\n        }\r\n        hasVoted[msg.sender][proposalID] = true;\r\n        emit Voted(proposalID, msg.sender, choice);\r\n        profile.earnPoints(msg.sender, 2); //update points\r\n\r\n    }\r\n\r\n    function endProposal(uint256 proposalID) public onlyOwner {\r\n        require(proposalID < proposals.length, \"Invalid proposal\");\r\n\r\n        Proposal storage proposal = proposals[proposalID];\r\n        uint256 totalVotes = proposal.positiveVotes + proposal.negativeVotes;\r\n        require(totalVotes > minimumVotes, \"Quorum not reached\");\r\n        if (proposal.positiveVotes > proposal.negativeVotes) {\r\n            proposal.passed = true;\r\n        } else {\r\n            proposal.passed = false;\r\n        }\r\n    }\r\n}\r\n",
  "sourcePath": "C:\\Users\\tingy\\Documents\\GitHub\\tt_contracts\\contracts\\DAO.sol",
  "compiler": {
    "name": "solc",
    "version": "0.8.4+commit.c7e474f2.Emscripten.clang"
  },
  "schemaVersion": "3.4.11",
  "updatedAt": "2023-03-27T14:29:48.853Z",
  "networkType": "ethereum",
  "devdoc": {
    "kind": "dev",
    "methods": {},
    "version": 1
  },
  "userdoc": {
    "kind": "user",
    "methods": {},
    "version": 1
  }
}