{
  "contractName": "DAO",
  "abi": [
    {
      "inputs": [
        {
          "internalType": "contract Profile",
          "name": "_profile",
          "type": "address"
        }
      ],
      "stateMutability": "nonpayable",
      "type": "constructor"
    },
    {
      "anonymous": false,
      "inputs": [
        {
          "indexed": false,
          "internalType": "uint256",
          "name": "proposalID",
          "type": "uint256"
        },
        {
          "indexed": false,
          "internalType": "string",
          "name": "description",
          "type": "string"
        }
      ],
      "name": "ProposalAdded",
      "type": "event"
    },
    {
      "anonymous": false,
      "inputs": [
        {
          "indexed": false,
          "internalType": "uint256",
          "name": "proposalID",
          "type": "uint256"
        },
        {
          "indexed": false,
          "internalType": "address",
          "name": "voter",
          "type": "address"
        },
        {
          "indexed": false,
          "internalType": "bool",
          "name": "vote",
          "type": "bool"
        }
      ],
      "name": "Voted",
      "type": "event"
    },
    {
      "inputs": [],
      "name": "minimumVotes",
      "outputs": [
        {
          "internalType": "uint256",
          "name": "",
          "type": "uint256"
        }
      ],
      "stateMutability": "view",
      "type": "function",
      "constant": true
    },
    {
      "inputs": [],
      "name": "proposalIDCounter",
      "outputs": [
        {
          "internalType": "uint256",
          "name": "",
          "type": "uint256"
        }
      ],
      "stateMutability": "view",
      "type": "function",
      "constant": true
    },
    {
      "inputs": [
        {
          "internalType": "uint256",
          "name": "",
          "type": "uint256"
        }
      ],
      "name": "proposals",
      "outputs": [
        {
          "internalType": "uint256",
          "name": "proposalID",
          "type": "uint256"
        },
        {
          "internalType": "string",
          "name": "description",
          "type": "string"
        },
        {
          "internalType": "uint256",
          "name": "positiveVotes",
          "type": "uint256"
        },
        {
          "internalType": "uint256",
          "name": "negativeVotes",
          "type": "uint256"
        },
        {
          "internalType": "bool",
          "name": "passed",
          "type": "bool"
        }
      ],
      "stateMutability": "view",
      "type": "function",
      "constant": true
    },
    {
      "inputs": [
        {
          "internalType": "address",
          "name": "",
          "type": "address"
        }
      ],
      "name": "users",
      "outputs": [
        {
          "internalType": "bool",
          "name": "",
          "type": "bool"
        }
      ],
      "stateMutability": "view",
      "type": "function",
      "constant": true
    },
    {
      "inputs": [
        {
          "internalType": "string",
          "name": "description",
          "type": "string"
        }
      ],
      "name": "createProposal",
      "outputs": [],
      "stateMutability": "nonpayable",
      "type": "function"
    },
    {
      "inputs": [
        {
          "internalType": "uint256",
          "name": "proposalID",
          "type": "uint256"
        },
        {
          "internalType": "bool",
          "name": "choice",
          "type": "bool"
        }
      ],
      "name": "vote",
      "outputs": [],
      "stateMutability": "nonpayable",
      "type": "function"
    },
    {
      "inputs": [
        {
          "internalType": "uint256",
          "name": "proposalID",
          "type": "uint256"
        }
      ],
      "name": "endProposal",
      "outputs": [],
      "stateMutability": "nonpayable",
      "type": "function"
    }
  ],
  "bytecode": "0x608060405233600160006101000a81548173ffffffffffffffffffffffffffffffffffffffff021916908373ffffffffffffffffffffffffffffffffffffffff1602179055506000600255600a6003553480156200005c57600080fd5b506040516200148c3803806200148c8339818101604052810190620000829190620000e1565b80600660006101000a81548173ffffffffffffffffffffffffffffffffffffffff021916908373ffffffffffffffffffffffffffffffffffffffff160217905550506200016f565b600081519050620000db8162000155565b92915050565b600060208284031215620000f457600080fd5b60006200010484828501620000ca565b91505092915050565b60006200011a8262000135565b9050919050565b60006200012e826200010d565b9050919050565b600073ffffffffffffffffffffffffffffffffffffffff82169050919050565b620001608162000121565b81146200016c57600080fd5b50565b61130d806200017f6000396000f3fe608060405234801561001057600080fd5b506004361061007d5760003560e01c806392f3a7e21161005b57806392f3a7e2146100f0578063a07bd4001461010e578063a87430ba1461012a578063c9d27afe1461015a5761007d565b8063013cf08b1461008257806349c2a1a6146100b65780636407e0d4146100d2575b600080fd5b61009c60048036038101906100979190610be4565b610176565b6040516100ad959493929190610ee0565b60405180910390f35b6100d060048036038101906100cb9190610ba3565b610251565b005b6100da610456565b6040516100e79190610e5e565b60405180910390f35b6100f861045c565b6040516101059190610e5e565b60405180910390f35b61012860048036038101906101239190610be4565b610462565b005b610144600480360381019061013f9190610b51565b610635565b6040516101519190610d88565b60405180910390f35b610174600480360381019061016f9190610c0d565b610655565b005b6000818154811061018657600080fd5b90600052602060002090600502016000915090508060000154908060010180546101af9061109e565b80601f01602080910402602001604051908101604052809291908181526020018280546101db9061109e565b80156102285780601f106101fd57610100808354040283529160200191610228565b820191906000526020600020905b81548152906001019060200180831161020b57829003601f168201915b5050505050908060020154908060030154908060040160009054906101000a900460ff16905085565b60011515600660009054906101000a900473ffffffffffffffffffffffffffffffffffffffff1673ffffffffffffffffffffffffffffffffffffffff16635fb64fd6336040518263ffffffff1660e01b81526004016102b09190610d6d565b60206040518083038186803b1580156102c857600080fd5b505afa1580156102dc573d6000803e3d6000fd5b505050506040513d601f19601f820116820180604052508101906103009190610b7a565b151514610342576040517f08c379a000000000000000000000000000000000000000000000000000000000815260040161033990610dde565b60405180910390fd5b60006040518060a00160405280600254815260200183815260200160008152602001600081526020016000151581525090506001600260008282546103879190610fac565b9250508190555060008190806001815401808255809150506001900390600052602060002090600502016000909190919091506000820151816000015560208201518160010190805190602001906103e09291906109f2565b50604082015181600201556060820151816003015560808201518160040160006101000a81548160ff02191690831515021790555050507ff970aa486598017b8116c2beb18c50d4584ecbc3c688817f59b26796725f31bf6002548360405161044a929190610eb0565b60405180910390a15050565b60035481565b60025481565b600160009054906101000a900473ffffffffffffffffffffffffffffffffffffffff1673ffffffffffffffffffffffffffffffffffffffff163373ffffffffffffffffffffffffffffffffffffffff16146104f2576040517f08c379a00000000000000000000000000000000000000000000000000000000081526004016104e990610e3e565b60405180910390fd5b6000805490508110610539576040517f08c379a000000000000000000000000000000000000000000000000000000000815260040161053090610e1e565b60405180910390fd5b6000808281548110610574577f4e487b7100000000000000000000000000000000000000000000000000000000600052603260045260246000fd5b9060005260206000209060050201905060008160030154826002015461059a9190610fac565b905060035481116105e0576040517f08c379a00000000000000000000000000000000000000000000000000000000081526004016105d790610dfe565b60405180910390fd5b8160030154826002015411156106125760018260040160006101000a81548160ff021916908315150217905550610630565b60008260040160006101000a81548160ff0219169083151502179055505b505050565b60046020528060005260406000206000915054906101000a900460ff1681565b60011515600660009054906101000a900473ffffffffffffffffffffffffffffffffffffffff1673ffffffffffffffffffffffffffffffffffffffff16635fb64fd6336040518263ffffffff1660e01b81526004016106b49190610d6d565b60206040518083038186803b1580156106cc57600080fd5b505afa1580156106e0573d6000803e3d6000fd5b505050506040513d601f19601f820116820180604052508101906107049190610b7a565b151514610746576040517f08c379a000000000000000000000000000000000000000000000000000000000815260040161073d90610dde565b60405180910390fd5b60001515600560003373ffffffffffffffffffffffffffffffffffffffff1673ffffffffffffffffffffffffffffffffffffffff168152602001908152602001600020600084815260200190815260200160002060009054906101000a900460ff161515146107ea576040517f08c379a00000000000000000000000000000000000000000000000000000000081526004016107e190610dbe565b60405180910390fd5b80156108585760016000838154811061082c577f4e487b7100000000000000000000000000000000000000000000000000000000600052603260045260246000fd5b9060005260206000209060050201600201600082825461084c9190610fac565b925050819055506108bc565b600160008381548110610894577f4e487b7100000000000000000000000000000000000000000000000000000000600052603260045260246000fd5b906000526020600020906005020160030160008282546108b49190610fac565b925050819055505b6001600560003373ffffffffffffffffffffffffffffffffffffffff1673ffffffffffffffffffffffffffffffffffffffff168152602001908152602001600020600084815260200190815260200160002060006101000a81548160ff0219169083151502179055507ff2913dbe661ee2acc4a046d8fbcdc792373bda34c41c6086484b5345e5785e5f82338360405161095893929190610e79565b60405180910390a1600660009054906101000a900473ffffffffffffffffffffffffffffffffffffffff1673ffffffffffffffffffffffffffffffffffffffff16638593234560026040518263ffffffff1660e01b81526004016109bc9190610da3565b600060405180830381600087803b1580156109d657600080fd5b505af11580156109ea573d6000803e3d6000fd5b505050505050565b8280546109fe9061109e565b90600052602060002090601f016020900481019282610a205760008555610a67565b82601f10610a3957805160ff1916838001178555610a67565b82800160010185558215610a67579182015b82811115610a66578251825591602001919060010190610a4b565b5b509050610a749190610a78565b5090565b5b80821115610a91576000816000905550600101610a79565b5090565b6000610aa8610aa384610f5f565b610f3a565b905082815260208101848484011115610ac057600080fd5b610acb84828561105c565b509392505050565b600081359050610ae281611292565b92915050565b600081359050610af7816112a9565b92915050565b600081519050610b0c816112a9565b92915050565b600082601f830112610b2357600080fd5b8135610b33848260208601610a95565b91505092915050565b600081359050610b4b816112c0565b92915050565b600060208284031215610b6357600080fd5b6000610b7184828501610ad3565b91505092915050565b600060208284031215610b8c57600080fd5b6000610b9a84828501610afd565b91505092915050565b600060208284031215610bb557600080fd5b600082013567ffffffffffffffff811115610bcf57600080fd5b610bdb84828501610b12565b91505092915050565b600060208284031215610bf657600080fd5b6000610c0484828501610b3c565b91505092915050565b60008060408385031215610c2057600080fd5b6000610c2e85828601610b3c565b9250506020610c3f85828601610ae8565b9150509250929050565b610c5281611002565b82525050565b610c6181611014565b82525050565b610c708161104a565b82525050565b6000610c8182610f90565b610c8b8185610f9b565b9350610c9b81856020860161106b565b610ca48161118e565b840191505092915050565b6000610cbc600d83610f9b565b9150610cc78261119f565b602082019050919050565b6000610cdf603783610f9b565b9150610cea826111c8565b604082019050919050565b6000610d02601283610f9b565b9150610d0d82611217565b602082019050919050565b6000610d25601083610f9b565b9150610d3082611240565b602082019050919050565b6000610d48600e83610f9b565b9150610d5382611269565b602082019050919050565b610d6781611040565b82525050565b6000602082019050610d826000830184610c49565b92915050565b6000602082019050610d9d6000830184610c58565b92915050565b6000602082019050610db86000830184610c67565b92915050565b60006020820190508181036000830152610dd781610caf565b9050919050565b60006020820190508181036000830152610df781610cd2565b9050919050565b60006020820190508181036000830152610e1781610cf5565b9050919050565b60006020820190508181036000830152610e3781610d18565b9050919050565b60006020820190508181036000830152610e5781610d3b565b9050919050565b6000602082019050610e736000830184610d5e565b92915050565b6000606082019050610e8e6000830186610d5e565b610e9b6020830185610c49565b610ea86040830184610c58565b949350505050565b6000604082019050610ec56000830185610d5e565b8181036020830152610ed78184610c76565b90509392505050565b600060a082019050610ef56000830188610d5e565b8181036020830152610f078187610c76565b9050610f166040830186610d5e565b610f236060830185610d5e565b610f306080830184610c58565b9695505050505050565b6000610f44610f55565b9050610f5082826110d0565b919050565b6000604051905090565b600067ffffffffffffffff821115610f7a57610f7961115f565b5b610f838261118e565b9050602081019050919050565b600081519050919050565b600082825260208201905092915050565b6000610fb782611040565b9150610fc283611040565b9250827fffffffffffffffffffffffffffffffffffffffffffffffffffffffffffffffff03821115610ff757610ff6611101565b5b828201905092915050565b600061100d82611020565b9050919050565b60008115159050919050565b600073ffffffffffffffffffffffffffffffffffffffff82169050919050565b6000819050919050565b600061105582611040565b9050919050565b82818337600083830152505050565b60005b8381101561108957808201518184015260208101905061106e565b83811115611098576000848401525b50505050565b600060028204905060018216806110b657607f821691505b602082108114156110ca576110c9611130565b5b50919050565b6110d98261118e565b810181811067ffffffffffffffff821117156110f8576110f761115f565b5b80604052505050565b7f4e487b7100000000000000000000000000000000000000000000000000000000600052601160045260246000fd5b7f4e487b7100000000000000000000000000000000000000000000000000000000600052602260045260246000fd5b7f4e487b7100000000000000000000000000000000000000000000000000000000600052604160045260246000fd5b6000601f19601f8301169050919050565b7f416c726561647920766f74656400000000000000000000000000000000000000600082015250565b7f4e6f7420617574686f72697a656420746f2063726561746520612070726f706f60008201527f73616c2e205369676e207570206f6e2050726f66696c65000000000000000000602082015250565b7f51756f72756d206e6f7420726561636865640000000000000000000000000000600082015250565b7f496e76616c69642070726f706f73616c00000000000000000000000000000000600082015250565b7f4e6f7420617574686f72697a6564000000000000000000000000000000000000600082015250565b61129b81611002565b81146112a657600080fd5b50565b6112b281611014565b81146112bd57600080fd5b50565b6112c981611040565b81146112d457600080fd5b5056fea2646970667358221220099043fe2f48c19c5cfcb91a5f57ee93b2a98d280020fe94aa85bfbaf3bbc20064736f6c63430008040033",
  "immutableReferences": {},
  "source": "pragma solidity ^0.8.4;\n\nimport \"./Profile.sol\";\n\ncontract DAO {\n    \n    struct Proposal {\n        uint256 proposalID;\n        string description;\n        uint256 positiveVotes;\n        uint256 negativeVotes;\n        bool passed;\n    }\n\n    Proposal[] public proposals;\n    address owner = msg.sender;\n    uint256 public proposalIDCounter = 0;\n    uint256 public minimumVotes = 10;\n    mapping(address => bool) public users;\n    mapping(address => mapping(uint256 => bool)) hasVoted;\n\n    event ProposalAdded(uint256 proposalID, string description);\n    event Voted(uint256 proposalID, address voter, bool vote);\n    modifier onlyOwner() {\n        require(msg.sender == owner, \"Not authorized\");\n        _;\n    }\n    Profile profile;\n\n    // receive address during deployment script\n    constructor(Profile _profile) {\n        profile = _profile;\n    }\n\n\n    function createProposal(string memory description) public {\n        require(profile.checkMembership(msg.sender) == true, \"Not authorized to create a proposal. Sign up on Profile\");\n        Proposal memory newProposal = Proposal(\n            proposalIDCounter,\n            description,\n            0,\n            0,\n            false\n        );\n        proposalIDCounter += 1;\n        proposals.push(newProposal);\n        emit ProposalAdded(proposalIDCounter, description);\n    }\n\n    function vote(uint256 proposalID, bool choice) public {\n        require(profile.checkMembership(msg.sender) == true, \"Not authorized to create a proposal. Sign up on Profile\");\n        require(hasVoted[msg.sender][proposalID] == false, \"Already voted\");\n        if (choice) {\n            proposals[proposalID].positiveVotes += 1;\n        } else {\n            proposals[proposalID].negativeVotes += 1;\n        }\n        hasVoted[msg.sender][proposalID] = true;\n        emit Voted(proposalID, msg.sender, choice);\n        profile.earnPoints(2); //update points\n\n    }\n\n    function endProposal(uint256 proposalID) public onlyOwner {\n        require(proposalID < proposals.length, \"Invalid proposal\");\n\n        Proposal storage proposal = proposals[proposalID];\n        uint256 totalVotes = proposal.positiveVotes + proposal.negativeVotes;\n        require(totalVotes > minimumVotes, \"Quorum not reached\");\n        if (proposal.positiveVotes > proposal.negativeVotes) {\n            proposal.passed = true;\n        } else {\n            proposal.passed = false;\n        }\n    }\n}\n",
  "sourcePath": "/Users/colin/Desktop/NFT_Marketplace/contracts/DAO.sol",
  "compiler": {
    "name": "solc",
    "version": "0.8.4+commit.c7e474f2.Emscripten.clang"
  },
  "schemaVersion": "3.3.2",
  "updatedAt": "2023-03-27T03:02:05.791Z",
  "networkType": "ethereum",
  "devdoc": {
    "kind": "dev",
    "methods": {},
    "version": 1
  },
  "userdoc": {
    "kind": "user",
    "methods": {},
    "version": 1
  }
}