{
  "contractName": "Event",
  "abi": [
    {
      "inputs": [
        {
          "internalType": "string[]",
          "name": "_categories",
          "type": "string[]"
        },
        {
          "internalType": "uint256[]",
          "name": "_categoryPrices",
          "type": "uint256[]"
        },
        {
          "internalType": "uint256[]",
          "name": "_categoryLimits",
          "type": "uint256[]"
        },
        {
          "internalType": "string",
          "name": "_eventName",
          "type": "string"
        },
        {
          "internalType": "string",
          "name": "_dateTime",
          "type": "string"
        },
        {
          "internalType": "string",
          "name": "_venue",
          "type": "string"
        },
        {
          "internalType": "uint256",
          "name": "_commission",
          "type": "uint256"
        },
        {
          "internalType": "uint256",
          "name": "_maxTicketPerAddress",
          "type": "uint256"
        },
        {
          "internalType": "string",
          "name": "_eventSymbol",
          "type": "string"
        }
      ],
      "stateMutability": "payable",
      "type": "constructor"
    },
    {
      "anonymous": false,
      "inputs": [
        {
          "indexed": true,
          "internalType": "address",
          "name": "owner",
          "type": "address"
        },
        {
          "indexed": true,
          "internalType": "address",
          "name": "approved",
          "type": "address"
        },
        {
          "indexed": true,
          "internalType": "uint256",
          "name": "tokenId",
          "type": "uint256"
        }
      ],
      "name": "Approval",
      "type": "event"
    },
    {
      "anonymous": false,
      "inputs": [
        {
          "indexed": true,
          "internalType": "address",
          "name": "owner",
          "type": "address"
        },
        {
          "indexed": true,
          "internalType": "address",
          "name": "operator",
          "type": "address"
        },
        {
          "indexed": false,
          "internalType": "bool",
          "name": "approved",
          "type": "bool"
        }
      ],
      "name": "ApprovalForAll",
      "type": "event"
    },
    {
      "anonymous": false,
      "inputs": [
        {
          "indexed": false,
          "internalType": "string",
          "name": "eventName",
          "type": "string"
        }
      ],
      "name": "EventCancelled",
      "type": "event"
    },
    {
      "anonymous": false,
      "inputs": [
        {
          "indexed": true,
          "internalType": "address",
          "name": "previousOwner",
          "type": "address"
        },
        {
          "indexed": true,
          "internalType": "address",
          "name": "newOwner",
          "type": "address"
        }
      ],
      "name": "OwnershipTransferred",
      "type": "event"
    },
    {
      "anonymous": false,
      "inputs": [
        {
          "indexed": false,
          "internalType": "address",
          "name": "buyer",
          "type": "address"
        },
        {
          "indexed": false,
          "internalType": "uint256",
          "name": "ticketID",
          "type": "uint256"
        }
      ],
      "name": "TicketPurchased",
      "type": "event"
    },
    {
      "anonymous": false,
      "inputs": [
        {
          "indexed": true,
          "internalType": "address",
          "name": "from",
          "type": "address"
        },
        {
          "indexed": true,
          "internalType": "address",
          "name": "to",
          "type": "address"
        },
        {
          "indexed": true,
          "internalType": "uint256",
          "name": "tokenId",
          "type": "uint256"
        }
      ],
      "name": "Transfer",
      "type": "event"
    },
    {
      "anonymous": false,
      "inputs": [
        {
          "indexed": false,
          "internalType": "uint256",
          "name": "tokenId",
          "type": "uint256"
        },
        {
          "indexed": false,
          "internalType": "address",
          "name": "user",
          "type": "address"
        }
      ],
      "name": "checkedIn",
      "type": "event"
    },
    {
      "anonymous": false,
      "inputs": [
        {
          "indexed": false,
          "internalType": "uint256",
          "name": "tokenId",
          "type": "uint256"
        },
        {
          "indexed": false,
          "internalType": "address",
          "name": "user",
          "type": "address"
        },
        {
          "indexed": false,
          "internalType": "uint256",
          "name": "price",
          "type": "uint256"
        }
      ],
      "name": "ticketListed",
      "type": "event"
    },
    {
      "anonymous": false,
      "inputs": [
        {
          "indexed": false,
          "internalType": "uint256",
          "name": "tokenId",
          "type": "uint256"
        },
        {
          "indexed": false,
          "internalType": "address",
          "name": "recipient",
          "type": "address"
        }
      ],
      "name": "ticketMinted",
      "type": "event"
    },
    {
      "anonymous": false,
      "inputs": [
        {
          "indexed": false,
          "internalType": "uint256",
          "name": "tokenId",
          "type": "uint256"
        },
        {
          "indexed": false,
          "internalType": "address",
          "name": "user",
          "type": "address"
        }
      ],
      "name": "ticketUnlisted",
      "type": "event"
    },
    {
      "inputs": [
        {
          "internalType": "address",
          "name": "to",
          "type": "address"
        },
        {
          "internalType": "uint256",
          "name": "tokenId",
          "type": "uint256"
        }
      ],
      "name": "approve",
      "outputs": [],
      "stateMutability": "nonpayable",
      "type": "function"
    },
    {
      "inputs": [
        {
          "internalType": "address",
          "name": "owner",
          "type": "address"
        }
      ],
      "name": "balanceOf",
      "outputs": [
        {
          "internalType": "uint256",
          "name": "",
          "type": "uint256"
        }
      ],
      "stateMutability": "view",
      "type": "function"
    },
    {
      "inputs": [],
      "name": "eventCancelled",
      "outputs": [
        {
          "internalType": "bool",
          "name": "",
          "type": "bool"
        }
      ],
      "stateMutability": "view",
      "type": "function"
    },
    {
      "inputs": [
        {
          "internalType": "uint256",
          "name": "tokenId",
          "type": "uint256"
        }
      ],
      "name": "getApproved",
      "outputs": [
        {
          "internalType": "address",
          "name": "",
          "type": "address"
        }
      ],
      "stateMutability": "view",
      "type": "function"
    },
    {
      "inputs": [
        {
          "internalType": "address",
          "name": "owner",
          "type": "address"
        },
        {
          "internalType": "address",
          "name": "operator",
          "type": "address"
        }
      ],
      "name": "isApprovedForAll",
      "outputs": [
        {
          "internalType": "bool",
          "name": "",
          "type": "bool"
        }
      ],
      "stateMutability": "view",
      "type": "function"
    },
    {
      "inputs": [],
      "name": "name",
      "outputs": [
        {
          "internalType": "string",
          "name": "",
          "type": "string"
        }
      ],
      "stateMutability": "view",
      "type": "function"
    },
    {
      "inputs": [],
      "name": "owner",
      "outputs": [
        {
          "internalType": "address",
          "name": "",
          "type": "address"
        }
      ],
      "stateMutability": "view",
      "type": "function"
    },
    {
      "inputs": [
        {
          "internalType": "uint256",
          "name": "tokenId",
          "type": "uint256"
        }
      ],
      "name": "ownerOf",
      "outputs": [
        {
          "internalType": "address",
          "name": "",
          "type": "address"
        }
      ],
      "stateMutability": "view",
      "type": "function"
    },
    {
      "inputs": [],
      "name": "renounceOwnership",
      "outputs": [],
      "stateMutability": "nonpayable",
      "type": "function"
    },
    {
      "inputs": [
        {
          "internalType": "address",
          "name": "from",
          "type": "address"
        },
        {
          "internalType": "address",
          "name": "to",
          "type": "address"
        },
        {
          "internalType": "uint256",
          "name": "tokenId",
          "type": "uint256"
        }
      ],
      "name": "safeTransferFrom",
      "outputs": [],
      "stateMutability": "nonpayable",
      "type": "function"
    },
    {
      "inputs": [
        {
          "internalType": "address",
          "name": "from",
          "type": "address"
        },
        {
          "internalType": "address",
          "name": "to",
          "type": "address"
        },
        {
          "internalType": "uint256",
          "name": "tokenId",
          "type": "uint256"
        },
        {
          "internalType": "bytes",
          "name": "data",
          "type": "bytes"
        }
      ],
      "name": "safeTransferFrom",
      "outputs": [],
      "stateMutability": "nonpayable",
      "type": "function"
    },
    {
      "inputs": [
        {
          "internalType": "address",
          "name": "operator",
          "type": "address"
        },
        {
          "internalType": "bool",
          "name": "approved",
          "type": "bool"
        }
      ],
      "name": "setApprovalForAll",
      "outputs": [],
      "stateMutability": "nonpayable",
      "type": "function"
    },
    {
      "inputs": [
        {
          "internalType": "bytes4",
          "name": "interfaceId",
          "type": "bytes4"
        }
      ],
      "name": "supportsInterface",
      "outputs": [
        {
          "internalType": "bool",
          "name": "",
          "type": "bool"
        }
      ],
      "stateMutability": "view",
      "type": "function"
    },
    {
      "inputs": [],
      "name": "symbol",
      "outputs": [
        {
          "internalType": "string",
          "name": "",
          "type": "string"
        }
      ],
      "stateMutability": "view",
      "type": "function"
    },
    {
      "inputs": [
        {
          "internalType": "uint256",
          "name": "",
          "type": "uint256"
        }
      ],
      "name": "ticketIDs",
      "outputs": [
        {
          "internalType": "address",
          "name": "organizer",
          "type": "address"
        },
        {
          "internalType": "address",
          "name": "ticketOwner",
          "type": "address"
        },
        {
          "internalType": "address",
          "name": "prevTicketOwner",
          "type": "address"
        },
        {
          "components": [
            {
              "internalType": "string",
              "name": "category",
              "type": "string"
            },
            {
              "internalType": "uint256",
              "name": "price",
              "type": "uint256"
            },
            {
              "internalType": "uint256",
              "name": "maxNumber",
              "type": "uint256"
            },
            {
              "internalType": "uint256",
              "name": "currentSupply",
              "type": "uint256"
            }
          ],
          "internalType": "struct Event.Category",
          "name": "category",
          "type": "tuple"
        },
        {
          "internalType": "uint256",
          "name": "currentPrice",
          "type": "uint256"
        },
        {
          "internalType": "bool",
          "name": "ticketListing",
          "type": "bool"
        },
        {
          "internalType": "bool",
          "name": "checkIn",
          "type": "bool"
        }
      ],
      "stateMutability": "view",
      "type": "function"
    },
    {
      "inputs": [
        {
          "internalType": "address",
          "name": "",
          "type": "address"
        }
      ],
      "name": "ticketsPerOwner",
      "outputs": [
        {
          "internalType": "uint256",
          "name": "",
          "type": "uint256"
        }
      ],
      "stateMutability": "view",
      "type": "function"
    },
    {
      "inputs": [
        {
          "internalType": "uint256",
          "name": "tokenId",
          "type": "uint256"
        }
      ],
      "name": "tokenURI",
      "outputs": [
        {
          "internalType": "string",
          "name": "",
          "type": "string"
        }
      ],
      "stateMutability": "view",
      "type": "function"
    },
    {
      "inputs": [
        {
          "internalType": "address",
          "name": "from",
          "type": "address"
        },
        {
          "internalType": "address",
          "name": "to",
          "type": "address"
        },
        {
          "internalType": "uint256",
          "name": "tokenId",
          "type": "uint256"
        }
      ],
      "name": "transferFrom",
      "outputs": [],
      "stateMutability": "nonpayable",
      "type": "function"
    },
    {
      "inputs": [
        {
          "internalType": "address",
          "name": "newOwner",
          "type": "address"
        }
      ],
      "name": "transferOwnership",
      "outputs": [],
      "stateMutability": "nonpayable",
      "type": "function"
    },
    {
      "inputs": [],
      "name": "getTotalSupply",
      "outputs": [
        {
          "internalType": "uint256",
          "name": "",
          "type": "uint256"
        }
      ],
      "stateMutability": "view",
      "type": "function"
    },
    {
      "inputs": [
        {
          "internalType": "string",
          "name": "category",
          "type": "string"
        }
      ],
      "name": "mint",
      "outputs": [
        {
          "internalType": "uint256",
          "name": "",
          "type": "uint256"
        }
      ],
      "stateMutability": "payable",
      "type": "function"
    },
    {
      "inputs": [],
      "name": "getEventStatus",
      "outputs": [
        {
          "internalType": "bool",
          "name": "",
          "type": "bool"
        }
      ],
      "stateMutability": "view",
      "type": "function"
    },
    {
      "inputs": [
        {
          "internalType": "uint256",
          "name": "id",
          "type": "uint256"
        }
      ],
      "name": "buyTicket",
      "outputs": [],
      "stateMutability": "payable",
      "type": "function"
    },
    {
      "inputs": [
        {
          "internalType": "uint256",
          "name": "id",
          "type": "uint256"
        },
        {
          "internalType": "address",
          "name": "newOwner",
          "type": "address"
        }
      ],
      "name": "transfer",
      "outputs": [],
      "stateMutability": "nonpayable",
      "type": "function"
    },
    {
      "inputs": [
        {
          "internalType": "uint256",
          "name": "id",
          "type": "uint256"
        }
      ],
      "name": "getPreviousOwner",
      "outputs": [
        {
          "internalType": "address",
          "name": "",
          "type": "address"
        }
      ],
      "stateMutability": "view",
      "type": "function"
    },
    {
      "inputs": [
        {
          "internalType": "string",
          "name": "category",
          "type": "string"
        }
      ],
      "name": "getCategoryInformation",
      "outputs": [
        {
          "internalType": "uint256",
          "name": "_price",
          "type": "uint256"
        },
        {
          "internalType": "uint256",
          "name": "_maxNumber",
          "type": "uint256"
        },
        {
          "internalType": "uint256",
          "name": "_currentSupply",
          "type": "uint256"
        }
      ],
      "stateMutability": "view",
      "type": "function"
    },
    {
      "inputs": [],
      "name": "getCommission",
      "outputs": [
        {
          "internalType": "uint256",
          "name": "",
          "type": "uint256"
        }
      ],
      "stateMutability": "view",
      "type": "function"
    },
    {
      "inputs": [],
      "name": "cancelEvent",
      "outputs": [],
      "stateMutability": "nonpayable",
      "type": "function"
    },
    {
      "inputs": [
        {
          "internalType": "uint256",
          "name": "id",
          "type": "uint256"
        }
      ],
      "name": "getTicketPrice",
      "outputs": [
        {
          "internalType": "uint256",
          "name": "",
          "type": "uint256"
        }
      ],
      "stateMutability": "view",
      "type": "function"
    }
  ],
  "bytecode": "0x608060405233600960006101000a81548173ffffffffffffffffffffffffffffffffffffffff021916908373ffffffffffffffffffffffffffffffffffffffff16021790555066470de4df820000601355735b38da6a701c568545dcfcb03fcb875f56beddc4601460006101000a81548173ffffffffffffffffffffffffffffffffffffffff021916908373ffffffffffffffffffffffffffffffffffffffff16021790555060405162005536380380620055368339818101604052810190620000ca919062000acb565b8581620000ec620000e06200064060201b60201c565b6200064860201b60201c565b6001808190555081600290805190602001906200010b9291906200070c565b508060039080519060200190620001249291906200070c565b50505088601990805190602001906200013f9291906200079d565b5087601a90805190602001906200015892919062000804565b5086601b90805190602001906200017192919062000804565b5085600d90805190602001906200018a9291906200070c565b5084600f9080519060200190620001a39291906200070c565b508360109080519060200190620001bc9291906200070c565b508060159080519060200190620001d59291906200070c565b5082601181905550816012819055506000600c8190555060006014806101000a81548160ff021916908315150217905550601a805490506019805490501462000255576040517f08c379a00000000000000000000000000000000000000000000000000000000081526004016200024c9062000d83565b60405180910390fd5b601b8054905060198054905014620002a4576040517f08c379a00000000000000000000000000000000000000000000000000000000081526004016200029b9062000d83565b60405180910390fd5b6000600b8190555060005b601980549050811015620005585760405180608001604052806019838154811062000303577f4e487b7100000000000000000000000000000000000000000000000000000000600052603260045260246000fd5b9060005260206000200180546200031a9062000f5d565b80601f0160208091040260200160405190810160405280929190818152602001828054620003489062000f5d565b8015620003995780601f106200036d5761010080835404028352916020019162000399565b820191906000526020600020905b8154815290600101906020018083116200037b57829003601f168201915b50505050508152602001601a8381548110620003de577f4e487b7100000000000000000000000000000000000000000000000000000000600052603260045260246000fd5b90600052602060002001548152602001601b838154811062000429577f4e487b7100000000000000000000000000000000000000000000000000000000600052603260045260246000fd5b9060005260206000200154815260200160008152506016601983815481106200047b577f4e487b7100000000000000000000000000000000000000000000000000000000600052603260045260246000fd5b9060005260206000200160405162000494919062000d53565b90815260200160405180910390206000820151816000019080519060200190620004c09291906200070c565b50602082015181600101556040820151816002015560608201518160030155905050601b81815481106200051d577f4e487b7100000000000000000000000000000000000000000000000000000000600052603260045260246000fd5b9060005260206000200154600b60008282546200053b919062000ec0565b9250508190555080806200054f9062000fc9565b915050620002af565b506000601460009054906101000a900473ffffffffffffffffffffffffffffffffffffffff1673ffffffffffffffffffffffffffffffffffffffff16601354604051620005a59062000d6c565b60006040518083038185875af1925050503d8060008114620005e4576040519150601f19603f3d011682016040523d82523d6000602084013e620005e9565b606091505b505090508062000630576040517f08c379a0000000000000000000000000000000000000000000000000000000008152600401620006279062000da5565b60405180910390fd5b5050505050505050505062001124565b600033905090565b60008060009054906101000a900473ffffffffffffffffffffffffffffffffffffffff169050816000806101000a81548173ffffffffffffffffffffffffffffffffffffffff021916908373ffffffffffffffffffffffffffffffffffffffff1602179055508173ffffffffffffffffffffffffffffffffffffffff168173ffffffffffffffffffffffffffffffffffffffff167f8be0079c531659141344cd1fd0a4f28419497f9722a3daafe3b4186f6b6457e060405160405180910390a35050565b8280546200071a9062000f5d565b90600052602060002090601f0160209004810192826200073e57600085556200078a565b82601f106200075957805160ff19168380011785556200078a565b828001600101855582156200078a579182015b82811115620007895782518255916020019190600101906200076c565b5b50905062000799919062000856565b5090565b828054828255906000526020600020908101928215620007f1579160200282015b82811115620007f0578251829080519060200190620007df9291906200070c565b5091602001919060010190620007be565b5b50905062000800919062000875565b5090565b82805482825590600052602060002090810192821562000843579160200282015b828111156200084257825182559160200191906001019062000825565b5b50905062000852919062000856565b5090565b5b808211156200087157600081600090555060010162000857565b5090565b5b808211156200089957600081816200088f91906200089d565b5060010162000876565b5090565b508054620008ab9062000f5d565b6000825580601f10620008bf5750620008e0565b601f016020900490600052602060002090810190620008df919062000856565b5b50565b6000620008fa620008f48462000df0565b62000dc7565b905080838252602082019050828560208602820111156200091a57600080fd5b60005b858110156200096957815167ffffffffffffffff8111156200093e57600080fd5b8086016200094d898262000a87565b855260208501945060208401935050506001810190506200091d565b5050509392505050565b60006200098a620009848462000e1f565b62000dc7565b90508083825260208201905082856020860282011115620009aa57600080fd5b60005b85811015620009de5781620009c3888262000ab4565b845260208401935060208301925050600181019050620009ad565b5050509392505050565b6000620009ff620009f98462000e4e565b62000dc7565b90508281526020810184848401111562000a1857600080fd5b62000a2584828562000f27565b509392505050565b600082601f83011262000a3f57600080fd5b815162000a51848260208601620008e3565b91505092915050565b600082601f83011262000a6c57600080fd5b815162000a7e84826020860162000973565b91505092915050565b600082601f83011262000a9957600080fd5b815162000aab848260208601620009e8565b91505092915050565b60008151905062000ac5816200110a565b92915050565b60008060008060008060008060006101208a8c03121562000aeb57600080fd5b60008a015167ffffffffffffffff81111562000b0657600080fd5b62000b148c828d0162000a2d565b99505060208a015167ffffffffffffffff81111562000b3257600080fd5b62000b408c828d0162000a5a565b98505060408a015167ffffffffffffffff81111562000b5e57600080fd5b62000b6c8c828d0162000a5a565b97505060608a015167ffffffffffffffff81111562000b8a57600080fd5b62000b988c828d0162000a87565b96505060808a015167ffffffffffffffff81111562000bb657600080fd5b62000bc48c828d0162000a87565b95505060a08a015167ffffffffffffffff81111562000be257600080fd5b62000bf08c828d0162000a87565b94505060c062000c038c828d0162000ab4565b93505060e062000c168c828d0162000ab4565b9250506101008a015167ffffffffffffffff81111562000c3557600080fd5b62000c438c828d0162000a87565b9150509295985092959850929598565b6000815462000c628162000f5d565b62000c6e818662000eb5565b9450600182166000811462000c8c576001811462000c9e5762000cd5565b60ff1983168652818601935062000cd5565b62000ca98562000e84565b60005b8381101562000ccd5781548189015260018201915060208101905062000cac565b838801955050505b50505092915050565b600062000ced60138362000ea4565b915062000cfa82620010b5565b602082019050919050565b600062000d14600f8362000ea4565b915062000d2182620010de565b602082019050919050565b600062000d3b60008362000e99565b915062000d488262001107565b600082019050919050565b600062000d61828462000c53565b915081905092915050565b600062000d798262000d2c565b9150819050919050565b6000602082019050818103600083015262000d9e8162000cde565b9050919050565b6000602082019050818103600083015262000dc08162000d05565b9050919050565b600062000dd362000de6565b905062000de1828262000f93565b919050565b6000604051905090565b600067ffffffffffffffff82111562000e0e5762000e0d62001075565b5b602082029050602081019050919050565b600067ffffffffffffffff82111562000e3d5762000e3c62001075565b5b602082029050602081019050919050565b600067ffffffffffffffff82111562000e6c5762000e6b62001075565b5b62000e7782620010a4565b9050602081019050919050565b60008190508160005260206000209050919050565b600081905092915050565b600082825260208201905092915050565b600081905092915050565b600062000ecd8262000f1d565b915062000eda8362000f1d565b9250827fffffffffffffffffffffffffffffffffffffffffffffffffffffffffffffffff0382111562000f125762000f1162001017565b5b828201905092915050565b6000819050919050565b60005b8381101562000f4757808201518184015260208101905062000f2a565b8381111562000f57576000848401525b50505050565b6000600282049050600182168062000f7657607f821691505b6020821081141562000f8d5762000f8c62001046565b5b50919050565b62000f9e82620010a4565b810181811067ffffffffffffffff8211171562000fc05762000fbf62001075565b5b80604052505050565b600062000fd68262000f1d565b91507fffffffffffffffffffffffffffffffffffffffffffffffffffffffffffffffff8214156200100c576200100b62001017565b5b600182019050919050565b7f4e487b7100000000000000000000000000000000000000000000000000000000600052601160045260246000fd5b7f4e487b7100000000000000000000000000000000000000000000000000000000600052602260045260246000fd5b7f4e487b7100000000000000000000000000000000000000000000000000000000600052604160045260246000fd5b6000601f19601f8301169050919050565b7f506c65617365206b657920696e20616761696e00000000000000000000000000600082015250565b7f5472616e73666572206661696c65640000000000000000000000000000000000600082015250565b50565b620011158162000f1d565b81146200112157600080fd5b50565b61440280620011346000396000f3fe6080604052600436106101c15760003560e01c806395d89b41116100f7578063d85d3d2711610095578063f06fc96111610064578063f06fc96114610677578063f2fde38b146106b4578063fa205f03146106dd578063fb6c95371461071c576101c1565b8063d85d3d27146105b4578063e1a494d1146105e4578063e65d6b491461060f578063e985e9c51461063a576101c1565b8063b7760c8f116100d1578063b7760c8f146104fa578063b88d4fde14610523578063c4e41b221461054c578063c87b56dd14610577576101c1565b806395d89b411461047b578063a22cb465146104a6578063b75b25ec146104cf576101c1565b806342842e0e1161016457806367dd74ca1161013e57806367dd74ca146103e057806370a08231146103fc578063715018a6146104395780638da5cb5b14610450576101c1565b806342842e0e146103375780634d07d5ab146103605780636352211e146103a3576101c1565b8063081812fc116101a0578063081812fc1461026b578063095ea7b3146102a857806323b872dd146102d15780632c921196146102fa576101c1565b806256856a146101c657806301ffc9a71461020357806306fdde0314610240575b600080fd5b3480156101d257600080fd5b506101ed60048036038101906101e891906131e9565b610733565b6040516101fa91906136e3565b60405180910390f35b34801561020f57600080fd5b5061022a60048036038101906102259190613156565b610783565b60405161023791906137e9565b60405180910390f35b34801561024c57600080fd5b50610255610865565b6040516102629190613804565b60405180910390f35b34801561027757600080fd5b50610292600480360381019061028d91906131e9565b6108f7565b60405161029f91906136e3565b60405180910390f35b3480156102b457600080fd5b506102cf60048036038101906102ca919061311a565b61093d565b005b3480156102dd57600080fd5b506102f860048036038101906102f39190613014565b610a55565b005b34801561030657600080fd5b50610321600480360381019061031c9190612faf565b610ab5565b60405161032e9190613ac6565b60405180910390f35b34801561034357600080fd5b5061035e60048036038101906103599190613014565b610acd565b005b34801561036c57600080fd5b50610387600480360381019061038291906131e9565b610aed565b60405161039a97969594939291906136fe565b60405180910390f35b3480156103af57600080fd5b506103ca60048036038101906103c591906131e9565b610c63565b6040516103d791906136e3565b60405180910390f35b6103fa60048036038101906103f591906131e9565b610cea565b005b34801561040857600080fd5b50610423600480360381019061041e9190612faf565b610efd565b6040516104309190613ac6565b60405180910390f35b34801561044557600080fd5b5061044e610fb5565b005b34801561045c57600080fd5b50610465610fc9565b60405161047291906136e3565b60405180910390f35b34801561048757600080fd5b50610490610ff2565b60405161049d9190613804565b60405180910390f35b3480156104b257600080fd5b506104cd60048036038101906104c891906130de565b611084565b005b3480156104db57600080fd5b506104e461109a565b6040516104f191906137e9565b60405180910390f35b34801561050657600080fd5b50610521600480360381019061051c9190613212565b6110af565b005b34801561052f57600080fd5b5061054a60048036038101906105459190613063565b611249565b005b34801561055857600080fd5b506105616112ab565b60405161056e9190613ac6565b60405180910390f35b34801561058357600080fd5b5061059e600480360381019061059991906131e9565b6112b5565b6040516105ab9190613804565b60405180910390f35b6105ce60048036038101906105c991906131a8565b61131d565b6040516105db9190613ac6565b60405180910390f35b3480156105f057600080fd5b506105f9611a7d565b60405161060691906137e9565b60405180910390f35b34801561061b57600080fd5b50610624611a8e565b6040516106319190613ac6565b60405180910390f35b34801561064657600080fd5b50610661600480360381019061065c9190612fd8565b611a98565b60405161066e91906137e9565b60405180910390f35b34801561068357600080fd5b5061069e600480360381019061069991906131e9565b611b2c565b6040516106ab9190613ac6565b60405180910390f35b3480156106c057600080fd5b506106db60048036038101906106d69190612faf565b611b5c565b005b3480156106e957600080fd5b5061070460048036038101906106ff91906131a8565b611be0565b60405161071393929190613b0a565b60405180910390f35b34801561072857600080fd5b50610731611c58565b005b600081600b54811061074457600080fd5b6017600084815260200190815260200160002060020160009054906101000a900473ffffffffffffffffffffffffffffffffffffffff16915050919050565b60007f80ac58cd000000000000000000000000000000000000000000000000000000007bffffffffffffffffffffffffffffffffffffffffffffffffffffffff1916827bffffffffffffffffffffffffffffffffffffffffffffffffffffffff1916148061084e57507f5b5e139f000000000000000000000000000000000000000000000000000000007bffffffffffffffffffffffffffffffffffffffffffffffffffffffff1916827bffffffffffffffffffffffffffffffffffffffffffffffffffffffff1916145b8061085e575061085d82611d52565b5b9050919050565b60606002805461087490613db3565b80601f01602080910402602001604051908101604052809291908181526020018280546108a090613db3565b80156108ed5780601f106108c2576101008083540402835291602001916108ed565b820191906000526020600020905b8154815290600101906020018083116108d057829003601f168201915b5050505050905090565b600061090282611dbc565b6006600083815260200190815260200160002060009054906101000a900473ffffffffffffffffffffffffffffffffffffffff169050919050565b600061094882610c63565b90508073ffffffffffffffffffffffffffffffffffffffff168373ffffffffffffffffffffffffffffffffffffffff1614156109b9576040517f08c379a00000000000000000000000000000000000000000000000000000000081526004016109b090613a26565b60405180910390fd5b8073ffffffffffffffffffffffffffffffffffffffff166109d8611e07565b73ffffffffffffffffffffffffffffffffffffffff161480610a075750610a0681610a01611e07565b611a98565b5b610a46576040517f08c379a0000000000000000000000000000000000000000000000000000000008152600401610a3d90613a46565b60405180910390fd5b610a508383611e0f565b505050565b610a66610a60611e07565b82611ec8565b610aa5576040517f08c379a0000000000000000000000000000000000000000000000000000000008152600401610a9c90613846565b60405180910390fd5b610ab0838383611f5d565b505050565b60186020528060005260406000206000915090505481565b610ae883838360405180602001604052806000815250611249565b505050565b60176020528060005260406000206000915090508060000160009054906101000a900473ffffffffffffffffffffffffffffffffffffffff16908060010160009054906101000a900473ffffffffffffffffffffffffffffffffffffffff16908060020160009054906101000a900473ffffffffffffffffffffffffffffffffffffffff169080600301604051806080016040529081600082018054610b9290613db3565b80601f0160208091040260200160405190810160405280929190818152602001828054610bbe90613db3565b8015610c0b5780601f10610be057610100808354040283529160200191610c0b565b820191906000526020600020905b815481529060010190602001808311610bee57829003601f168201915b505050505081526020016001820154815260200160028201548152602001600382015481525050908060070154908060080160009054906101000a900460ff16908060080160019054906101000a900460ff16905087565b600080610c6f83612257565b9050600073ffffffffffffffffffffffffffffffffffffffff168173ffffffffffffffffffffffffffffffffffffffff161415610ce1576040517f08c379a0000000000000000000000000000000000000000000000000000000008152600401610cd890613a06565b60405180910390fd5b80915050919050565b60148054906101000a900460ff1615610d38576040517f08c379a0000000000000000000000000000000000000000000000000000000008152600401610d2f90613946565b60405180910390fd5b6064601154610d479190613c72565b6001610d539190613c1c565b6017600083815260200190815260200160002060070154610d749190613ca3565b341015610db6576040517f08c379a0000000000000000000000000000000000000000000000000000000008152600401610dad90613926565b60405180910390fd5b7f0668f5b446eb814fe35b3206f43f14bd8567ba04ddaf7a3ee56516929ab22ccb3382604051610de79291906137c0565b60405180910390a1601460009054906101000a900473ffffffffffffffffffffffffffffffffffffffff1673ffffffffffffffffffffffffffffffffffffffff166108fc606460115434610e3b9190613ca3565b610e459190613c72565b9081150290604051600060405180830381858888f19350505050158015610e70573d6000803e3d6000fd5b50600960009054906101000a900473ffffffffffffffffffffffffffffffffffffffff1673ffffffffffffffffffffffffffffffffffffffff166108fc60176000848152602001908152602001600020600701549081150290604051600060405180830381858888f19350505050158015610eef573d6000803e3d6000fd5b50610efa81336110af565b50565b60008073ffffffffffffffffffffffffffffffffffffffff168273ffffffffffffffffffffffffffffffffffffffff161415610f6e576040517f08c379a0000000000000000000000000000000000000000000000000000000008152600401610f6590613986565b60405180910390fd5b600560008373ffffffffffffffffffffffffffffffffffffffff1673ffffffffffffffffffffffffffffffffffffffff168152602001908152602001600020549050919050565b610fbd612294565b610fc76000612312565b565b60008060009054906101000a900473ffffffffffffffffffffffffffffffffffffffff16905090565b60606003805461100190613db3565b80601f016020809104026020016040519081016040528092919081815260200182805461102d90613db3565b801561107a5780601f1061104f5761010080835404028352916020019161107a565b820191906000526020600020905b81548152906001019060200180831161105d57829003601f168201915b5050505050905090565b61109661108f611e07565b83836123d6565b5050565b600060148054906101000a900460ff16905090565b813373ffffffffffffffffffffffffffffffffffffffff166017600083815260200190815260200160002060010160009054906101000a900473ffffffffffffffffffffffffffffffffffffffff1673ffffffffffffffffffffffffffffffffffffffff1614611154576040517f08c379a000000000000000000000000000000000000000000000000000000000815260040161114b90613aa6565b60405180910390fd5b82600b54811061116357600080fd5b6017600085815260200190815260200160002060010160009054906101000a900473ffffffffffffffffffffffffffffffffffffffff166017600086815260200190815260200160002060020160006101000a81548173ffffffffffffffffffffffffffffffffffffffff021916908373ffffffffffffffffffffffffffffffffffffffff160217905550826017600086815260200190815260200160002060010160006101000a81548173ffffffffffffffffffffffffffffffffffffffff021916908373ffffffffffffffffffffffffffffffffffffffff16021790555050505050565b61125a611254611e07565b83611ec8565b611299576040517f08c379a000000000000000000000000000000000000000000000000000000000815260040161129090613846565b60405180910390fd5b6112a584848484612543565b50505050565b6000600b54905090565b60606112c082611dbc565b60006112ca61259f565b905060008151116112ea5760405180602001604052806000815250611315565b806112f4846125b6565b6040516020016113059291906136bf565b6040516020818303038152906040525b915050919050565b600060148054906101000a900460ff161561136d576040517f08c379a000000000000000000000000000000000000000000000000000000000815260040161136490613946565b60405180910390fd5b6012546001601860003373ffffffffffffffffffffffffffffffffffffffff1673ffffffffffffffffffffffffffffffffffffffff168152602001908152602001600020546113bc9190613c1c565b11156113fd576040517f08c379a00000000000000000000000000000000000000000000000000000000081526004016113f490613a66565b60405180910390fd5b60168260405161140d91906136a8565b908152602001604051809103902060020154600160168460405161143191906136a8565b90815260200160405180910390206003015461144d9190613c1c565b111561148e576040517f08c379a000000000000000000000000000000000000000000000000000000000815260040161148590613826565b60405180910390fd5b606460115461149d9190613c72565b60016114a99190613c1c565b6016836040516114b991906136a8565b9081526020016040518091039020600101546114d59190613ca3565b341015611517576040517f08c379a000000000000000000000000000000000000000000000000000000000815260040161150e906139c6565b60405180910390fd5b600160168360405161152991906136a8565b9081526020016040518091039020600301546115459190613c1c565b60168360405161155591906136a8565b9081526020016040518091039020600301819055506001600b600082825461157d9190613c1c565b9250508190555060006040518060e00160405280600960009054906101000a900473ffffffffffffffffffffffffffffffffffffffff1673ffffffffffffffffffffffffffffffffffffffff1681526020013373ffffffffffffffffffffffffffffffffffffffff168152602001600073ffffffffffffffffffffffffffffffffffffffff16815260200160168560405161161891906136a8565b908152602001604051809103902060405180608001604052908160008201805461164190613db3565b80601f016020809104026020016040519081016040528092919081815260200182805461166d90613db3565b80156116ba5780601f1061168f576101008083540402835291602001916116ba565b820191906000526020600020905b81548152906001019060200180831161169d57829003601f168201915b50505050508152602001600182015481526020016002820154815260200160038201548152505081526020016016856040516116f691906136a8565b908152602001604051809103902060010154815260200160001515815260200160001515815250905061172960086126da565b600061173560086126f0565b905061174133826126fe565b6001601860003373ffffffffffffffffffffffffffffffffffffffff1673ffffffffffffffffffffffffffffffffffffffff16815260200190815260200160002060008282546117919190613c1c565b92505081905550816017600083815260200190815260200160002060008201518160000160006101000a81548173ffffffffffffffffffffffffffffffffffffffff021916908373ffffffffffffffffffffffffffffffffffffffff16021790555060208201518160010160006101000a81548173ffffffffffffffffffffffffffffffffffffffff021916908373ffffffffffffffffffffffffffffffffffffffff16021790555060408201518160020160006101000a81548173ffffffffffffffffffffffffffffffffffffffff021916908373ffffffffffffffffffffffffffffffffffffffff16021790555060608201518160030160008201518160000190805190602001906118a6929190612dd3565b5060208201518160010155604082015181600201556060820151816003015550506080820151816007015560a08201518160080160006101000a81548160ff02191690831515021790555060c08201518160080160016101000a81548160ff0219169083151502179055509050506001600c60008282546119279190613c1c565b925050819055507f9ec02c5e083e56cec410042ba395689ccfa59f6658226bc10b2e26aac18f7236813360405161195f929190613ae1565b60405180910390a1601460009054906101000a900473ffffffffffffffffffffffffffffffffffffffff1673ffffffffffffffffffffffffffffffffffffffff166108fc6064601154346119b39190613ca3565b6119bd9190613c72565b9081150290604051600060405180830381858888f193505050501580156119e8573d6000803e3d6000fd5b50600960009054906101000a900473ffffffffffffffffffffffffffffffffffffffff1673ffffffffffffffffffffffffffffffffffffffff166108fc601686604051611a3591906136a8565b9081526020016040518091039020600101549081150290604051600060405180830381858888f19350505050158015611a72573d6000803e3d6000fd5b508092505050919050565b60148054906101000a900460ff1681565b6000601154905090565b6000600760008473ffffffffffffffffffffffffffffffffffffffff1673ffffffffffffffffffffffffffffffffffffffff16815260200190815260200160002060008373ffffffffffffffffffffffffffffffffffffffff1673ffffffffffffffffffffffffffffffffffffffff16815260200190815260200160002060009054906101000a900460ff16905092915050565b600081600b548110611b3d57600080fd5b6017600084815260200190815260200160002060070154915050919050565b611b64612294565b600073ffffffffffffffffffffffffffffffffffffffff168173ffffffffffffffffffffffffffffffffffffffff161415611bd4576040517f08c379a0000000000000000000000000000000000000000000000000000000008152600401611bcb90613886565b60405180910390fd5b611bdd81612312565b50565b6000806000601684604051611bf591906136a8565b908152602001604051809103902060010154601685604051611c1791906136a8565b908152602001604051809103902060020154601686604051611c3991906136a8565b9081526020016040518091039020600301549250925092509193909250565b3373ffffffffffffffffffffffffffffffffffffffff16600960009054906101000a900473ffffffffffffffffffffffffffffffffffffffff1673ffffffffffffffffffffffffffffffffffffffff1614611ce8576040517f08c379a0000000000000000000000000000000000000000000000000000000008152600401611cdf90613a86565b60405180910390fd5b60148054906101000a900460ff1615611d36576040517f08c379a0000000000000000000000000000000000000000000000000000000008152600401611d2d90613966565b60405180910390fd5b60016014806101000a81548160ff021916908315150217905550565b60007f01ffc9a7000000000000000000000000000000000000000000000000000000007bffffffffffffffffffffffffffffffffffffffffffffffffffffffff1916827bffffffffffffffffffffffffffffffffffffffffffffffffffffffff1916149050919050565b611dc58161271c565b611e04576040517f08c379a0000000000000000000000000000000000000000000000000000000008152600401611dfb90613a06565b60405180910390fd5b50565b600033905090565b816006600083815260200190815260200160002060006101000a81548173ffffffffffffffffffffffffffffffffffffffff021916908373ffffffffffffffffffffffffffffffffffffffff160217905550808273ffffffffffffffffffffffffffffffffffffffff16611e8283610c63565b73ffffffffffffffffffffffffffffffffffffffff167f8c5be1e5ebec7d5bd14f71427d1e84f3dd0314c0f7b2291e5b200ac8c7c3b92560405160405180910390a45050565b600080611ed483610c63565b90508073ffffffffffffffffffffffffffffffffffffffff168473ffffffffffffffffffffffffffffffffffffffff161480611f165750611f158185611a98565b5b80611f5457508373ffffffffffffffffffffffffffffffffffffffff16611f3c846108f7565b73ffffffffffffffffffffffffffffffffffffffff16145b91505092915050565b8273ffffffffffffffffffffffffffffffffffffffff16611f7d82610c63565b73ffffffffffffffffffffffffffffffffffffffff1614611fd3576040517f08c379a0000000000000000000000000000000000000000000000000000000008152600401611fca906138a6565b60405180910390fd5b600073ffffffffffffffffffffffffffffffffffffffff168273ffffffffffffffffffffffffffffffffffffffff161415612043576040517f08c379a000000000000000000000000000000000000000000000000000000000815260040161203a906138e6565b60405180910390fd5b612050838383600161275d565b8273ffffffffffffffffffffffffffffffffffffffff1661207082610c63565b73ffffffffffffffffffffffffffffffffffffffff16146120c6576040517f08c379a00000000000000000000000000000000000000000000000000000000081526004016120bd906138a6565b60405180910390fd5b6006600082815260200190815260200160002060006101000a81549073ffffffffffffffffffffffffffffffffffffffff02191690556001600560008573ffffffffffffffffffffffffffffffffffffffff1673ffffffffffffffffffffffffffffffffffffffff168152602001908152602001600020600082825403925050819055506001600560008473ffffffffffffffffffffffffffffffffffffffff1673ffffffffffffffffffffffffffffffffffffffff16815260200190815260200160002060008282540192505081905550816004600083815260200190815260200160002060006101000a81548173ffffffffffffffffffffffffffffffffffffffff021916908373ffffffffffffffffffffffffffffffffffffffff160217905550808273ffffffffffffffffffffffffffffffffffffffff168473ffffffffffffffffffffffffffffffffffffffff167fddf252ad1be2c89b69c2b068fc378daa952ba7f163c4a11628f55a4df523b3ef60405160405180910390a46122528383836001612763565b505050565b60006004600083815260200190815260200160002060009054906101000a900473ffffffffffffffffffffffffffffffffffffffff169050919050565b61229c611e07565b73ffffffffffffffffffffffffffffffffffffffff166122ba610fc9565b73ffffffffffffffffffffffffffffffffffffffff1614612310576040517f08c379a0000000000000000000000000000000000000000000000000000000008152600401612307906139e6565b60405180910390fd5b565b60008060009054906101000a900473ffffffffffffffffffffffffffffffffffffffff169050816000806101000a81548173ffffffffffffffffffffffffffffffffffffffff021916908373ffffffffffffffffffffffffffffffffffffffff1602179055508173ffffffffffffffffffffffffffffffffffffffff168173ffffffffffffffffffffffffffffffffffffffff167f8be0079c531659141344cd1fd0a4f28419497f9722a3daafe3b4186f6b6457e060405160405180910390a35050565b8173ffffffffffffffffffffffffffffffffffffffff168373ffffffffffffffffffffffffffffffffffffffff161415612445576040517f08c379a000000000000000000000000000000000000000000000000000000000815260040161243c90613906565b60405180910390fd5b80600760008573ffffffffffffffffffffffffffffffffffffffff1673ffffffffffffffffffffffffffffffffffffffff16815260200190815260200160002060008473ffffffffffffffffffffffffffffffffffffffff1673ffffffffffffffffffffffffffffffffffffffff16815260200190815260200160002060006101000a81548160ff0219169083151502179055508173ffffffffffffffffffffffffffffffffffffffff168373ffffffffffffffffffffffffffffffffffffffff167f17307eab39ab6107e8899845ad3d59bd9653f200f220920489ca2b5937696c318360405161253691906137e9565b60405180910390a3505050565b61254e848484611f5d565b61255a84848484612769565b612599576040517f08c379a000000000000000000000000000000000000000000000000000000000815260040161259090613866565b60405180910390fd5b50505050565b606060405180602001604052806000815250905090565b6060600060016125c584612900565b01905060008167ffffffffffffffff81111561260a577f4e487b7100000000000000000000000000000000000000000000000000000000600052604160045260246000fd5b6040519080825280601f01601f19166020018201604052801561263c5781602001600182028036833780820191505090505b509050600082602001820190505b6001156126cf578080600190039150507f3031323334353637383961626364656600000000000000000000000000000000600a86061a8153600a85816126b9577f4e487b7100000000000000000000000000000000000000000000000000000000600052601260045260246000fd5b04945060008514156126ca576126cf565b61264a565b819350505050919050565b6001816000016000828254019250508190555050565b600081600001549050919050565b612718828260405180602001604052806000815250612b37565b5050565b60008073ffffffffffffffffffffffffffffffffffffffff1661273e83612257565b73ffffffffffffffffffffffffffffffffffffffff1614159050919050565b50505050565b50505050565b600061278a8473ffffffffffffffffffffffffffffffffffffffff16612b92565b156128f3578373ffffffffffffffffffffffffffffffffffffffff1663150b7a026127b3611e07565b8786866040518563ffffffff1660e01b81526004016127d59493929190613774565b602060405180830381600087803b1580156127ef57600080fd5b505af192505050801561282057506040513d601f19601f8201168201806040525081019061281d919061317f565b60015b6128a3573d8060008114612850576040519150601f19603f3d011682016040523d82523d6000602084013e612855565b606091505b5060008151141561289b576040517f08c379a000000000000000000000000000000000000000000000000000000000815260040161289290613866565b60405180910390fd5b805181602001fd5b63150b7a0260e01b7bffffffffffffffffffffffffffffffffffffffffffffffffffffffff1916817bffffffffffffffffffffffffffffffffffffffffffffffffffffffff1916149150506128f8565b600190505b949350505050565b600080600090507a184f03e93ff9f4daa797ed6e38ed64bf6a1f0100000000000000008310612984577a184f03e93ff9f4daa797ed6e38ed64bf6a1f010000000000000000838161297a577f4e487b7100000000000000000000000000000000000000000000000000000000600052601260045260246000fd5b0492506040810190505b6d04ee2d6d415b85acef810000000083106129e7576d04ee2d6d415b85acef810000000083816129dd577f4e487b7100000000000000000000000000000000000000000000000000000000600052601260045260246000fd5b0492506020810190505b662386f26fc100008310612a3c57662386f26fc100008381612a32577f4e487b7100000000000000000000000000000000000000000000000000000000600052601260045260246000fd5b0492506010810190505b6305f5e1008310612a8b576305f5e1008381612a81577f4e487b7100000000000000000000000000000000000000000000000000000000600052601260045260246000fd5b0492506008810190505b6127108310612ad6576127108381612acc577f4e487b7100000000000000000000000000000000000000000000000000000000600052601260045260246000fd5b0492506004810190505b60648310612b1f5760648381612b15577f4e487b7100000000000000000000000000000000000000000000000000000000600052601260045260246000fd5b0492506002810190505b600a8310612b2e576001810190505b80915050919050565b612b418383612bb5565b612b4e6000848484612769565b612b8d576040517f08c379a0000000000000000000000000000000000000000000000000000000008152600401612b8490613866565b60405180910390fd5b505050565b6000808273ffffffffffffffffffffffffffffffffffffffff163b119050919050565b600073ffffffffffffffffffffffffffffffffffffffff168273ffffffffffffffffffffffffffffffffffffffff161415612c25576040517f08c379a0000000000000000000000000000000000000000000000000000000008152600401612c1c906139a6565b60405180910390fd5b612c2e8161271c565b15612c6e576040517f08c379a0000000000000000000000000000000000000000000000000000000008152600401612c65906138c6565b60405180910390fd5b612c7c60008383600161275d565b612c858161271c565b15612cc5576040517f08c379a0000000000000000000000000000000000000000000000000000000008152600401612cbc906138c6565b60405180910390fd5b6001600560008473ffffffffffffffffffffffffffffffffffffffff1673ffffffffffffffffffffffffffffffffffffffff16815260200190815260200160002060008282540192505081905550816004600083815260200190815260200160002060006101000a81548173ffffffffffffffffffffffffffffffffffffffff021916908373ffffffffffffffffffffffffffffffffffffffff160217905550808273ffffffffffffffffffffffffffffffffffffffff16600073ffffffffffffffffffffffffffffffffffffffff167fddf252ad1be2c89b69c2b068fc378daa952ba7f163c4a11628f55a4df523b3ef60405160405180910390a4612dcf600083836001612763565b5050565b828054612ddf90613db3565b90600052602060002090601f016020900481019282612e015760008555612e48565b82601f10612e1a57805160ff1916838001178555612e48565b82800160010185558215612e48579182015b82811115612e47578251825591602001919060010190612e2c565b5b509050612e559190612e59565b5090565b5b80821115612e72576000816000905550600101612e5a565b5090565b6000612e89612e8484613b66565b613b41565b905082815260208101848484011115612ea157600080fd5b612eac848285613d71565b509392505050565b6000612ec7612ec284613b97565b613b41565b905082815260208101848484011115612edf57600080fd5b612eea848285613d71565b509392505050565b600081359050612f0181614370565b92915050565b600081359050612f1681614387565b92915050565b600081359050612f2b8161439e565b92915050565b600081519050612f408161439e565b92915050565b600082601f830112612f5757600080fd5b8135612f67848260208601612e76565b91505092915050565b600082601f830112612f8157600080fd5b8135612f91848260208601612eb4565b91505092915050565b600081359050612fa9816143b5565b92915050565b600060208284031215612fc157600080fd5b6000612fcf84828501612ef2565b91505092915050565b60008060408385031215612feb57600080fd5b6000612ff985828601612ef2565b925050602061300a85828601612ef2565b9150509250929050565b60008060006060848603121561302957600080fd5b600061303786828701612ef2565b935050602061304886828701612ef2565b925050604061305986828701612f9a565b9150509250925092565b6000806000806080858703121561307957600080fd5b600061308787828801612ef2565b945050602061309887828801612ef2565b93505060406130a987828801612f9a565b925050606085013567ffffffffffffffff8111156130c657600080fd5b6130d287828801612f46565b91505092959194509250565b600080604083850312156130f157600080fd5b60006130ff85828601612ef2565b925050602061311085828601612f07565b9150509250929050565b6000806040838503121561312d57600080fd5b600061313b85828601612ef2565b925050602061314c85828601612f9a565b9150509250929050565b60006020828403121561316857600080fd5b600061317684828501612f1c565b91505092915050565b60006020828403121561319157600080fd5b600061319f84828501612f31565b91505092915050565b6000602082840312156131ba57600080fd5b600082013567ffffffffffffffff8111156131d457600080fd5b6131e084828501612f70565b91505092915050565b6000602082840312156131fb57600080fd5b600061320984828501612f9a565b91505092915050565b6000806040838503121561322557600080fd5b600061323385828601612f9a565b925050602061324485828601612ef2565b9150509250929050565b61325781613cfd565b82525050565b61326681613d0f565b82525050565b600061327782613bc8565b6132818185613bde565b9350613291818560208601613d80565b61329a81613ed2565b840191505092915050565b60006132b082613bd3565b6132ba8185613bef565b93506132ca818560208601613d80565b6132d381613ed2565b840191505092915050565b60006132e982613bd3565b6132f38185613c00565b9350613303818560208601613d80565b61330c81613ed2565b840191505092915050565b600061332282613bd3565b61332c8185613c11565b935061333c818560208601613d80565b80840191505092915050565b6000613355601983613c00565b915061336082613ee3565b602082019050919050565b6000613378602d83613c00565b915061338382613f0c565b604082019050919050565b600061339b603283613c00565b91506133a682613f5b565b604082019050919050565b60006133be602683613c00565b91506133c982613faa565b604082019050919050565b60006133e1602583613c00565b91506133ec82613ff9565b604082019050919050565b6000613404601c83613c00565b915061340f82614048565b602082019050919050565b6000613427602483613c00565b915061343282614071565b604082019050919050565b600061344a601983613c00565b9150613455826140c0565b602082019050919050565b600061346d600e83613c00565b9150613478826140e9565b602082019050919050565b6000613490601883613c00565b915061349b82614112565b602082019050919050565b60006134b3602083613c00565b91506134be8261413b565b602082019050919050565b60006134d6602983613c00565b91506134e182614164565b604082019050919050565b60006134f9602083613c00565b9150613504826141b3565b602082019050919050565b600061351c600e83613c00565b9150613527826141dc565b602082019050919050565b600061353f602083613c00565b915061354a82614205565b602082019050919050565b6000613562601883613c00565b915061356d8261422e565b602082019050919050565b6000613585602183613c00565b915061359082614257565b604082019050919050565b60006135a8603d83613c00565b91506135b3826142a6565b604082019050919050565b60006135cb601483613c00565b91506135d6826142f5565b602082019050919050565b60006135ee601d83613c00565b91506135f98261431e565b602082019050919050565b6000613611600e83613c00565b915061361c82614347565b602082019050919050565b6000608083016000830151848203600086015261364482826132a5565b9150506020830151613659602086018261368a565b50604083015161366c604086018261368a565b50606083015161367f606086018261368a565b508091505092915050565b61369381613d67565b82525050565b6136a281613d67565b82525050565b60006136b48284613317565b915081905092915050565b60006136cb8285613317565b91506136d78284613317565b91508190509392505050565b60006020820190506136f8600083018461324e565b92915050565b600060e082019050613713600083018a61324e565b613720602083018961324e565b61372d604083018861324e565b818103606083015261373f8187613627565b905061374e6080830186613699565b61375b60a083018561325d565b61376860c083018461325d565b98975050505050505050565b6000608082019050613789600083018761324e565b613796602083018661324e565b6137a36040830185613699565b81810360608301526137b5818461326c565b905095945050505050565b60006040820190506137d5600083018561324e565b6137e26020830184613699565b9392505050565b60006020820190506137fe600083018461325d565b92915050565b6000602082019050818103600083015261381e81846132de565b905092915050565b6000602082019050818103600083015261383f81613348565b9050919050565b6000602082019050818103600083015261385f8161336b565b9050919050565b6000602082019050818103600083015261387f8161338e565b9050919050565b6000602082019050818103600083015261389f816133b1565b9050919050565b600060208201905081810360008301526138bf816133d4565b9050919050565b600060208201905081810360008301526138df816133f7565b9050919050565b600060208201905081810360008301526138ff8161341a565b9050919050565b6000602082019050818103600083015261391f8161343d565b9050919050565b6000602082019050818103600083015261393f81613460565b9050919050565b6000602082019050818103600083015261395f81613483565b9050919050565b6000602082019050818103600083015261397f816134a6565b9050919050565b6000602082019050818103600083015261399f816134c9565b9050919050565b600060208201905081810360008301526139bf816134ec565b9050919050565b600060208201905081810360008301526139df8161350f565b9050919050565b600060208201905081810360008301526139ff81613532565b9050919050565b60006020820190508181036000830152613a1f81613555565b9050919050565b60006020820190508181036000830152613a3f81613578565b9050919050565b60006020820190508181036000830152613a5f8161359b565b9050919050565b60006020820190508181036000830152613a7f816135be565b9050919050565b60006020820190508181036000830152613a9f816135e1565b9050919050565b60006020820190508181036000830152613abf81613604565b9050919050565b6000602082019050613adb6000830184613699565b92915050565b6000604082019050613af66000830185613699565b613b03602083018461324e565b9392505050565b6000606082019050613b1f6000830186613699565b613b2c6020830185613699565b613b396040830184613699565b949350505050565b6000613b4b613b5c565b9050613b578282613de5565b919050565b6000604051905090565b600067ffffffffffffffff821115613b8157613b80613ea3565b5b613b8a82613ed2565b9050602081019050919050565b600067ffffffffffffffff821115613bb257613bb1613ea3565b5b613bbb82613ed2565b9050602081019050919050565b600081519050919050565b600081519050919050565b600082825260208201905092915050565b600082825260208201905092915050565b600082825260208201905092915050565b600081905092915050565b6000613c2782613d67565b9150613c3283613d67565b9250827fffffffffffffffffffffffffffffffffffffffffffffffffffffffffffffffff03821115613c6757613c66613e16565b5b828201905092915050565b6000613c7d82613d67565b9150613c8883613d67565b925082613c9857613c97613e45565b5b828204905092915050565b6000613cae82613d67565b9150613cb983613d67565b9250817fffffffffffffffffffffffffffffffffffffffffffffffffffffffffffffffff0483118215151615613cf257613cf1613e16565b5b828202905092915050565b6000613d0882613d47565b9050919050565b60008115159050919050565b60007fffffffff0000000000000000000000000000000000000000000000000000000082169050919050565b600073ffffffffffffffffffffffffffffffffffffffff82169050919050565b6000819050919050565b82818337600083830152505050565b60005b83811015613d9e578082015181840152602081019050613d83565b83811115613dad576000848401525b50505050565b60006002820490506001821680613dcb57607f821691505b60208210811415613ddf57613dde613e74565b5b50919050565b613dee82613ed2565b810181811067ffffffffffffffff82111715613e0d57613e0c613ea3565b5b80604052505050565b7f4e487b7100000000000000000000000000000000000000000000000000000000600052601160045260246000fd5b7f4e487b7100000000000000000000000000000000000000000000000000000000600052601260045260246000fd5b7f4e487b7100000000000000000000000000000000000000000000000000000000600052602260045260246000fd5b7f4e487b7100000000000000000000000000000000000000000000000000000000600052604160045260246000fd5b6000601f19601f8301169050919050565b7f45786365656465642043617465676f7279206d696e74696e6700000000000000600082015250565b7f4552433732313a2063616c6c6572206973206e6f7420746f6b656e206f776e6560008201527f72206f7220617070726f76656400000000000000000000000000000000000000602082015250565b7f4552433732313a207472616e7366657220746f206e6f6e20455243373231526560008201527f63656976657220696d706c656d656e7465720000000000000000000000000000602082015250565b7f4f776e61626c653a206e6577206f776e657220697320746865207a65726f206160008201527f6464726573730000000000000000000000000000000000000000000000000000602082015250565b7f4552433732313a207472616e736665722066726f6d20696e636f72726563742060008201527f6f776e6572000000000000000000000000000000000000000000000000000000602082015250565b7f4552433732313a20746f6b656e20616c7265616479206d696e74656400000000600082015250565b7f4552433732313a207472616e7366657220746f20746865207a65726f2061646460008201527f7265737300000000000000000000000000000000000000000000000000000000602082015250565b7f4552433732313a20617070726f766520746f2063616c6c657200000000000000600082015250565b7f6e6f7420656e6f75676820455448000000000000000000000000000000000000600082015250565b7f4576656e7420686173206265656e2063616e63656c6c65640000000000000000600082015250565b7f4576656e742068617320616c7265616479206265656e2063616e63656c6c6564600082015250565b7f4552433732313a2061646472657373207a65726f206973206e6f74206120766160008201527f6c6964206f776e65720000000000000000000000000000000000000000000000602082015250565b7f4552433732313a206d696e7420746f20746865207a65726f2061646472657373600082015250565b7f4e6f7420656e6f75676820455448000000000000000000000000000000000000600082015250565b7f4f776e61626c653a2063616c6c6572206973206e6f7420746865206f776e6572600082015250565b7f4552433732313a20696e76616c696420746f6b656e2049440000000000000000600082015250565b7f4552433732313a20617070726f76616c20746f2063757272656e74206f776e6560008201527f7200000000000000000000000000000000000000000000000000000000000000602082015250565b7f4552433732313a20617070726f76652063616c6c6572206973206e6f7420746f60008201527f6b656e206f776e6572206f7220617070726f76656420666f7220616c6c000000602082015250565b7f4578636565646564204d6178204d696e74696e67000000000000000000000000600082015250565b7f4e6f7420617574686f72697a656420746f2061646a7573742073616c65000000600082015250565b7f4e6f7420617574686f72697a6564000000000000000000000000000000000000600082015250565b61437981613cfd565b811461438457600080fd5b50565b61439081613d0f565b811461439b57600080fd5b50565b6143a781613d1b565b81146143b257600080fd5b50565b6143be81613d67565b81146143c957600080fd5b5056fea2646970667358221220fedc9ae25228bc8a6437b818fb71eb2e1a3e43213cacb56e65f90ce609e2def564736f6c63430008040033",
  "immutableReferences": {},
  "source": "pragma solidity ^0.8.4;\n\n\nimport \"@openzeppelin/contracts/token/ERC721/ERC721.sol\";\nimport \"@openzeppelin/contracts/utils/Counters.sol\";\nimport \"@openzeppelin/contracts/access/Ownable.sol\";\nimport \"@openzeppelin/contracts/security/ReentrancyGuard.sol\";\nimport \"@openzeppelin/contracts/token/ERC721/IERC721Receiver.sol\";\nimport \"@openzeppelin/contracts/token/ERC721/extensions/ERC721URIStorage.sol\"; //for ipfs\n\n\ncontract Event is Ownable, ReentrancyGuard, ERC721 {\n    using Counters for Counters.Counter;\n    Counters.Counter private _tokenIds;\n\n    address payable organizer = payable(msg.sender);\n    address payable platform; //create our own wallet to collect\n    uint256 ticketSupply;\n    uint256 currentTicketSupply;\n    string eventName;\n    string company;\n    string dateTime;\n    string venue;\n    uint256 commission;\n    uint256 maxTicketsPerAddress;\n    uint256 mintingPlatformFee = 0.02 ether;\n    address payable protocolRecipient =\n        payable(0x5B38Da6a701c568545dCfcB03FcB875f56beddC4); //arbitray address\n    bool public eventCancelled;\n\n    string eventSymbol;\n    mapping(string => Category) idToCategoryDetails;\n\n    struct Category {\n        string category;\n        uint256 price;\n        uint256 maxNumber;\n        uint256 currentSupply;\n    }\n\n    mapping(uint256 => Ticket) public ticketIDs;\n    mapping(address => uint256) public ticketsPerOwner;\n\n    struct Ticket {\n        address organizer;\n        address ticketOwner;\n        address prevTicketOwner;\n        Category category; //category within ticket\n        uint256 currentPrice;\n        bool ticketListing;\n        bool checkIn;\n    }\n\n    modifier isTicketOwner(uint256 ticketId) {\n        require(\n            ticketIDs[ticketId].ticketOwner == msg.sender,\n            \"Not authorized\"\n        );\n        _;\n    }\n\n    modifier isOrganizer() {\n        require(organizer == msg.sender, \"Not authorized to adjust sale\");\n        _;\n    }\n\n    string[] categories;\n    uint256[] categoryPrices;\n    uint256[] categoryLimits;\n\n    event ticketMinted(uint256 tokenId, address recipient);\n    event ticketListed(uint256 tokenId, address user, uint256 price);\n    event ticketUnlisted(uint256 tokenId, address user);\n    event checkedIn(uint256 tokenId, address user);\n    event TicketPurchased(address buyer, uint256 ticketID);\n    event EventCancelled(string eventName);\n\n    modifier validTicketId(uint256 id) {\n        require(id < ticketSupply);\n        _;\n    }\n\n    constructor(\n        string[] memory _categories,\n        uint256[] memory _categoryPrices,\n        uint256[] memory _categoryLimits,\n        string memory _eventName,\n        string memory _dateTime,\n        string memory _venue,\n        uint256 _commission,\n        uint256 _maxTicketPerAddress,\n        string memory _eventSymbol\n    ) public payable ERC721(_eventName, _eventSymbol) {\n        //\n        categories = _categories;\n        categoryPrices = _categoryPrices;\n        categoryLimits = _categoryLimits;\n\n        eventName = _eventName;\n        dateTime = _dateTime;\n        venue = _venue;\n        eventSymbol = _eventSymbol;\n        commission = _commission; //as a percentage\n        maxTicketsPerAddress = _maxTicketPerAddress;\n        currentTicketSupply = 0;\n        eventCancelled = false;\n\n        require(\n            categories.length == categoryPrices.length,\n            \"Please key in again\"\n        );\n        require(\n            categories.length == categoryLimits.length,\n            \"Please key in again\"\n        );\n        ticketSupply = 0;\n        for (uint256 i = 0; i < categories.length; i++) {\n            idToCategoryDetails[categories[i]] = Category(\n                categories[i],\n                categoryPrices[i],\n                categoryLimits[i],\n                0\n            );\n            ticketSupply += categoryLimits[i];\n        }\n\n        //transfer listing fee to platform\n        (bool success, ) = payable(protocolRecipient).call{\n            value: mintingPlatformFee\n        }(\"\");\n        require(success, \"Transfer failed\");\n    }\n\n    function getTotalSupply() public view returns (uint256) {\n        return ticketSupply;\n    }\n\n    function mint(string memory category)\n        public\n        payable\n        virtual\n        returns (uint256)\n    {\n        require(!eventCancelled, \"Event has been cancelled\");\n        require(\n            ticketsPerOwner[msg.sender] + 1 <= maxTicketsPerAddress,\n            \"Exceeded Max Minting\"\n        );\n        require(\n            idToCategoryDetails[category].currentSupply + 1 <=\n                idToCategoryDetails[category].maxNumber,\n            \"Exceeded Category minting\"\n        );\n        require(\n            msg.value >=\n                (idToCategoryDetails[category].price *\n                    (1 + (commission / 100))),\n            \"Not enough ETH\"\n        );\n        //if all conditions met, create the ticket, update category numbers\n        idToCategoryDetails[category].currentSupply =\n            idToCategoryDetails[category].currentSupply +\n            1;\n        ticketSupply += 1;\n        Ticket memory newTicket = Ticket(\n            organizer,\n            msg.sender,\n            address(0),\n            idToCategoryDetails[category],\n            idToCategoryDetails[category].price,\n            false,\n            false\n        );\n\n        _tokenIds.increment();\n        uint256 newItemId = _tokenIds.current();\n        _safeMint(msg.sender, newItemId);\n        ticketsPerOwner[msg.sender] += 1;\n        ticketIDs[newItemId] = newTicket;\n        currentTicketSupply += 1;\n        emit ticketMinted(newItemId, msg.sender);\n\n        //give commission over and money to owner\n        protocolRecipient.transfer((msg.value * commission) / 100);\n        organizer.transfer(idToCategoryDetails[category].price);\n\n        return newItemId; //get the newItemId\n    }\n\n    function getEventStatus() public view returns (bool) {\n        return eventCancelled;\n    }\n\n    function buyTicket(uint256 id) public payable {\n        require(!eventCancelled, \"Event has been cancelled\");\n        require(\n            msg.value >=\n                (ticketIDs[id].currentPrice * (1 + (commission / 100))),\n            \"not enough ETH\"\n        );\n        emit TicketPurchased(msg.sender, id);\n        protocolRecipient.transfer((msg.value * commission) / 100);\n        organizer.transfer(ticketIDs[id].currentPrice);\n        transfer(id, msg.sender);\n    }\n\n    function transfer(uint256 id, address newOwner)\n        public\n        isTicketOwner(id)\n        validTicketId(id)\n    {\n        ticketIDs[id].prevTicketOwner = ticketIDs[id].ticketOwner;\n        ticketIDs[id].ticketOwner = newOwner;\n    }\n\n    function getPreviousOwner(uint256 id)\n        public\n        view\n        validTicketId(id)\n        returns (address)\n    {\n        return ticketIDs[id].prevTicketOwner;\n    }\n\n    function getCategoryInformation(string memory category)\n        public\n        view\n        returns (\n            uint256 _price,\n            uint256 _maxNumber,\n            uint256 _currentSupply\n        )\n    {\n        return (\n            idToCategoryDetails[category].price,\n            idToCategoryDetails[category].maxNumber,\n            idToCategoryDetails[category].currentSupply\n        );\n    }\n\n    function getCommission() public view returns (uint256) {\n        return commission;\n    }\n\n    function cancelEvent() public isOrganizer {\n        require(!eventCancelled, \"Event has already been cancelled\");\n        eventCancelled = true;\n    }\n\n    function getTicketPrice(uint256 id)\n        public\n        view\n        validTicketId(id)\n        returns (uint256)\n    {\n        return ticketIDs[id].currentPrice;\n    }\n}\n",
  "sourcePath": "/Users/colin/Desktop/NFT_Marketplace/contracts/Event.sol",
  "compiler": {
    "name": "solc",
    "version": "0.8.4+commit.c7e474f2.Emscripten.clang"
  },
  "schemaVersion": "3.3.2",
  "updatedAt": "2023-03-27T02:56:54.204Z",
  "devdoc": {
    "kind": "dev",
    "methods": {
      "approve(address,uint256)": {
        "details": "See {IERC721-approve}."
      },
      "balanceOf(address)": {
        "details": "See {IERC721-balanceOf}."
      },
      "getApproved(uint256)": {
        "details": "See {IERC721-getApproved}."
      },
      "isApprovedForAll(address,address)": {
        "details": "See {IERC721-isApprovedForAll}."
      },
      "name()": {
        "details": "See {IERC721Metadata-name}."
      },
      "owner()": {
        "details": "Returns the address of the current owner."
      },
      "ownerOf(uint256)": {
        "details": "See {IERC721-ownerOf}."
      },
      "renounceOwnership()": {
        "details": "Leaves the contract without owner. It will not be possible to call `onlyOwner` functions anymore. Can only be called by the current owner. NOTE: Renouncing ownership will leave the contract without an owner, thereby removing any functionality that is only available to the owner."
      },
      "safeTransferFrom(address,address,uint256)": {
        "details": "See {IERC721-safeTransferFrom}."
      },
      "safeTransferFrom(address,address,uint256,bytes)": {
        "details": "See {IERC721-safeTransferFrom}."
      },
      "setApprovalForAll(address,bool)": {
        "details": "See {IERC721-setApprovalForAll}."
      },
      "supportsInterface(bytes4)": {
        "details": "See {IERC165-supportsInterface}."
      },
      "symbol()": {
        "details": "See {IERC721Metadata-symbol}."
      },
      "tokenURI(uint256)": {
        "details": "See {IERC721Metadata-tokenURI}."
      },
      "transferFrom(address,address,uint256)": {
        "details": "See {IERC721-transferFrom}."
      },
      "transferOwnership(address)": {
        "details": "Transfers ownership of the contract to a new account (`newOwner`). Can only be called by the current owner."
      }
    },
    "version": 1
  },
  "userdoc": {
    "kind": "user",
    "methods": {},
    "version": 1
  }
}