{
  "contractName": "Event",
  "abi": [
    {
      "inputs": [
        {
          "internalType": "address",
          "name": "_profile",
          "type": "address"
        },
        {
          "internalType": "string[]",
          "name": "_categories",
          "type": "string[]"
        },
        {
          "internalType": "uint256[]",
          "name": "_categoryPrices",
          "type": "uint256[]"
        },
        {
          "internalType": "uint256[]",
          "name": "_categoryLimits",
          "type": "uint256[]"
        },
        {
          "internalType": "string",
          "name": "_eventName",
          "type": "string"
        },
        {
          "internalType": "string",
          "name": "_eventSymbol",
          "type": "string"
        }
      ],
      "stateMutability": "payable",
      "type": "constructor"
    },
    {
      "anonymous": false,
      "inputs": [
        {
          "indexed": true,
          "internalType": "address",
          "name": "owner",
          "type": "address"
        },
        {
          "indexed": true,
          "internalType": "address",
          "name": "approved",
          "type": "address"
        },
        {
          "indexed": true,
          "internalType": "uint256",
          "name": "tokenId",
          "type": "uint256"
        }
      ],
      "name": "Approval",
      "type": "event"
    },
    {
      "anonymous": false,
      "inputs": [
        {
          "indexed": true,
          "internalType": "address",
          "name": "owner",
          "type": "address"
        },
        {
          "indexed": true,
          "internalType": "address",
          "name": "operator",
          "type": "address"
        },
        {
          "indexed": false,
          "internalType": "bool",
          "name": "approved",
          "type": "bool"
        }
      ],
      "name": "ApprovalForAll",
      "type": "event"
    },
    {
      "anonymous": false,
      "inputs": [
        {
          "indexed": true,
          "internalType": "address",
          "name": "from",
          "type": "address"
        },
        {
          "indexed": true,
          "internalType": "address",
          "name": "to",
          "type": "address"
        },
        {
          "indexed": true,
          "internalType": "uint256",
          "name": "tokenId",
          "type": "uint256"
        }
      ],
      "name": "Transfer",
      "type": "event"
    },
    {
      "inputs": [
        {
          "internalType": "address",
          "name": "to",
          "type": "address"
        },
        {
          "internalType": "uint256",
          "name": "tokenId",
          "type": "uint256"
        }
      ],
      "name": "approve",
      "outputs": [],
      "stateMutability": "nonpayable",
      "type": "function"
    },
    {
      "inputs": [
        {
          "internalType": "address",
          "name": "owner",
          "type": "address"
        }
      ],
      "name": "balanceOf",
      "outputs": [
        {
          "internalType": "uint256",
          "name": "",
          "type": "uint256"
        }
      ],
      "stateMutability": "view",
      "type": "function"
    },
    {
      "inputs": [
        {
          "internalType": "uint256",
          "name": "tokenId",
          "type": "uint256"
        }
      ],
      "name": "getApproved",
      "outputs": [
        {
          "internalType": "address",
          "name": "",
          "type": "address"
        }
      ],
      "stateMutability": "view",
      "type": "function"
    },
    {
      "inputs": [
        {
          "internalType": "address",
          "name": "owner",
          "type": "address"
        },
        {
          "internalType": "address",
          "name": "operator",
          "type": "address"
        }
      ],
      "name": "isApprovedForAll",
      "outputs": [
        {
          "internalType": "bool",
          "name": "",
          "type": "bool"
        }
      ],
      "stateMutability": "view",
      "type": "function"
    },
    {
      "inputs": [],
      "name": "name",
      "outputs": [
        {
          "internalType": "string",
          "name": "",
          "type": "string"
        }
      ],
      "stateMutability": "view",
      "type": "function"
    },
    {
      "inputs": [
        {
          "internalType": "uint256",
          "name": "tokenId",
          "type": "uint256"
        }
      ],
      "name": "ownerOf",
      "outputs": [
        {
          "internalType": "address",
          "name": "",
          "type": "address"
        }
      ],
      "stateMutability": "view",
      "type": "function"
    },
    {
      "inputs": [
        {
          "internalType": "address",
          "name": "from",
          "type": "address"
        },
        {
          "internalType": "address",
          "name": "to",
          "type": "address"
        },
        {
          "internalType": "uint256",
          "name": "tokenId",
          "type": "uint256"
        }
      ],
      "name": "safeTransferFrom",
      "outputs": [],
      "stateMutability": "nonpayable",
      "type": "function"
    },
    {
      "inputs": [
        {
          "internalType": "address",
          "name": "from",
          "type": "address"
        },
        {
          "internalType": "address",
          "name": "to",
          "type": "address"
        },
        {
          "internalType": "uint256",
          "name": "tokenId",
          "type": "uint256"
        },
        {
          "internalType": "bytes",
          "name": "data",
          "type": "bytes"
        }
      ],
      "name": "safeTransferFrom",
      "outputs": [],
      "stateMutability": "nonpayable",
      "type": "function"
    },
    {
      "inputs": [
        {
          "internalType": "address",
          "name": "operator",
          "type": "address"
        },
        {
          "internalType": "bool",
          "name": "approved",
          "type": "bool"
        }
      ],
      "name": "setApprovalForAll",
      "outputs": [],
      "stateMutability": "nonpayable",
      "type": "function"
    },
    {
      "inputs": [
        {
          "internalType": "bytes4",
          "name": "interfaceId",
          "type": "bytes4"
        }
      ],
      "name": "supportsInterface",
      "outputs": [
        {
          "internalType": "bool",
          "name": "",
          "type": "bool"
        }
      ],
      "stateMutability": "view",
      "type": "function"
    },
    {
      "inputs": [],
      "name": "symbol",
      "outputs": [
        {
          "internalType": "string",
          "name": "",
          "type": "string"
        }
      ],
      "stateMutability": "view",
      "type": "function"
    },
    {
      "inputs": [
        {
          "internalType": "uint256",
          "name": "",
          "type": "uint256"
        }
      ],
      "name": "ticketCategories",
      "outputs": [
        {
          "internalType": "string",
          "name": "categoryName",
          "type": "string"
        },
        {
          "internalType": "uint256",
          "name": "price",
          "type": "uint256"
        },
        {
          "internalType": "uint256",
          "name": "supplyLimit",
          "type": "uint256"
        },
        {
          "internalType": "uint256",
          "name": "sold",
          "type": "uint256"
        }
      ],
      "stateMutability": "view",
      "type": "function"
    },
    {
      "inputs": [
        {
          "internalType": "uint256",
          "name": "",
          "type": "uint256"
        }
      ],
      "name": "ticketIDs",
      "outputs": [
        {
          "internalType": "address",
          "name": "organizer",
          "type": "address"
        },
        {
          "internalType": "address",
          "name": "ticketOwner",
          "type": "address"
        },
        {
          "internalType": "address",
          "name": "prevTicketOwner",
          "type": "address"
        },
        {
          "components": [
            {
              "internalType": "string",
              "name": "categoryName",
              "type": "string"
            },
            {
              "internalType": "uint256",
              "name": "price",
              "type": "uint256"
            },
            {
              "internalType": "uint256",
              "name": "supplyLimit",
              "type": "uint256"
            },
            {
              "internalType": "uint256",
              "name": "sold",
              "type": "uint256"
            }
          ],
          "internalType": "struct Event.TicketCategory",
          "name": "category",
          "type": "tuple"
        },
        {
          "internalType": "uint256",
          "name": "currentPrice",
          "type": "uint256"
        },
        {
          "internalType": "bool",
          "name": "ticketListing",
          "type": "bool"
        }
      ],
      "stateMutability": "view",
      "type": "function"
    },
    {
      "inputs": [
        {
          "internalType": "address",
          "name": "",
          "type": "address"
        }
      ],
      "name": "ticketsPerOwner",
      "outputs": [
        {
          "internalType": "uint256",
          "name": "",
          "type": "uint256"
        }
      ],
      "stateMutability": "view",
      "type": "function"
    },
    {
      "inputs": [
        {
          "internalType": "uint256",
          "name": "tokenId",
          "type": "uint256"
        }
      ],
      "name": "tokenURI",
      "outputs": [
        {
          "internalType": "string",
          "name": "",
          "type": "string"
        }
      ],
      "stateMutability": "view",
      "type": "function"
    },
    {
      "inputs": [
        {
          "internalType": "address",
          "name": "from",
          "type": "address"
        },
        {
          "internalType": "address",
          "name": "to",
          "type": "address"
        },
        {
          "internalType": "uint256",
          "name": "tokenId",
          "type": "uint256"
        }
      ],
      "name": "transferFrom",
      "outputs": [],
      "stateMutability": "nonpayable",
      "type": "function"
    },
    {
      "inputs": [
        {
          "internalType": "uint256",
          "name": "_category",
          "type": "uint256"
        }
      ],
      "name": "mint",
      "outputs": [],
      "stateMutability": "payable",
      "type": "function"
    },
    {
      "inputs": [
        {
          "internalType": "uint256",
          "name": "ticketId",
          "type": "uint256"
        },
        {
          "internalType": "address",
          "name": "newOwner",
          "type": "address"
        }
      ],
      "name": "transfer",
      "outputs": [],
      "stateMutability": "nonpayable",
      "type": "function"
    },
    {
      "inputs": [
        {
          "internalType": "uint256",
          "name": "ticketId",
          "type": "uint256"
        }
      ],
      "name": "getPreviousOwner",
      "outputs": [
        {
          "internalType": "address",
          "name": "",
          "type": "address"
        }
      ],
      "stateMutability": "view",
      "type": "function"
    },
    {
      "inputs": [
        {
          "internalType": "uint256",
          "name": "category",
          "type": "uint256"
        }
      ],
      "name": "getCategoryInformation",
      "outputs": [
        {
          "internalType": "uint256",
          "name": "_price",
          "type": "uint256"
        },
        {
          "internalType": "uint256",
          "name": "_maxNumber",
          "type": "uint256"
        },
        {
          "internalType": "uint256",
          "name": "_currentSupply",
          "type": "uint256"
        }
      ],
      "stateMutability": "view",
      "type": "function"
    },
    {
      "inputs": [
        {
          "internalType": "uint256",
          "name": "ticketId",
          "type": "uint256"
        }
      ],
      "name": "getTicketPrice",
      "outputs": [
        {
          "internalType": "uint256",
          "name": "",
          "type": "uint256"
        }
      ],
      "stateMutability": "view",
      "type": "function"
    }
  ],
  "bytecode": "0x608060405233600860006101000a81548173ffffffffffffffffffffffffffffffffffffffff021916908373ffffffffffffffffffffffffffffffffffffffff1602179055506002600a55604051620044f9380380620044f983398181016040528101906200006f919062000724565b81818160009080519060200190620000899291906200045e565b508060019080519060200190620000a29291906200045e565b50505085600660006101000a81548173ffffffffffffffffffffffffffffffffffffffff021916908373ffffffffffffffffffffffffffffffffffffffff16021790555060011515600660009054906101000a900473ffffffffffffffffffffffffffffffffffffffff1673ffffffffffffffffffffffffffffffffffffffff16635fb64fd6336040518263ffffffff1660e01b8152600401620001479190620008c2565b60206040518083038186803b1580156200016057600080fd5b505afa15801562000175573d6000803e3d6000fd5b505050506040513d601f19601f820116820180604052508101906200019b919062000837565b151514620001e0576040517f08c379a0000000000000000000000000000000000000000000000000000000008152600401620001d79062000901565b60405180910390fd5b835185511462000227576040517f08c379a00000000000000000000000000000000000000000000000000000000081526004016200021e90620008df565b60405180910390fd5b82518551146200026e576040517f08c379a00000000000000000000000000000000000000000000000000000000081526004016200026590620008df565b60405180910390fd5b6001600b8190555060005b8551811015620004515760006040518060800160405280888481518110620002ca577f4e487b7100000000000000000000000000000000000000000000000000000000600052603260045260246000fd5b6020026020010151815260200187848151811062000311577f4e487b7100000000000000000000000000000000000000000000000000000000600052603260045260246000fd5b6020026020010151815260200186848151811062000358577f4e487b7100000000000000000000000000000000000000000000000000000000600052603260045260246000fd5b602002602001015181526020016000815250905080600c6000600b5481526020019081526020016000206000820151816000019080519060200190620003a09291906200045e565b50602082015181600101556040820151816002015560608201518160030155905050848281518110620003fc577f4e487b7100000000000000000000000000000000000000000000000000000000600052603260045260246000fd5b602002602001015160096000828254620004179190620009f1565b925050819055506001600b6000828254620004339190620009f1565b92505081905550508080620004489062000b3a565b91505062000279565b5050505050505062000cec565b8280546200046c9062000ace565b90600052602060002090601f016020900481019282620004905760008555620004dc565b82601f10620004ab57805160ff1916838001178555620004dc565b82800160010185558215620004dc579182015b82811115620004db578251825591602001919060010190620004be565b5b509050620004eb9190620004ef565b5090565b5b808211156200050a576000816000905550600101620004f0565b5090565b6000620005256200051f846200094c565b62000923565b905080838252602082019050828560208602820111156200054557600080fd5b60005b858110156200059457815167ffffffffffffffff8111156200056957600080fd5b808601620005788982620006e0565b8552602085019450602084019350505060018101905062000548565b5050509392505050565b6000620005b5620005af846200097b565b62000923565b90508083825260208201905082856020860282011115620005d557600080fd5b60005b85811015620006095781620005ee88826200070d565b845260208401935060208301925050600181019050620005d8565b5050509392505050565b60006200062a6200062484620009aa565b62000923565b9050828152602081018484840111156200064357600080fd5b6200065084828562000a98565b509392505050565b600081519050620006698162000c9e565b92915050565b600082601f8301126200068157600080fd5b8151620006938482602086016200050e565b91505092915050565b600082601f830112620006ae57600080fd5b8151620006c08482602086016200059e565b91505092915050565b600081519050620006da8162000cb8565b92915050565b600082601f830112620006f257600080fd5b81516200070484826020860162000613565b91505092915050565b6000815190506200071e8162000cd2565b92915050565b60008060008060008060c087890312156200073e57600080fd5b60006200074e89828a0162000658565b965050602087015167ffffffffffffffff8111156200076c57600080fd5b6200077a89828a016200066f565b955050604087015167ffffffffffffffff8111156200079857600080fd5b620007a689828a016200069c565b945050606087015167ffffffffffffffff811115620007c457600080fd5b620007d289828a016200069c565b935050608087015167ffffffffffffffff811115620007f057600080fd5b620007fe89828a01620006e0565b92505060a087015167ffffffffffffffff8111156200081c57600080fd5b6200082a89828a01620006e0565b9150509295509295509295565b6000602082840312156200084a57600080fd5b60006200085a84828501620006c9565b91505092915050565b6200086e8162000a4e565b82525050565b600062000883601383620009e0565b9150620008908262000c26565b602082019050919050565b6000620008aa603783620009e0565b9150620008b78262000c4f565b604082019050919050565b6000602082019050620008d9600083018462000863565b92915050565b60006020820190508181036000830152620008fa8162000874565b9050919050565b600060208201905081810360008301526200091c816200089b565b9050919050565b60006200092f62000942565b90506200093d828262000b04565b919050565b6000604051905090565b600067ffffffffffffffff8211156200096a576200096962000be6565b5b602082029050602081019050919050565b600067ffffffffffffffff82111562000999576200099862000be6565b5b602082029050602081019050919050565b600067ffffffffffffffff821115620009c857620009c762000be6565b5b620009d38262000c15565b9050602081019050919050565b600082825260208201905092915050565b6000620009fe8262000a8e565b915062000a0b8362000a8e565b9250827fffffffffffffffffffffffffffffffffffffffffffffffffffffffffffffffff0382111562000a435762000a4262000b88565b5b828201905092915050565b600062000a5b8262000a6e565b9050919050565b60008115159050919050565b600073ffffffffffffffffffffffffffffffffffffffff82169050919050565b6000819050919050565b60005b8381101562000ab857808201518184015260208101905062000a9b565b8381111562000ac8576000848401525b50505050565b6000600282049050600182168062000ae757607f821691505b6020821081141562000afe5762000afd62000bb7565b5b50919050565b62000b0f8262000c15565b810181811067ffffffffffffffff8211171562000b315762000b3062000be6565b5b80604052505050565b600062000b478262000a8e565b91507fffffffffffffffffffffffffffffffffffffffffffffffffffffffffffffffff82141562000b7d5762000b7c62000b88565b5b600182019050919050565b7f4e487b7100000000000000000000000000000000000000000000000000000000600052601160045260246000fd5b7f4e487b7100000000000000000000000000000000000000000000000000000000600052602260045260246000fd5b7f4e487b7100000000000000000000000000000000000000000000000000000000600052604160045260246000fd5b6000601f19601f8301169050919050565b7f506c65617365206b657920696e20616761696e00000000000000000000000000600082015250565b7f4e6f7420617574686f72697a656420746f2063726561746520612070726f706f60008201527f73616c2e205369676e207570206f6e2050726f66696c65000000000000000000602082015250565b62000ca98162000a4e565b811462000cb557600080fd5b50565b62000cc38162000a62565b811462000ccf57600080fd5b50565b62000cdd8162000a8e565b811462000ce957600080fd5b50565b6137fd8062000cfc6000396000f3fe6080604052600436106101295760003560e01c806370a08231116100ab578063b88d4fde1161006f578063b88d4fde1461041d578063c87b56dd14610446578063cef2646d14610483578063e985e9c5146104c3578063f06fc96114610500578063fe8614111461053d57610129565b806370a082311461034757806395d89b4114610384578063a0712d68146103af578063a22cb465146103cb578063b7760c8f146103f457610129565b806323b872dd116100f257806323b872dd146102395780632c9211961461026257806342842e0e1461029f5780634d07d5ab146102c85780636352211e1461030a57610129565b806256856a1461012e57806301ffc9a71461016b57806306fdde03146101a8578063081812fc146101d3578063095ea7b314610210575b600080fd5b34801561013a57600080fd5b506101556004803603810190610150919061295c565b61057c565b6040516101629190612d6d565b60405180910390f35b34801561017757600080fd5b50610192600480360381019061018d919061290a565b6105cc565b60405161019f9190612e3c565b60405180910390f35b3480156101b457600080fd5b506101bd6106ae565b6040516101ca9190612e57565b60405180910390f35b3480156101df57600080fd5b506101fa60048036038101906101f5919061295c565b610740565b6040516102079190612d6d565b60405180910390f35b34801561021c57600080fd5b50610237600480360381019061023291906128a5565b610786565b005b34801561024557600080fd5b50610260600480360381019061025b919061279f565b61089e565b005b34801561026e57600080fd5b506102896004803603810190610284919061273a565b6108fe565b60405161029691906130a5565b60405180910390f35b3480156102ab57600080fd5b506102c660048036038101906102c1919061279f565b610916565b005b3480156102d457600080fd5b506102ef60048036038101906102ea919061295c565b610936565b60405161030196959493929190612d88565b60405180910390f35b34801561031657600080fd5b50610331600480360381019061032c919061295c565b610a99565b60405161033e9190612d6d565b60405180910390f35b34801561035357600080fd5b5061036e6004803603810190610369919061273a565b610b20565b60405161037b91906130a5565b60405180910390f35b34801561039057600080fd5b50610399610bd8565b6040516103a69190612e57565b60405180910390f35b6103c960048036038101906103c4919061295c565b610c6a565b005b3480156103d757600080fd5b506103f260048036038101906103ed9190612869565b611225565b005b34801561040057600080fd5b5061041b60048036038101906104169190612985565b61123b565b005b34801561042957600080fd5b50610444600480360381019061043f91906127ee565b6113d5565b005b34801561045257600080fd5b5061046d6004803603810190610468919061295c565b611437565b60405161047a9190612e57565b60405180910390f35b34801561048f57600080fd5b506104aa60048036038101906104a5919061295c565b61149f565b6040516104ba9493929190612e79565b60405180910390f35b3480156104cf57600080fd5b506104ea60048036038101906104e59190612763565b611557565b6040516104f79190612e3c565b60405180910390f35b34801561050c57600080fd5b506105276004803603810190610522919061295c565b6115eb565b60405161053491906130a5565b60405180910390f35b34801561054957600080fd5b50610564600480360381019061055f919061295c565b61161b565b604051610573939291906130c0565b60405180910390f35b600081600954811061058d57600080fd5b600d600084815260200190815260200160002060020160009054906101000a900473ffffffffffffffffffffffffffffffffffffffff16915050919050565b60007f80ac58cd000000000000000000000000000000000000000000000000000000007bffffffffffffffffffffffffffffffffffffffffffffffffffffffff1916827bffffffffffffffffffffffffffffffffffffffffffffffffffffffff1916148061069757507f5b5e139f000000000000000000000000000000000000000000000000000000007bffffffffffffffffffffffffffffffffffffffffffffffffffffffff1916827bffffffffffffffffffffffffffffffffffffffffffffffffffffffff1916145b806106a757506106a682611672565b5b9050919050565b6060600080546106bd906132ad565b80601f01602080910402602001604051908101604052809291908181526020018280546106e9906132ad565b80156107365780601f1061070b57610100808354040283529160200191610736565b820191906000526020600020905b81548152906001019060200180831161071957829003601f168201915b5050505050905090565b600061074b826116dc565b6004600083815260200190815260200160002060009054906101000a900473ffffffffffffffffffffffffffffffffffffffff169050919050565b600061079182610a99565b90508073ffffffffffffffffffffffffffffffffffffffff168373ffffffffffffffffffffffffffffffffffffffff161415610802576040517f08c379a00000000000000000000000000000000000000000000000000000000081526004016107f990613045565b60405180910390fd5b8073ffffffffffffffffffffffffffffffffffffffff16610821611727565b73ffffffffffffffffffffffffffffffffffffffff161480610850575061084f8161084a611727565b611557565b5b61088f576040517f08c379a000000000000000000000000000000000000000000000000000000000815260040161088690613065565b60405180910390fd5b610899838361172f565b505050565b6108af6108a9611727565b826117e8565b6108ee576040517f08c379a00000000000000000000000000000000000000000000000000000000081526004016108e590612ec5565b60405180910390fd5b6108f983838361187d565b505050565b600e6020528060005260406000206000915090505481565b610931838383604051806020016040528060008152506113d5565b505050565b600d6020528060005260406000206000915090508060000160009054906101000a900473ffffffffffffffffffffffffffffffffffffffff16908060010160009054906101000a900473ffffffffffffffffffffffffffffffffffffffff16908060020160009054906101000a900473ffffffffffffffffffffffffffffffffffffffff1690806003016040518060800160405290816000820180546109db906132ad565b80601f0160208091040260200160405190810160405280929190818152602001828054610a07906132ad565b8015610a545780601f10610a2957610100808354040283529160200191610a54565b820191906000526020600020905b815481529060010190602001808311610a3757829003601f168201915b505050505081526020016001820154815260200160028201548152602001600382015481525050908060070154908060080160009054906101000a900460ff16905086565b600080610aa583611b77565b9050600073ffffffffffffffffffffffffffffffffffffffff168173ffffffffffffffffffffffffffffffffffffffff161415610b17576040517f08c379a0000000000000000000000000000000000000000000000000000000008152600401610b0e90613025565b60405180910390fd5b80915050919050565b60008073ffffffffffffffffffffffffffffffffffffffff168273ffffffffffffffffffffffffffffffffffffffff161415610b91576040517f08c379a0000000000000000000000000000000000000000000000000000000008152600401610b8890612fa5565b60405180910390fd5b600360008373ffffffffffffffffffffffffffffffffffffffff1673ffffffffffffffffffffffffffffffffffffffff168152602001908152602001600020549050919050565b606060018054610be7906132ad565b80601f0160208091040260200160405190810160405280929190818152602001828054610c13906132ad565b8015610c605780601f10610c3557610100808354040283529160200191610c60565b820191906000526020600020905b815481529060010190602001808311610c4357829003601f168201915b5050505050905090565b60011515600660009054906101000a900473ffffffffffffffffffffffffffffffffffffffff1673ffffffffffffffffffffffffffffffffffffffff16635fb64fd6336040518263ffffffff1660e01b8152600401610cc99190612d6d565b60206040518083038186803b158015610ce157600080fd5b505afa158015610cf5573d6000803e3d6000fd5b505050506040513d601f19601f82011682018060405250810190610d1991906128e1565b151514610d5b576040517f08c379a0000000000000000000000000000000000000000000000000000000008152600401610d5290612fc5565b60405180910390fd5b600c600082815260200190815260200160002060020154600c60008381526020019081526020016000206003015410610dc9576040517f08c379a0000000000000000000000000000000000000000000000000000000008152600401610dc090612f85565b60405180910390fd5b600c600082815260200190815260200160002060010154341015610e22576040517f08c379a0000000000000000000000000000000000000000000000000000000008152600401610e1990613005565b60405180910390fd5b610e2c6007611bb4565b6000610e386007611bca565b905060006040518060c00160405280600860009054906101000a900473ffffffffffffffffffffffffffffffffffffffff1673ffffffffffffffffffffffffffffffffffffffff1681526020013373ffffffffffffffffffffffffffffffffffffffff168152602001600073ffffffffffffffffffffffffffffffffffffffff168152602001600c6000868152602001908152602001600020604051806080016040529081600082018054610eec906132ad565b80601f0160208091040260200160405190810160405280929190818152602001828054610f18906132ad565b8015610f655780601f10610f3a57610100808354040283529160200191610f65565b820191906000526020600020905b815481529060010190602001808311610f4857829003601f168201915b5050505050815260200160018201548152602001600282015481526020016003820154815250508152602001600c6000868152602001908152602001600020600101548152602001600015158152509050610fc03383611bd8565b6001600e60003373ffffffffffffffffffffffffffffffffffffffff1673ffffffffffffffffffffffffffffffffffffffff168152602001908152602001600020600082825461101091906131a1565b9250508190555080600d600084815260200190815260200160002060008201518160000160006101000a81548173ffffffffffffffffffffffffffffffffffffffff021916908373ffffffffffffffffffffffffffffffffffffffff16021790555060208201518160010160006101000a81548173ffffffffffffffffffffffffffffffffffffffff021916908373ffffffffffffffffffffffffffffffffffffffff16021790555060408201518160020160006101000a81548173ffffffffffffffffffffffffffffffffffffffff021916908373ffffffffffffffffffffffffffffffffffffffff16021790555060608201518160030160008201518160000190805190602001906111259291906125b1565b5060208201518160010155604082015181600201556060820151816003015550506080820151816007015560a08201518160080160006101000a81548160ff0219169083151502179055509050506001600c6000858152602001908152602001600020600301600082825461119a91906131a1565b92505081905550600860009054906101000a900473ffffffffffffffffffffffffffffffffffffffff1673ffffffffffffffffffffffffffffffffffffffff166108fc600c6000868152602001908152602001600020600101549081150290604051600060405180830381858888f1935050505015801561121f573d6000803e3d6000fd5b50505050565b611237611230611727565b8383611bf6565b5050565b813373ffffffffffffffffffffffffffffffffffffffff16600d600083815260200190815260200160002060010160009054906101000a900473ffffffffffffffffffffffffffffffffffffffff1673ffffffffffffffffffffffffffffffffffffffff16146112e0576040517f08c379a00000000000000000000000000000000000000000000000000000000081526004016112d790613085565b60405180910390fd5b8260095481106112ef57600080fd5b600d600085815260200190815260200160002060010160009054906101000a900473ffffffffffffffffffffffffffffffffffffffff16600d600086815260200190815260200160002060020160006101000a81548173ffffffffffffffffffffffffffffffffffffffff021916908373ffffffffffffffffffffffffffffffffffffffff16021790555082600d600086815260200190815260200160002060010160006101000a81548173ffffffffffffffffffffffffffffffffffffffff021916908373ffffffffffffffffffffffffffffffffffffffff16021790555050505050565b6113e66113e0611727565b836117e8565b611425576040517f08c379a000000000000000000000000000000000000000000000000000000000815260040161141c90612ec5565b60405180910390fd5b61143184848484611d63565b50505050565b6060611442826116dc565b600061144c611dbf565b9050600081511161146c5760405180602001604052806000815250611497565b8061147684611dd6565b604051602001611487929190612d49565b6040516020818303038152906040525b915050919050565b600c6020528060005260406000206000915090508060000180546114c2906132ad565b80601f01602080910402602001604051908101604052809291908181526020018280546114ee906132ad565b801561153b5780601f106115105761010080835404028352916020019161153b565b820191906000526020600020905b81548152906001019060200180831161151e57829003601f168201915b5050505050908060010154908060020154908060030154905084565b6000600560008473ffffffffffffffffffffffffffffffffffffffff1673ffffffffffffffffffffffffffffffffffffffff16815260200190815260200160002060008373ffffffffffffffffffffffffffffffffffffffff1673ffffffffffffffffffffffffffffffffffffffff16815260200190815260200160002060009054906101000a900460ff16905092915050565b60008160095481106115fc57600080fd5b600d600084815260200190815260200160002060070154915050919050565b6000806000600c600085815260200190815260200160002060010154600c600086815260200190815260200160002060020154600c6000878152602001908152602001600020600301549250925092509193909250565b60007f01ffc9a7000000000000000000000000000000000000000000000000000000007bffffffffffffffffffffffffffffffffffffffffffffffffffffffff1916827bffffffffffffffffffffffffffffffffffffffffffffffffffffffff1916149050919050565b6116e581611efa565b611724576040517f08c379a000000000000000000000000000000000000000000000000000000000815260040161171b90613025565b60405180910390fd5b50565b600033905090565b816004600083815260200190815260200160002060006101000a81548173ffffffffffffffffffffffffffffffffffffffff021916908373ffffffffffffffffffffffffffffffffffffffff160217905550808273ffffffffffffffffffffffffffffffffffffffff166117a283610a99565b73ffffffffffffffffffffffffffffffffffffffff167f8c5be1e5ebec7d5bd14f71427d1e84f3dd0314c0f7b2291e5b200ac8c7c3b92560405160405180910390a45050565b6000806117f483610a99565b90508073ffffffffffffffffffffffffffffffffffffffff168473ffffffffffffffffffffffffffffffffffffffff16148061183657506118358185611557565b5b8061187457508373ffffffffffffffffffffffffffffffffffffffff1661185c84610740565b73ffffffffffffffffffffffffffffffffffffffff16145b91505092915050565b8273ffffffffffffffffffffffffffffffffffffffff1661189d82610a99565b73ffffffffffffffffffffffffffffffffffffffff16146118f3576040517f08c379a00000000000000000000000000000000000000000000000000000000081526004016118ea90612f05565b60405180910390fd5b600073ffffffffffffffffffffffffffffffffffffffff168273ffffffffffffffffffffffffffffffffffffffff161415611963576040517f08c379a000000000000000000000000000000000000000000000000000000000815260040161195a90612f45565b60405180910390fd5b6119708383836001611f3b565b8273ffffffffffffffffffffffffffffffffffffffff1661199082610a99565b73ffffffffffffffffffffffffffffffffffffffff16146119e6576040517f08c379a00000000000000000000000000000000000000000000000000000000081526004016119dd90612f05565b60405180910390fd5b6004600082815260200190815260200160002060006101000a81549073ffffffffffffffffffffffffffffffffffffffff02191690556001600360008573ffffffffffffffffffffffffffffffffffffffff1673ffffffffffffffffffffffffffffffffffffffff168152602001908152602001600020600082825403925050819055506001600360008473ffffffffffffffffffffffffffffffffffffffff1673ffffffffffffffffffffffffffffffffffffffff16815260200190815260200160002060008282540192505081905550816002600083815260200190815260200160002060006101000a81548173ffffffffffffffffffffffffffffffffffffffff021916908373ffffffffffffffffffffffffffffffffffffffff160217905550808273ffffffffffffffffffffffffffffffffffffffff168473ffffffffffffffffffffffffffffffffffffffff167fddf252ad1be2c89b69c2b068fc378daa952ba7f163c4a11628f55a4df523b3ef60405160405180910390a4611b728383836001611f41565b505050565b60006002600083815260200190815260200160002060009054906101000a900473ffffffffffffffffffffffffffffffffffffffff169050919050565b6001816000016000828254019250508190555050565b600081600001549050919050565b611bf2828260405180602001604052806000815250611f47565b5050565b8173ffffffffffffffffffffffffffffffffffffffff168373ffffffffffffffffffffffffffffffffffffffff161415611c65576040517f08c379a0000000000000000000000000000000000000000000000000000000008152600401611c5c90612f65565b60405180910390fd5b80600560008573ffffffffffffffffffffffffffffffffffffffff1673ffffffffffffffffffffffffffffffffffffffff16815260200190815260200160002060008473ffffffffffffffffffffffffffffffffffffffff1673ffffffffffffffffffffffffffffffffffffffff16815260200190815260200160002060006101000a81548160ff0219169083151502179055508173ffffffffffffffffffffffffffffffffffffffff168373ffffffffffffffffffffffffffffffffffffffff167f17307eab39ab6107e8899845ad3d59bd9653f200f220920489ca2b5937696c3183604051611d569190612e3c565b60405180910390a3505050565b611d6e84848461187d565b611d7a84848484611fa2565b611db9576040517f08c379a0000000000000000000000000000000000000000000000000000000008152600401611db090612ee5565b60405180910390fd5b50505050565b606060405180602001604052806000815250905090565b606060006001611de584612139565b01905060008167ffffffffffffffff811115611e2a577f4e487b7100000000000000000000000000000000000000000000000000000000600052604160045260246000fd5b6040519080825280601f01601f191660200182016040528015611e5c5781602001600182028036833780820191505090505b509050600082602001820190505b600115611eef578080600190039150507f3031323334353637383961626364656600000000000000000000000000000000600a86061a8153600a8581611ed9577f4e487b7100000000000000000000000000000000000000000000000000000000600052601260045260246000fd5b0494506000851415611eea57611eef565b611e6a565b819350505050919050565b60008073ffffffffffffffffffffffffffffffffffffffff16611f1c83611b77565b73ffffffffffffffffffffffffffffffffffffffff1614159050919050565b50505050565b50505050565b611f518383612370565b611f5e6000848484611fa2565b611f9d576040517f08c379a0000000000000000000000000000000000000000000000000000000008152600401611f9490612ee5565b60405180910390fd5b505050565b6000611fc38473ffffffffffffffffffffffffffffffffffffffff1661258e565b1561212c578373ffffffffffffffffffffffffffffffffffffffff1663150b7a02611fec611727565b8786866040518563ffffffff1660e01b815260040161200e9493929190612df0565b602060405180830381600087803b15801561202857600080fd5b505af192505050801561205957506040513d601f19601f820116820180604052508101906120569190612933565b60015b6120dc573d8060008114612089576040519150601f19603f3d011682016040523d82523d6000602084013e61208e565b606091505b506000815114156120d4576040517f08c379a00000000000000000000000000000000000000000000000000000000081526004016120cb90612ee5565b60405180910390fd5b805181602001fd5b63150b7a0260e01b7bffffffffffffffffffffffffffffffffffffffffffffffffffffffff1916817bffffffffffffffffffffffffffffffffffffffffffffffffffffffff191614915050612131565b600190505b949350505050565b600080600090507a184f03e93ff9f4daa797ed6e38ed64bf6a1f01000000000000000083106121bd577a184f03e93ff9f4daa797ed6e38ed64bf6a1f01000000000000000083816121b3577f4e487b7100000000000000000000000000000000000000000000000000000000600052601260045260246000fd5b0492506040810190505b6d04ee2d6d415b85acef81000000008310612220576d04ee2d6d415b85acef81000000008381612216577f4e487b7100000000000000000000000000000000000000000000000000000000600052601260045260246000fd5b0492506020810190505b662386f26fc10000831061227557662386f26fc10000838161226b577f4e487b7100000000000000000000000000000000000000000000000000000000600052601260045260246000fd5b0492506010810190505b6305f5e10083106122c4576305f5e10083816122ba577f4e487b7100000000000000000000000000000000000000000000000000000000600052601260045260246000fd5b0492506008810190505b612710831061230f576127108381612305577f4e487b7100000000000000000000000000000000000000000000000000000000600052601260045260246000fd5b0492506004810190505b60648310612358576064838161234e577f4e487b7100000000000000000000000000000000000000000000000000000000600052601260045260246000fd5b0492506002810190505b600a8310612367576001810190505b80915050919050565b600073ffffffffffffffffffffffffffffffffffffffff168273ffffffffffffffffffffffffffffffffffffffff1614156123e0576040517f08c379a00000000000000000000000000000000000000000000000000000000081526004016123d790612fe5565b60405180910390fd5b6123e981611efa565b15612429576040517f08c379a000000000000000000000000000000000000000000000000000000000815260040161242090612f25565b60405180910390fd5b612437600083836001611f3b565b61244081611efa565b15612480576040517f08c379a000000000000000000000000000000000000000000000000000000000815260040161247790612f25565b60405180910390fd5b6001600360008473ffffffffffffffffffffffffffffffffffffffff1673ffffffffffffffffffffffffffffffffffffffff16815260200190815260200160002060008282540192505081905550816002600083815260200190815260200160002060006101000a81548173ffffffffffffffffffffffffffffffffffffffff021916908373ffffffffffffffffffffffffffffffffffffffff160217905550808273ffffffffffffffffffffffffffffffffffffffff16600073ffffffffffffffffffffffffffffffffffffffff167fddf252ad1be2c89b69c2b068fc378daa952ba7f163c4a11628f55a4df523b3ef60405160405180910390a461258a600083836001611f41565b5050565b6000808273ffffffffffffffffffffffffffffffffffffffff163b119050919050565b8280546125bd906132ad565b90600052602060002090601f0160209004810192826125df5760008555612626565b82601f106125f857805160ff1916838001178555612626565b82800160010185558215612626579182015b8281111561262557825182559160200191906001019061260a565b5b5090506126339190612637565b5090565b5b80821115612650576000816000905550600101612638565b5090565b60006126676126628461311c565b6130f7565b90508281526020810184848401111561267f57600080fd5b61268a84828561326b565b509392505050565b6000813590506126a18161376b565b92915050565b6000813590506126b681613782565b92915050565b6000815190506126cb81613782565b92915050565b6000813590506126e081613799565b92915050565b6000815190506126f581613799565b92915050565b600082601f83011261270c57600080fd5b813561271c848260208601612654565b91505092915050565b600081359050612734816137b0565b92915050565b60006020828403121561274c57600080fd5b600061275a84828501612692565b91505092915050565b6000806040838503121561277657600080fd5b600061278485828601612692565b925050602061279585828601612692565b9150509250929050565b6000806000606084860312156127b457600080fd5b60006127c286828701612692565b93505060206127d386828701612692565b92505060406127e486828701612725565b9150509250925092565b6000806000806080858703121561280457600080fd5b600061281287828801612692565b945050602061282387828801612692565b935050604061283487828801612725565b925050606085013567ffffffffffffffff81111561285157600080fd5b61285d878288016126fb565b91505092959194509250565b6000806040838503121561287c57600080fd5b600061288a85828601612692565b925050602061289b858286016126a7565b9150509250929050565b600080604083850312156128b857600080fd5b60006128c685828601612692565b92505060206128d785828601612725565b9150509250929050565b6000602082840312156128f357600080fd5b6000612901848285016126bc565b91505092915050565b60006020828403121561291c57600080fd5b600061292a848285016126d1565b91505092915050565b60006020828403121561294557600080fd5b6000612953848285016126e6565b91505092915050565b60006020828403121561296e57600080fd5b600061297c84828501612725565b91505092915050565b6000806040838503121561299857600080fd5b60006129a685828601612725565b92505060206129b785828601612692565b9150509250929050565b6129ca816131f7565b82525050565b6129d981613209565b82525050565b60006129ea8261314d565b6129f48185613163565b9350612a0481856020860161327a565b612a0d8161339d565b840191505092915050565b6000612a2382613158565b612a2d8185613174565b9350612a3d81856020860161327a565b612a468161339d565b840191505092915050565b6000612a5c82613158565b612a668185613185565b9350612a7681856020860161327a565b612a7f8161339d565b840191505092915050565b6000612a9582613158565b612a9f8185613196565b9350612aaf81856020860161327a565b80840191505092915050565b6000612ac8602d83613185565b9150612ad3826133ae565b604082019050919050565b6000612aeb603283613185565b9150612af6826133fd565b604082019050919050565b6000612b0e602583613185565b9150612b198261344c565b604082019050919050565b6000612b31601c83613185565b9150612b3c8261349b565b602082019050919050565b6000612b54602483613185565b9150612b5f826134c4565b604082019050919050565b6000612b77601983613185565b9150612b8282613513565b602082019050919050565b6000612b9a602e83613185565b9150612ba58261353c565b604082019050919050565b6000612bbd602983613185565b9150612bc88261358b565b604082019050919050565b6000612be0603783613185565b9150612beb826135da565b604082019050919050565b6000612c03602083613185565b9150612c0e82613629565b602082019050919050565b6000612c26601383613185565b9150612c3182613652565b602082019050919050565b6000612c49601883613185565b9150612c548261367b565b602082019050919050565b6000612c6c602183613185565b9150612c77826136a4565b604082019050919050565b6000612c8f603d83613185565b9150612c9a826136f3565b604082019050919050565b6000612cb2600e83613185565b9150612cbd82613742565b602082019050919050565b60006080830160008301518482036000860152612ce58282612a18565b9150506020830151612cfa6020860182612d2b565b506040830151612d0d6040860182612d2b565b506060830151612d206060860182612d2b565b508091505092915050565b612d3481613261565b82525050565b612d4381613261565b82525050565b6000612d558285612a8a565b9150612d618284612a8a565b91508190509392505050565b6000602082019050612d8260008301846129c1565b92915050565b600060c082019050612d9d60008301896129c1565b612daa60208301886129c1565b612db760408301876129c1565b8181036060830152612dc98186612cc8565b9050612dd86080830185612d3a565b612de560a08301846129d0565b979650505050505050565b6000608082019050612e0560008301876129c1565b612e1260208301866129c1565b612e1f6040830185612d3a565b8181036060830152612e3181846129df565b905095945050505050565b6000602082019050612e5160008301846129d0565b92915050565b60006020820190508181036000830152612e718184612a51565b905092915050565b60006080820190508181036000830152612e938187612a51565b9050612ea26020830186612d3a565b612eaf6040830185612d3a565b612ebc6060830184612d3a565b95945050505050565b60006020820190508181036000830152612ede81612abb565b9050919050565b60006020820190508181036000830152612efe81612ade565b9050919050565b60006020820190508181036000830152612f1e81612b01565b9050919050565b60006020820190508181036000830152612f3e81612b24565b9050919050565b60006020820190508181036000830152612f5e81612b47565b9050919050565b60006020820190508181036000830152612f7e81612b6a565b9050919050565b60006020820190508181036000830152612f9e81612b8d565b9050919050565b60006020820190508181036000830152612fbe81612bb0565b9050919050565b60006020820190508181036000830152612fde81612bd3565b9050919050565b60006020820190508181036000830152612ffe81612bf6565b9050919050565b6000602082019050818103600083015261301e81612c19565b9050919050565b6000602082019050818103600083015261303e81612c3c565b9050919050565b6000602082019050818103600083015261305e81612c5f565b9050919050565b6000602082019050818103600083015261307e81612c82565b9050919050565b6000602082019050818103600083015261309e81612ca5565b9050919050565b60006020820190506130ba6000830184612d3a565b92915050565b60006060820190506130d56000830186612d3a565b6130e26020830185612d3a565b6130ef6040830184612d3a565b949350505050565b6000613101613112565b905061310d82826132df565b919050565b6000604051905090565b600067ffffffffffffffff8211156131375761313661336e565b5b6131408261339d565b9050602081019050919050565b600081519050919050565b600081519050919050565b600082825260208201905092915050565b600082825260208201905092915050565b600082825260208201905092915050565b600081905092915050565b60006131ac82613261565b91506131b783613261565b9250827fffffffffffffffffffffffffffffffffffffffffffffffffffffffffffffffff038211156131ec576131eb613310565b5b828201905092915050565b600061320282613241565b9050919050565b60008115159050919050565b60007fffffffff0000000000000000000000000000000000000000000000000000000082169050919050565b600073ffffffffffffffffffffffffffffffffffffffff82169050919050565b6000819050919050565b82818337600083830152505050565b60005b8381101561329857808201518184015260208101905061327d565b838111156132a7576000848401525b50505050565b600060028204905060018216806132c557607f821691505b602082108114156132d9576132d861333f565b5b50919050565b6132e88261339d565b810181811067ffffffffffffffff821117156133075761330661336e565b5b80604052505050565b7f4e487b7100000000000000000000000000000000000000000000000000000000600052601160045260246000fd5b7f4e487b7100000000000000000000000000000000000000000000000000000000600052602260045260246000fd5b7f4e487b7100000000000000000000000000000000000000000000000000000000600052604160045260246000fd5b6000601f19601f8301169050919050565b7f4552433732313a2063616c6c6572206973206e6f7420746f6b656e206f776e6560008201527f72206f7220617070726f76656400000000000000000000000000000000000000602082015250565b7f4552433732313a207472616e7366657220746f206e6f6e20455243373231526560008201527f63656976657220696d706c656d656e7465720000000000000000000000000000602082015250565b7f4552433732313a207472616e736665722066726f6d20696e636f72726563742060008201527f6f776e6572000000000000000000000000000000000000000000000000000000602082015250565b7f4552433732313a20746f6b656e20616c7265616479206d696e74656400000000600082015250565b7f4552433732313a207472616e7366657220746f20746865207a65726f2061646460008201527f7265737300000000000000000000000000000000000000000000000000000000602082015250565b7f4552433732313a20617070726f766520746f2063616c6c657200000000000000600082015250565b7f4e6f7420656e6f756768207469636b65747320617661696c61626c6520666f7260008201527f20746869732063617465676f7279000000000000000000000000000000000000602082015250565b7f4552433732313a2061646472657373207a65726f206973206e6f74206120766160008201527f6c6964206f776e65720000000000000000000000000000000000000000000000602082015250565b7f4e6f7420617574686f72697a656420746f2063726561746520612070726f706f60008201527f73616c2e205369676e207570206f6e2050726f66696c65000000000000000000602082015250565b7f4552433732313a206d696e7420746f20746865207a65726f2061646472657373600082015250565b7f4e6f7420656e6f756768204554482073656e7400000000000000000000000000600082015250565b7f4552433732313a20696e76616c696420746f6b656e2049440000000000000000600082015250565b7f4552433732313a20617070726f76616c20746f2063757272656e74206f776e6560008201527f7200000000000000000000000000000000000000000000000000000000000000602082015250565b7f4552433732313a20617070726f76652063616c6c6572206973206e6f7420746f60008201527f6b656e206f776e6572206f7220617070726f76656420666f7220616c6c000000602082015250565b7f4e6f7420617574686f72697a6564000000000000000000000000000000000000600082015250565b613774816131f7565b811461377f57600080fd5b50565b61378b81613209565b811461379657600080fd5b50565b6137a281613215565b81146137ad57600080fd5b50565b6137b981613261565b81146137c457600080fd5b5056fea264697066735822122039100d01a330afcf97d979c516a0bebc9e33d15321a7026e714732ecbf5ff7f464736f6c63430008040033",
  "immutableReferences": {},
  "source": "pragma solidity ^0.8.4;\r\n\r\nimport \"@openzeppelin/contracts/token/ERC721/ERC721.sol\";\r\nimport \"@openzeppelin/contracts/utils/Counters.sol\";\r\nimport \"./Profile.sol\";\r\n\r\ncontract Event is ERC721 {\r\n    Profile profile;\r\n    using Counters for Counters.Counter;\r\n    Counters.Counter private _ticketIds;\r\n\r\n    address payable organizer = payable(msg.sender);\r\n    uint256 ticketSupply;\r\n    uint256 commission = 2;\r\n    struct TicketCategory {\r\n        string categoryName;\r\n        uint256 price;\r\n        uint256 supplyLimit;\r\n        uint256 sold;\r\n    }\r\n\r\n    struct Ticket {\r\n        address organizer;\r\n        address ticketOwner;\r\n        address prevTicketOwner;\r\n        TicketCategory category; //category within ticket\r\n        uint256 currentPrice;\r\n        bool ticketListing;\r\n    }\r\n\r\n    uint256 categoryId;\r\n\r\n    mapping(uint256 => TicketCategory) public ticketCategories;\r\n    mapping(uint256 => Ticket) public ticketIDs;\r\n    mapping(address => uint256) public ticketsPerOwner;\r\n\r\n    modifier isTicketOwner(uint256 ticketId) {\r\n        require(\r\n            ticketIDs[ticketId].ticketOwner == msg.sender,\r\n            \"Not authorized\"\r\n        );\r\n        _;\r\n    }\r\n\r\n    modifier isOrganizer() {\r\n        require(organizer == msg.sender, \"Not authorized to adjust sale\");\r\n        _;\r\n    }\r\n\r\n    modifier validTicketId(uint256 id) {\r\n        require(id < ticketSupply);\r\n        _;\r\n    }\r\n\r\n    constructor(\r\n        address _profile,\r\n        string[] memory _categories,\r\n        uint256[] memory _categoryPrices,\r\n        uint256[] memory _categoryLimits,\r\n        string memory _eventName,\r\n        string memory _eventSymbol\r\n    ) public payable ERC721(_eventName, _eventSymbol) {\r\n        profile = Profile(_profile);\r\n        require(\r\n            profile.checkMembership(msg.sender) == true,\r\n            \"Not authorized to create a proposal. Sign up on Profile\"\r\n        );\r\n\r\n        require(\r\n            _categories.length == _categoryPrices.length,\r\n            \"Please key in again\"\r\n        );\r\n        require(\r\n            _categories.length == _categoryLimits.length,\r\n            \"Please key in again\"\r\n        );\r\n        categoryId = 1;\r\n        for (uint256 i = 0; i < _categories.length; i++) {\r\n            TicketCategory memory newTicketCategory = TicketCategory(\r\n                _categories[i],\r\n                _categoryPrices[i],\r\n                _categoryLimits[i],\r\n                0\r\n            );\r\n            ticketCategories[categoryId] = newTicketCategory;\r\n            ticketSupply += _categoryLimits[i];\r\n            categoryId += 1;\r\n        }\r\n    }\r\n\r\n    function mint(uint256 _category) public payable {\r\n        require(\r\n            profile.checkMembership(msg.sender) == true,\r\n            \"Not authorized to create a proposal. Sign up on Profile\"\r\n        );\r\n\r\n        require(\r\n            ticketCategories[_category].sold <\r\n                ticketCategories[_category].supplyLimit,\r\n            \"Not enough tickets available for this category\"\r\n        );\r\n        require(\r\n            msg.value >= ticketCategories[_category].price,\r\n            \"Not enough ETH sent\"\r\n        );\r\n        _ticketIds.increment();\r\n        uint256 newItemId = _ticketIds.current();\r\n\r\n        Ticket memory newTicket = Ticket(\r\n            organizer,\r\n            msg.sender,\r\n            address(0),\r\n            ticketCategories[_category],\r\n            ticketCategories[_category].price,\r\n            false\r\n        );\r\n\r\n        _safeMint(msg.sender, newItemId);\r\n        ticketsPerOwner[msg.sender] += 1;\r\n        ticketIDs[newItemId] = newTicket;\r\n        ticketCategories[_category].sold += 1;\r\n        organizer.transfer(ticketCategories[_category].price);\r\n    }\r\n\r\n    function transfer(uint256 ticketId, address newOwner)\r\n        public\r\n        isTicketOwner(ticketId)\r\n        validTicketId(ticketId)\r\n    {\r\n        ticketIDs[ticketId].prevTicketOwner = ticketIDs[ticketId].ticketOwner;\r\n        ticketIDs[ticketId].ticketOwner = newOwner;\r\n    }\r\n\r\n    function getPreviousOwner(uint256 ticketId)\r\n        public\r\n        view\r\n        validTicketId(ticketId)\r\n        returns (address)\r\n    {\r\n        return ticketIDs[ticketId].prevTicketOwner;\r\n    }\r\n\r\n    function getCategoryInformation(uint256 category)\r\n        public\r\n        view\r\n        returns (\r\n            uint256 _price,\r\n            uint256 _maxNumber,\r\n            uint256 _currentSupply\r\n        )\r\n    {\r\n        return (\r\n            ticketCategories[category].price,\r\n            ticketCategories[category].supplyLimit,\r\n            ticketCategories[category].sold\r\n        );\r\n    }\r\n\r\n    function getTicketPrice(uint256 ticketId)\r\n        public\r\n        view\r\n        validTicketId(ticketId)\r\n        returns (uint256)\r\n    {\r\n        return ticketIDs[ticketId].currentPrice;\r\n    }\r\n}\r\n",
  "sourcePath": "C:\\Users\\tingy\\Documents\\GitHub\\tt_contracts\\contracts\\Event.sol",
  "compiler": {
    "name": "solc",
    "version": "0.8.4+commit.c7e474f2.Emscripten.clang"
  },
  "schemaVersion": "3.4.11",
  "updatedAt": "2023-03-27T14:29:44.338Z",
  "networkType": "ethereum",
  "devdoc": {
    "kind": "dev",
    "methods": {
      "approve(address,uint256)": {
        "details": "See {IERC721-approve}."
      },
      "balanceOf(address)": {
        "details": "See {IERC721-balanceOf}."
      },
      "getApproved(uint256)": {
        "details": "See {IERC721-getApproved}."
      },
      "isApprovedForAll(address,address)": {
        "details": "See {IERC721-isApprovedForAll}."
      },
      "name()": {
        "details": "See {IERC721Metadata-name}."
      },
      "ownerOf(uint256)": {
        "details": "See {IERC721-ownerOf}."
      },
      "safeTransferFrom(address,address,uint256)": {
        "details": "See {IERC721-safeTransferFrom}."
      },
      "safeTransferFrom(address,address,uint256,bytes)": {
        "details": "See {IERC721-safeTransferFrom}."
      },
      "setApprovalForAll(address,bool)": {
        "details": "See {IERC721-setApprovalForAll}."
      },
      "supportsInterface(bytes4)": {
        "details": "See {IERC165-supportsInterface}."
      },
      "symbol()": {
        "details": "See {IERC721Metadata-symbol}."
      },
      "tokenURI(uint256)": {
        "details": "See {IERC721Metadata-tokenURI}."
      },
      "transferFrom(address,address,uint256)": {
        "details": "See {IERC721-transferFrom}."
      }
    },
    "version": 1
  },
  "userdoc": {
    "kind": "user",
    "methods": {},
    "version": 1
  }
}