{
  "contractName": "Event",
  "abi": [
    {
      "inputs": [
        {
          "internalType": "address",
          "name": "_profile",
          "type": "address"
        },
        {
          "internalType": "address",
          "name": "_marketplace",
          "type": "address"
        },
        {
          "internalType": "string[]",
          "name": "_categories",
          "type": "string[]"
        },
        {
          "internalType": "uint256[]",
          "name": "_categoryPrices",
          "type": "uint256[]"
        },
        {
          "internalType": "uint256[]",
          "name": "_categoryLimits",
          "type": "uint256[]"
        },
        {
          "internalType": "string",
          "name": "_eventName",
          "type": "string"
        },
        {
          "internalType": "string",
          "name": "_eventSymbol",
          "type": "string"
        }
      ],
      "stateMutability": "payable",
      "type": "constructor",
      "payable": true
    },
    {
      "anonymous": false,
      "inputs": [
        {
          "indexed": true,
          "internalType": "address",
          "name": "owner",
          "type": "address"
        },
        {
          "indexed": true,
          "internalType": "address",
          "name": "approved",
          "type": "address"
        },
        {
          "indexed": true,
          "internalType": "uint256",
          "name": "tokenId",
          "type": "uint256"
        }
      ],
      "name": "Approval",
      "type": "event"
    },
    {
      "anonymous": false,
      "inputs": [
        {
          "indexed": true,
          "internalType": "address",
          "name": "owner",
          "type": "address"
        },
        {
          "indexed": true,
          "internalType": "address",
          "name": "operator",
          "type": "address"
        },
        {
          "indexed": false,
          "internalType": "bool",
          "name": "approved",
          "type": "bool"
        }
      ],
      "name": "ApprovalForAll",
      "type": "event"
    },
    {
      "anonymous": false,
      "inputs": [
        {
          "indexed": false,
          "internalType": "address",
          "name": "_owner",
          "type": "address"
        },
        {
          "indexed": false,
          "internalType": "uint256",
          "name": "ticketId",
          "type": "uint256"
        }
      ],
      "name": "TicketMinted",
      "type": "event"
    },
    {
      "anonymous": false,
      "inputs": [
        {
          "indexed": false,
          "internalType": "address",
          "name": "_newOwner",
          "type": "address"
        },
        {
          "indexed": false,
          "internalType": "uint256",
          "name": "ticketId",
          "type": "uint256"
        }
      ],
      "name": "TicketTransferred",
      "type": "event"
    },
    {
      "anonymous": false,
      "inputs": [
        {
          "indexed": true,
          "internalType": "address",
          "name": "from",
          "type": "address"
        },
        {
          "indexed": true,
          "internalType": "address",
          "name": "to",
          "type": "address"
        },
        {
          "indexed": true,
          "internalType": "uint256",
          "name": "tokenId",
          "type": "uint256"
        }
      ],
      "name": "Transfer",
      "type": "event"
    },
    {
      "inputs": [
        {
          "internalType": "address",
          "name": "to",
          "type": "address"
        },
        {
          "internalType": "uint256",
          "name": "tokenId",
          "type": "uint256"
        }
      ],
      "name": "approve",
      "outputs": [],
      "stateMutability": "nonpayable",
      "type": "function"
    },
    {
      "inputs": [
        {
          "internalType": "address",
          "name": "owner",
          "type": "address"
        }
      ],
      "name": "balanceOf",
      "outputs": [
        {
          "internalType": "uint256",
          "name": "",
          "type": "uint256"
        }
      ],
      "stateMutability": "view",
      "type": "function",
      "constant": true
    },
    {
      "inputs": [
        {
          "internalType": "uint256",
          "name": "tokenId",
          "type": "uint256"
        }
      ],
      "name": "getApproved",
      "outputs": [
        {
          "internalType": "address",
          "name": "",
          "type": "address"
        }
      ],
      "stateMutability": "view",
      "type": "function",
      "constant": true
    },
    {
      "inputs": [
        {
          "internalType": "address",
          "name": "owner",
          "type": "address"
        },
        {
          "internalType": "address",
          "name": "operator",
          "type": "address"
        }
      ],
      "name": "isApprovedForAll",
      "outputs": [
        {
          "internalType": "bool",
          "name": "",
          "type": "bool"
        }
      ],
      "stateMutability": "view",
      "type": "function",
      "constant": true
    },
    {
      "inputs": [],
      "name": "name",
      "outputs": [
        {
          "internalType": "string",
          "name": "",
          "type": "string"
        }
      ],
      "stateMutability": "view",
      "type": "function",
      "constant": true
    },
    {
      "inputs": [
        {
          "internalType": "uint256",
          "name": "tokenId",
          "type": "uint256"
        }
      ],
      "name": "ownerOf",
      "outputs": [
        {
          "internalType": "address",
          "name": "",
          "type": "address"
        }
      ],
      "stateMutability": "view",
      "type": "function",
      "constant": true
    },
    {
      "inputs": [
        {
          "internalType": "address",
          "name": "from",
          "type": "address"
        },
        {
          "internalType": "address",
          "name": "to",
          "type": "address"
        },
        {
          "internalType": "uint256",
          "name": "tokenId",
          "type": "uint256"
        }
      ],
      "name": "safeTransferFrom",
      "outputs": [],
      "stateMutability": "nonpayable",
      "type": "function"
    },
    {
      "inputs": [
        {
          "internalType": "address",
          "name": "from",
          "type": "address"
        },
        {
          "internalType": "address",
          "name": "to",
          "type": "address"
        },
        {
          "internalType": "uint256",
          "name": "tokenId",
          "type": "uint256"
        },
        {
          "internalType": "bytes",
          "name": "data",
          "type": "bytes"
        }
      ],
      "name": "safeTransferFrom",
      "outputs": [],
      "stateMutability": "nonpayable",
      "type": "function"
    },
    {
      "inputs": [
        {
          "internalType": "address",
          "name": "operator",
          "type": "address"
        },
        {
          "internalType": "bool",
          "name": "approved",
          "type": "bool"
        }
      ],
      "name": "setApprovalForAll",
      "outputs": [],
      "stateMutability": "nonpayable",
      "type": "function"
    },
    {
      "inputs": [
        {
          "internalType": "bytes4",
          "name": "interfaceId",
          "type": "bytes4"
        }
      ],
      "name": "supportsInterface",
      "outputs": [
        {
          "internalType": "bool",
          "name": "",
          "type": "bool"
        }
      ],
      "stateMutability": "view",
      "type": "function",
      "constant": true
    },
    {
      "inputs": [],
      "name": "symbol",
      "outputs": [
        {
          "internalType": "string",
          "name": "",
          "type": "string"
        }
      ],
      "stateMutability": "view",
      "type": "function",
      "constant": true
    },
    {
      "inputs": [
        {
          "internalType": "uint256",
          "name": "",
          "type": "uint256"
        }
      ],
      "name": "ticketCategories",
      "outputs": [
        {
          "internalType": "string",
          "name": "categoryName",
          "type": "string"
        },
        {
          "internalType": "uint256",
          "name": "price",
          "type": "uint256"
        },
        {
          "internalType": "uint256",
          "name": "supplyLimit",
          "type": "uint256"
        },
        {
          "internalType": "uint256",
          "name": "sold",
          "type": "uint256"
        }
      ],
      "stateMutability": "view",
      "type": "function",
      "constant": true
    },
    {
      "inputs": [
        {
          "internalType": "uint256",
          "name": "",
          "type": "uint256"
        }
      ],
      "name": "ticketIDs",
      "outputs": [
        {
          "internalType": "address",
          "name": "organizer",
          "type": "address"
        },
        {
          "internalType": "address",
          "name": "ticketOwner",
          "type": "address"
        },
        {
          "components": [
            {
              "internalType": "string",
              "name": "categoryName",
              "type": "string"
            },
            {
              "internalType": "uint256",
              "name": "price",
              "type": "uint256"
            },
            {
              "internalType": "uint256",
              "name": "supplyLimit",
              "type": "uint256"
            },
            {
              "internalType": "uint256",
              "name": "sold",
              "type": "uint256"
            }
          ],
          "internalType": "struct Event.TicketCategory",
          "name": "category",
          "type": "tuple"
        },
        {
          "internalType": "uint256",
          "name": "currentPrice",
          "type": "uint256"
        },
        {
          "internalType": "bool",
          "name": "ticketListing",
          "type": "bool"
        }
      ],
      "stateMutability": "view",
      "type": "function",
      "constant": true
    },
    {
      "inputs": [
        {
          "internalType": "address",
          "name": "",
          "type": "address"
        }
      ],
      "name": "ticketsPerOwner",
      "outputs": [
        {
          "internalType": "uint256",
          "name": "",
          "type": "uint256"
        }
      ],
      "stateMutability": "view",
      "type": "function",
      "constant": true
    },
    {
      "inputs": [
        {
          "internalType": "uint256",
          "name": "tokenId",
          "type": "uint256"
        }
      ],
      "name": "tokenURI",
      "outputs": [
        {
          "internalType": "string",
          "name": "",
          "type": "string"
        }
      ],
      "stateMutability": "view",
      "type": "function",
      "constant": true
    },
    {
      "inputs": [
        {
          "internalType": "address",
          "name": "from",
          "type": "address"
        },
        {
          "internalType": "address",
          "name": "to",
          "type": "address"
        },
        {
          "internalType": "uint256",
          "name": "tokenId",
          "type": "uint256"
        }
      ],
      "name": "transferFrom",
      "outputs": [],
      "stateMutability": "nonpayable",
      "type": "function"
    },
    {
      "inputs": [
        {
          "internalType": "uint256",
          "name": "_category",
          "type": "uint256"
        }
      ],
      "name": "mint",
      "outputs": [],
      "stateMutability": "payable",
      "type": "function",
      "payable": true
    },
    {
      "inputs": [
        {
          "internalType": "uint256",
          "name": "ticketId",
          "type": "uint256"
        }
      ],
      "name": "getOwner",
      "outputs": [
        {
          "internalType": "address",
          "name": "",
          "type": "address"
        }
      ],
      "stateMutability": "view",
      "type": "function",
      "constant": true
    },
    {
      "inputs": [
        {
          "internalType": "uint256",
          "name": "category",
          "type": "uint256"
        }
      ],
      "name": "getCategoryInformation",
      "outputs": [
        {
          "internalType": "uint256",
          "name": "_price",
          "type": "uint256"
        },
        {
          "internalType": "uint256",
          "name": "_maxNumber",
          "type": "uint256"
        },
        {
          "internalType": "uint256",
          "name": "_currentSupply",
          "type": "uint256"
        }
      ],
      "stateMutability": "view",
      "type": "function",
      "constant": true
    },
    {
      "inputs": [
        {
          "internalType": "uint256",
          "name": "ticketId",
          "type": "uint256"
        }
      ],
      "name": "getTicketPrice",
      "outputs": [
        {
          "internalType": "uint256",
          "name": "",
          "type": "uint256"
        }
      ],
      "stateMutability": "view",
      "type": "function",
      "constant": true
    }
  ],
  "bytecode": "0x608060405233600960006101000a81548173ffffffffffffffffffffffffffffffffffffffff021916908373ffffffffffffffffffffffffffffffffffffffff1602179055506002600b55604051620040573803806200405783398181016040528101906200006f919062000655565b8181816000908051906020019062000089929190620003a6565b508060019080519060200190620000a2929190620003a6565b50505085600760006101000a81548173ffffffffffffffffffffffffffffffffffffffff021916908373ffffffffffffffffffffffffffffffffffffffff16021790555086600660006101000a81548173ffffffffffffffffffffffffffffffffffffffff021916908373ffffffffffffffffffffffffffffffffffffffff16021790555083518551146200016e576040517f08c379a00000000000000000000000000000000000000000000000000000000081526004016200016590620007a6565b60405180910390fd5b8251855114620001b5576040517f08c379a0000000000000000000000000000000000000000000000000000000008152600401620001ac90620007a6565b60405180910390fd5b6000600c8190555060005b855181101562000398576000604051806080016040528088848151811062000211577f4e487b7100000000000000000000000000000000000000000000000000000000600052603260045260246000fd5b6020026020010151815260200187848151811062000258577f4e487b7100000000000000000000000000000000000000000000000000000000600052603260045260246000fd5b602002602001015181526020018684815181106200029f577f4e487b7100000000000000000000000000000000000000000000000000000000600052603260045260246000fd5b602002602001015181526020016000815250905080600d6000600c5481526020019081526020016000206000820151816000019080519060200190620002e7929190620003a6565b5060208201518160010155604082015181600201556060820151816003015590505084828151811062000343577f4e487b7100000000000000000000000000000000000000000000000000000000600052603260045260246000fd5b6020026020010151600a60008282546200035e919062000896565b925050819055506001600c60008282546200037a919062000896565b925050819055505080806200038f90620009d3565b915050620001c0565b505050505050505062000b1c565b828054620003b49062000967565b90600052602060002090601f016020900481019282620003d8576000855562000424565b82601f10620003f357805160ff191683800117855562000424565b8280016001018555821562000424579182015b828111156200042357825182559160200191906001019062000406565b5b50905062000433919062000437565b5090565b5b808211156200045257600081600090555060010162000438565b5090565b60006200046d6200046784620007f1565b620007c8565b905080838252602082019050828560208602820111156200048d57600080fd5b60005b85811015620004dc57815167ffffffffffffffff811115620004b157600080fd5b808601620004c0898262000611565b8552602085019450602084019350505060018101905062000490565b5050509392505050565b6000620004fd620004f78462000820565b620007c8565b905080838252602082019050828560208602820111156200051d57600080fd5b60005b858110156200055157816200053688826200063e565b84526020840193506020830192505060018101905062000520565b5050509392505050565b6000620005726200056c846200084f565b620007c8565b9050828152602081018484840111156200058b57600080fd5b6200059884828562000931565b509392505050565b600081519050620005b18162000ae8565b92915050565b600082601f830112620005c957600080fd5b8151620005db84826020860162000456565b91505092915050565b600082601f830112620005f657600080fd5b815162000608848260208601620004e6565b91505092915050565b600082601f8301126200062357600080fd5b8151620006358482602086016200055b565b91505092915050565b6000815190506200064f8162000b02565b92915050565b600080600080600080600060e0888a0312156200067157600080fd5b6000620006818a828b01620005a0565b9750506020620006948a828b01620005a0565b965050604088015167ffffffffffffffff811115620006b257600080fd5b620006c08a828b01620005b7565b955050606088015167ffffffffffffffff811115620006de57600080fd5b620006ec8a828b01620005e4565b945050608088015167ffffffffffffffff8111156200070a57600080fd5b620007188a828b01620005e4565b93505060a088015167ffffffffffffffff8111156200073657600080fd5b620007448a828b0162000611565b92505060c088015167ffffffffffffffff8111156200076257600080fd5b620007708a828b0162000611565b91505092959891949750929550565b60006200078e60138362000885565b91506200079b8262000abf565b602082019050919050565b60006020820190508181036000830152620007c1816200077f565b9050919050565b6000620007d4620007e7565b9050620007e282826200099d565b919050565b6000604051905090565b600067ffffffffffffffff8211156200080f576200080e62000a7f565b5b602082029050602081019050919050565b600067ffffffffffffffff8211156200083e576200083d62000a7f565b5b602082029050602081019050919050565b600067ffffffffffffffff8211156200086d576200086c62000a7f565b5b620008788262000aae565b9050602081019050919050565b600082825260208201905092915050565b6000620008a38262000927565b9150620008b08362000927565b9250827fffffffffffffffffffffffffffffffffffffffffffffffffffffffffffffffff03821115620008e857620008e762000a21565b5b828201905092915050565b6000620009008262000907565b9050919050565b600073ffffffffffffffffffffffffffffffffffffffff82169050919050565b6000819050919050565b60005b838110156200095157808201518184015260208101905062000934565b8381111562000961576000848401525b50505050565b600060028204905060018216806200098057607f821691505b6020821081141562000997576200099662000a50565b5b50919050565b620009a88262000aae565b810181811067ffffffffffffffff82111715620009ca57620009c962000a7f565b5b80604052505050565b6000620009e08262000927565b91507fffffffffffffffffffffffffffffffffffffffffffffffffffffffffffffffff82141562000a165762000a1562000a21565b5b600182019050919050565b7f4e487b7100000000000000000000000000000000000000000000000000000000600052601160045260246000fd5b7f4e487b7100000000000000000000000000000000000000000000000000000000600052602260045260246000fd5b7f4e487b7100000000000000000000000000000000000000000000000000000000600052604160045260246000fd5b6000601f19601f8301169050919050565b7f506c65617365206b657920696e20616761696e00000000000000000000000000600082015250565b62000af381620008f3565b811462000aff57600080fd5b50565b62000b0d8162000927565b811462000b1957600080fd5b50565b61352b8062000b2c6000396000f3fe60806040526004361061011f5760003560e01c806395d89b41116100a0578063c87b56dd11610064578063c87b56dd14610412578063cef2646d1461044f578063e985e9c51461048f578063f06fc961146104cc578063fe861411146105095761011f565b806395d89b411461033c578063a0712d6814610367578063a22cb46514610383578063b88d4fde146103ac578063c41a360a146103d55761011f565b80632c921196116100e75780632c9211961461021b57806342842e0e146102585780634d07d5ab146102815780636352211e146102c257806370a08231146102ff5761011f565b806301ffc9a71461012457806306fdde0314610161578063081812fc1461018c578063095ea7b3146101c957806323b872dd146101f2575b600080fd5b34801561013057600080fd5b5061014b600480360381019061014691906126eb565b610548565b6040516101589190612bd9565b60405180910390f35b34801561016d57600080fd5b5061017661062a565b6040516101839190612bf4565b60405180910390f35b34801561019857600080fd5b506101b360048036038101906101ae919061273d565b6106bc565b6040516101c09190612aef565b60405180910390f35b3480156101d557600080fd5b506101f060048036038101906101eb9190612686565b610702565b005b3480156101fe57600080fd5b5061021960048036038101906102149190612580565b61081a565b005b34801561022757600080fd5b50610242600480360381019061023d919061251b565b61087a565b60405161024f9190612e22565b60405180910390f35b34801561026457600080fd5b5061027f600480360381019061027a9190612580565b610892565b005b34801561028d57600080fd5b506102a860048036038101906102a3919061273d565b6108b2565b6040516102b9959493929190612b0a565b60405180910390f35b3480156102ce57600080fd5b506102e960048036038101906102e4919061273d565b6109ef565b6040516102f69190612aef565b60405180910390f35b34801561030b57600080fd5b506103266004803603810190610321919061251b565b610a76565b6040516103339190612e22565b60405180910390f35b34801561034857600080fd5b50610351610b2e565b60405161035e9190612bf4565b60405180910390f35b610381600480360381019061037c919061273d565b610bc0565b005b34801561038f57600080fd5b506103aa60048036038101906103a5919061264a565b611150565b005b3480156103b857600080fd5b506103d360048036038101906103ce91906125cf565b611166565b005b3480156103e157600080fd5b506103fc60048036038101906103f7919061273d565b6111c8565b6040516104099190612aef565b60405180910390f35b34801561041e57600080fd5b506104396004803603810190610434919061273d565b611218565b6040516104469190612bf4565b60405180910390f35b34801561045b57600080fd5b506104766004803603810190610471919061273d565b611280565b6040516104869493929190612c16565b60405180910390f35b34801561049b57600080fd5b506104b660048036038101906104b19190612544565b611338565b6040516104c39190612bd9565b60405180910390f35b3480156104d857600080fd5b506104f360048036038101906104ee919061273d565b6113cc565b6040516105009190612e22565b60405180910390f35b34801561051557600080fd5b50610530600480360381019061052b919061273d565b6113fc565b60405161053f93929190612e3d565b60405180910390f35b60007f80ac58cd000000000000000000000000000000000000000000000000000000007bffffffffffffffffffffffffffffffffffffffffffffffffffffffff1916827bffffffffffffffffffffffffffffffffffffffffffffffffffffffff1916148061061357507f5b5e139f000000000000000000000000000000000000000000000000000000007bffffffffffffffffffffffffffffffffffffffffffffffffffffffff1916827bffffffffffffffffffffffffffffffffffffffffffffffffffffffff1916145b80610623575061062282611453565b5b9050919050565b6060600080546106399061302a565b80601f01602080910402602001604051908101604052809291908181526020018280546106659061302a565b80156106b25780601f10610687576101008083540402835291602001916106b2565b820191906000526020600020905b81548152906001019060200180831161069557829003601f168201915b5050505050905090565b60006106c7826114bd565b6004600083815260200190815260200160002060009054906101000a900473ffffffffffffffffffffffffffffffffffffffff169050919050565b600061070d826109ef565b90508073ffffffffffffffffffffffffffffffffffffffff168373ffffffffffffffffffffffffffffffffffffffff16141561077e576040517f08c379a000000000000000000000000000000000000000000000000000000000815260040161077590612dc2565b60405180910390fd5b8073ffffffffffffffffffffffffffffffffffffffff1661079d611508565b73ffffffffffffffffffffffffffffffffffffffff1614806107cc57506107cb816107c6611508565b611338565b5b61080b576040517f08c379a000000000000000000000000000000000000000000000000000000000815260040161080290612de2565b60405180910390fd5b6108158383611510565b505050565b61082b610825611508565b826115c9565b61086a576040517f08c379a000000000000000000000000000000000000000000000000000000000815260040161086190612c62565b60405180910390fd5b61087583838361165e565b505050565b600f6020528060005260406000206000915090505481565b6108ad83838360405180602001604052806000815250611166565b505050565b600e6020528060005260406000206000915090508060000160009054906101000a900473ffffffffffffffffffffffffffffffffffffffff16908060010160009054906101000a900473ffffffffffffffffffffffffffffffffffffffff1690806002016040518060800160405290816000820180546109319061302a565b80601f016020809104026020016040519081016040528092919081815260200182805461095d9061302a565b80156109aa5780601f1061097f576101008083540402835291602001916109aa565b820191906000526020600020905b81548152906001019060200180831161098d57829003601f168201915b505050505081526020016001820154815260200160028201548152602001600382015481525050908060060154908060070160009054906101000a900460ff16905085565b6000806109fb83611958565b9050600073ffffffffffffffffffffffffffffffffffffffff168173ffffffffffffffffffffffffffffffffffffffff161415610a6d576040517f08c379a0000000000000000000000000000000000000000000000000000000008152600401610a6490612da2565b60405180910390fd5b80915050919050565b60008073ffffffffffffffffffffffffffffffffffffffff168273ffffffffffffffffffffffffffffffffffffffff161415610ae7576040517f08c379a0000000000000000000000000000000000000000000000000000000008152600401610ade90612d42565b60405180910390fd5b600360008373ffffffffffffffffffffffffffffffffffffffff1673ffffffffffffffffffffffffffffffffffffffff168152602001908152602001600020549050919050565b606060018054610b3d9061302a565b80601f0160208091040260200160405190810160405280929190818152602001828054610b699061302a565b8015610bb65780601f10610b8b57610100808354040283529160200191610bb6565b820191906000526020600020905b815481529060010190602001808311610b9957829003601f168201915b5050505050905090565b60011515600660009054906101000a900473ffffffffffffffffffffffffffffffffffffffff1673ffffffffffffffffffffffffffffffffffffffff16635fb64fd6336040518263ffffffff1660e01b8152600401610c1f9190612aef565b60206040518083038186803b158015610c3757600080fd5b505afa158015610c4b573d6000803e3d6000fd5b505050506040513d601f19601f82011682018060405250810190610c6f91906126c2565b151514610cb1576040517f08c379a0000000000000000000000000000000000000000000000000000000008152600401610ca890612e02565b60405180910390fd5b600d600082815260200190815260200160002060020154600d60008381526020019081526020016000206003015410610d1f576040517f08c379a0000000000000000000000000000000000000000000000000000000008152600401610d1690612d22565b60405180910390fd5b600d600082815260200190815260200160002060010154341015610d78576040517f08c379a0000000000000000000000000000000000000000000000000000000008152600401610d6f90612d82565b60405180910390fd5b610d826008611995565b6000610d8e60086119ab565b905060006040518060a00160405280600960009054906101000a900473ffffffffffffffffffffffffffffffffffffffff1673ffffffffffffffffffffffffffffffffffffffff1681526020013373ffffffffffffffffffffffffffffffffffffffff168152602001600d6000868152602001908152602001600020604051806080016040529081600082018054610e259061302a565b80601f0160208091040260200160405190810160405280929190818152602001828054610e519061302a565b8015610e9e5780601f10610e7357610100808354040283529160200191610e9e565b820191906000526020600020905b815481529060010190602001808311610e8157829003601f168201915b5050505050815260200160018201548152602001600282015481526020016003820154815250508152602001600d6000868152602001908152602001600020600101548152602001600015158152509050610ef933836119b9565b6001600f60003373ffffffffffffffffffffffffffffffffffffffff1673ffffffffffffffffffffffffffffffffffffffff1681526020019081526020016000206000828254610f499190612f1e565b9250508190555080600e600084815260200190815260200160002060008201518160000160006101000a81548173ffffffffffffffffffffffffffffffffffffffff021916908373ffffffffffffffffffffffffffffffffffffffff16021790555060208201518160010160006101000a81548173ffffffffffffffffffffffffffffffffffffffff021916908373ffffffffffffffffffffffffffffffffffffffff1602179055506040820151816002016000820151816000019080519060200190611017929190612392565b5060208201518160010155604082015181600201556060820151816003015550506060820151816006015560808201518160070160006101000a81548160ff0219169083151502179055509050506001600d6000858152602001908152602001600020600301600082825461108c9190612f1e565b92505081905550600960009054906101000a900473ffffffffffffffffffffffffffffffffffffffff1673ffffffffffffffffffffffffffffffffffffffff166108fc600d6000868152602001908152602001600020600101549081150290604051600060405180830381858888f19350505050158015611111573d6000803e3d6000fd5b507fe3bc6f5972e89b7adec47f0277204f27cd981570e200dd4d408093535c9e8e693383604051611143929190612bb0565b60405180910390a1505050565b61116261115b611508565b83836119d7565b5050565b611177611171611508565b836115c9565b6111b6576040517f08c379a00000000000000000000000000000000000000000000000000000000081526004016111ad90612c62565b60405180910390fd5b6111c284848484611b44565b50505050565b600081600a5481106111d957600080fd5b600e600084815260200190815260200160002060010160009054906101000a900473ffffffffffffffffffffffffffffffffffffffff16915050919050565b6060611223826114bd565b600061122d611ba0565b9050600081511161124d5760405180602001604052806000815250611278565b8061125784611bb7565b604051602001611268929190612acb565b6040516020818303038152906040525b915050919050565b600d6020528060005260406000206000915090508060000180546112a39061302a565b80601f01602080910402602001604051908101604052809291908181526020018280546112cf9061302a565b801561131c5780601f106112f15761010080835404028352916020019161131c565b820191906000526020600020905b8154815290600101906020018083116112ff57829003601f168201915b5050505050908060010154908060020154908060030154905084565b6000600560008473ffffffffffffffffffffffffffffffffffffffff1673ffffffffffffffffffffffffffffffffffffffff16815260200190815260200160002060008373ffffffffffffffffffffffffffffffffffffffff1673ffffffffffffffffffffffffffffffffffffffff16815260200190815260200160002060009054906101000a900460ff16905092915050565b600081600a5481106113dd57600080fd5b600e600084815260200190815260200160002060060154915050919050565b6000806000600d600085815260200190815260200160002060010154600d600086815260200190815260200160002060020154600d6000878152602001908152602001600020600301549250925092509193909250565b60007f01ffc9a7000000000000000000000000000000000000000000000000000000007bffffffffffffffffffffffffffffffffffffffffffffffffffffffff1916827bffffffffffffffffffffffffffffffffffffffffffffffffffffffff1916149050919050565b6114c681611cdb565b611505576040517f08c379a00000000000000000000000000000000000000000000000000000000081526004016114fc90612da2565b60405180910390fd5b50565b600033905090565b816004600083815260200190815260200160002060006101000a81548173ffffffffffffffffffffffffffffffffffffffff021916908373ffffffffffffffffffffffffffffffffffffffff160217905550808273ffffffffffffffffffffffffffffffffffffffff16611583836109ef565b73ffffffffffffffffffffffffffffffffffffffff167f8c5be1e5ebec7d5bd14f71427d1e84f3dd0314c0f7b2291e5b200ac8c7c3b92560405160405180910390a45050565b6000806115d5836109ef565b90508073ffffffffffffffffffffffffffffffffffffffff168473ffffffffffffffffffffffffffffffffffffffff16148061161757506116168185611338565b5b8061165557508373ffffffffffffffffffffffffffffffffffffffff1661163d846106bc565b73ffffffffffffffffffffffffffffffffffffffff16145b91505092915050565b8273ffffffffffffffffffffffffffffffffffffffff1661167e826109ef565b73ffffffffffffffffffffffffffffffffffffffff16146116d4576040517f08c379a00000000000000000000000000000000000000000000000000000000081526004016116cb90612ca2565b60405180910390fd5b600073ffffffffffffffffffffffffffffffffffffffff168273ffffffffffffffffffffffffffffffffffffffff161415611744576040517f08c379a000000000000000000000000000000000000000000000000000000000815260040161173b90612ce2565b60405180910390fd5b6117518383836001611d1c565b8273ffffffffffffffffffffffffffffffffffffffff16611771826109ef565b73ffffffffffffffffffffffffffffffffffffffff16146117c7576040517f08c379a00000000000000000000000000000000000000000000000000000000081526004016117be90612ca2565b60405180910390fd5b6004600082815260200190815260200160002060006101000a81549073ffffffffffffffffffffffffffffffffffffffff02191690556001600360008573ffffffffffffffffffffffffffffffffffffffff1673ffffffffffffffffffffffffffffffffffffffff168152602001908152602001600020600082825403925050819055506001600360008473ffffffffffffffffffffffffffffffffffffffff1673ffffffffffffffffffffffffffffffffffffffff16815260200190815260200160002060008282540192505081905550816002600083815260200190815260200160002060006101000a81548173ffffffffffffffffffffffffffffffffffffffff021916908373ffffffffffffffffffffffffffffffffffffffff160217905550808273ffffffffffffffffffffffffffffffffffffffff168473ffffffffffffffffffffffffffffffffffffffff167fddf252ad1be2c89b69c2b068fc378daa952ba7f163c4a11628f55a4df523b3ef60405160405180910390a46119538383836001611d22565b505050565b60006002600083815260200190815260200160002060009054906101000a900473ffffffffffffffffffffffffffffffffffffffff169050919050565b6001816000016000828254019250508190555050565b600081600001549050919050565b6119d3828260405180602001604052806000815250611d28565b5050565b8173ffffffffffffffffffffffffffffffffffffffff168373ffffffffffffffffffffffffffffffffffffffff161415611a46576040517f08c379a0000000000000000000000000000000000000000000000000000000008152600401611a3d90612d02565b60405180910390fd5b80600560008573ffffffffffffffffffffffffffffffffffffffff1673ffffffffffffffffffffffffffffffffffffffff16815260200190815260200160002060008473ffffffffffffffffffffffffffffffffffffffff1673ffffffffffffffffffffffffffffffffffffffff16815260200190815260200160002060006101000a81548160ff0219169083151502179055508173ffffffffffffffffffffffffffffffffffffffff168373ffffffffffffffffffffffffffffffffffffffff167f17307eab39ab6107e8899845ad3d59bd9653f200f220920489ca2b5937696c3183604051611b379190612bd9565b60405180910390a3505050565b611b4f84848461165e565b611b5b84848484611d83565b611b9a576040517f08c379a0000000000000000000000000000000000000000000000000000000008152600401611b9190612c82565b60405180910390fd5b50505050565b606060405180602001604052806000815250905090565b606060006001611bc684611f1a565b01905060008167ffffffffffffffff811115611c0b577f4e487b7100000000000000000000000000000000000000000000000000000000600052604160045260246000fd5b6040519080825280601f01601f191660200182016040528015611c3d5781602001600182028036833780820191505090505b509050600082602001820190505b600115611cd0578080600190039150507f3031323334353637383961626364656600000000000000000000000000000000600a86061a8153600a8581611cba577f4e487b7100000000000000000000000000000000000000000000000000000000600052601260045260246000fd5b0494506000851415611ccb57611cd0565b611c4b565b819350505050919050565b60008073ffffffffffffffffffffffffffffffffffffffff16611cfd83611958565b73ffffffffffffffffffffffffffffffffffffffff1614159050919050565b50505050565b50505050565b611d328383612151565b611d3f6000848484611d83565b611d7e576040517f08c379a0000000000000000000000000000000000000000000000000000000008152600401611d7590612c82565b60405180910390fd5b505050565b6000611da48473ffffffffffffffffffffffffffffffffffffffff1661236f565b15611f0d578373ffffffffffffffffffffffffffffffffffffffff1663150b7a02611dcd611508565b8786866040518563ffffffff1660e01b8152600401611def9493929190612b64565b602060405180830381600087803b158015611e0957600080fd5b505af1925050508015611e3a57506040513d601f19601f82011682018060405250810190611e379190612714565b60015b611ebd573d8060008114611e6a576040519150601f19603f3d011682016040523d82523d6000602084013e611e6f565b606091505b50600081511415611eb5576040517f08c379a0000000000000000000000000000000000000000000000000000000008152600401611eac90612c82565b60405180910390fd5b805181602001fd5b63150b7a0260e01b7bffffffffffffffffffffffffffffffffffffffffffffffffffffffff1916817bffffffffffffffffffffffffffffffffffffffffffffffffffffffff191614915050611f12565b600190505b949350505050565b600080600090507a184f03e93ff9f4daa797ed6e38ed64bf6a1f0100000000000000008310611f9e577a184f03e93ff9f4daa797ed6e38ed64bf6a1f0100000000000000008381611f94577f4e487b7100000000000000000000000000000000000000000000000000000000600052601260045260246000fd5b0492506040810190505b6d04ee2d6d415b85acef81000000008310612001576d04ee2d6d415b85acef81000000008381611ff7577f4e487b7100000000000000000000000000000000000000000000000000000000600052601260045260246000fd5b0492506020810190505b662386f26fc10000831061205657662386f26fc10000838161204c577f4e487b7100000000000000000000000000000000000000000000000000000000600052601260045260246000fd5b0492506010810190505b6305f5e10083106120a5576305f5e100838161209b577f4e487b7100000000000000000000000000000000000000000000000000000000600052601260045260246000fd5b0492506008810190505b61271083106120f05761271083816120e6577f4e487b7100000000000000000000000000000000000000000000000000000000600052601260045260246000fd5b0492506004810190505b60648310612139576064838161212f577f4e487b7100000000000000000000000000000000000000000000000000000000600052601260045260246000fd5b0492506002810190505b600a8310612148576001810190505b80915050919050565b600073ffffffffffffffffffffffffffffffffffffffff168273ffffffffffffffffffffffffffffffffffffffff1614156121c1576040517f08c379a00000000000000000000000000000000000000000000000000000000081526004016121b890612d62565b60405180910390fd5b6121ca81611cdb565b1561220a576040517f08c379a000000000000000000000000000000000000000000000000000000000815260040161220190612cc2565b60405180910390fd5b612218600083836001611d1c565b61222181611cdb565b15612261576040517f08c379a000000000000000000000000000000000000000000000000000000000815260040161225890612cc2565b60405180910390fd5b6001600360008473ffffffffffffffffffffffffffffffffffffffff1673ffffffffffffffffffffffffffffffffffffffff16815260200190815260200160002060008282540192505081905550816002600083815260200190815260200160002060006101000a81548173ffffffffffffffffffffffffffffffffffffffff021916908373ffffffffffffffffffffffffffffffffffffffff160217905550808273ffffffffffffffffffffffffffffffffffffffff16600073ffffffffffffffffffffffffffffffffffffffff167fddf252ad1be2c89b69c2b068fc378daa952ba7f163c4a11628f55a4df523b3ef60405160405180910390a461236b600083836001611d22565b5050565b6000808273ffffffffffffffffffffffffffffffffffffffff163b119050919050565b82805461239e9061302a565b90600052602060002090601f0160209004810192826123c05760008555612407565b82601f106123d957805160ff1916838001178555612407565b82800160010185558215612407579182015b828111156124065782518255916020019190600101906123eb565b5b5090506124149190612418565b5090565b5b80821115612431576000816000905550600101612419565b5090565b600061244861244384612e99565b612e74565b90508281526020810184848401111561246057600080fd5b61246b848285612fe8565b509392505050565b60008135905061248281613499565b92915050565b600081359050612497816134b0565b92915050565b6000815190506124ac816134b0565b92915050565b6000813590506124c1816134c7565b92915050565b6000815190506124d6816134c7565b92915050565b600082601f8301126124ed57600080fd5b81356124fd848260208601612435565b91505092915050565b600081359050612515816134de565b92915050565b60006020828403121561252d57600080fd5b600061253b84828501612473565b91505092915050565b6000806040838503121561255757600080fd5b600061256585828601612473565b925050602061257685828601612473565b9150509250929050565b60008060006060848603121561259557600080fd5b60006125a386828701612473565b93505060206125b486828701612473565b92505060406125c586828701612506565b9150509250925092565b600080600080608085870312156125e557600080fd5b60006125f387828801612473565b945050602061260487828801612473565b935050604061261587828801612506565b925050606085013567ffffffffffffffff81111561263257600080fd5b61263e878288016124dc565b91505092959194509250565b6000806040838503121561265d57600080fd5b600061266b85828601612473565b925050602061267c85828601612488565b9150509250929050565b6000806040838503121561269957600080fd5b60006126a785828601612473565b92505060206126b885828601612506565b9150509250929050565b6000602082840312156126d457600080fd5b60006126e28482850161249d565b91505092915050565b6000602082840312156126fd57600080fd5b600061270b848285016124b2565b91505092915050565b60006020828403121561272657600080fd5b6000612734848285016124c7565b91505092915050565b60006020828403121561274f57600080fd5b600061275d84828501612506565b91505092915050565b61276f81612f74565b82525050565b61277e81612f86565b82525050565b600061278f82612eca565b6127998185612ee0565b93506127a9818560208601612ff7565b6127b28161311a565b840191505092915050565b60006127c882612ed5565b6127d28185612ef1565b93506127e2818560208601612ff7565b6127eb8161311a565b840191505092915050565b600061280182612ed5565b61280b8185612f02565b935061281b818560208601612ff7565b6128248161311a565b840191505092915050565b600061283a82612ed5565b6128448185612f13565b9350612854818560208601612ff7565b80840191505092915050565b600061286d602d83612f02565b91506128788261312b565b604082019050919050565b6000612890603283612f02565b915061289b8261317a565b604082019050919050565b60006128b3602583612f02565b91506128be826131c9565b604082019050919050565b60006128d6601c83612f02565b91506128e182613218565b602082019050919050565b60006128f9602483612f02565b915061290482613241565b604082019050919050565b600061291c601983612f02565b915061292782613290565b602082019050919050565b600061293f602e83612f02565b915061294a826132b9565b604082019050919050565b6000612962602983612f02565b915061296d82613308565b604082019050919050565b6000612985602083612f02565b915061299082613357565b602082019050919050565b60006129a8601383612f02565b91506129b382613380565b602082019050919050565b60006129cb601883612f02565b91506129d6826133a9565b602082019050919050565b60006129ee602183612f02565b91506129f9826133d2565b604082019050919050565b6000612a11603d83612f02565b9150612a1c82613421565b604082019050919050565b6000612a34600a83612f02565b9150612a3f82613470565b602082019050919050565b60006080830160008301518482036000860152612a6782826127bd565b9150506020830151612a7c6020860182612aad565b506040830151612a8f6040860182612aad565b506060830151612aa26060860182612aad565b508091505092915050565b612ab681612fde565b82525050565b612ac581612fde565b82525050565b6000612ad7828561282f565b9150612ae3828461282f565b91508190509392505050565b6000602082019050612b046000830184612766565b92915050565b600060a082019050612b1f6000830188612766565b612b2c6020830187612766565b8181036040830152612b3e8186612a4a565b9050612b4d6060830185612abc565b612b5a6080830184612775565b9695505050505050565b6000608082019050612b796000830187612766565b612b866020830186612766565b612b936040830185612abc565b8181036060830152612ba58184612784565b905095945050505050565b6000604082019050612bc56000830185612766565b612bd26020830184612abc565b9392505050565b6000602082019050612bee6000830184612775565b92915050565b60006020820190508181036000830152612c0e81846127f6565b905092915050565b60006080820190508181036000830152612c3081876127f6565b9050612c3f6020830186612abc565b612c4c6040830185612abc565b612c596060830184612abc565b95945050505050565b60006020820190508181036000830152612c7b81612860565b9050919050565b60006020820190508181036000830152612c9b81612883565b9050919050565b60006020820190508181036000830152612cbb816128a6565b9050919050565b60006020820190508181036000830152612cdb816128c9565b9050919050565b60006020820190508181036000830152612cfb816128ec565b9050919050565b60006020820190508181036000830152612d1b8161290f565b9050919050565b60006020820190508181036000830152612d3b81612932565b9050919050565b60006020820190508181036000830152612d5b81612955565b9050919050565b60006020820190508181036000830152612d7b81612978565b9050919050565b60006020820190508181036000830152612d9b8161299b565b9050919050565b60006020820190508181036000830152612dbb816129be565b9050919050565b60006020820190508181036000830152612ddb816129e1565b9050919050565b60006020820190508181036000830152612dfb81612a04565b9050919050565b60006020820190508181036000830152612e1b81612a27565b9050919050565b6000602082019050612e376000830184612abc565b92915050565b6000606082019050612e526000830186612abc565b612e5f6020830185612abc565b612e6c6040830184612abc565b949350505050565b6000612e7e612e8f565b9050612e8a828261305c565b919050565b6000604051905090565b600067ffffffffffffffff821115612eb457612eb36130eb565b5b612ebd8261311a565b9050602081019050919050565b600081519050919050565b600081519050919050565b600082825260208201905092915050565b600082825260208201905092915050565b600082825260208201905092915050565b600081905092915050565b6000612f2982612fde565b9150612f3483612fde565b9250827fffffffffffffffffffffffffffffffffffffffffffffffffffffffffffffffff03821115612f6957612f6861308d565b5b828201905092915050565b6000612f7f82612fbe565b9050919050565b60008115159050919050565b60007fffffffff0000000000000000000000000000000000000000000000000000000082169050919050565b600073ffffffffffffffffffffffffffffffffffffffff82169050919050565b6000819050919050565b82818337600083830152505050565b60005b83811015613015578082015181840152602081019050612ffa565b83811115613024576000848401525b50505050565b6000600282049050600182168061304257607f821691505b60208210811415613056576130556130bc565b5b50919050565b6130658261311a565b810181811067ffffffffffffffff82111715613084576130836130eb565b5b80604052505050565b7f4e487b7100000000000000000000000000000000000000000000000000000000600052601160045260246000fd5b7f4e487b7100000000000000000000000000000000000000000000000000000000600052602260045260246000fd5b7f4e487b7100000000000000000000000000000000000000000000000000000000600052604160045260246000fd5b6000601f19601f8301169050919050565b7f4552433732313a2063616c6c6572206973206e6f7420746f6b656e206f776e6560008201527f72206f7220617070726f76656400000000000000000000000000000000000000602082015250565b7f4552433732313a207472616e7366657220746f206e6f6e20455243373231526560008201527f63656976657220696d706c656d656e7465720000000000000000000000000000602082015250565b7f4552433732313a207472616e736665722066726f6d20696e636f72726563742060008201527f6f776e6572000000000000000000000000000000000000000000000000000000602082015250565b7f4552433732313a20746f6b656e20616c7265616479206d696e74656400000000600082015250565b7f4552433732313a207472616e7366657220746f20746865207a65726f2061646460008201527f7265737300000000000000000000000000000000000000000000000000000000602082015250565b7f4552433732313a20617070726f766520746f2063616c6c657200000000000000600082015250565b7f4e6f7420656e6f756768207469636b65747320617661696c61626c6520666f7260008201527f20746869732063617465676f7279000000000000000000000000000000000000602082015250565b7f4552433732313a2061646472657373207a65726f206973206e6f74206120766160008201527f6c6964206f776e65720000000000000000000000000000000000000000000000602082015250565b7f4552433732313a206d696e7420746f20746865207a65726f2061646472657373600082015250565b7f4e6f7420656e6f756768204554482073656e7400000000000000000000000000600082015250565b7f4552433732313a20696e76616c696420746f6b656e2049440000000000000000600082015250565b7f4552433732313a20617070726f76616c20746f2063757272656e74206f776e6560008201527f7200000000000000000000000000000000000000000000000000000000000000602082015250565b7f4552433732313a20617070726f76652063616c6c6572206973206e6f7420746f60008201527f6b656e206f776e6572206f7220617070726f76656420666f7220616c6c000000602082015250565b7f4e6f74206d656d62657200000000000000000000000000000000000000000000600082015250565b6134a281612f74565b81146134ad57600080fd5b50565b6134b981612f86565b81146134c457600080fd5b50565b6134d081612f92565b81146134db57600080fd5b50565b6134e781612fde565b81146134f257600080fd5b5056fea26469706673582212204a1b8b93d87d154276b0468df10b2464e69748bb6fec73d56fa203aad5bb3cbd64736f6c63430008040033",
  "immutableReferences": {},
  "source": "pragma solidity ^0.8.0;\n\nimport \"@openzeppelin/contracts/token/ERC721/ERC721.sol\";\nimport \"@openzeppelin/contracts/utils/Counters.sol\";\nimport \"./Profile.sol\";\nimport \"./Marketplace.sol\";\n\ncontract Event is ERC721 {\n    Profile profile;\n    Marketplace marketplace;\n    using Counters for Counters.Counter;\n    Counters.Counter private _ticketIds;\n\n    address payable organizer = payable(msg.sender);\n    uint256 ticketSupply;\n    uint256 commission = 2;\n    struct TicketCategory {\n        string categoryName;\n        uint256 price;\n        uint256 supplyLimit;\n        uint256 sold;\n    }\n\n    struct Ticket {\n        address organizer;\n        address ticketOwner;\n        TicketCategory category; //category within ticket\n        uint256 currentPrice;\n        bool ticketListing;\n    }\n\n    uint256 categoryId;\n\n    mapping(uint256 => TicketCategory) public ticketCategories;\n    mapping(uint256 => Ticket) public ticketIDs;\n    mapping(address => uint256) public ticketsPerOwner;\n    event TicketMinted(address _owner, uint256 ticketId);\n    event TicketTransferred(address _newOwner, uint256 ticketId);\n\n    modifier isTicketOwner(uint256 ticketId) {\n        require(\n            ticketIDs[ticketId].ticketOwner == msg.sender,\n            \"Not authorized\"\n        );\n        _;\n    }\n\n    modifier isOrganizer() {\n        require(organizer == msg.sender, \"Not authorized to adjust sale\");\n        _;\n    }\n\n    modifier validTicketId(uint256 id) {\n        require(id < ticketSupply);\n        _;\n    }\n\n    constructor(\n        address _profile,\n        address _marketplace,\n        string[] memory _categories,\n        uint256[] memory _categoryPrices,\n        uint256[] memory _categoryLimits,\n        string memory _eventName,\n        string memory _eventSymbol\n    ) public payable ERC721(_eventName, _eventSymbol) {\n        marketplace = Marketplace(_marketplace);\n        profile = Profile(_profile);\n        require(\n            _categories.length == _categoryPrices.length,\n            \"Please key in again\"\n        );\n        require(\n            _categories.length == _categoryLimits.length,\n            \"Please key in again\"\n        );\n        categoryId = 0;\n        for (uint256 i = 0; i < _categories.length; i++) {\n            TicketCategory memory newTicketCategory = TicketCategory(\n                _categories[i],\n                _categoryPrices[i],\n                _categoryLimits[i],\n                0\n            );\n            ticketCategories[categoryId] = newTicketCategory;\n            ticketSupply += _categoryLimits[i];\n            categoryId += 1;\n        }\n    }\n\n    function mint(uint256 _category) public payable {\n        require(profile.checkMembership(msg.sender) == true, \"Not member\");\n\n        require(\n            ticketCategories[_category].sold <\n                ticketCategories[_category].supplyLimit,\n            \"Not enough tickets available for this category\"\n        );\n        require(\n            msg.value >= ticketCategories[_category].price,\n            \"Not enough ETH sent\"\n        );\n        _ticketIds.increment();\n        uint256 newItemId = _ticketIds.current();\n\n        Ticket memory newTicket = Ticket(\n            organizer,\n            msg.sender,\n            ticketCategories[_category],\n            ticketCategories[_category].price,\n            false\n        );\n\n        _safeMint(msg.sender, newItemId);\n        ticketsPerOwner[msg.sender] += 1;\n        ticketIDs[newItemId] = newTicket;\n        ticketCategories[_category].sold += 1;\n        organizer.transfer(ticketCategories[_category].price);\n        emit TicketMinted(msg.sender, newItemId);\n    }\n\n    function getOwner(uint256 ticketId)\n        public\n        view\n        validTicketId(ticketId)\n        returns (address)\n    {\n        return ticketIDs[ticketId].ticketOwner;\n    }\n\n    function getCategoryInformation(uint256 category)\n        public\n        view\n        returns (\n            uint256 _price,\n            uint256 _maxNumber,\n            uint256 _currentSupply\n        )\n    {\n        return (\n            ticketCategories[category].price,\n            ticketCategories[category].supplyLimit,\n            ticketCategories[category].sold\n        );\n    }\n\n    function getTicketPrice(uint256 ticketId)\n        public\n        view\n        validTicketId(ticketId)\n        returns (uint256)\n    {\n        return ticketIDs[ticketId].currentPrice;\n    }\n}\n",
  "sourcePath": "/Users/colin/Desktop/NFT_Marketplace/contracts/Event.sol",
  "compiler": {
    "name": "solc",
    "version": "0.8.4+commit.c7e474f2.Emscripten.clang"
  },
  "schemaVersion": "3.3.2",
  "updatedAt": "2023-03-30T06:32:35.405Z",
  "networkType": "ethereum",
  "devdoc": {
    "kind": "dev",
    "methods": {
      "approve(address,uint256)": {
        "details": "See {IERC721-approve}."
      },
      "balanceOf(address)": {
        "details": "See {IERC721-balanceOf}."
      },
      "getApproved(uint256)": {
        "details": "See {IERC721-getApproved}."
      },
      "isApprovedForAll(address,address)": {
        "details": "See {IERC721-isApprovedForAll}."
      },
      "name()": {
        "details": "See {IERC721Metadata-name}."
      },
      "ownerOf(uint256)": {
        "details": "See {IERC721-ownerOf}."
      },
      "safeTransferFrom(address,address,uint256)": {
        "details": "See {IERC721-safeTransferFrom}."
      },
      "safeTransferFrom(address,address,uint256,bytes)": {
        "details": "See {IERC721-safeTransferFrom}."
      },
      "setApprovalForAll(address,bool)": {
        "details": "See {IERC721-setApprovalForAll}."
      },
      "supportsInterface(bytes4)": {
        "details": "See {IERC165-supportsInterface}."
      },
      "symbol()": {
        "details": "See {IERC721Metadata-symbol}."
      },
      "tokenURI(uint256)": {
        "details": "See {IERC721Metadata-tokenURI}."
      },
      "transferFrom(address,address,uint256)": {
        "details": "See {IERC721-transferFrom}."
      }
    },
    "version": 1
  },
  "userdoc": {
    "kind": "user",
    "methods": {},
    "version": 1
  }
}