{
  "contractName": "Marketplace",
  "abi": [
    {
      "inputs": [
        {
          "internalType": "address",
          "name": "_profile",
          "type": "address"
        }
      ],
      "stateMutability": "nonpayable",
      "type": "constructor"
    },
    {
      "inputs": [
        {
          "internalType": "address",
          "name": "ticketAddress",
          "type": "address"
        },
        {
          "internalType": "uint256",
          "name": "tokenId",
          "type": "uint256"
        },
        {
          "internalType": "uint256",
          "name": "price",
          "type": "uint256"
        }
      ],
      "name": "listItem",
      "outputs": [],
      "stateMutability": "nonpayable",
      "type": "function"
    },
    {
      "inputs": [
        {
          "internalType": "address",
          "name": "ticketAddress",
          "type": "address"
        },
        {
          "internalType": "uint256",
          "name": "tokenId",
          "type": "uint256"
        }
      ],
      "name": "unlistItem",
      "outputs": [],
      "stateMutability": "nonpayable",
      "type": "function"
    },
    {
      "inputs": [
        {
          "internalType": "address",
          "name": "ticketAddress",
          "type": "address"
        },
        {
          "internalType": "uint256",
          "name": "tokenId",
          "type": "uint256"
        }
      ],
      "name": "buy",
      "outputs": [],
      "stateMutability": "payable",
      "type": "function"
    },
    {
      "inputs": [
        {
          "internalType": "address",
          "name": "ticketAddress",
          "type": "address"
        },
        {
          "internalType": "uint256",
          "name": "tokenId",
          "type": "uint256"
        },
        {
          "internalType": "uint256",
          "name": "newPrice",
          "type": "uint256"
        }
      ],
      "name": "updateListing",
      "outputs": [],
      "stateMutability": "nonpayable",
      "type": "function"
    },
    {
      "inputs": [
        {
          "internalType": "address",
          "name": "ticketAddress",
          "type": "address"
        },
        {
          "internalType": "uint256",
          "name": "tokenId",
          "type": "uint256"
        }
      ],
      "name": "getListing",
      "outputs": [
        {
          "components": [
            {
              "internalType": "uint256",
              "name": "price",
              "type": "uint256"
            },
            {
              "internalType": "address",
              "name": "seller",
              "type": "address"
            }
          ],
          "internalType": "struct Marketplace.MarketItem",
          "name": "",
          "type": "tuple"
        }
      ],
      "stateMutability": "view",
      "type": "function"
    }
  ],
  "bytecode": "0x608060405233600260006101000a81548173ffffffffffffffffffffffffffffffffffffffff021916908373ffffffffffffffffffffffffffffffffffffffff160217905550600260035573dd870fa1b7c4700f2bd7f44238821c26f7392148600460006101000a81548173ffffffffffffffffffffffffffffffffffffffff021916908373ffffffffffffffffffffffffffffffffffffffff160217905550348015620000ac57600080fd5b50604051620016ca380380620016ca8339818101604052810190620000d2919062000139565b600160008190555080600160006101000a81548173ffffffffffffffffffffffffffffffffffffffff021916908373ffffffffffffffffffffffffffffffffffffffff16021790555050620001b3565b600081519050620001338162000199565b92915050565b6000602082840312156200014c57600080fd5b60006200015c8482850162000122565b91505092915050565b6000620001728262000179565b9050919050565b600073ffffffffffffffffffffffffffffffffffffffff82169050919050565b620001a48162000165565b8114620001b057600080fd5b50565b61150780620001c36000396000f3fe60806040526004361061004a5760003560e01c806388700d1c1461004f57806389bfd38f1461008c57806399bd17e4146100b5578063cce7ec13146100de578063f772adf1146100fa575b600080fd5b34801561005b57600080fd5b5061007660048036038101906100719190610e0e565b610123565b604051610083919061118b565b60405180910390f35b34801561009857600080fd5b506100b360048036038101906100ae9190610e4a565b6101ee565b005b3480156100c157600080fd5b506100dc60048036038101906100d79190610e0e565b6105ba565b005b6100f860048036038101906100f39190610e0e565b61073a565b005b34801561010657600080fd5b50610121600480360381019061011c9190610e4a565b610a6a565b005b61012b610d76565b600560008473ffffffffffffffffffffffffffffffffffffffff1673ffffffffffffffffffffffffffffffffffffffff1681526020019081526020016000206000838152602001908152602001600020604051806040016040529081600082015481526020016001820160009054906101000a900473ffffffffffffffffffffffffffffffffffffffff1673ffffffffffffffffffffffffffffffffffffffff1673ffffffffffffffffffffffffffffffffffffffff1681525050905092915050565b82823373ffffffffffffffffffffffffffffffffffffffff168273ffffffffffffffffffffffffffffffffffffffff16636352211e836040518263ffffffff1660e01b815260040161024091906111a6565b60206040518083038186803b15801561025857600080fd5b505afa15801561026c573d6000803e3d6000fd5b505050506040513d601f19601f820116820180604052508101906102909190610de5565b73ffffffffffffffffffffffffffffffffffffffff16146102e6576040517f08c379a00000000000000000000000000000000000000000000000000000000081526004016102dd9061116b565b60405180910390fd5b6000600560008773ffffffffffffffffffffffffffffffffffffffff1673ffffffffffffffffffffffffffffffffffffffff1681526020019081526020016000206000868152602001908152602001600020604051806040016040529081600082015481526020016001820160009054906101000a900473ffffffffffffffffffffffffffffffffffffffff1673ffffffffffffffffffffffffffffffffffffffff1673ffffffffffffffffffffffffffffffffffffffff168152505090506000816000015111156103ed576040517f08c379a00000000000000000000000000000000000000000000000000000000081526004016103e49061114b565b60405180910390fd5b3073ffffffffffffffffffffffffffffffffffffffff168673ffffffffffffffffffffffffffffffffffffffff1663081812fc876040518263ffffffff1660e01b815260040161043d91906111a6565b60206040518083038186803b15801561045557600080fd5b505afa158015610469573d6000803e3d6000fd5b505050506040513d601f19601f8201168201806040525081019061048d9190610de5565b73ffffffffffffffffffffffffffffffffffffffff16146104e3576040517f08c379a00000000000000000000000000000000000000000000000000000000081526004016104da9061110b565b60405180910390fd5b60405180604001604052808581526020013373ffffffffffffffffffffffffffffffffffffffff16815250600560008873ffffffffffffffffffffffffffffffffffffffff1673ffffffffffffffffffffffffffffffffffffffff16815260200190815260200160002060008781526020019081526020016000206000820151816000015560208201518160010160006101000a81548173ffffffffffffffffffffffffffffffffffffffff021916908373ffffffffffffffffffffffffffffffffffffffff160217905550905050505050505050565b81813373ffffffffffffffffffffffffffffffffffffffff168273ffffffffffffffffffffffffffffffffffffffff16636352211e836040518263ffffffff1660e01b815260040161060c91906111a6565b60206040518083038186803b15801561062457600080fd5b505afa158015610638573d6000803e3d6000fd5b505050506040513d601f19601f8201168201806040525081019061065c9190610de5565b73ffffffffffffffffffffffffffffffffffffffff16146106b2576040517f08c379a00000000000000000000000000000000000000000000000000000000081526004016106a99061116b565b60405180910390fd5b600560008573ffffffffffffffffffffffffffffffffffffffff1673ffffffffffffffffffffffffffffffffffffffff16815260200190815260200160002060008481526020019081526020016000206000808201600090556001820160006101000a81549073ffffffffffffffffffffffffffffffffffffffff0219169055505050505050565b610742610d1c565b6000600560008473ffffffffffffffffffffffffffffffffffffffff1673ffffffffffffffffffffffffffffffffffffffff1681526020019081526020016000206000838152602001908152602001600020604051806040016040529081600082015481526020016001820160009054906101000a900473ffffffffffffffffffffffffffffffffffffffff1673ffffffffffffffffffffffffffffffffffffffff1673ffffffffffffffffffffffffffffffffffffffff168152505090506000816000015111610848576040517f08c379a000000000000000000000000000000000000000000000000000000000815260040161083f906110ab565b60405180910390fd5b60646003546108579190611233565b600161086391906111dd565b81600001516108729190611264565b34116108b3576040517f08c379a00000000000000000000000000000000000000000000000000000000081526004016108aa906110cb565b60405180910390fd5b600560008473ffffffffffffffffffffffffffffffffffffffff1673ffffffffffffffffffffffffffffffffffffffff16815260200190815260200160002060008381526020019081526020016000206000808201600090556001820160006101000a81549073ffffffffffffffffffffffffffffffffffffffff021916905550508273ffffffffffffffffffffffffffffffffffffffff166342842e0e826020015133856040518463ffffffff1660e01b815260040161097693929190611054565b600060405180830381600087803b15801561099057600080fd5b505af11580156109a4573d6000803e3d6000fd5b505050506000816020015173ffffffffffffffffffffffffffffffffffffffff1682600001516040516109d69061103f565b60006040518083038185875af1925050503d8060008114610a13576040519150601f19603f3d011682016040523d82523d6000602084013e610a18565b606091505b5050905080610a5c576040517f08c379a0000000000000000000000000000000000000000000000000000000008152600401610a539061108b565b60405180910390fd5b5050610a66610d6c565b5050565b82823373ffffffffffffffffffffffffffffffffffffffff168273ffffffffffffffffffffffffffffffffffffffff16636352211e836040518263ffffffff1660e01b8152600401610abc91906111a6565b60206040518083038186803b158015610ad457600080fd5b505afa158015610ae8573d6000803e3d6000fd5b505050506040513d601f19601f82011682018060405250810190610b0c9190610de5565b73ffffffffffffffffffffffffffffffffffffffff1614610b62576040517f08c379a0000000000000000000000000000000000000000000000000000000008152600401610b599061116b565b60405180910390fd5b610b6a610d1c565b60008311610bad576040517f08c379a0000000000000000000000000000000000000000000000000000000008152600401610ba4906110eb565b60405180910390fd5b6000600560008773ffffffffffffffffffffffffffffffffffffffff1673ffffffffffffffffffffffffffffffffffffffff1681526020019081526020016000206000868152602001908152602001600020604051806040016040529081600082015481526020016001820160009054906101000a900473ffffffffffffffffffffffffffffffffffffffff1673ffffffffffffffffffffffffffffffffffffffff1673ffffffffffffffffffffffffffffffffffffffff16815250509050600081600001511115610cb4576040517f08c379a0000000000000000000000000000000000000000000000000000000008152600401610cab9061114b565b60405180910390fd5b83600560008873ffffffffffffffffffffffffffffffffffffffff1673ffffffffffffffffffffffffffffffffffffffff16815260200190815260200160002060008781526020019081526020016000206000018190555050610d15610d6c565b5050505050565b60026000541415610d62576040517f08c379a0000000000000000000000000000000000000000000000000000000008152600401610d599061112b565b60405180910390fd5b6002600081905550565b6001600081905550565b604051806040016040528060008152602001600073ffffffffffffffffffffffffffffffffffffffff1681525090565b600081359050610db5816114a3565b92915050565b600081519050610dca816114a3565b92915050565b600081359050610ddf816114ba565b92915050565b600060208284031215610df757600080fd5b6000610e0584828501610dbb565b91505092915050565b60008060408385031215610e2157600080fd5b6000610e2f85828601610da6565b9250506020610e4085828601610dd0565b9150509250929050565b600080600060608486031215610e5f57600080fd5b6000610e6d86828701610da6565b9350506020610e7e86828701610dd0565b9250506040610e8f86828701610dd0565b9150509250925092565b610ea2816112be565b82525050565b610eb1816112be565b82525050565b6000610ec4600f836111cc565b9150610ecf82611358565b602082019050919050565b6000610ee7600a836111cc565b9150610ef282611381565b602082019050919050565b6000610f0a600a836111cc565b9150610f15826113aa565b602082019050919050565b6000610f2d600d836111cc565b9150610f38826113d3565b602082019050919050565b6000610f506000836111c1565b9150610f5b826113fc565b600082019050919050565b6000610f736014836111cc565b9150610f7e826113ff565b602082019050919050565b6000610f96601f836111cc565b9150610fa182611428565b602082019050919050565b6000610fb9600e836111cc565b9150610fc482611451565b602082019050919050565b6000610fdc600e836111cc565b9150610fe78261147a565b602082019050919050565b6040820160008201516110086000850182611021565b50602082015161101b6020850182610e99565b50505050565b61102a816112f0565b82525050565b611039816112f0565b82525050565b600061104a82610f43565b9150819050919050565b60006060820190506110696000830186610ea8565b6110766020830185610ea8565b6110836040830184611030565b949350505050565b600060208201905081810360008301526110a481610eb7565b9050919050565b600060208201905081810360008301526110c481610eda565b9050919050565b600060208201905081810360008301526110e481610efd565b9050919050565b6000602082019050818103600083015261110481610f20565b9050919050565b6000602082019050818103600083015261112481610f66565b9050919050565b6000602082019050818103600083015261114481610f89565b9050919050565b6000602082019050818103600083015261116481610fac565b9050919050565b6000602082019050818103600083015261118481610fcf565b9050919050565b60006040820190506111a06000830184610ff2565b92915050565b60006020820190506111bb6000830184611030565b92915050565b600081905092915050565b600082825260208201905092915050565b60006111e8826112f0565b91506111f3836112f0565b9250827fffffffffffffffffffffffffffffffffffffffffffffffffffffffffffffffff03821115611228576112276112fa565b5b828201905092915050565b600061123e826112f0565b9150611249836112f0565b92508261125957611258611329565b5b828204905092915050565b600061126f826112f0565b915061127a836112f0565b9250817fffffffffffffffffffffffffffffffffffffffffffffffffffffffffffffffff04831182151516156112b3576112b26112fa565b5b828202905092915050565b60006112c9826112d0565b9050919050565b600073ffffffffffffffffffffffffffffffffffffffff82169050919050565b6000819050919050565b7f4e487b7100000000000000000000000000000000000000000000000000000000600052601160045260246000fd5b7f4e487b7100000000000000000000000000000000000000000000000000000000600052601260045260246000fd5b7f5472616e73666572206661696c65640000000000000000000000000000000000600082015250565b7f4e6f74206c697374656400000000000000000000000000000000000000000000600082015250565b7f4e6f7420656e6f75676800000000000000000000000000000000000000000000600082015250565b7f496e76616c696420507269636500000000000000000000000000000000000000600082015250565b50565b7f4e4654206e6f7420617070726f76656420796574000000000000000000000000600082015250565b7f5265656e7472616e637947756172643a207265656e7472616e742063616c6c00600082015250565b7f416c7265616479206c6973746564000000000000000000000000000000000000600082015250565b7f4e6f7420617574686f72697a6564000000000000000000000000000000000000600082015250565b6114ac816112be565b81146114b757600080fd5b50565b6114c3816112f0565b81146114ce57600080fd5b5056fea2646970667358221220bc734e72c47045bdd5ae4589239ab7b33d2045289e768ed0b2eba0304cbc9a1864736f6c63430008040033",
  "immutableReferences": {},
  "source": "// SPDX-License-Identifier: MIT\r\npragma solidity ^0.8.4;\r\n\r\nimport \"./Profile.sol\";\r\nimport \"@openzeppelin/contracts/token/ERC721/IERC721.sol\";\r\nimport \"@openzeppelin/contracts/security/ReentrancyGuard.sol\";\r\n\r\ncontract Marketplace is ReentrancyGuard {\r\n    Profile profile;\r\n    address owner = msg.sender;\r\n    uint256 protocolFee = 2;\r\n    address protocolRecipient = 0xdD870fA1b7C4700F2BD7f44238821C26f7392148; //arbitray address\r\n\r\n    struct MarketItem {\r\n        uint256 price;\r\n        address seller;\r\n    }\r\n\r\n    mapping(address => mapping(uint256 => MarketItem)) private listings;\r\n\r\n    modifier isOwner(address ticketAddress, uint256 tokenId) {\r\n        require(\r\n            IERC721(ticketAddress).ownerOf(tokenId) == msg.sender,\r\n            \"Not authorized\"\r\n        );\r\n        _;\r\n    }\r\n\r\n    // receive address during deployment script\r\n    constructor(address _profile) public {\r\n        profile = Profile(_profile);\r\n    }\r\n\r\n    function listItem(\r\n        address ticketAddress,\r\n        uint256 tokenId,\r\n        uint256 price\r\n    ) public isOwner(ticketAddress, tokenId) {\r\n        MarketItem memory listing = listings[ticketAddress][tokenId];\r\n        require(listing.price <= 0, \"Already listed\");\r\n        require(\r\n            IERC721(ticketAddress).getApproved(tokenId) == address(this),\r\n            \"NFT not approved yet\"\r\n        );\r\n        listings[ticketAddress][tokenId] = MarketItem(price, msg.sender);\r\n    }\r\n\r\n    function unlistItem(address ticketAddress, uint256 tokenId)\r\n        public\r\n        isOwner(ticketAddress, tokenId)\r\n    {\r\n        delete (listings[ticketAddress][tokenId]);\r\n    }\r\n\r\n    function buy(address ticketAddress, uint256 tokenId)\r\n        public\r\n        payable\r\n        nonReentrant\r\n    {\r\n        MarketItem memory listedItem = listings[ticketAddress][tokenId];\r\n        require(listedItem.price > 0, \"Not listed\");\r\n        require(\r\n            msg.value > (listedItem.price * (1 + protocolFee / 100)),\r\n            \"Not enough\"\r\n        );\r\n        delete (listings[ticketAddress][tokenId]);\r\n        IERC721(ticketAddress).safeTransferFrom(\r\n            listedItem.seller,\r\n            msg.sender,\r\n            tokenId\r\n        );\r\n        (bool success, ) = payable(listedItem.seller).call{\r\n            value: listedItem.price\r\n        }(\"\");\r\n        require(success, \"Transfer failed\");\r\n    }\r\n\r\n    function updateListing(\r\n        address ticketAddress,\r\n        uint256 tokenId,\r\n        uint256 newPrice\r\n    ) public isOwner(ticketAddress, tokenId) nonReentrant {\r\n        require(newPrice > 0, \"Invalid Price\");\r\n        MarketItem memory listing = listings[ticketAddress][tokenId];\r\n        require(listing.price <= 0, \"Already listed\");\r\n        listings[ticketAddress][tokenId].price = newPrice;\r\n    }\r\n\r\n    function getListing(address ticketAddress, uint256 tokenId)\r\n        public\r\n        view\r\n        returns (MarketItem memory)\r\n    {\r\n        return listings[ticketAddress][tokenId];\r\n    }\r\n}\r\n",
  "sourcePath": "C:\\Users\\tingy\\Documents\\GitHub\\tt_contracts\\contracts\\Marketplace.sol",
  "compiler": {
    "name": "solc",
    "version": "0.8.4+commit.c7e474f2.Emscripten.clang"
  },
  "schemaVersion": "3.4.11",
  "updatedAt": "2023-03-27T14:29:41.177Z",
  "devdoc": {
    "kind": "dev",
    "methods": {},
    "version": 1
  },
  "userdoc": {
    "kind": "user",
    "methods": {},
    "version": 1
  }
}