{
  "contractName": "Marketplace",
  "abi": [
    {
      "inputs": [
        {
          "internalType": "address",
          "name": "_profile",
          "type": "address"
        }
      ],
      "stateMutability": "nonpayable",
      "type": "constructor"
    },
    {
      "anonymous": false,
      "inputs": [
        {
          "indexed": false,
          "internalType": "address",
          "name": "seller",
          "type": "address"
        },
        {
          "indexed": false,
          "internalType": "address",
          "name": "tokenAddress",
          "type": "address"
        },
        {
          "indexed": false,
          "internalType": "uint256",
          "name": "tokenId",
          "type": "uint256"
        },
        {
          "indexed": false,
          "internalType": "uint256",
          "name": "price",
          "type": "uint256"
        }
      ],
      "name": "ListItem",
      "type": "event"
    },
    {
      "anonymous": false,
      "inputs": [
        {
          "indexed": false,
          "internalType": "address",
          "name": "member",
          "type": "address"
        },
        {
          "indexed": false,
          "internalType": "uint256",
          "name": "points",
          "type": "uint256"
        }
      ],
      "name": "PointsEarned",
      "type": "event"
    },
    {
      "anonymous": false,
      "inputs": [
        {
          "indexed": false,
          "internalType": "address",
          "name": "_prevOwner",
          "type": "address"
        },
        {
          "indexed": false,
          "internalType": "address",
          "name": "_newOwner",
          "type": "address"
        },
        {
          "indexed": false,
          "internalType": "uint256",
          "name": "tokenId",
          "type": "uint256"
        }
      ],
      "name": "TicketTransferred",
      "type": "event"
    },
    {
      "anonymous": false,
      "inputs": [
        {
          "indexed": true,
          "internalType": "address",
          "name": "seller",
          "type": "address"
        },
        {
          "indexed": true,
          "internalType": "address",
          "name": "tokenAddress",
          "type": "address"
        },
        {
          "indexed": true,
          "internalType": "uint256",
          "name": "tokenId",
          "type": "uint256"
        }
      ],
      "name": "UnlistItem",
      "type": "event"
    },
    {
      "inputs": [
        {
          "internalType": "address",
          "name": "ticketAddress",
          "type": "address"
        },
        {
          "internalType": "uint256",
          "name": "tokenId",
          "type": "uint256"
        },
        {
          "internalType": "uint256",
          "name": "price",
          "type": "uint256"
        }
      ],
      "name": "listItem",
      "outputs": [],
      "stateMutability": "nonpayable",
      "type": "function"
    },
    {
      "inputs": [
        {
          "internalType": "address",
          "name": "ticketAddress",
          "type": "address"
        },
        {
          "internalType": "uint256",
          "name": "tokenId",
          "type": "uint256"
        }
      ],
      "name": "unlistItem",
      "outputs": [],
      "stateMutability": "nonpayable",
      "type": "function"
    },
    {
      "inputs": [
        {
          "internalType": "address",
          "name": "ticketAddress",
          "type": "address"
        },
        {
          "internalType": "uint256",
          "name": "tokenId",
          "type": "uint256"
        }
      ],
      "name": "buy",
      "outputs": [],
      "stateMutability": "payable",
      "type": "function",
      "payable": true
    },
    {
      "inputs": [
        {
          "internalType": "address",
          "name": "ticketAddress",
          "type": "address"
        },
        {
          "internalType": "uint256",
          "name": "tokenId",
          "type": "uint256"
        },
        {
          "internalType": "uint256",
          "name": "newPrice",
          "type": "uint256"
        }
      ],
      "name": "updateListing",
      "outputs": [],
      "stateMutability": "nonpayable",
      "type": "function"
    },
    {
      "inputs": [
        {
          "internalType": "address",
          "name": "operator",
          "type": "address"
        },
        {
          "internalType": "address",
          "name": "from",
          "type": "address"
        },
        {
          "internalType": "uint256",
          "name": "tokenId",
          "type": "uint256"
        },
        {
          "internalType": "bytes",
          "name": "data",
          "type": "bytes"
        }
      ],
      "name": "onERC721Received",
      "outputs": [
        {
          "internalType": "bytes4",
          "name": "",
          "type": "bytes4"
        }
      ],
      "stateMutability": "nonpayable",
      "type": "function"
    },
    {
      "inputs": [
        {
          "internalType": "address",
          "name": "ticketAddress",
          "type": "address"
        },
        {
          "internalType": "uint256",
          "name": "tokenId",
          "type": "uint256"
        }
      ],
      "name": "getListing",
      "outputs": [
        {
          "components": [
            {
              "internalType": "uint256",
              "name": "price",
              "type": "uint256"
            },
            {
              "internalType": "address",
              "name": "seller",
              "type": "address"
            }
          ],
          "internalType": "struct Marketplace.MarketItem",
          "name": "",
          "type": "tuple"
        }
      ],
      "stateMutability": "view",
      "type": "function",
      "constant": true
    }
  ],
  "bytecode": "0x608060405233600260006101000a81548173ffffffffffffffffffffffffffffffffffffffff021916908373ffffffffffffffffffffffffffffffffffffffff160217905550600260035573dd870fa1b7c4700f2bd7f44238821c26f7392148600460006101000a81548173ffffffffffffffffffffffffffffffffffffffff021916908373ffffffffffffffffffffffffffffffffffffffff160217905550348015620000ac57600080fd5b5060405162001b8138038062001b818339818101604052810190620000d2919062000139565b600160008190555080600160006101000a81548173ffffffffffffffffffffffffffffffffffffffff021916908373ffffffffffffffffffffffffffffffffffffffff16021790555050620001b3565b600081519050620001338162000199565b92915050565b6000602082840312156200014c57600080fd5b60006200015c8482850162000122565b91505092915050565b6000620001728262000179565b9050919050565b600073ffffffffffffffffffffffffffffffffffffffff82169050919050565b620001a48162000165565b8114620001b057600080fd5b50565b6119be80620001c36000396000f3fe6080604052600436106100555760003560e01c8063150b7a021461005a57806388700d1c1461009757806389bfd38f146100d457806399bd17e4146100fd578063cce7ec1314610126578063f772adf114610142575b600080fd5b34801561006657600080fd5b50610081600480360381019061007c919061108f565b61016b565b60405161008e9190611413565b60405180910390f35b3480156100a357600080fd5b506100be60048036038101906100b9919061110a565b61017f565b6040516100cb919061152e565b60405180910390f35b3480156100e057600080fd5b506100fb60048036038101906100f69190611146565b61024a565b005b34801561010957600080fd5b50610124600480360381019061011f919061110a565b61056d565b005b610140600480360381019061013b919061110a565b610748565b005b34801561014e57600080fd5b5061016960048036038101906101649190611146565b610c83565b005b600063150b7a0260e01b9050949350505050565b610187610f8f565b600560008473ffffffffffffffffffffffffffffffffffffffff1673ffffffffffffffffffffffffffffffffffffffff1681526020019081526020016000206000838152602001908152602001600020604051806040016040529081600082015481526020016001820160009054906101000a900473ffffffffffffffffffffffffffffffffffffffff1673ffffffffffffffffffffffffffffffffffffffff1673ffffffffffffffffffffffffffffffffffffffff1681525050905092915050565b82823373ffffffffffffffffffffffffffffffffffffffff168273ffffffffffffffffffffffffffffffffffffffff16636352211e836040518263ffffffff1660e01b815260040161029c9190611549565b60206040518083038186803b1580156102b457600080fd5b505afa1580156102c8573d6000803e3d6000fd5b505050506040513d601f19601f820116820180604052508101906102ec9190611066565b73ffffffffffffffffffffffffffffffffffffffff1614610342576040517f08c379a00000000000000000000000000000000000000000000000000000000081526004016103399061150e565b60405180910390fd5b61034a610f35565b6000600560008773ffffffffffffffffffffffffffffffffffffffff1673ffffffffffffffffffffffffffffffffffffffff1681526020019081526020016000206000868152602001908152602001600020604051806040016040529081600082015481526020016001820160009054906101000a900473ffffffffffffffffffffffffffffffffffffffff1673ffffffffffffffffffffffffffffffffffffffff1673ffffffffffffffffffffffffffffffffffffffff16815250509050600081600001511115610451576040517f08c379a0000000000000000000000000000000000000000000000000000000008152600401610448906114ee565b60405180910390fd5b60405180604001604052808581526020013373ffffffffffffffffffffffffffffffffffffffff16815250600560008873ffffffffffffffffffffffffffffffffffffffff1673ffffffffffffffffffffffffffffffffffffffff16815260200190815260200160002060008781526020019081526020016000206000820151816000015560208201518160010160006101000a81548173ffffffffffffffffffffffffffffffffffffffff021916908373ffffffffffffffffffffffffffffffffffffffff1602179055509050507f193410903a36438c388b0f1464f8f0bbe73a30106665f790d1c52198a6ac79913387878760405161055594939291906113a5565b60405180910390a150610566610f85565b5050505050565b81813373ffffffffffffffffffffffffffffffffffffffff168273ffffffffffffffffffffffffffffffffffffffff16636352211e836040518263ffffffff1660e01b81526004016105bf9190611549565b60206040518083038186803b1580156105d757600080fd5b505afa1580156105eb573d6000803e3d6000fd5b505050506040513d601f19601f8201168201806040525081019061060f9190611066565b73ffffffffffffffffffffffffffffffffffffffff1614610665576040517f08c379a000000000000000000000000000000000000000000000000000000000815260040161065c9061150e565b60405180910390fd5b600560008573ffffffffffffffffffffffffffffffffffffffff1673ffffffffffffffffffffffffffffffffffffffff16815260200190815260200160002060008481526020019081526020016000206000808201600090556001820160006101000a81549073ffffffffffffffffffffffffffffffffffffffff02191690555050828473ffffffffffffffffffffffffffffffffffffffff163373ffffffffffffffffffffffffffffffffffffffff167f36d7a60c5bf1b339e74159145d7e80dd6fdcbc47f63643ef5943e9433338eacb60405160405180910390a450505050565b610750610f35565b6000600560008473ffffffffffffffffffffffffffffffffffffffff1673ffffffffffffffffffffffffffffffffffffffff1681526020019081526020016000206000838152602001908152602001600020604051806040016040529081600082015481526020016001820160009054906101000a900473ffffffffffffffffffffffffffffffffffffffff1673ffffffffffffffffffffffffffffffffffffffff1673ffffffffffffffffffffffffffffffffffffffff168152505090506000816000015111610856576040517f08c379a000000000000000000000000000000000000000000000000000000000815260040161084d9061144e565b60405180910390fd5b6064600354610865919061162c565b600161087191906115d6565b8160000151610880919061165d565b34116108c1576040517f08c379a00000000000000000000000000000000000000000000000000000000081526004016108b89061146e565b60405180910390fd5b3073ffffffffffffffffffffffffffffffffffffffff168373ffffffffffffffffffffffffffffffffffffffff1663081812fc846040518263ffffffff1660e01b81526004016109119190611549565b60206040518083038186803b15801561092957600080fd5b505afa15801561093d573d6000803e3d6000fd5b505050506040513d601f19601f820116820180604052508101906109619190611066565b73ffffffffffffffffffffffffffffffffffffffff16146109b7576040517f08c379a00000000000000000000000000000000000000000000000000000000081526004016109ae9061148e565b60405180910390fd5b600560008473ffffffffffffffffffffffffffffffffffffffff1673ffffffffffffffffffffffffffffffffffffffff16815260200190815260200160002060008381526020019081526020016000206000808201600090556001820160006101000a81549073ffffffffffffffffffffffffffffffffffffffff0219169055505060003390506000826020015190508473ffffffffffffffffffffffffffffffffffffffff166342842e0e846020015133876040518463ffffffff1660e01b8152600401610a889392919061136e565b600060405180830381600087803b158015610aa257600080fd5b505af1158015610ab6573d6000803e3d6000fd5b505050506000836020015173ffffffffffffffffffffffffffffffffffffffff168460000151604051610ae890611359565b60006040518083038185875af1925050503d8060008114610b25576040519150601f19603f3d011682016040523d82523d6000602084013e610b2a565b606091505b5050905080610b6e576040517f08c379a0000000000000000000000000000000000000000000000000000000008152600401610b659061142e565b60405180910390fd5b7f17fe3deddce525fa12700a731e77ea94c319000ee656076e9e3f0d21638db766828487604051610ba19392919061136e565b60405180910390a1600160009054906101000a900473ffffffffffffffffffffffffffffffffffffffff1673ffffffffffffffffffffffffffffffffffffffff1663d909d5e38460036040518363ffffffff1660e01b8152600401610c079291906113ea565b600060405180830381600087803b158015610c2157600080fd5b505af1158015610c35573d6000803e3d6000fd5b505050507f2c4c0dc427a50c4a69d2fc184c47a311acf950d8d2f289fbaee64e83e9b28967836003604051610c6b9291906113ea565b60405180910390a150505050610c7f610f85565b5050565b82823373ffffffffffffffffffffffffffffffffffffffff168273ffffffffffffffffffffffffffffffffffffffff16636352211e836040518263ffffffff1660e01b8152600401610cd59190611549565b60206040518083038186803b158015610ced57600080fd5b505afa158015610d01573d6000803e3d6000fd5b505050506040513d601f19601f82011682018060405250810190610d259190611066565b73ffffffffffffffffffffffffffffffffffffffff1614610d7b576040517f08c379a0000000000000000000000000000000000000000000000000000000008152600401610d729061150e565b60405180910390fd5b610d83610f35565b60008311610dc6576040517f08c379a0000000000000000000000000000000000000000000000000000000008152600401610dbd906114ae565b60405180910390fd5b6000600560008773ffffffffffffffffffffffffffffffffffffffff1673ffffffffffffffffffffffffffffffffffffffff1681526020019081526020016000206000868152602001908152602001600020604051806040016040529081600082015481526020016001820160009054906101000a900473ffffffffffffffffffffffffffffffffffffffff1673ffffffffffffffffffffffffffffffffffffffff1673ffffffffffffffffffffffffffffffffffffffff16815250509050600081600001511115610ecd576040517f08c379a0000000000000000000000000000000000000000000000000000000008152600401610ec4906114ee565b60405180910390fd5b83600560008873ffffffffffffffffffffffffffffffffffffffff1673ffffffffffffffffffffffffffffffffffffffff16815260200190815260200160002060008781526020019081526020016000206000018190555050610f2e610f85565b5050505050565b60026000541415610f7b576040517f08c379a0000000000000000000000000000000000000000000000000000000008152600401610f72906114ce565b60405180910390fd5b6002600081905550565b6001600081905550565b604051806040016040528060008152602001600073ffffffffffffffffffffffffffffffffffffffff1681525090565b6000610fd2610fcd84611589565b611564565b905082815260208101848484011115610fea57600080fd5b610ff5848285611731565b509392505050565b60008135905061100c8161195a565b92915050565b6000815190506110218161195a565b92915050565b600082601f83011261103857600080fd5b8135611048848260208601610fbf565b91505092915050565b60008135905061106081611971565b92915050565b60006020828403121561107857600080fd5b600061108684828501611012565b91505092915050565b600080600080608085870312156110a557600080fd5b60006110b387828801610ffd565b94505060206110c487828801610ffd565b93505060406110d587828801611051565b925050606085013567ffffffffffffffff8111156110f257600080fd5b6110fe87828801611027565b91505092959194509250565b6000806040838503121561111d57600080fd5b600061112b85828601610ffd565b925050602061113c85828601611051565b9150509250929050565b60008060006060848603121561115b57600080fd5b600061116986828701610ffd565b935050602061117a86828701611051565b925050604061118b86828701611051565b9150509250925092565b61119e816116b7565b82525050565b6111ad816116b7565b82525050565b6111bc816116c9565b82525050565b6111cb8161171f565b82525050565b60006111de600f836115c5565b91506111e98261180f565b602082019050919050565b6000611201600a836115c5565b915061120c82611838565b602082019050919050565b6000611224600a836115c5565b915061122f82611861565b602082019050919050565b6000611247600c836115c5565b91506112528261188a565b602082019050919050565b600061126a600d836115c5565b9150611275826118b3565b602082019050919050565b600061128d6000836115ba565b9150611298826118dc565b600082019050919050565b60006112b0601f836115c5565b91506112bb826118df565b602082019050919050565b60006112d3600e836115c5565b91506112de82611908565b602082019050919050565b60006112f6600e836115c5565b915061130182611931565b602082019050919050565b604082016000820151611322600085018261133b565b5060208201516113356020850182611195565b50505050565b61134481611715565b82525050565b61135381611715565b82525050565b600061136482611280565b9150819050919050565b600060608201905061138360008301866111a4565b61139060208301856111a4565b61139d604083018461134a565b949350505050565b60006080820190506113ba60008301876111a4565b6113c760208301866111a4565b6113d4604083018561134a565b6113e1606083018461134a565b95945050505050565b60006040820190506113ff60008301856111a4565b61140c60208301846111c2565b9392505050565b600060208201905061142860008301846111b3565b92915050565b60006020820190508181036000830152611447816111d1565b9050919050565b60006020820190508181036000830152611467816111f4565b9050919050565b6000602082019050818103600083015261148781611217565b9050919050565b600060208201905081810360008301526114a78161123a565b9050919050565b600060208201905081810360008301526114c78161125d565b9050919050565b600060208201905081810360008301526114e7816112a3565b9050919050565b60006020820190508181036000830152611507816112c6565b9050919050565b60006020820190508181036000830152611527816112e9565b9050919050565b6000604082019050611543600083018461130c565b92915050565b600060208201905061155e600083018461134a565b92915050565b600061156e61157f565b905061157a8282611740565b919050565b6000604051905090565b600067ffffffffffffffff8211156115a4576115a36117cf565b5b6115ad826117fe565b9050602081019050919050565b600081905092915050565b600082825260208201905092915050565b60006115e182611715565b91506115ec83611715565b9250827fffffffffffffffffffffffffffffffffffffffffffffffffffffffffffffffff0382111561162157611620611771565b5b828201905092915050565b600061163782611715565b915061164283611715565b925082611652576116516117a0565b5b828204905092915050565b600061166882611715565b915061167383611715565b9250817fffffffffffffffffffffffffffffffffffffffffffffffffffffffffffffffff04831182151516156116ac576116ab611771565b5b828202905092915050565b60006116c2826116f5565b9050919050565b60007fffffffff0000000000000000000000000000000000000000000000000000000082169050919050565b600073ffffffffffffffffffffffffffffffffffffffff82169050919050565b6000819050919050565b600061172a82611715565b9050919050565b82818337600083830152505050565b611749826117fe565b810181811067ffffffffffffffff82111715611768576117676117cf565b5b80604052505050565b7f4e487b7100000000000000000000000000000000000000000000000000000000600052601160045260246000fd5b7f4e487b7100000000000000000000000000000000000000000000000000000000600052601260045260246000fd5b7f4e487b7100000000000000000000000000000000000000000000000000000000600052604160045260246000fd5b6000601f19601f8301169050919050565b7f5472616e73666572206661696c65640000000000000000000000000000000000600082015250565b7f4e6f74206c697374656400000000000000000000000000000000000000000000600082015250565b7f4e6f7420656e6f75676800000000000000000000000000000000000000000000600082015250565b7f4e6f7420617070726f7665640000000000000000000000000000000000000000600082015250565b7f496e76616c696420507269636500000000000000000000000000000000000000600082015250565b50565b7f5265656e7472616e637947756172643a207265656e7472616e742063616c6c00600082015250565b7f416c7265616479206c6973746564000000000000000000000000000000000000600082015250565b7f4e6f7420617574686f72697a6564000000000000000000000000000000000000600082015250565b611963816116b7565b811461196e57600080fd5b50565b61197a81611715565b811461198557600080fd5b5056fea2646970667358221220f958e01d706036efba2c91226f183cb4f6b85384f9cceca51e5d1e7f28fda51264736f6c63430008040033",
  "immutableReferences": {},
  "source": "// SPDX-License-Identifier: MIT\npragma solidity ^0.8.4;\n\nimport \"./Profile.sol\";\nimport \"@openzeppelin/contracts/token/ERC721/IERC721.sol\";\nimport \"@openzeppelin/contracts/security/ReentrancyGuard.sol\";\nimport \"@openzeppelin/contracts/token/ERC721/IERC721Receiver.sol\";\n\ncontract Marketplace is ReentrancyGuard, IERC721Receiver {\n    Profile profile;\n    address owner = msg.sender;\n    uint256 protocolFee = 2;\n    address protocolRecipient = 0xdD870fA1b7C4700F2BD7f44238821C26f7392148; //arbitray address\n\n    struct MarketItem {\n        uint256 price;\n        address seller;\n    }\n\n    mapping(address => mapping(uint256 => MarketItem)) private listings;\n    event TicketTransferred(\n        address _prevOwner,\n        address _newOwner,\n        uint256 tokenId\n    );\n    event ListItem(\n        address seller,\n        address tokenAddress,\n        uint256 tokenId,\n        uint256 price\n    );\n    event UnlistItem(\n        address indexed seller,\n        address indexed tokenAddress,\n        uint256 indexed tokenId\n    );\n\n    event PointsEarned(address member, uint256 points); \n\n    modifier isOwner(address ticketAddress, uint256 tokenId) {\n        require(\n            IERC721(ticketAddress).ownerOf(tokenId) == msg.sender,\n            \"Not authorized\"\n        );\n        _;\n    }\n\n    // receive address during deployment script\n    constructor(address _profile) public {\n        profile = Profile(_profile);\n    }\n\n    function listItem(\n        address ticketAddress,\n        uint256 tokenId,\n        uint256 price\n    ) public isOwner(ticketAddress, tokenId) nonReentrant {\n        MarketItem memory listing = listings[ticketAddress][tokenId];\n        require(listing.price <= 0, \"Already listed\");\n        listings[ticketAddress][tokenId] = MarketItem(price, msg.sender);\n        emit ListItem(msg.sender, ticketAddress, tokenId, price);\n    }\n\n    function unlistItem(address ticketAddress, uint256 tokenId)\n        public\n        isOwner(ticketAddress, tokenId)\n    {\n        delete (listings[ticketAddress][tokenId]);\n        emit UnlistItem(msg.sender, ticketAddress, tokenId);\n    }\n\n    function buy(address ticketAddress, uint256 tokenId)\n        public\n        payable\n        nonReentrant\n    {\n        MarketItem memory listedItem = listings[ticketAddress][tokenId];\n        require(listedItem.price > 0, \"Not listed\");\n        require(\n            msg.value > (listedItem.price * (1 + protocolFee / 100)),\n            \"Not enough\"\n        );\n        require(\n            IERC721(ticketAddress).getApproved(tokenId) == address(this),\n            \"Not approved\"\n        );\n        delete (listings[ticketAddress][tokenId]);\n        address newOwner = msg.sender;\n        address prevOwner = listedItem.seller;\n        IERC721(ticketAddress).safeTransferFrom(\n            listedItem.seller,\n            msg.sender,\n            tokenId\n        );\n        (bool success, ) = payable(listedItem.seller).call{\n            value: listedItem.price\n        }(\"\");\n        require(success, \"Transfer failed\");\n        emit TicketTransferred(prevOwner, newOwner, tokenId);\n        profile.earnPoints(newOwner, 3); \n        emit PointsEarned(newOwner, 3);\n\n    }\n\n    function updateListing(\n        address ticketAddress,\n        uint256 tokenId,\n        uint256 newPrice\n    ) public isOwner(ticketAddress, tokenId) nonReentrant {\n        require(newPrice > 0, \"Invalid Price\");\n        MarketItem memory listing = listings[ticketAddress][tokenId];\n        require(listing.price <= 0, \"Already listed\");\n        listings[ticketAddress][tokenId].price = newPrice;\n    }\n\n    function onERC721Received(\n        address operator,\n        address from,\n        uint256 tokenId,\n        bytes memory data\n    ) public virtual override returns (bytes4) {\n        return this.onERC721Received.selector;\n    }\n\n    function getListing(address ticketAddress, uint256 tokenId)\n        public\n        view\n        returns (MarketItem memory)\n    {\n        return listings[ticketAddress][tokenId];\n    }\n}\n",
  "sourcePath": "/Users/colin/Desktop/NFT_Marketplace/contracts/Marketplace.sol",
  "compiler": {
    "name": "solc",
    "version": "0.8.4+commit.c7e474f2.Emscripten.clang"
  },
  "schemaVersion": "3.3.2",
  "updatedAt": "2023-03-30T06:32:35.421Z",
  "networkType": "ethereum",
  "devdoc": {
    "kind": "dev",
    "methods": {
      "onERC721Received(address,address,uint256,bytes)": {
        "details": "Whenever an {IERC721} `tokenId` token is transferred to this contract via {IERC721-safeTransferFrom} by `operator` from `from`, this function is called. It must return its Solidity selector to confirm the token transfer. If any other value is returned or the interface is not implemented by the recipient, the transfer will be reverted. The selector can be obtained in Solidity with `IERC721Receiver.onERC721Received.selector`."
      }
    },
    "version": 1
  },
  "userdoc": {
    "kind": "user",
    "methods": {},
    "version": 1
  }
}