{
  "contractName": "Profile",
  "abi": [
    {
      "inputs": [
        {
          "internalType": "uint256",
          "name": "goldPoints",
          "type": "uint256"
        },
        {
          "internalType": "uint256",
          "name": "silverPoints",
          "type": "uint256"
        },
        {
          "internalType": "uint256",
          "name": "bronzePoints",
          "type": "uint256"
        }
      ],
      "stateMutability": "nonpayable",
      "type": "constructor"
    },
    {
      "inputs": [],
      "name": "bronzeTierPoints",
      "outputs": [
        {
          "internalType": "uint256",
          "name": "",
          "type": "uint256"
        }
      ],
      "stateMutability": "view",
      "type": "function",
      "constant": true
    },
    {
      "inputs": [],
      "name": "discountRate",
      "outputs": [
        {
          "internalType": "uint256",
          "name": "",
          "type": "uint256"
        }
      ],
      "stateMutability": "view",
      "type": "function",
      "constant": true
    },
    {
      "inputs": [],
      "name": "goldTierPoints",
      "outputs": [
        {
          "internalType": "uint256",
          "name": "",
          "type": "uint256"
        }
      ],
      "stateMutability": "view",
      "type": "function",
      "constant": true
    },
    {
      "inputs": [
        {
          "internalType": "address",
          "name": "",
          "type": "address"
        }
      ],
      "name": "members",
      "outputs": [
        {
          "internalType": "address payable",
          "name": "walletAddress",
          "type": "address"
        },
        {
          "internalType": "enum Profile.Tier",
          "name": "tier",
          "type": "uint8"
        },
        {
          "internalType": "uint256",
          "name": "points",
          "type": "uint256"
        }
      ],
      "stateMutability": "view",
      "type": "function",
      "constant": true
    },
    {
      "inputs": [
        {
          "internalType": "address",
          "name": "",
          "type": "address"
        }
      ],
      "name": "membership",
      "outputs": [
        {
          "internalType": "bool",
          "name": "",
          "type": "bool"
        }
      ],
      "stateMutability": "view",
      "type": "function",
      "constant": true
    },
    {
      "inputs": [],
      "name": "owner",
      "outputs": [
        {
          "internalType": "address",
          "name": "",
          "type": "address"
        }
      ],
      "stateMutability": "view",
      "type": "function",
      "constant": true
    },
    {
      "inputs": [],
      "name": "silverTierPoints",
      "outputs": [
        {
          "internalType": "uint256",
          "name": "",
          "type": "uint256"
        }
      ],
      "stateMutability": "view",
      "type": "function",
      "constant": true
    },
    {
      "inputs": [],
      "name": "createMember",
      "outputs": [],
      "stateMutability": "nonpayable",
      "type": "function"
    },
    {
      "inputs": [
        {
          "internalType": "address",
          "name": "_address",
          "type": "address"
        },
        {
          "internalType": "uint256",
          "name": "amount",
          "type": "uint256"
        }
      ],
      "name": "earnPoints",
      "outputs": [],
      "stateMutability": "nonpayable",
      "type": "function"
    },
    {
      "inputs": [
        {
          "internalType": "address",
          "name": "_address",
          "type": "address"
        }
      ],
      "name": "checkPoints",
      "outputs": [
        {
          "internalType": "uint256",
          "name": "",
          "type": "uint256"
        }
      ],
      "stateMutability": "view",
      "type": "function",
      "constant": true
    },
    {
      "inputs": [
        {
          "internalType": "address",
          "name": "_address",
          "type": "address"
        }
      ],
      "name": "checkMembership",
      "outputs": [
        {
          "internalType": "bool",
          "name": "",
          "type": "bool"
        }
      ],
      "stateMutability": "view",
      "type": "function",
      "constant": true
    }
  ],
  "bytecode": "0x608060405234801561001057600080fd5b50604051610c4f380380610c4f833981810160405281019061003291906100a4565b336000806101000a81548173ffffffffffffffffffffffffffffffffffffffff021916908373ffffffffffffffffffffffffffffffffffffffff160217905550826001819055508160028190555080600381905550505050610114565b60008151905061009e816100fd565b92915050565b6000806000606084860312156100b957600080fd5b60006100c78682870161008f565b93505060206100d88682870161008f565b92505060406100e98682870161008f565b9150509250925092565b6000819050919050565b610106816100f3565b811461011157600080fd5b50565b610b2c806101236000396000f3fe608060405234801561001057600080fd5b50600436106100a95760003560e01c80638da5cb5b116100715780638da5cb5b1461018e578063d1d0ca53146101ac578063d815e58d146101ca578063d909d5e3146101d4578063e6c0e6d5146101f0578063e7d235831461020e576100a9565b806308ae4b0c146100ae5780630f17e976146100e057806334e0ee2e146100fe5780635fb64fd61461012e578063772ccf5d1461015e575b600080fd5b6100c860048036038101906100c391906107cc565b61022c565b6040516100d7939291906108ba565b60405180910390f35b6100e8610283565b6040516100f5919061092c565b60405180910390f35b610118600480360381019061011391906107cc565b610289565b604051610125919061092c565b60405180910390f35b610148600480360381019061014391906107cc565b6102d5565b60405161015591906108f1565b60405180910390f35b610178600480360381019061017391906107cc565b61032b565b60405161018591906108f1565b60405180910390f35b61019661034b565b6040516101a3919061089f565b60405180910390f35b6101b461036f565b6040516101c1919061092c565b60405180910390f35b6101d2610375565b005b6101ee60048036038101906101e991906107f5565b6105b6565b005b6101f8610796565b604051610205919061092c565b60405180910390f35b61021661079c565b604051610223919061092c565b60405180910390f35b60056020528060005260406000206000915090508060000160009054906101000a900473ffffffffffffffffffffffffffffffffffffffff16908060000160149054906101000a900460ff16908060010154905083565b60015481565b6000600560008373ffffffffffffffffffffffffffffffffffffffff1673ffffffffffffffffffffffffffffffffffffffff168152602001908152602001600020600101549050919050565b6000600660008373ffffffffffffffffffffffffffffffffffffffff1673ffffffffffffffffffffffffffffffffffffffff16815260200190815260200160002060009054906101000a900460ff169050919050565b60066020528060005260406000206000915054906101000a900460ff1681565b60008054906101000a900473ffffffffffffffffffffffffffffffffffffffff1681565b60035481565b60001515600660003373ffffffffffffffffffffffffffffffffffffffff1673ffffffffffffffffffffffffffffffffffffffff16815260200190815260200160002060009054906101000a900460ff16151514610408576040517f08c379a00000000000000000000000000000000000000000000000000000000081526004016103ff9061090c565b60405180910390fd5b6001600660003373ffffffffffffffffffffffffffffffffffffffff1673ffffffffffffffffffffffffffffffffffffffff16815260200190815260200160002060006101000a81548160ff02191690831515021790555060405180606001604052803373ffffffffffffffffffffffffffffffffffffffff168152602001600060028111156104c1577f4e487b7100000000000000000000000000000000000000000000000000000000600052602160045260246000fd5b81526020016000815250600560003373ffffffffffffffffffffffffffffffffffffffff1673ffffffffffffffffffffffffffffffffffffffff16815260200190815260200160002060008201518160000160006101000a81548173ffffffffffffffffffffffffffffffffffffffff021916908373ffffffffffffffffffffffffffffffffffffffff16021790555060208201518160000160146101000a81548160ff021916908360028111156105a2577f4e487b7100000000000000000000000000000000000000000000000000000000600052602160045260246000fd5b021790555060408201518160010155905050565b80600560008473ffffffffffffffffffffffffffffffffffffffff1673ffffffffffffffffffffffffffffffffffffffff16815260200190815260200160002060010160008282546106089190610958565b925050819055506000600560008473ffffffffffffffffffffffffffffffffffffffff1673ffffffffffffffffffffffffffffffffffffffff16815260200190815260200160002060010154905060015481106106f5576002600560008573ffffffffffffffffffffffffffffffffffffffff1673ffffffffffffffffffffffffffffffffffffffff16815260200190815260200160002060000160146101000a81548160ff021916908360028111156106eb577f4e487b7100000000000000000000000000000000000000000000000000000000600052602160045260246000fd5b0217905550610791565b6002548110610790576001600560008573ffffffffffffffffffffffffffffffffffffffff1673ffffffffffffffffffffffffffffffffffffffff16815260200190815260200160002060000160146101000a81548160ff0219169083600281111561078a577f4e487b7100000000000000000000000000000000000000000000000000000000600052602160045260246000fd5b02179055505b5b505050565b60045481565b60025481565b6000813590506107b181610ac8565b92915050565b6000813590506107c681610adf565b92915050565b6000602082840312156107de57600080fd5b60006107ec848285016107a2565b91505092915050565b6000806040838503121561080857600080fd5b6000610816858286016107a2565b9250506020610827858286016107b7565b9150509250929050565b61083a816109c0565b82525050565b610849816109ae565b82525050565b610858816109d2565b82525050565b61086781610a1b565b82525050565b600061087a601083610947565b915061088582610a8b565b602082019050919050565b61089981610a11565b82525050565b60006020820190506108b46000830184610840565b92915050565b60006060820190506108cf6000830186610831565b6108dc602083018561085e565b6108e96040830184610890565b949350505050565b6000602082019050610906600083018461084f565b92915050565b600060208201905081810360008301526109258161086d565b9050919050565b60006020820190506109416000830184610890565b92915050565b600082825260208201905092915050565b600061096382610a11565b915061096e83610a11565b9250827fffffffffffffffffffffffffffffffffffffffffffffffffffffffffffffffff038211156109a3576109a2610a2d565b5b828201905092915050565b60006109b9826109f1565b9050919050565b60006109cb826109f1565b9050919050565b60008115159050919050565b60008190506109ec82610ab4565b919050565b600073ffffffffffffffffffffffffffffffffffffffff82169050919050565b6000819050919050565b6000610a26826109de565b9050919050565b7f4e487b7100000000000000000000000000000000000000000000000000000000600052601160045260246000fd5b7f4e487b7100000000000000000000000000000000000000000000000000000000600052602160045260246000fd5b7f416c72656164792061206d656d62657200000000000000000000000000000000600082015250565b60038110610ac557610ac4610a5c565b5b50565b610ad1816109ae565b8114610adc57600080fd5b50565b610ae881610a11565b8114610af357600080fd5b5056fea26469706673582212208eb40707a6152ecdc84fafae34827e1e93199dec4a63d99fced755de3d6d905564736f6c63430008040033",
  "immutableReferences": {},
  "source": "pragma solidity ^0.8.4;\n\n\ncontract Profile {\n\n    address public owner;\n    uint256 public goldTierPoints;\n    uint256 public silverTierPoints;\n    uint256 public bronzeTierPoints;\n    uint256 public discountRate;\n\n    enum Tier { Bronze, Silver, Gold }\n\n    struct Member {\n        address payable walletAddress;\n        Tier tier;\n        uint256 points;\n    }\n\n    mapping (address => Member) public members;\n    mapping(address => bool) public membership; \n\n\n    constructor( uint256 goldPoints, uint256 silverPoints, uint256 bronzePoints) {\n        owner = payable(msg.sender);\n        goldTierPoints = goldPoints;\n        silverTierPoints = silverPoints;\n        bronzeTierPoints = bronzePoints;\n    }\n\n    function createMember() public  {\n        require(membership[msg.sender] == false, \"Already a member\");\n        membership[msg.sender] = true;\n        members[msg.sender] = Member(payable(msg.sender), Tier.Bronze, 0);\n    }\n\n    //for voting -> 2 points, for purchase -> 1 point \n    //for tickets -> 1 point \n    //for rental agreement completion -> 3 point \n    function earnPoints(address _address, uint256 amount) public  {\n        members[_address].points += amount;\n        uint256 updatedPoints = members[_address].points; \n        if (updatedPoints >= goldTierPoints){\n            members[_address].tier = Tier.Gold; \n        } else if (updatedPoints >= silverTierPoints){\n            members[_address].tier = Tier.Silver; \n        }\n    }\n\n\n    function checkPoints(address _address) public view returns(uint256){\n        return members[_address].points;\n    }\n\n    function checkMembership(address _address) public view returns (bool){ \n        return membership[_address];\n    }\n\n    \n}\n",
  "sourcePath": "/Users/colin/Desktop/NFT_Marketplace/contracts/Profile.sol",
  "compiler": {
    "name": "solc",
    "version": "0.8.4+commit.c7e474f2.Emscripten.clang"
  },
  "schemaVersion": "3.3.2",
  "updatedAt": "2023-03-30T06:32:36.114Z",
  "networkType": "ethereum",
  "devdoc": {
    "kind": "dev",
    "methods": {},
    "version": 1
  },
  "userdoc": {
    "kind": "user",
    "methods": {},
    "version": 1
  }
}