{
  "contractName": "Profile",
  "abi": [
    {
      "inputs": [
        {
          "internalType": "uint256",
          "name": "goldPoints",
          "type": "uint256"
        },
        {
          "internalType": "uint256",
          "name": "silverPoints",
          "type": "uint256"
        },
        {
          "internalType": "uint256",
          "name": "bronzePoints",
          "type": "uint256"
        }
      ],
      "stateMutability": "nonpayable",
      "type": "constructor"
    },
    {
      "inputs": [],
      "name": "bronzeTierPoints",
      "outputs": [
        {
          "internalType": "uint256",
          "name": "",
          "type": "uint256"
        }
      ],
      "stateMutability": "view",
      "type": "function",
      "constant": true
    },
    {
      "inputs": [],
      "name": "discountRate",
      "outputs": [
        {
          "internalType": "uint256",
          "name": "",
          "type": "uint256"
        }
      ],
      "stateMutability": "view",
      "type": "function",
      "constant": true
    },
    {
      "inputs": [],
      "name": "goldTierPoints",
      "outputs": [
        {
          "internalType": "uint256",
          "name": "",
          "type": "uint256"
        }
      ],
      "stateMutability": "view",
      "type": "function",
      "constant": true
    },
    {
      "inputs": [
        {
          "internalType": "address",
          "name": "",
          "type": "address"
        }
      ],
      "name": "members",
      "outputs": [
        {
          "internalType": "address payable",
          "name": "walletAddress",
          "type": "address"
        },
        {
          "internalType": "enum Profile.Tier",
          "name": "tier",
          "type": "uint8"
        },
        {
          "internalType": "uint256",
          "name": "points",
          "type": "uint256"
        }
      ],
      "stateMutability": "view",
      "type": "function",
      "constant": true
    },
    {
      "inputs": [
        {
          "internalType": "address",
          "name": "",
          "type": "address"
        }
      ],
      "name": "membership",
      "outputs": [
        {
          "internalType": "bool",
          "name": "",
          "type": "bool"
        }
      ],
      "stateMutability": "view",
      "type": "function",
      "constant": true
    },
    {
      "inputs": [],
      "name": "owner",
      "outputs": [
        {
          "internalType": "address",
          "name": "",
          "type": "address"
        }
      ],
      "stateMutability": "view",
      "type": "function",
      "constant": true
    },
    {
      "inputs": [],
      "name": "silverTierPoints",
      "outputs": [
        {
          "internalType": "uint256",
          "name": "",
          "type": "uint256"
        }
      ],
      "stateMutability": "view",
      "type": "function",
      "constant": true
    },
    {
      "inputs": [],
      "name": "createMember",
      "outputs": [],
      "stateMutability": "nonpayable",
      "type": "function"
    },
    {
      "inputs": [
        {
          "internalType": "uint256",
          "name": "amount",
          "type": "uint256"
        }
      ],
      "name": "earnPoints",
      "outputs": [],
      "stateMutability": "nonpayable",
      "type": "function"
    },
    {
      "inputs": [
        {
          "internalType": "address",
          "name": "_address",
          "type": "address"
        }
      ],
      "name": "checkMembership",
      "outputs": [
        {
          "internalType": "bool",
          "name": "",
          "type": "bool"
        }
      ],
      "stateMutability": "view",
      "type": "function",
      "constant": true
    }
  ],
  "bytecode": "0x608060405234801561001057600080fd5b50604051610bb4380380610bb4833981810160405281019061003291906100a4565b336000806101000a81548173ffffffffffffffffffffffffffffffffffffffff021916908373ffffffffffffffffffffffffffffffffffffffff160217905550826001819055508160028190555080600381905550505050610114565b60008151905061009e816100fd565b92915050565b6000806000606084860312156100b957600080fd5b60006100c78682870161008f565b93505060206100d88682870161008f565b92505060406100e98682870161008f565b9150509250925092565b6000819050919050565b610106816100f3565b811461011157600080fd5b50565b610a91806101236000396000f3fe608060405234801561001057600080fd5b506004361061009e5760003560e01c80638da5cb5b116100665780638da5cb5b1461016f578063d1d0ca531461018d578063d815e58d146101ab578063e6c0e6d5146101b5578063e7d23583146101d35761009e565b806308ae4b0c146100a35780630f17e976146100d55780635fb64fd6146100f3578063772ccf5d146101235780638593234514610153575b600080fd5b6100bd60048036038101906100b89190610744565b6101f1565b6040516100cc9392919061081f565b60405180910390f35b6100dd610248565b6040516100ea9190610891565b60405180910390f35b61010d60048036038101906101089190610744565b61024e565b60405161011a9190610856565b60405180910390f35b61013d60048036038101906101389190610744565b6102a4565b60405161014a9190610856565b60405180910390f35b61016d6004803603810190610168919061076d565b6102c4565b005b6101776104a3565b6040516101849190610804565b60405180910390f35b6101956104c7565b6040516101a29190610891565b60405180910390f35b6101b36104cd565b005b6101bd61070e565b6040516101ca9190610891565b60405180910390f35b6101db610714565b6040516101e89190610891565b60405180910390f35b60056020528060005260406000206000915090508060000160009054906101000a900473ffffffffffffffffffffffffffffffffffffffff16908060000160149054906101000a900460ff16908060010154905083565b60015481565b6000600660008373ffffffffffffffffffffffffffffffffffffffff1673ffffffffffffffffffffffffffffffffffffffff16815260200190815260200160002060009054906101000a900460ff169050919050565b60066020528060005260406000206000915054906101000a900460ff1681565b80600560003373ffffffffffffffffffffffffffffffffffffffff1673ffffffffffffffffffffffffffffffffffffffff168152602001908152602001600020600101600082825461031691906108bd565b925050819055506000600560003373ffffffffffffffffffffffffffffffffffffffff1673ffffffffffffffffffffffffffffffffffffffff1681526020019081526020016000206001015490506001548110610403576002600560003373ffffffffffffffffffffffffffffffffffffffff1673ffffffffffffffffffffffffffffffffffffffff16815260200190815260200160002060000160146101000a81548160ff021916908360028111156103f9577f4e487b7100000000000000000000000000000000000000000000000000000000600052602160045260246000fd5b021790555061049f565b600254811061049e576001600560003373ffffffffffffffffffffffffffffffffffffffff1673ffffffffffffffffffffffffffffffffffffffff16815260200190815260200160002060000160146101000a81548160ff02191690836002811115610498577f4e487b7100000000000000000000000000000000000000000000000000000000600052602160045260246000fd5b02179055505b5b5050565b60008054906101000a900473ffffffffffffffffffffffffffffffffffffffff1681565b60035481565b60001515600660003373ffffffffffffffffffffffffffffffffffffffff1673ffffffffffffffffffffffffffffffffffffffff16815260200190815260200160002060009054906101000a900460ff16151514610560576040517f08c379a000000000000000000000000000000000000000000000000000000000815260040161055790610871565b60405180910390fd5b6001600660003373ffffffffffffffffffffffffffffffffffffffff1673ffffffffffffffffffffffffffffffffffffffff16815260200190815260200160002060006101000a81548160ff02191690831515021790555060405180606001604052803373ffffffffffffffffffffffffffffffffffffffff16815260200160006002811115610619577f4e487b7100000000000000000000000000000000000000000000000000000000600052602160045260246000fd5b81526020016000815250600560003373ffffffffffffffffffffffffffffffffffffffff1673ffffffffffffffffffffffffffffffffffffffff16815260200190815260200160002060008201518160000160006101000a81548173ffffffffffffffffffffffffffffffffffffffff021916908373ffffffffffffffffffffffffffffffffffffffff16021790555060208201518160000160146101000a81548160ff021916908360028111156106fa577f4e487b7100000000000000000000000000000000000000000000000000000000600052602160045260246000fd5b021790555060408201518160010155905050565b60045481565b60025481565b60008135905061072981610a2d565b92915050565b60008135905061073e81610a44565b92915050565b60006020828403121561075657600080fd5b60006107648482850161071a565b91505092915050565b60006020828403121561077f57600080fd5b600061078d8482850161072f565b91505092915050565b61079f81610925565b82525050565b6107ae81610913565b82525050565b6107bd81610937565b82525050565b6107cc81610980565b82525050565b60006107df6010836108ac565b91506107ea826109f0565b602082019050919050565b6107fe81610976565b82525050565b600060208201905061081960008301846107a5565b92915050565b60006060820190506108346000830186610796565b61084160208301856107c3565b61084e60408301846107f5565b949350505050565b600060208201905061086b60008301846107b4565b92915050565b6000602082019050818103600083015261088a816107d2565b9050919050565b60006020820190506108a660008301846107f5565b92915050565b600082825260208201905092915050565b60006108c882610976565b91506108d383610976565b9250827fffffffffffffffffffffffffffffffffffffffffffffffffffffffffffffffff0382111561090857610907610992565b5b828201905092915050565b600061091e82610956565b9050919050565b600061093082610956565b9050919050565b60008115159050919050565b600081905061095182610a19565b919050565b600073ffffffffffffffffffffffffffffffffffffffff82169050919050565b6000819050919050565b600061098b82610943565b9050919050565b7f4e487b7100000000000000000000000000000000000000000000000000000000600052601160045260246000fd5b7f4e487b7100000000000000000000000000000000000000000000000000000000600052602160045260246000fd5b7f416c72656164792061206d656d62657200000000000000000000000000000000600082015250565b60038110610a2a57610a296109c1565b5b50565b610a3681610913565b8114610a4157600080fd5b50565b610a4d81610976565b8114610a5857600080fd5b5056fea2646970667358221220d252ac7baf3156ca18eab9cc6e43638fa3c0576f7e5969eb4bf091152f75155264736f6c63430008040033",
  "immutableReferences": {},
  "source": "pragma solidity ^0.8.4;\n\n\ncontract Profile {\n\n    address public owner;\n    uint256 public goldTierPoints;\n    uint256 public silverTierPoints;\n    uint256 public bronzeTierPoints;\n    uint256 public discountRate;\n\n    enum Tier { Bronze, Silver, Gold }\n\n    struct Member {\n        address payable walletAddress;\n        Tier tier;\n        uint256 points;\n    }\n\n    mapping (address => Member) public members;\n    mapping(address => bool) public membership; \n\n\n    constructor( uint256 goldPoints, uint256 silverPoints, uint256 bronzePoints) {\n        owner = payable(msg.sender);\n        goldTierPoints = goldPoints;\n        silverTierPoints = silverPoints;\n        bronzeTierPoints = bronzePoints;\n    }\n\n    function createMember() public  {\n        require(membership[msg.sender] == false, \"Already a member\");\n        membership[msg.sender] = true;\n        members[msg.sender] = Member(payable(msg.sender), Tier.Bronze, 0);\n    }\n\n    //for voting -> 2 points, for purchase -> 1 point \n    //for tickets -> 1 point \n    //for rental agreement completion -> 3 point \n    function earnPoints(uint256 amount) public  {\n        members[msg.sender].points += amount;\n        uint256 updatedPoints = members[msg.sender].points; \n        if (updatedPoints >= goldTierPoints){\n            members[msg.sender].tier = Tier.Gold; \n        } else if (updatedPoints >= silverTierPoints){\n            members[msg.sender].tier = Tier.Silver; \n        }\n    }\n\n    function checkMembership(address _address) public view returns (bool){ \n        return membership[_address];\n    }\n\n    \n}\n",
  "sourcePath": "/Users/colin/Desktop/NFT_Marketplace/contracts/Profile.sol",
  "compiler": {
    "name": "solc",
    "version": "0.8.4+commit.c7e474f2.Emscripten.clang"
  },
  "schemaVersion": "3.3.2",
  "updatedAt": "2023-03-27T03:02:05.783Z",
  "networkType": "ethereum",
  "devdoc": {
    "kind": "dev",
    "methods": {},
    "version": 1
  },
  "userdoc": {
    "kind": "user",
    "methods": {},
    "version": 1
  }
}