{
  "contractName": "RentalAgreement",
  "abi": [
    {
      "inputs": [
        {
          "internalType": "contract Profile",
          "name": "_profile",
          "type": "address"
        }
      ],
      "stateMutability": "nonpayable",
      "type": "constructor"
    },
    {
      "anonymous": false,
      "inputs": [
        {
          "indexed": false,
          "internalType": "uint256",
          "name": "rentId",
          "type": "uint256"
        }
      ],
      "name": "RentCancelled",
      "type": "event"
    },
    {
      "anonymous": false,
      "inputs": [
        {
          "indexed": false,
          "internalType": "uint256",
          "name": "rentId",
          "type": "uint256"
        }
      ],
      "name": "RentCompleted",
      "type": "event"
    },
    {
      "anonymous": false,
      "inputs": [
        {
          "indexed": false,
          "internalType": "uint256",
          "name": "rentId",
          "type": "uint256"
        },
        {
          "indexed": false,
          "internalType": "address",
          "name": "owner",
          "type": "address"
        },
        {
          "indexed": false,
          "internalType": "address",
          "name": "renter",
          "type": "address"
        },
        {
          "indexed": false,
          "internalType": "uint256",
          "name": "startDate",
          "type": "uint256"
        },
        {
          "indexed": false,
          "internalType": "uint256",
          "name": "endDate",
          "type": "uint256"
        },
        {
          "indexed": false,
          "internalType": "uint256",
          "name": "rentalFee",
          "type": "uint256"
        },
        {
          "indexed": false,
          "internalType": "uint256",
          "name": "logsId",
          "type": "uint256"
        }
      ],
      "name": "RentCreated",
      "type": "event"
    },
    {
      "inputs": [
        {
          "internalType": "address",
          "name": "",
          "type": "address"
        },
        {
          "internalType": "uint256",
          "name": "",
          "type": "uint256"
        }
      ],
      "name": "ownerAgreements",
      "outputs": [
        {
          "internalType": "uint256",
          "name": "",
          "type": "uint256"
        }
      ],
      "stateMutability": "view",
      "type": "function",
      "constant": true
    },
    {
      "inputs": [
        {
          "internalType": "uint256",
          "name": "",
          "type": "uint256"
        }
      ],
      "name": "rentalAgreements",
      "outputs": [
        {
          "internalType": "uint256",
          "name": "rentId",
          "type": "uint256"
        },
        {
          "internalType": "address",
          "name": "owner",
          "type": "address"
        },
        {
          "internalType": "address",
          "name": "renter",
          "type": "address"
        },
        {
          "internalType": "uint256",
          "name": "startDate",
          "type": "uint256"
        },
        {
          "internalType": "uint256",
          "name": "endDate",
          "type": "uint256"
        },
        {
          "internalType": "uint256",
          "name": "rentalFee",
          "type": "uint256"
        },
        {
          "internalType": "uint256",
          "name": "logsId",
          "type": "uint256"
        },
        {
          "internalType": "bool",
          "name": "isActive",
          "type": "bool"
        }
      ],
      "stateMutability": "view",
      "type": "function",
      "constant": true
    },
    {
      "inputs": [
        {
          "internalType": "address",
          "name": "",
          "type": "address"
        },
        {
          "internalType": "uint256",
          "name": "",
          "type": "uint256"
        }
      ],
      "name": "renterAgreements",
      "outputs": [
        {
          "internalType": "uint256",
          "name": "",
          "type": "uint256"
        }
      ],
      "stateMutability": "view",
      "type": "function",
      "constant": true
    },
    {
      "inputs": [
        {
          "internalType": "address",
          "name": "_renter",
          "type": "address"
        },
        {
          "internalType": "uint256",
          "name": "_startDate",
          "type": "uint256"
        },
        {
          "internalType": "uint256",
          "name": "_endDate",
          "type": "uint256"
        },
        {
          "internalType": "uint256",
          "name": "_rentalFee",
          "type": "uint256"
        },
        {
          "internalType": "uint256",
          "name": "_logsId",
          "type": "uint256"
        }
      ],
      "name": "createRent",
      "outputs": [],
      "stateMutability": "nonpayable",
      "type": "function"
    },
    {
      "inputs": [
        {
          "internalType": "uint256",
          "name": "_rentId",
          "type": "uint256"
        }
      ],
      "name": "cancelAgreement",
      "outputs": [],
      "stateMutability": "nonpayable",
      "type": "function"
    },
    {
      "inputs": [
        {
          "internalType": "uint256",
          "name": "_rentId",
          "type": "uint256"
        }
      ],
      "name": "completeAgreement",
      "outputs": [],
      "stateMutability": "payable",
      "type": "function",
      "payable": true
    },
    {
      "inputs": [
        {
          "internalType": "address",
          "name": "_owner",
          "type": "address"
        }
      ],
      "name": "getOwnerAgreements",
      "outputs": [
        {
          "internalType": "uint256[]",
          "name": "",
          "type": "uint256[]"
        }
      ],
      "stateMutability": "view",
      "type": "function",
      "constant": true
    },
    {
      "inputs": [
        {
          "internalType": "address",
          "name": "_renter",
          "type": "address"
        }
      ],
      "name": "getRenterAgreements",
      "outputs": [
        {
          "internalType": "uint256[]",
          "name": "",
          "type": "uint256[]"
        }
      ],
      "stateMutability": "view",
      "type": "function",
      "constant": true
    }
  ],
  "bytecode": "0x608060405260006003553480156200001657600080fd5b50604051620015603803806200156083398181016040528101906200003c91906200009b565b80600460006101000a81548173ffffffffffffffffffffffffffffffffffffffff021916908373ffffffffffffffffffffffffffffffffffffffff1602179055505062000129565b60008151905062000095816200010f565b92915050565b600060208284031215620000ae57600080fd5b6000620000be8482850162000084565b91505092915050565b6000620000d482620000ef565b9050919050565b6000620000e882620000c7565b9050919050565b600073ffffffffffffffffffffffffffffffffffffffff82169050919050565b6200011a81620000db565b81146200012657600080fd5b50565b61142780620001396000396000f3fe60806040526004361061007b5760003560e01c80639e62ccc01161004e5780639e62ccc01461013f578063ac06b0d81461017c578063bfdfac84146101c0578063c071e657146101e95761007b565b80631df8eaad14610080578063407af513146100bd5780635686b54b146100fa5780638458cf8e14610123575b600080fd5b34801561008c57600080fd5b506100a760048036038101906100a29190610c85565b610226565b6040516100b49190610f8a565b60405180910390f35b3480156100c957600080fd5b506100e460048036038101906100df9190610cae565b6102bd565b6040516100f1919061106c565b60405180910390f35b34801561010657600080fd5b50610121600480360381019061011c9190610d8a565b6102ee565b005b61013d60048036038101906101389190610d8a565b610466565b005b34801561014b57600080fd5b5061016660048036038101906101619190610c85565b61066e565b6040516101739190610f8a565b60405180910390f35b34801561018857600080fd5b506101a3600480360381019061019e9190610d8a565b610705565b6040516101b79897969594939291906110f6565b60405180910390f35b3480156101cc57600080fd5b506101e760048036038101906101e29190610cea565b61079a565b005b3480156101f557600080fd5b50610210600480360381019061020b9190610cae565b610c15565b60405161021d919061106c565b60405180910390f35b6060600260008373ffffffffffffffffffffffffffffffffffffffff1673ffffffffffffffffffffffffffffffffffffffff1681526020019081526020016000208054806020026020016040519081016040528092919081815260200182805480156102b157602002820191906000526020600020905b81548152602001906001019080831161029d575b50505050509050919050565b600160205281600052604060002081815481106102d957600080fd5b90600052602060002001600091509150505481565b803373ffffffffffffffffffffffffffffffffffffffff1660008083815260200190815260200160002060010160009054906101000a900473ffffffffffffffffffffffffffffffffffffffff1673ffffffffffffffffffffffffffffffffffffffff1614610392576040517f08c379a00000000000000000000000000000000000000000000000000000000081526004016103899061104c565b60405180910390fd5b816001151560008083815260200190815260200160002060070160009054906101000a900460ff161515146103fc576040517f08c379a00000000000000000000000000000000000000000000000000000000081526004016103f39061102c565b60405180910390fd5b600080600085815260200190815260200160002060070160006101000a81548160ff0219169083151502179055507f115ddacb85f93441ae503699fa6997096db2ef9ff1190987f3d908b3733e535e83604051610459919061106c565b60405180910390a1505050565b803373ffffffffffffffffffffffffffffffffffffffff1660008083815260200190815260200160002060020160009054906101000a900473ffffffffffffffffffffffffffffffffffffffff1673ffffffffffffffffffffffffffffffffffffffff161461050a576040517f08c379a00000000000000000000000000000000000000000000000000000000081526004016105019061104c565b60405180910390fd5b816001151560008083815260200190815260200160002060070160009054906101000a900460ff16151514610574576040517f08c379a000000000000000000000000000000000000000000000000000000000815260040161056b9061102c565b60405180910390fd5b600080600085815260200190815260200160002060070160006101000a81548160ff021916908315150217905550600460009054906101000a900473ffffffffffffffffffffffffffffffffffffffff1673ffffffffffffffffffffffffffffffffffffffff1663d909d5e33360036040518363ffffffff1660e01b8152600401610600929190610f61565b600060405180830381600087803b15801561061a57600080fd5b505af115801561062e573d6000803e3d6000fd5b505050507fb4861af877939187e6370c65b6d06f8e8873a1c6df6c0f31c537460880b4d0c583604051610661919061106c565b60405180910390a1505050565b6060600160008373ffffffffffffffffffffffffffffffffffffffff1673ffffffffffffffffffffffffffffffffffffffff1681526020019081526020016000208054806020026020016040519081016040528092919081815260200182805480156106f957602002820191906000526020600020905b8154815260200190600101908083116106e5575b50505050509050919050565b60006020528060005260406000206000915090508060000154908060010160009054906101000a900473ffffffffffffffffffffffffffffffffffffffff16908060020160009054906101000a900473ffffffffffffffffffffffffffffffffffffffff16908060030154908060040154908060050154908060060154908060070160009054906101000a900460ff16905088565b60011515600460009054906101000a900473ffffffffffffffffffffffffffffffffffffffff1673ffffffffffffffffffffffffffffffffffffffff16635fb64fd6336040518263ffffffff1660e01b81526004016107f99190610f46565b60206040518083038186803b15801561081157600080fd5b505afa158015610825573d6000803e3d6000fd5b505050506040513d601f19601f820116820180604052508101906108499190610d61565b15151461088b576040517f08c379a000000000000000000000000000000000000000000000000000000000815260040161088290610fcc565b60405180910390fd5b600073ffffffffffffffffffffffffffffffffffffffff168573ffffffffffffffffffffffffffffffffffffffff1614156108fb576040517f08c379a00000000000000000000000000000000000000000000000000000000081526004016108f290610fec565b60405180910390fd5b82841061093d576040517f08c379a00000000000000000000000000000000000000000000000000000000081526004016109349061100c565b60405180910390fd5b42841161097f576040517f08c379a000000000000000000000000000000000000000000000000000000000815260040161097690610fac565b60405180910390fd5b6003600081548092919061099290611218565b919050555060405180610100016040528060035481526020013373ffffffffffffffffffffffffffffffffffffffff1681526020018673ffffffffffffffffffffffffffffffffffffffff1681526020018581526020018481526020018381526020018281526020016001151581525060008060035481526020019081526020016000206000820151816000015560208201518160010160006101000a81548173ffffffffffffffffffffffffffffffffffffffff021916908373ffffffffffffffffffffffffffffffffffffffff16021790555060408201518160020160006101000a81548173ffffffffffffffffffffffffffffffffffffffff021916908373ffffffffffffffffffffffffffffffffffffffff160217905550606082015181600301556080820151816004015560a0820151816005015560c0820151816006015560e08201518160070160006101000a81548160ff021916908315150217905550905050600160003373ffffffffffffffffffffffffffffffffffffffff1673ffffffffffffffffffffffffffffffffffffffff1681526020019081526020016000206003549080600181540180825580915050600190039060005260206000200160009091909190915055600260008673ffffffffffffffffffffffffffffffffffffffff1673ffffffffffffffffffffffffffffffffffffffff16815260200190815260200160002060035490806001815401808255809150506001900390600052602060002001600090919091909150557f881090074b39b0266c032cae89988aac6532b73a492d22a00ef55a1c8c197b4a600354338787878787604051610c069796959493929190611087565b60405180910390a15050505050565b60026020528160005260406000208181548110610c3157600080fd5b90600052602060002001600091509150505481565b600081359050610c55816113ac565b92915050565b600081519050610c6a816113c3565b92915050565b600081359050610c7f816113da565b92915050565b600060208284031215610c9757600080fd5b6000610ca584828501610c46565b91505092915050565b60008060408385031215610cc157600080fd5b6000610ccf85828601610c46565b9250506020610ce085828601610c70565b9150509250929050565b600080600080600060a08688031215610d0257600080fd5b6000610d1088828901610c46565b9550506020610d2188828901610c70565b9450506040610d3288828901610c70565b9350506060610d4388828901610c70565b9250506080610d5488828901610c70565b9150509295509295909350565b600060208284031215610d7357600080fd5b6000610d8184828501610c5b565b91505092915050565b600060208284031215610d9c57600080fd5b6000610daa84828501610c70565b91505092915050565b6000610dbf8383610f28565b60208301905092915050565b610dd4816111be565b82525050565b6000610de582611184565b610def818561119c565b9350610dfa83611174565b8060005b83811015610e2b578151610e128882610db3565b9750610e1d8361118f565b925050600181019050610dfe565b5085935050505092915050565b610e41816111d0565b82525050565b610e5081611206565b82525050565b6000610e636016836111ad565b9150610e6e82611290565b602082019050919050565b6000610e866033836111ad565b9150610e91826112b9565b604082019050919050565b6000610ea96016836111ad565b9150610eb482611308565b602082019050919050565b6000610ecc6015836111ad565b9150610ed782611331565b602082019050919050565b6000610eef6012836111ad565b9150610efa8261135a565b602082019050919050565b6000610f12600e836111ad565b9150610f1d82611383565b602082019050919050565b610f31816111fc565b82525050565b610f40816111fc565b82525050565b6000602082019050610f5b6000830184610dcb565b92915050565b6000604082019050610f766000830185610dcb565b610f836020830184610e47565b9392505050565b60006020820190508181036000830152610fa48184610dda565b905092915050565b60006020820190508181036000830152610fc581610e56565b9050919050565b60006020820190508181036000830152610fe581610e79565b9050919050565b6000602082019050818103600083015261100581610e9c565b9050919050565b6000602082019050818103600083015261102581610ebf565b9050919050565b6000602082019050818103600083015261104581610ee2565b9050919050565b6000602082019050818103600083015261106581610f05565b9050919050565b60006020820190506110816000830184610f37565b92915050565b600060e08201905061109c600083018a610f37565b6110a96020830189610dcb565b6110b66040830188610dcb565b6110c36060830187610f37565b6110d06080830186610f37565b6110dd60a0830185610f37565b6110ea60c0830184610f37565b98975050505050505050565b60006101008201905061110c600083018b610f37565b611119602083018a610dcb565b6111266040830189610dcb565b6111336060830188610f37565b6111406080830187610f37565b61114d60a0830186610f37565b61115a60c0830185610f37565b61116760e0830184610e38565b9998505050505050505050565b6000819050602082019050919050565b600081519050919050565b6000602082019050919050565b600082825260208201905092915050565b600082825260208201905092915050565b60006111c9826111dc565b9050919050565b60008115159050919050565b600073ffffffffffffffffffffffffffffffffffffffff82169050919050565b6000819050919050565b6000611211826111fc565b9050919050565b6000611223826111fc565b91507fffffffffffffffffffffffffffffffffffffffffffffffffffffffffffffffff82141561125657611255611261565b5b600182019050919050565b7f4e487b7100000000000000000000000000000000000000000000000000000000600052601160045260246000fd5b7f496e76616c6964207374617274206475726174696f6e00000000000000000000600082015250565b7f4e6f7420617574686f72697a656420746f2063726561746520612072656e742e60008201527f205369676e207570206f6e2050726f66696c6500000000000000000000000000602082015250565b7f496e76616c69642072656e746572206164647265737300000000000000000000600082015250565b7f496e76616c69642072656e74206475726174696f6e0000000000000000000000600082015250565b7f52656e74206973206e6f74206163746976650000000000000000000000000000600082015250565b7f4e6f7420617574686f72697a6564000000000000000000000000000000000000600082015250565b6113b5816111be565b81146113c057600080fd5b50565b6113cc816111d0565b81146113d757600080fd5b50565b6113e3816111fc565b81146113ee57600080fd5b5056fea264697066735822122065c7598a5fe03e72611d203d84aabb87198869a402992def098c22c1cc4b9f8e64736f6c63430008040033",
  "immutableReferences": {},
  "source": "pragma solidity ^0.8.4;\r\n\r\nimport \"./Profile.sol\";\r\n\r\ncontract RentalAgreement {\r\n    struct RentAgreement {\r\n        uint256 rentId;\r\n        address owner;\r\n        address renter;\r\n        uint256 startDate;\r\n        uint256 endDate;\r\n        uint256 rentalFee;\r\n        uint256 logsId;\r\n        bool isActive;\r\n    }\r\n\r\n    mapping(uint256 => RentAgreement) public rentalAgreements;\r\n    mapping(address => uint256[]) public ownerAgreements;\r\n    mapping(address => uint256[]) public renterAgreements;\r\n\r\n    uint256 private rentIdCounter = 0;\r\n\r\n    modifier onlyActiveAgreement(uint256 _rentId) {\r\n        require(\r\n            rentalAgreements[_rentId].isActive == true,\r\n            \"Rent is not active\"\r\n        );\r\n        _;\r\n    }\r\n\r\n    modifier onlyOwner(uint256 _rentId) {\r\n        require(\r\n            rentalAgreements[_rentId].owner == msg.sender,\r\n            \"Not authorized\"\r\n        );\r\n        _;\r\n    }\r\n\r\n    modifier onlyRenter(uint256 _rentId) {\r\n        require(\r\n            rentalAgreements[_rentId].renter == msg.sender,\r\n            \"Not authorized\"\r\n        );\r\n        _;\r\n    }\r\n\r\n    Profile profile;\r\n\r\n    // receive address during deployment script\r\n    constructor(Profile _profile) {\r\n        profile = _profile;\r\n    }\r\n\r\n\r\n    event RentCreated(\r\n        uint256 rentId,\r\n        address owner,\r\n        address renter,\r\n        uint256 startDate,\r\n        uint256 endDate,\r\n        uint256 rentalFee,\r\n        uint256 logsId\r\n    );\r\n    event RentCancelled(uint256 rentId);\r\n    event RentCompleted(uint256 rentId);\r\n\r\n    function createRent(\r\n        address _renter,\r\n        uint256 _startDate,\r\n        uint256 _endDate,\r\n        uint256 _rentalFee,\r\n        uint256 _logsId\r\n    ) external {\r\n        require(profile.checkMembership(msg.sender) == true, \"Not authorized to create a rent. Sign up on Profile\");\r\n        require(_renter != address(0), \"Invalid renter address\");\r\n        require(_startDate < _endDate, \"Invalid rent duration\");\r\n        require(_startDate > block.timestamp, \"Invalid start duration\");\r\n\r\n        rentIdCounter++;\r\n\r\n        rentalAgreements[rentIdCounter] = RentAgreement(\r\n            rentIdCounter,\r\n            msg.sender,\r\n            _renter,\r\n            _startDate,\r\n            _endDate,\r\n            _rentalFee,\r\n            _logsId,\r\n            true\r\n        );\r\n\r\n        ownerAgreements[msg.sender].push(rentIdCounter);\r\n        renterAgreements[_renter].push(rentIdCounter);\r\n\r\n        emit RentCreated(\r\n            rentIdCounter,\r\n            msg.sender,\r\n            _renter,\r\n            _startDate,\r\n            _endDate,\r\n            _rentalFee,\r\n            _logsId\r\n        );\r\n    }\r\n\r\n    function cancelAgreement(uint256 _rentId)\r\n        public\r\n        onlyOwner(_rentId)\r\n        onlyActiveAgreement(_rentId)\r\n    {\r\n        rentalAgreements[_rentId].isActive = false;\r\n\r\n        emit RentCancelled(_rentId);\r\n    }\r\n\r\n    function completeAgreement(\r\n        uint256 _rentId //only by renter who then pays\r\n    ) public payable onlyRenter(_rentId) onlyActiveAgreement(_rentId) {\r\n        rentalAgreements[_rentId].isActive = false;\r\n\r\n        // Clock points for renter\r\n        profile.earnPoints(msg.sender, 3);\r\n        emit RentCompleted(_rentId);\r\n    }\r\n\r\n    function getOwnerAgreements(address _owner)\r\n        public\r\n        view\r\n        returns (uint256[] memory)\r\n    {\r\n        return ownerAgreements[_owner];\r\n    }\r\n\r\n    function getRenterAgreements(address _renter)\r\n        public\r\n        view\r\n        returns (uint256[] memory)\r\n    {\r\n        return renterAgreements[_renter];\r\n    }\r\n\r\n}\r\n",
  "sourcePath": "C:\\Users\\tingy\\Documents\\GitHub\\tt_contracts\\contracts\\RentalAgreement.sol",
  "compiler": {
    "name": "solc",
    "version": "0.8.4+commit.c7e474f2.Emscripten.clang"
  },
  "schemaVersion": "3.4.11",
  "updatedAt": "2023-03-27T14:29:48.867Z",
  "networkType": "ethereum",
  "devdoc": {
    "kind": "dev",
    "methods": {},
    "version": 1
  },
  "userdoc": {
    "kind": "user",
    "methods": {},
    "version": 1
  }
}