{
  "contractName": "RentalAgreement",
  "abi": [
    {
      "inputs": [
        {
          "internalType": "contract Profile",
          "name": "_profile",
          "type": "address"
        }
      ],
      "stateMutability": "nonpayable",
      "type": "constructor"
    },
    {
      "anonymous": false,
      "inputs": [
        {
          "indexed": false,
          "internalType": "uint256",
          "name": "rentId",
          "type": "uint256"
        }
      ],
      "name": "RentCancelled",
      "type": "event"
    },
    {
      "anonymous": false,
      "inputs": [
        {
          "indexed": false,
          "internalType": "uint256",
          "name": "rentId",
          "type": "uint256"
        }
      ],
      "name": "RentCompleted",
      "type": "event"
    },
    {
      "anonymous": false,
      "inputs": [
        {
          "indexed": false,
          "internalType": "uint256",
          "name": "rentId",
          "type": "uint256"
        },
        {
          "indexed": false,
          "internalType": "address",
          "name": "owner",
          "type": "address"
        },
        {
          "indexed": false,
          "internalType": "address",
          "name": "renter",
          "type": "address"
        },
        {
          "indexed": false,
          "internalType": "uint256",
          "name": "startDate",
          "type": "uint256"
        },
        {
          "indexed": false,
          "internalType": "uint256",
          "name": "endDate",
          "type": "uint256"
        },
        {
          "indexed": false,
          "internalType": "uint256",
          "name": "rentalFee",
          "type": "uint256"
        },
        {
          "indexed": false,
          "internalType": "address",
          "name": "logsAddress",
          "type": "address"
        },
        {
          "indexed": false,
          "internalType": "uint256",
          "name": "logsId",
          "type": "uint256"
        }
      ],
      "name": "RentCreated",
      "type": "event"
    },
    {
      "inputs": [
        {
          "internalType": "address",
          "name": "",
          "type": "address"
        },
        {
          "internalType": "uint256",
          "name": "",
          "type": "uint256"
        }
      ],
      "name": "ownerAgreements",
      "outputs": [
        {
          "internalType": "uint256",
          "name": "",
          "type": "uint256"
        }
      ],
      "stateMutability": "view",
      "type": "function"
    },
    {
      "inputs": [
        {
          "internalType": "uint256",
          "name": "",
          "type": "uint256"
        }
      ],
      "name": "rentalAgreements",
      "outputs": [
        {
          "internalType": "uint256",
          "name": "rentId",
          "type": "uint256"
        },
        {
          "internalType": "address",
          "name": "owner",
          "type": "address"
        },
        {
          "internalType": "address",
          "name": "renter",
          "type": "address"
        },
        {
          "internalType": "uint256",
          "name": "startDate",
          "type": "uint256"
        },
        {
          "internalType": "uint256",
          "name": "endDate",
          "type": "uint256"
        },
        {
          "internalType": "uint256",
          "name": "rentalFee",
          "type": "uint256"
        },
        {
          "internalType": "address",
          "name": "logsAddress",
          "type": "address"
        },
        {
          "internalType": "uint256",
          "name": "logsId",
          "type": "uint256"
        },
        {
          "internalType": "bool",
          "name": "isActive",
          "type": "bool"
        }
      ],
      "stateMutability": "view",
      "type": "function"
    },
    {
      "inputs": [
        {
          "internalType": "address",
          "name": "",
          "type": "address"
        },
        {
          "internalType": "uint256",
          "name": "",
          "type": "uint256"
        }
      ],
      "name": "renterAgreements",
      "outputs": [
        {
          "internalType": "uint256",
          "name": "",
          "type": "uint256"
        }
      ],
      "stateMutability": "view",
      "type": "function"
    },
    {
      "inputs": [
        {
          "internalType": "address",
          "name": "_renter",
          "type": "address"
        },
        {
          "internalType": "uint256",
          "name": "_startDate",
          "type": "uint256"
        },
        {
          "internalType": "uint256",
          "name": "_endDate",
          "type": "uint256"
        },
        {
          "internalType": "uint256",
          "name": "_rentalFee",
          "type": "uint256"
        },
        {
          "internalType": "address",
          "name": "_logsAddress",
          "type": "address"
        },
        {
          "internalType": "uint256",
          "name": "_logsId",
          "type": "uint256"
        }
      ],
      "name": "createRent",
      "outputs": [],
      "stateMutability": "nonpayable",
      "type": "function"
    },
    {
      "inputs": [
        {
          "internalType": "uint256",
          "name": "_rentId",
          "type": "uint256"
        }
      ],
      "name": "cancelAgreement",
      "outputs": [],
      "stateMutability": "nonpayable",
      "type": "function"
    },
    {
      "inputs": [
        {
          "internalType": "uint256",
          "name": "_rentId",
          "type": "uint256"
        }
      ],
      "name": "completeAgreement",
      "outputs": [],
      "stateMutability": "payable",
      "type": "function"
    },
    {
      "inputs": [
        {
          "internalType": "address",
          "name": "_owner",
          "type": "address"
        }
      ],
      "name": "getOwnerAgreements",
      "outputs": [
        {
          "internalType": "uint256[]",
          "name": "",
          "type": "uint256[]"
        }
      ],
      "stateMutability": "view",
      "type": "function"
    },
    {
      "inputs": [
        {
          "internalType": "address",
          "name": "_renter",
          "type": "address"
        }
      ],
      "name": "getRenterAgreements",
      "outputs": [
        {
          "internalType": "uint256[]",
          "name": "",
          "type": "uint256[]"
        }
      ],
      "stateMutability": "view",
      "type": "function"
    }
  ],
  "bytecode": "0x608060405260006003553480156200001657600080fd5b506040516200160e3803806200160e83398181016040528101906200003c91906200009b565b80600460006101000a81548173ffffffffffffffffffffffffffffffffffffffff021916908373ffffffffffffffffffffffffffffffffffffffff1602179055505062000129565b60008151905062000095816200010f565b92915050565b600060208284031215620000ae57600080fd5b6000620000be8482850162000084565b91505092915050565b6000620000d482620000ef565b9050919050565b6000620000e882620000c7565b9050919050565b600073ffffffffffffffffffffffffffffffffffffffff82169050919050565b6200011a81620000db565b81146200012657600080fd5b50565b6114d580620001396000396000f3fe60806040526004361061007b5760003560e01c80638458cf8e1161004e5780638458cf8e1461014c5780639e62ccc014610168578063ac06b0d8146101a5578063c071e657146101ea5761007b565b806302d6c003146100805780631df8eaad146100a9578063407af513146100e65780635686b54b14610123575b600080fd5b34801561008c57600080fd5b506100a760048036038101906100a29190610d76565b610227565b005b3480156100b557600080fd5b506100d060048036038101906100cb9190610d11565b610709565b6040516100dd9190610fff565b60405180910390f35b3480156100f257600080fd5b5061010d60048036038101906101089190610d3a565b6107a0565b60405161011a91906110fc565b60405180910390f35b34801561012f57600080fd5b5061014a60048036038101906101459190610e28565b6107d1565b005b61016660048036038101906101619190610e28565b610949565b005b34801561017457600080fd5b5061018f600480360381019061018a9190610d11565b610b4f565b60405161019c9190610fff565b60405180910390f35b3480156101b157600080fd5b506101cc60048036038101906101c79190610e28565b610be6565b6040516101e199989796959493929190611195565b60405180910390f35b3480156101f657600080fd5b50610211600480360381019061020c9190610d3a565b610ca1565b60405161021e91906110fc565b60405180910390f35b60011515600460009054906101000a900473ffffffffffffffffffffffffffffffffffffffff1673ffffffffffffffffffffffffffffffffffffffff16635fb64fd6336040518263ffffffff1660e01b81526004016102869190610fe4565b60206040518083038186803b15801561029e57600080fd5b505afa1580156102b2573d6000803e3d6000fd5b505050506040513d601f19601f820116820180604052508101906102d69190610dff565b151514610318576040517f08c379a000000000000000000000000000000000000000000000000000000000815260040161030f9061105c565b60405180910390fd5b600073ffffffffffffffffffffffffffffffffffffffff168673ffffffffffffffffffffffffffffffffffffffff161415610388576040517f08c379a000000000000000000000000000000000000000000000000000000000815260040161037f9061107c565b60405180910390fd5b8385106103ca576040517f08c379a00000000000000000000000000000000000000000000000000000000081526004016103c19061109c565b60405180910390fd5b42851161040c576040517f08c379a00000000000000000000000000000000000000000000000000000000081526004016104039061103c565b60405180910390fd5b6003600081548092919061041f906112c6565b919050555060405180610120016040528060035481526020013373ffffffffffffffffffffffffffffffffffffffff1681526020018773ffffffffffffffffffffffffffffffffffffffff1681526020018681526020018581526020018481526020018373ffffffffffffffffffffffffffffffffffffffff1681526020018281526020016001151581525060008060035481526020019081526020016000206000820151816000015560208201518160010160006101000a81548173ffffffffffffffffffffffffffffffffffffffff021916908373ffffffffffffffffffffffffffffffffffffffff16021790555060408201518160020160006101000a81548173ffffffffffffffffffffffffffffffffffffffff021916908373ffffffffffffffffffffffffffffffffffffffff160217905550606082015181600301556080820151816004015560a0820151816005015560c08201518160060160006101000a81548173ffffffffffffffffffffffffffffffffffffffff021916908373ffffffffffffffffffffffffffffffffffffffff16021790555060e082015181600701556101008201518160080160006101000a81548160ff021916908315150217905550905050600160003373ffffffffffffffffffffffffffffffffffffffff1673ffffffffffffffffffffffffffffffffffffffff1681526020019081526020016000206003549080600181540180825580915050600190039060005260206000200160009091909190915055600260008773ffffffffffffffffffffffffffffffffffffffff1673ffffffffffffffffffffffffffffffffffffffff16815260200190815260200160002060035490806001815401808255809150506001900390600052602060002001600090919091909150557fcafdf86f58abbd97f3494c014db451e523dd2ca41d7cbc5005c406a556050faf600354338888888888886040516106f9989796959493929190611117565b60405180910390a1505050505050565b6060600260008373ffffffffffffffffffffffffffffffffffffffff1673ffffffffffffffffffffffffffffffffffffffff16815260200190815260200160002080548060200260200160405190810160405280929190818152602001828054801561079457602002820191906000526020600020905b815481526020019060010190808311610780575b50505050509050919050565b600160205281600052604060002081815481106107bc57600080fd5b90600052602060002001600091509150505481565b803373ffffffffffffffffffffffffffffffffffffffff1660008083815260200190815260200160002060010160009054906101000a900473ffffffffffffffffffffffffffffffffffffffff1673ffffffffffffffffffffffffffffffffffffffff1614610875576040517f08c379a000000000000000000000000000000000000000000000000000000000815260040161086c906110dc565b60405180910390fd5b816001151560008083815260200190815260200160002060080160009054906101000a900460ff161515146108df576040517f08c379a00000000000000000000000000000000000000000000000000000000081526004016108d6906110bc565b60405180910390fd5b600080600085815260200190815260200160002060080160006101000a81548160ff0219169083151502179055507f115ddacb85f93441ae503699fa6997096db2ef9ff1190987f3d908b3733e535e8360405161093c91906110fc565b60405180910390a1505050565b803373ffffffffffffffffffffffffffffffffffffffff1660008083815260200190815260200160002060020160009054906101000a900473ffffffffffffffffffffffffffffffffffffffff1673ffffffffffffffffffffffffffffffffffffffff16146109ed576040517f08c379a00000000000000000000000000000000000000000000000000000000081526004016109e4906110dc565b60405180910390fd5b816001151560008083815260200190815260200160002060080160009054906101000a900460ff16151514610a57576040517f08c379a0000000000000000000000000000000000000000000000000000000008152600401610a4e906110bc565b60405180910390fd5b600080600085815260200190815260200160002060080160006101000a81548160ff021916908315150217905550600460009054906101000a900473ffffffffffffffffffffffffffffffffffffffff1673ffffffffffffffffffffffffffffffffffffffff16638593234560036040518263ffffffff1660e01b8152600401610ae19190611021565b600060405180830381600087803b158015610afb57600080fd5b505af1158015610b0f573d6000803e3d6000fd5b505050507fb4861af877939187e6370c65b6d06f8e8873a1c6df6c0f31c537460880b4d0c583604051610b4291906110fc565b60405180910390a1505050565b6060600160008373ffffffffffffffffffffffffffffffffffffffff1673ffffffffffffffffffffffffffffffffffffffff168152602001908152602001600020805480602002602001604051908101604052809291908181526020018280548015610bda57602002820191906000526020600020905b815481526020019060010190808311610bc6575b50505050509050919050565b60006020528060005260406000206000915090508060000154908060010160009054906101000a900473ffffffffffffffffffffffffffffffffffffffff16908060020160009054906101000a900473ffffffffffffffffffffffffffffffffffffffff16908060030154908060040154908060050154908060060160009054906101000a900473ffffffffffffffffffffffffffffffffffffffff16908060070154908060080160009054906101000a900460ff16905089565b60026020528160005260406000208181548110610cbd57600080fd5b90600052602060002001600091509150505481565b600081359050610ce18161145a565b92915050565b600081519050610cf681611471565b92915050565b600081359050610d0b81611488565b92915050565b600060208284031215610d2357600080fd5b6000610d3184828501610cd2565b91505092915050565b60008060408385031215610d4d57600080fd5b6000610d5b85828601610cd2565b9250506020610d6c85828601610cfc565b9150509250929050565b60008060008060008060c08789031215610d8f57600080fd5b6000610d9d89828a01610cd2565b9650506020610dae89828a01610cfc565b9550506040610dbf89828a01610cfc565b9450506060610dd089828a01610cfc565b9350506080610de189828a01610cd2565b92505060a0610df289828a01610cfc565b9150509295509295509295565b600060208284031215610e1157600080fd5b6000610e1f84828501610ce7565b91505092915050565b600060208284031215610e3a57600080fd5b6000610e4884828501610cfc565b91505092915050565b6000610e5d8383610fc6565b60208301905092915050565b610e728161126c565b82525050565b6000610e8382611232565b610e8d818561124a565b9350610e9883611222565b8060005b83811015610ec9578151610eb08882610e51565b9750610ebb8361123d565b925050600181019050610e9c565b5085935050505092915050565b610edf8161127e565b82525050565b610eee816112b4565b82525050565b6000610f0160168361125b565b9150610f0c8261133e565b602082019050919050565b6000610f2460338361125b565b9150610f2f82611367565b604082019050919050565b6000610f4760168361125b565b9150610f52826113b6565b602082019050919050565b6000610f6a60158361125b565b9150610f75826113df565b602082019050919050565b6000610f8d60128361125b565b9150610f9882611408565b602082019050919050565b6000610fb0600e8361125b565b9150610fbb82611431565b602082019050919050565b610fcf816112aa565b82525050565b610fde816112aa565b82525050565b6000602082019050610ff96000830184610e69565b92915050565b600060208201905081810360008301526110198184610e78565b905092915050565b60006020820190506110366000830184610ee5565b92915050565b6000602082019050818103600083015261105581610ef4565b9050919050565b6000602082019050818103600083015261107581610f17565b9050919050565b6000602082019050818103600083015261109581610f3a565b9050919050565b600060208201905081810360008301526110b581610f5d565b9050919050565b600060208201905081810360008301526110d581610f80565b9050919050565b600060208201905081810360008301526110f581610fa3565b9050919050565b60006020820190506111116000830184610fd5565b92915050565b60006101008201905061112d600083018b610fd5565b61113a602083018a610e69565b6111476040830189610e69565b6111546060830188610fd5565b6111616080830187610fd5565b61116e60a0830186610fd5565b61117b60c0830185610e69565b61118860e0830184610fd5565b9998505050505050505050565b6000610120820190506111ab600083018c610fd5565b6111b8602083018b610e69565b6111c5604083018a610e69565b6111d26060830189610fd5565b6111df6080830188610fd5565b6111ec60a0830187610fd5565b6111f960c0830186610e69565b61120660e0830185610fd5565b611214610100830184610ed6565b9a9950505050505050505050565b6000819050602082019050919050565b600081519050919050565b6000602082019050919050565b600082825260208201905092915050565b600082825260208201905092915050565b60006112778261128a565b9050919050565b60008115159050919050565b600073ffffffffffffffffffffffffffffffffffffffff82169050919050565b6000819050919050565b60006112bf826112aa565b9050919050565b60006112d1826112aa565b91507fffffffffffffffffffffffffffffffffffffffffffffffffffffffffffffffff8214156113045761130361130f565b5b600182019050919050565b7f4e487b7100000000000000000000000000000000000000000000000000000000600052601160045260246000fd5b7f496e76616c6964207374617274206475726174696f6e00000000000000000000600082015250565b7f4e6f7420617574686f72697a656420746f2063726561746520612072656e742e60008201527f205369676e207570206f6e2050726f66696c6500000000000000000000000000602082015250565b7f496e76616c69642072656e746572206164647265737300000000000000000000600082015250565b7f496e76616c69642072656e74206475726174696f6e0000000000000000000000600082015250565b7f52656e74206973206e6f74206163746976650000000000000000000000000000600082015250565b7f4e6f7420617574686f72697a6564000000000000000000000000000000000000600082015250565b6114638161126c565b811461146e57600080fd5b50565b61147a8161127e565b811461148557600080fd5b50565b611491816112aa565b811461149c57600080fd5b5056fea2646970667358221220a7a68342c1c6783eb5f342e1bcd2effcd50923212e010fb212dd3d6b3bf3a0c764736f6c63430008040033",
  "immutableReferences": {},
  "source": "pragma solidity ^0.8.4;\n\nimport \"./Profile.sol\";\n\ncontract RentalAgreement {\n    struct RentAgreement {\n        uint256 rentId;\n        address owner;\n        address renter;\n        uint256 startDate;\n        uint256 endDate;\n        uint256 rentalFee;\n        address logsAddress;\n        uint256 logsId;\n        bool isActive;\n    }\n\n    mapping(uint256 => RentAgreement) public rentalAgreements;\n    mapping(address => uint256[]) public ownerAgreements;\n    mapping(address => uint256[]) public renterAgreements;\n\n    uint256 private rentIdCounter = 0;\n\n    modifier onlyActiveAgreement(uint256 _rentId) {\n        require(\n            rentalAgreements[_rentId].isActive == true,\n            \"Rent is not active\"\n        );\n        _;\n    }\n\n    modifier onlyOwner(uint256 _rentId) {\n        require(\n            rentalAgreements[_rentId].owner == msg.sender,\n            \"Not authorized\"\n        );\n        _;\n    }\n\n    modifier onlyRenter(uint256 _rentId) {\n        require(\n            rentalAgreements[_rentId].renter == msg.sender,\n            \"Not authorized\"\n        );\n        _;\n    }\n\n    Profile profile;\n\n    // receive address during deployment script\n    constructor(Profile _profile) {\n        profile = _profile;\n    }\n\n\n    event RentCreated(\n        uint256 rentId,\n        address owner,\n        address renter,\n        uint256 startDate,\n        uint256 endDate,\n        uint256 rentalFee,\n        address logsAddress,\n        uint256 logsId\n    );\n    event RentCancelled(uint256 rentId);\n    event RentCompleted(uint256 rentId);\n\n    function createRent(\n        address _renter,\n        uint256 _startDate,\n        uint256 _endDate,\n        uint256 _rentalFee,\n        address _logsAddress,\n        uint256 _logsId\n    ) external {\n        require(profile.checkMembership(msg.sender) == true, \"Not authorized to create a rent. Sign up on Profile\");\n        require(_renter != address(0), \"Invalid renter address\");\n        require(_startDate < _endDate, \"Invalid rent duration\");\n        require(_startDate > block.timestamp, \"Invalid start duration\");\n\n        rentIdCounter++;\n\n        rentalAgreements[rentIdCounter] = RentAgreement(\n            rentIdCounter,\n            msg.sender,\n            _renter,\n            _startDate,\n            _endDate,\n            _rentalFee,\n            _logsAddress,\n            _logsId,\n            true\n        );\n\n        ownerAgreements[msg.sender].push(rentIdCounter);\n        renterAgreements[_renter].push(rentIdCounter);\n\n        emit RentCreated(\n            rentIdCounter,\n            msg.sender,\n            _renter,\n            _startDate,\n            _endDate,\n            _rentalFee,\n            _logsAddress,\n            _logsId\n        );\n    }\n\n    function cancelAgreement(uint256 _rentId)\n        public\n        onlyOwner(_rentId)\n        onlyActiveAgreement(_rentId)\n    {\n        rentalAgreements[_rentId].isActive = false;\n\n        emit RentCancelled(_rentId);\n    }\n\n    function completeAgreement(\n        uint256 _rentId //only by renter who then pays\n    ) public payable onlyRenter(_rentId) onlyActiveAgreement(_rentId) {\n        rentalAgreements[_rentId].isActive = false;\n\n        // Clock points for renter\n        profile.earnPoints(3);\n        emit RentCompleted(_rentId);\n    }\n\n    function getOwnerAgreements(address _owner)\n        public\n        view\n        returns (uint256[] memory)\n    {\n        return ownerAgreements[_owner];\n    }\n\n    function getRenterAgreements(address _renter)\n        public\n        view\n        returns (uint256[] memory)\n    {\n        return renterAgreements[_renter];\n    }\n\n}\n",
  "sourcePath": "/Users/colin/Desktop/NFT_Marketplace/contracts/RentalAgreement.sol",
  "compiler": {
    "name": "solc",
    "version": "0.8.4+commit.c7e474f2.Emscripten.clang"
  },
  "schemaVersion": "3.3.2",
  "updatedAt": "2023-03-27T02:56:54.237Z",
  "devdoc": {
    "kind": "dev",
    "methods": {},
    "version": 1
  },
  "userdoc": {
    "kind": "user",
    "methods": {},
    "version": 1
  }
}