{
  "contractName": "RentalAgreement",
  "abi": [
    {
      "inputs": [
        {
          "internalType": "contract Profile",
          "name": "_profile",
          "type": "address"
        }
      ],
      "stateMutability": "nonpayable",
      "type": "constructor"
    },
    {
      "anonymous": false,
      "inputs": [
        {
          "indexed": false,
          "internalType": "uint256",
          "name": "rentId",
          "type": "uint256"
        }
      ],
      "name": "RentCancelled",
      "type": "event"
    },
    {
      "anonymous": false,
      "inputs": [
        {
          "indexed": false,
          "internalType": "uint256",
          "name": "rentId",
          "type": "uint256"
        }
      ],
      "name": "RentCompleted",
      "type": "event"
    },
    {
      "anonymous": false,
      "inputs": [
        {
          "indexed": false,
          "internalType": "uint256",
          "name": "rentId",
          "type": "uint256"
        },
        {
          "indexed": false,
          "internalType": "address",
          "name": "owner",
          "type": "address"
        },
        {
          "indexed": false,
          "internalType": "address",
          "name": "renter",
          "type": "address"
        },
        {
          "indexed": false,
          "internalType": "uint256",
          "name": "startDate",
          "type": "uint256"
        },
        {
          "indexed": false,
          "internalType": "uint256",
          "name": "endDate",
          "type": "uint256"
        },
        {
          "indexed": false,
          "internalType": "uint256",
          "name": "rentalFee",
          "type": "uint256"
        },
        {
          "indexed": false,
          "internalType": "uint256",
          "name": "logsId",
          "type": "uint256"
        }
      ],
      "name": "RentCreated",
      "type": "event"
    },
    {
      "inputs": [
        {
          "internalType": "address",
          "name": "",
          "type": "address"
        },
        {
          "internalType": "uint256",
          "name": "",
          "type": "uint256"
        }
      ],
      "name": "ownerAgreements",
      "outputs": [
        {
          "internalType": "uint256",
          "name": "",
          "type": "uint256"
        }
      ],
      "stateMutability": "view",
      "type": "function",
      "constant": true
    },
    {
      "inputs": [
        {
          "internalType": "uint256",
          "name": "",
          "type": "uint256"
        }
      ],
      "name": "rentalAgreements",
      "outputs": [
        {
          "internalType": "uint256",
          "name": "rentId",
          "type": "uint256"
        },
        {
          "internalType": "address",
          "name": "owner",
          "type": "address"
        },
        {
          "internalType": "address",
          "name": "renter",
          "type": "address"
        },
        {
          "internalType": "uint256",
          "name": "startDate",
          "type": "uint256"
        },
        {
          "internalType": "uint256",
          "name": "endDate",
          "type": "uint256"
        },
        {
          "internalType": "uint256",
          "name": "rentalFee",
          "type": "uint256"
        },
        {
          "internalType": "uint256",
          "name": "logsId",
          "type": "uint256"
        },
        {
          "internalType": "bool",
          "name": "isActive",
          "type": "bool"
        }
      ],
      "stateMutability": "view",
      "type": "function",
      "constant": true
    },
    {
      "inputs": [
        {
          "internalType": "address",
          "name": "",
          "type": "address"
        },
        {
          "internalType": "uint256",
          "name": "",
          "type": "uint256"
        }
      ],
      "name": "renterAgreements",
      "outputs": [
        {
          "internalType": "uint256",
          "name": "",
          "type": "uint256"
        }
      ],
      "stateMutability": "view",
      "type": "function",
      "constant": true
    },
    {
      "inputs": [
        {
          "internalType": "address",
          "name": "_renter",
          "type": "address"
        },
        {
          "internalType": "uint256",
          "name": "_startDate",
          "type": "uint256"
        },
        {
          "internalType": "uint256",
          "name": "_endDate",
          "type": "uint256"
        },
        {
          "internalType": "uint256",
          "name": "_rentalFee",
          "type": "uint256"
        },
        {
          "internalType": "uint256",
          "name": "_logsId",
          "type": "uint256"
        }
      ],
      "name": "createRent",
      "outputs": [],
      "stateMutability": "nonpayable",
      "type": "function"
    },
    {
      "inputs": [
        {
          "internalType": "uint256",
          "name": "_rentId",
          "type": "uint256"
        }
      ],
      "name": "cancelAgreement",
      "outputs": [],
      "stateMutability": "nonpayable",
      "type": "function"
    },
    {
      "inputs": [
        {
          "internalType": "uint256",
          "name": "_rentId",
          "type": "uint256"
        }
      ],
      "name": "completeAgreement",
      "outputs": [],
      "stateMutability": "payable",
      "type": "function",
      "payable": true
    },
    {
      "inputs": [
        {
          "internalType": "uint256",
          "name": "rentId",
          "type": "uint256"
        }
      ],
      "name": "getOwner",
      "outputs": [
        {
          "internalType": "address",
          "name": "",
          "type": "address"
        }
      ],
      "stateMutability": "view",
      "type": "function",
      "constant": true
    },
    {
      "inputs": [
        {
          "internalType": "uint256",
          "name": "rentId",
          "type": "uint256"
        }
      ],
      "name": "getRenter",
      "outputs": [
        {
          "internalType": "address",
          "name": "",
          "type": "address"
        }
      ],
      "stateMutability": "view",
      "type": "function",
      "constant": true
    },
    {
      "inputs": [
        {
          "internalType": "address",
          "name": "_owner",
          "type": "address"
        }
      ],
      "name": "getOwnerAgreements",
      "outputs": [
        {
          "internalType": "uint256[]",
          "name": "",
          "type": "uint256[]"
        }
      ],
      "stateMutability": "view",
      "type": "function",
      "constant": true
    },
    {
      "inputs": [
        {
          "internalType": "address",
          "name": "_renter",
          "type": "address"
        }
      ],
      "name": "getRenterAgreements",
      "outputs": [
        {
          "internalType": "uint256[]",
          "name": "",
          "type": "uint256[]"
        }
      ],
      "stateMutability": "view",
      "type": "function",
      "constant": true
    }
  ],
  "bytecode": "0x608060405260006003553480156200001657600080fd5b50604051620014973803806200149783398181016040528101906200003c91906200009b565b80600460006101000a81548173ffffffffffffffffffffffffffffffffffffffff021916908373ffffffffffffffffffffffffffffffffffffffff1602179055505062000129565b60008151905062000095816200010f565b92915050565b600060208284031215620000ae57600080fd5b6000620000be8482850162000084565b91505092915050565b6000620000d482620000ef565b9050919050565b6000620000e882620000c7565b9050919050565b600073ffffffffffffffffffffffffffffffffffffffff82169050919050565b6200011a81620000db565b81146200012657600080fd5b50565b61135e80620001396000396000f3fe6080604052600436106100915760003560e01c80639e62ccc0116100595780639e62ccc014610192578063ac06b0d8146101cf578063bfdfac8414610213578063c071e6571461023c578063c41a360a1461027957610091565b80631df8eaad146100965780633009c19b146100d3578063407af513146101105780635686b54b1461014d5780638458cf8e14610176575b600080fd5b3480156100a257600080fd5b506100bd60048036038101906100b89190610c8e565b6102b6565b6040516100ca9190610f47565b60405180910390f35b3480156100df57600080fd5b506100fa60048036038101906100f59190610d6a565b61034d565b6040516101079190610f03565b60405180910390f35b34801561011c57600080fd5b5061013760048036038101906101329190610cb7565b61038c565b6040516101449190611009565b60405180910390f35b34801561015957600080fd5b50610174600480360381019061016f9190610d6a565b6103bd565b005b610190600480360381019061018b9190610d6a565b610535565b005b34801561019e57600080fd5b506101b960048036038101906101b49190610c8e565b61073d565b6040516101c69190610f47565b60405180910390f35b3480156101db57600080fd5b506101f660048036038101906101f19190610d6a565b6107d4565b60405161020a989796959493929190611093565b60405180910390f35b34801561021f57600080fd5b5061023a60048036038101906102359190610cf3565b610869565b005b34801561024857600080fd5b50610263600480360381019061025e9190610cb7565b610bf4565b6040516102709190611009565b60405180910390f35b34801561028557600080fd5b506102a0600480360381019061029b9190610d6a565b610c25565b6040516102ad9190610f03565b60405180910390f35b6060600260008373ffffffffffffffffffffffffffffffffffffffff1673ffffffffffffffffffffffffffffffffffffffff16815260200190815260200160002080548060200260200160405190810160405280929190818152602001828054801561034157602002820191906000526020600020905b81548152602001906001019080831161032d575b50505050509050919050565b600080600083815260200190815260200160002060020160009054906101000a900473ffffffffffffffffffffffffffffffffffffffff169050919050565b600160205281600052604060002081815481106103a857600080fd5b90600052602060002001600091509150505481565b803373ffffffffffffffffffffffffffffffffffffffff1660008083815260200190815260200160002060010160009054906101000a900473ffffffffffffffffffffffffffffffffffffffff1673ffffffffffffffffffffffffffffffffffffffff1614610461576040517f08c379a000000000000000000000000000000000000000000000000000000000815260040161045890610fe9565b60405180910390fd5b816001151560008083815260200190815260200160002060070160009054906101000a900460ff161515146104cb576040517f08c379a00000000000000000000000000000000000000000000000000000000081526004016104c290610fc9565b60405180910390fd5b600080600085815260200190815260200160002060070160006101000a81548160ff0219169083151502179055507f115ddacb85f93441ae503699fa6997096db2ef9ff1190987f3d908b3733e535e836040516105289190611009565b60405180910390a1505050565b803373ffffffffffffffffffffffffffffffffffffffff1660008083815260200190815260200160002060020160009054906101000a900473ffffffffffffffffffffffffffffffffffffffff1673ffffffffffffffffffffffffffffffffffffffff16146105d9576040517f08c379a00000000000000000000000000000000000000000000000000000000081526004016105d090610fe9565b60405180910390fd5b816001151560008083815260200190815260200160002060070160009054906101000a900460ff16151514610643576040517f08c379a000000000000000000000000000000000000000000000000000000000815260040161063a90610fc9565b60405180910390fd5b600080600085815260200190815260200160002060070160006101000a81548160ff021916908315150217905550600460009054906101000a900473ffffffffffffffffffffffffffffffffffffffff1673ffffffffffffffffffffffffffffffffffffffff1663d909d5e33360036040518363ffffffff1660e01b81526004016106cf929190610f1e565b600060405180830381600087803b1580156106e957600080fd5b505af11580156106fd573d6000803e3d6000fd5b505050507fb4861af877939187e6370c65b6d06f8e8873a1c6df6c0f31c537460880b4d0c5836040516107309190611009565b60405180910390a1505050565b6060600160008373ffffffffffffffffffffffffffffffffffffffff1673ffffffffffffffffffffffffffffffffffffffff1681526020019081526020016000208054806020026020016040519081016040528092919081815260200182805480156107c857602002820191906000526020600020905b8154815260200190600101908083116107b4575b50505050509050919050565b60006020528060005260406000206000915090508060000154908060010160009054906101000a900473ffffffffffffffffffffffffffffffffffffffff16908060020160009054906101000a900473ffffffffffffffffffffffffffffffffffffffff16908060030154908060040154908060050154908060060154908060070160009054906101000a900460ff16905088565b600073ffffffffffffffffffffffffffffffffffffffff168573ffffffffffffffffffffffffffffffffffffffff1614156108d9576040517f08c379a00000000000000000000000000000000000000000000000000000000081526004016108d090610f89565b60405180910390fd5b82841061091b576040517f08c379a000000000000000000000000000000000000000000000000000000000815260040161091290610fa9565b60405180910390fd5b4284101561095e576040517f08c379a000000000000000000000000000000000000000000000000000000000815260040161095590610f69565b60405180910390fd5b60036000815480929190610971906111b5565b919050555060405180610100016040528060035481526020013273ffffffffffffffffffffffffffffffffffffffff1681526020018673ffffffffffffffffffffffffffffffffffffffff1681526020018581526020018481526020018381526020018281526020016001151581525060008060035481526020019081526020016000206000820151816000015560208201518160010160006101000a81548173ffffffffffffffffffffffffffffffffffffffff021916908373ffffffffffffffffffffffffffffffffffffffff16021790555060408201518160020160006101000a81548173ffffffffffffffffffffffffffffffffffffffff021916908373ffffffffffffffffffffffffffffffffffffffff160217905550606082015181600301556080820151816004015560a0820151816005015560c0820151816006015560e08201518160070160006101000a81548160ff021916908315150217905550905050600160003273ffffffffffffffffffffffffffffffffffffffff1673ffffffffffffffffffffffffffffffffffffffff1681526020019081526020016000206003549080600181540180825580915050600190039060005260206000200160009091909190915055600260008673ffffffffffffffffffffffffffffffffffffffff1673ffffffffffffffffffffffffffffffffffffffff16815260200190815260200160002060035490806001815401808255809150506001900390600052602060002001600090919091909150557f881090074b39b0266c032cae89988aac6532b73a492d22a00ef55a1c8c197b4a600354328787878787604051610be59796959493929190611024565b60405180910390a15050505050565b60026020528160005260406000208181548110610c1057600080fd5b90600052602060002001600091509150505481565b600080600083815260200190815260200160002060010160009054906101000a900473ffffffffffffffffffffffffffffffffffffffff169050919050565b600081359050610c73816112fa565b92915050565b600081359050610c8881611311565b92915050565b600060208284031215610ca057600080fd5b6000610cae84828501610c64565b91505092915050565b60008060408385031215610cca57600080fd5b6000610cd885828601610c64565b9250506020610ce985828601610c79565b9150509250929050565b600080600080600060a08688031215610d0b57600080fd5b6000610d1988828901610c64565b9550506020610d2a88828901610c79565b9450506040610d3b88828901610c79565b9350506060610d4c88828901610c79565b9250506080610d5d88828901610c79565b9150509295509295909350565b600060208284031215610d7c57600080fd5b6000610d8a84828501610c79565b91505092915050565b6000610d9f8383610ee5565b60208301905092915050565b610db48161115b565b82525050565b6000610dc582611121565b610dcf8185611139565b9350610dda83611111565b8060005b83811015610e0b578151610df28882610d93565b9750610dfd8361112c565b925050600181019050610dde565b5085935050505092915050565b610e218161116d565b82525050565b610e30816111a3565b82525050565b6000610e4360168361114a565b9150610e4e8261122d565b602082019050919050565b6000610e6660168361114a565b9150610e7182611256565b602082019050919050565b6000610e8960158361114a565b9150610e948261127f565b602082019050919050565b6000610eac60128361114a565b9150610eb7826112a8565b602082019050919050565b6000610ecf600e8361114a565b9150610eda826112d1565b602082019050919050565b610eee81611199565b82525050565b610efd81611199565b82525050565b6000602082019050610f186000830184610dab565b92915050565b6000604082019050610f336000830185610dab565b610f406020830184610e27565b9392505050565b60006020820190508181036000830152610f618184610dba565b905092915050565b60006020820190508181036000830152610f8281610e36565b9050919050565b60006020820190508181036000830152610fa281610e59565b9050919050565b60006020820190508181036000830152610fc281610e7c565b9050919050565b60006020820190508181036000830152610fe281610e9f565b9050919050565b6000602082019050818103600083015261100281610ec2565b9050919050565b600060208201905061101e6000830184610ef4565b92915050565b600060e082019050611039600083018a610ef4565b6110466020830189610dab565b6110536040830188610dab565b6110606060830187610ef4565b61106d6080830186610ef4565b61107a60a0830185610ef4565b61108760c0830184610ef4565b98975050505050505050565b6000610100820190506110a9600083018b610ef4565b6110b6602083018a610dab565b6110c36040830189610dab565b6110d06060830188610ef4565b6110dd6080830187610ef4565b6110ea60a0830186610ef4565b6110f760c0830185610ef4565b61110460e0830184610e18565b9998505050505050505050565b6000819050602082019050919050565b600081519050919050565b6000602082019050919050565b600082825260208201905092915050565b600082825260208201905092915050565b600061116682611179565b9050919050565b60008115159050919050565b600073ffffffffffffffffffffffffffffffffffffffff82169050919050565b6000819050919050565b60006111ae82611199565b9050919050565b60006111c082611199565b91507fffffffffffffffffffffffffffffffffffffffffffffffffffffffffffffffff8214156111f3576111f26111fe565b5b600182019050919050565b7f4e487b7100000000000000000000000000000000000000000000000000000000600052601160045260246000fd5b7f496e76616c6964207374617274206475726174696f6e00000000000000000000600082015250565b7f496e76616c69642072656e746572206164647265737300000000000000000000600082015250565b7f496e76616c69642072656e74206475726174696f6e0000000000000000000000600082015250565b7f52656e74206973206e6f74206163746976650000000000000000000000000000600082015250565b7f4e6f7420617574686f72697a6564000000000000000000000000000000000000600082015250565b6113038161115b565b811461130e57600080fd5b50565b61131a81611199565b811461132557600080fd5b5056fea264697066735822122091d86c25a947e94f589f8f44209878c678558d5d74bf70ee636fd35eaea15a4b64736f6c63430008040033",
  "immutableReferences": {},
  "source": "pragma solidity ^0.8.4;\r\n\r\nimport \"./Profile.sol\";\r\n\r\ncontract RentalAgreement {\r\n    struct RentAgreement {\r\n        uint256 rentId;\r\n        address owner;\r\n        address renter;\r\n        uint256 startDate;\r\n        uint256 endDate;\r\n        uint256 rentalFee;\r\n        uint256 logsId;\r\n        bool isActive;\r\n    }\r\n\r\n    mapping(uint256 => RentAgreement) public rentalAgreements;\r\n    mapping(address => uint256[]) public ownerAgreements;\r\n    mapping(address => uint256[]) public renterAgreements;\r\n\r\n    uint256 private rentIdCounter = 0;\r\n\r\n    modifier onlyActiveAgreement(uint256 _rentId) {\r\n        require(\r\n            rentalAgreements[_rentId].isActive == true,\r\n            \"Rent is not active\"\r\n        );\r\n        _;\r\n    }\r\n\r\n    modifier onlyOwner(uint256 _rentId) {\r\n        require(\r\n            rentalAgreements[_rentId].owner == msg.sender,\r\n            \"Not authorized\"\r\n        );\r\n        _;\r\n    }\r\n\r\n    modifier onlyRenter(uint256 _rentId) {\r\n        require(\r\n            rentalAgreements[_rentId].renter == msg.sender,\r\n            \"Not authorized\"\r\n        );\r\n        _;\r\n    }\r\n\r\n    Profile profile;\r\n\r\n    // receive address during deployment script\r\n    constructor(Profile _profile) {\r\n        profile = _profile;\r\n    }\r\n\r\n\r\n    event RentCreated(\r\n        uint256 rentId,\r\n        address owner,\r\n        address renter,\r\n        uint256 startDate,\r\n        uint256 endDate,\r\n        uint256 rentalFee,\r\n        uint256 logsId\r\n    );\r\n    event RentCancelled(uint256 rentId);\r\n    event RentCompleted(uint256 rentId);\r\n\r\n    function createRent(\r\n        address _renter,\r\n        uint256 _startDate,\r\n        uint256 _endDate,\r\n        uint256 _rentalFee,\r\n        uint256 _logsId\r\n    ) external {\r\n        require(_renter != address(0), \"Invalid renter address\");\r\n        require(_startDate < _endDate, \"Invalid rent duration\");\r\n        require(_startDate >= block.timestamp, \"Invalid start duration\");\r\n\r\n        rentIdCounter++;\r\n\r\n        rentalAgreements[rentIdCounter] = RentAgreement(\r\n            rentIdCounter,\r\n            tx.origin,\r\n            _renter,\r\n            _startDate,\r\n            _endDate,\r\n            _rentalFee,\r\n            _logsId,\r\n            true\r\n        );\r\n\r\n        ownerAgreements[tx.origin].push(rentIdCounter);\r\n        renterAgreements[_renter].push(rentIdCounter);\r\n\r\n        emit RentCreated(\r\n            rentIdCounter,\r\n            tx.origin,\r\n            _renter,\r\n            _startDate,\r\n            _endDate,\r\n            _rentalFee,\r\n            _logsId\r\n        );\r\n    }\r\n\r\n    function cancelAgreement(uint256 _rentId)\r\n        public\r\n        onlyOwner(_rentId)\r\n        onlyActiveAgreement(_rentId)\r\n    {\r\n        rentalAgreements[_rentId].isActive = false;\r\n\r\n        emit RentCancelled(_rentId);\r\n    }\r\n\r\n    function completeAgreement(\r\n        uint256 _rentId //only by renter who then pays\r\n    ) public payable onlyRenter(_rentId) onlyActiveAgreement(_rentId) {\r\n        rentalAgreements[_rentId].isActive = false;\r\n\r\n        // Clock points for renter\r\n        profile.earnPoints(msg.sender, 3);\r\n        emit RentCompleted(_rentId);\r\n    }\r\n\r\n    function getOwner(uint256 rentId) public view returns (address) {\r\n        return rentalAgreements[rentId].owner;\r\n    }\r\n\r\n    function getRenter(uint256 rentId) public view returns (address) {\r\n        return rentalAgreements[rentId].renter;\r\n    }\r\n\r\n    function getOwnerAgreements(address _owner)\r\n        public\r\n        view\r\n        returns (uint256[] memory)\r\n    {\r\n        return ownerAgreements[_owner];\r\n    }\r\n\r\n    function getRenterAgreements(address _renter)\r\n        public\r\n        view\r\n        returns (uint256[] memory)\r\n    {\r\n        return renterAgreements[_renter];\r\n    }\r\n\r\n}\r\n",
  "sourcePath": "C:\\Users\\tingy\\Documents\\GitHub\\tt_contracts\\contracts\\RentalAgreement.sol",
  "compiler": {
    "name": "solc",
    "version": "0.8.4+commit.c7e474f2.Emscripten.clang"
  },
  "schemaVersion": "3.4.11",
  "updatedAt": "2023-03-30T13:59:56.081Z",
  "networkType": "ethereum",
  "devdoc": {
    "kind": "dev",
    "methods": {},
    "version": 1
  },
  "userdoc": {
    "kind": "user",
    "methods": {},
    "version": 1
  }
}