{
  "contractName": "RentalAgreement",
  "abi": [
    {
      "inputs": [
        {
          "internalType": "contract Profile",
          "name": "_profile",
          "type": "address"
        }
      ],
      "stateMutability": "nonpayable",
      "type": "constructor"
    },
    {
      "anonymous": false,
      "inputs": [
        {
          "indexed": false,
          "internalType": "uint256",
          "name": "rentId",
          "type": "uint256"
        }
      ],
      "name": "RentCancelled",
      "type": "event"
    },
    {
      "anonymous": false,
      "inputs": [
        {
          "indexed": false,
          "internalType": "uint256",
          "name": "rentId",
          "type": "uint256"
        }
      ],
      "name": "RentCompleted",
      "type": "event"
    },
    {
      "anonymous": false,
      "inputs": [
        {
          "indexed": false,
          "internalType": "uint256",
          "name": "rentId",
          "type": "uint256"
        },
        {
          "indexed": false,
          "internalType": "address",
          "name": "owner",
          "type": "address"
        },
        {
          "indexed": false,
          "internalType": "address",
          "name": "renter",
          "type": "address"
        },
        {
          "indexed": false,
          "internalType": "uint256",
          "name": "startDate",
          "type": "uint256"
        },
        {
          "indexed": false,
          "internalType": "uint256",
          "name": "endDate",
          "type": "uint256"
        },
        {
          "indexed": false,
          "internalType": "uint256",
          "name": "rentalFee",
          "type": "uint256"
        },
        {
          "indexed": false,
          "internalType": "address",
          "name": "logsAddress",
          "type": "address"
        },
        {
          "indexed": false,
          "internalType": "uint256",
          "name": "logsId",
          "type": "uint256"
        }
      ],
      "name": "RentCreated",
      "type": "event"
    },
    {
      "inputs": [
        {
          "internalType": "address",
          "name": "",
          "type": "address"
        },
        {
          "internalType": "uint256",
          "name": "",
          "type": "uint256"
        }
      ],
      "name": "ownerAgreements",
      "outputs": [
        {
          "internalType": "uint256",
          "name": "",
          "type": "uint256"
        }
      ],
      "stateMutability": "view",
      "type": "function"
    },
    {
      "inputs": [
        {
          "internalType": "uint256",
          "name": "",
          "type": "uint256"
        }
      ],
      "name": "rentalAgreements",
      "outputs": [
        {
          "internalType": "uint256",
          "name": "rentId",
          "type": "uint256"
        },
        {
          "internalType": "address",
          "name": "owner",
          "type": "address"
        },
        {
          "internalType": "address",
          "name": "renter",
          "type": "address"
        },
        {
          "internalType": "uint256",
          "name": "startDate",
          "type": "uint256"
        },
        {
          "internalType": "uint256",
          "name": "endDate",
          "type": "uint256"
        },
        {
          "internalType": "uint256",
          "name": "rentalFee",
          "type": "uint256"
        },
        {
          "internalType": "address",
          "name": "logsAddress",
          "type": "address"
        },
        {
          "internalType": "uint256",
          "name": "logsId",
          "type": "uint256"
        },
        {
          "internalType": "bool",
          "name": "isActive",
          "type": "bool"
        }
      ],
      "stateMutability": "view",
      "type": "function"
    },
    {
      "inputs": [
        {
          "internalType": "address",
          "name": "",
          "type": "address"
        },
        {
          "internalType": "uint256",
          "name": "",
          "type": "uint256"
        }
      ],
      "name": "renterAgreements",
      "outputs": [
        {
          "internalType": "uint256",
          "name": "",
          "type": "uint256"
        }
      ],
      "stateMutability": "view",
      "type": "function"
    },
    {
      "inputs": [
        {
          "internalType": "address",
          "name": "_renter",
          "type": "address"
        },
        {
          "internalType": "uint256",
          "name": "_startDate",
          "type": "uint256"
        },
        {
          "internalType": "uint256",
          "name": "_endDate",
          "type": "uint256"
        },
        {
          "internalType": "uint256",
          "name": "_rentalFee",
          "type": "uint256"
        },
        {
          "internalType": "address",
          "name": "_logsAddress",
          "type": "address"
        },
        {
          "internalType": "uint256",
          "name": "_logsId",
          "type": "uint256"
        }
      ],
      "name": "createRent",
      "outputs": [],
      "stateMutability": "nonpayable",
      "type": "function"
    },
    {
      "inputs": [
        {
          "internalType": "uint256",
          "name": "_rentId",
          "type": "uint256"
        }
      ],
      "name": "cancelAgreement",
      "outputs": [],
      "stateMutability": "nonpayable",
      "type": "function"
    },
    {
      "inputs": [
        {
          "internalType": "uint256",
          "name": "_rentId",
          "type": "uint256"
        }
      ],
      "name": "completeAgreement",
      "outputs": [],
      "stateMutability": "payable",
      "type": "function"
    },
    {
      "inputs": [
        {
          "internalType": "address",
          "name": "_owner",
          "type": "address"
        }
      ],
      "name": "getOwnerAgreements",
      "outputs": [
        {
          "internalType": "uint256[]",
          "name": "",
          "type": "uint256[]"
        }
      ],
      "stateMutability": "view",
      "type": "function"
    },
    {
      "inputs": [
        {
          "internalType": "address",
          "name": "_renter",
          "type": "address"
        }
      ],
      "name": "getRenterAgreements",
      "outputs": [
        {
          "internalType": "uint256[]",
          "name": "",
          "type": "uint256[]"
        }
      ],
      "stateMutability": "view",
      "type": "function"
    }
  ],
  "bytecode": "0x608060405260006003553480156200001657600080fd5b506040516200161e3803806200161e83398181016040528101906200003c91906200009b565b80600460006101000a81548173ffffffffffffffffffffffffffffffffffffffff021916908373ffffffffffffffffffffffffffffffffffffffff1602179055505062000129565b60008151905062000095816200010f565b92915050565b600060208284031215620000ae57600080fd5b6000620000be8482850162000084565b91505092915050565b6000620000d482620000ef565b9050919050565b6000620000e882620000c7565b9050919050565b600073ffffffffffffffffffffffffffffffffffffffff82169050919050565b6200011a81620000db565b81146200012657600080fd5b50565b6114e580620001396000396000f3fe60806040526004361061007b5760003560e01c80638458cf8e1161004e5780638458cf8e1461014c5780639e62ccc014610168578063ac06b0d8146101a5578063c071e657146101ea5761007b565b806302d6c003146100805780631df8eaad146100a9578063407af513146100e65780635686b54b14610123575b600080fd5b34801561008c57600080fd5b506100a760048036038101906100a29190610d78565b610227565b005b3480156100b557600080fd5b506100d060048036038101906100cb9190610d13565b610709565b6040516100dd919061102a565b60405180910390f35b3480156100f257600080fd5b5061010d60048036038101906101089190610d3c565b6107a0565b60405161011a919061110c565b60405180910390f35b34801561012f57600080fd5b5061014a60048036038101906101459190610e2a565b6107d1565b005b61016660048036038101906101619190610e2a565b610949565b005b34801561017457600080fd5b5061018f600480360381019061018a9190610d13565b610b51565b60405161019c919061102a565b60405180910390f35b3480156101b157600080fd5b506101cc60048036038101906101c79190610e2a565b610be8565b6040516101e1999897969594939291906111a5565b60405180910390f35b3480156101f657600080fd5b50610211600480360381019061020c9190610d3c565b610ca3565b60405161021e919061110c565b60405180910390f35b60011515600460009054906101000a900473ffffffffffffffffffffffffffffffffffffffff1673ffffffffffffffffffffffffffffffffffffffff16635fb64fd6336040518263ffffffff1660e01b81526004016102869190610fe6565b60206040518083038186803b15801561029e57600080fd5b505afa1580156102b2573d6000803e3d6000fd5b505050506040513d601f19601f820116820180604052508101906102d69190610e01565b151514610318576040517f08c379a000000000000000000000000000000000000000000000000000000000815260040161030f9061106c565b60405180910390fd5b600073ffffffffffffffffffffffffffffffffffffffff168673ffffffffffffffffffffffffffffffffffffffff161415610388576040517f08c379a000000000000000000000000000000000000000000000000000000000815260040161037f9061108c565b60405180910390fd5b8385106103ca576040517f08c379a00000000000000000000000000000000000000000000000000000000081526004016103c1906110ac565b60405180910390fd5b42851161040c576040517f08c379a00000000000000000000000000000000000000000000000000000000081526004016104039061104c565b60405180910390fd5b6003600081548092919061041f906112d6565b919050555060405180610120016040528060035481526020013373ffffffffffffffffffffffffffffffffffffffff1681526020018773ffffffffffffffffffffffffffffffffffffffff1681526020018681526020018581526020018481526020018373ffffffffffffffffffffffffffffffffffffffff1681526020018281526020016001151581525060008060035481526020019081526020016000206000820151816000015560208201518160010160006101000a81548173ffffffffffffffffffffffffffffffffffffffff021916908373ffffffffffffffffffffffffffffffffffffffff16021790555060408201518160020160006101000a81548173ffffffffffffffffffffffffffffffffffffffff021916908373ffffffffffffffffffffffffffffffffffffffff160217905550606082015181600301556080820151816004015560a0820151816005015560c08201518160060160006101000a81548173ffffffffffffffffffffffffffffffffffffffff021916908373ffffffffffffffffffffffffffffffffffffffff16021790555060e082015181600701556101008201518160080160006101000a81548160ff021916908315150217905550905050600160003373ffffffffffffffffffffffffffffffffffffffff1673ffffffffffffffffffffffffffffffffffffffff1681526020019081526020016000206003549080600181540180825580915050600190039060005260206000200160009091909190915055600260008773ffffffffffffffffffffffffffffffffffffffff1673ffffffffffffffffffffffffffffffffffffffff16815260200190815260200160002060035490806001815401808255809150506001900390600052602060002001600090919091909150557fcafdf86f58abbd97f3494c014db451e523dd2ca41d7cbc5005c406a556050faf600354338888888888886040516106f9989796959493929190611127565b60405180910390a1505050505050565b6060600260008373ffffffffffffffffffffffffffffffffffffffff1673ffffffffffffffffffffffffffffffffffffffff16815260200190815260200160002080548060200260200160405190810160405280929190818152602001828054801561079457602002820191906000526020600020905b815481526020019060010190808311610780575b50505050509050919050565b600160205281600052604060002081815481106107bc57600080fd5b90600052602060002001600091509150505481565b803373ffffffffffffffffffffffffffffffffffffffff1660008083815260200190815260200160002060010160009054906101000a900473ffffffffffffffffffffffffffffffffffffffff1673ffffffffffffffffffffffffffffffffffffffff1614610875576040517f08c379a000000000000000000000000000000000000000000000000000000000815260040161086c906110ec565b60405180910390fd5b816001151560008083815260200190815260200160002060080160009054906101000a900460ff161515146108df576040517f08c379a00000000000000000000000000000000000000000000000000000000081526004016108d6906110cc565b60405180910390fd5b600080600085815260200190815260200160002060080160006101000a81548160ff0219169083151502179055507f115ddacb85f93441ae503699fa6997096db2ef9ff1190987f3d908b3733e535e8360405161093c919061110c565b60405180910390a1505050565b803373ffffffffffffffffffffffffffffffffffffffff1660008083815260200190815260200160002060020160009054906101000a900473ffffffffffffffffffffffffffffffffffffffff1673ffffffffffffffffffffffffffffffffffffffff16146109ed576040517f08c379a00000000000000000000000000000000000000000000000000000000081526004016109e4906110ec565b60405180910390fd5b816001151560008083815260200190815260200160002060080160009054906101000a900460ff16151514610a57576040517f08c379a0000000000000000000000000000000000000000000000000000000008152600401610a4e906110cc565b60405180910390fd5b600080600085815260200190815260200160002060080160006101000a81548160ff021916908315150217905550600460009054906101000a900473ffffffffffffffffffffffffffffffffffffffff1673ffffffffffffffffffffffffffffffffffffffff1663d909d5e33360036040518363ffffffff1660e01b8152600401610ae3929190611001565b600060405180830381600087803b158015610afd57600080fd5b505af1158015610b11573d6000803e3d6000fd5b505050507fb4861af877939187e6370c65b6d06f8e8873a1c6df6c0f31c537460880b4d0c583604051610b44919061110c565b60405180910390a1505050565b6060600160008373ffffffffffffffffffffffffffffffffffffffff1673ffffffffffffffffffffffffffffffffffffffff168152602001908152602001600020805480602002602001604051908101604052809291908181526020018280548015610bdc57602002820191906000526020600020905b815481526020019060010190808311610bc8575b50505050509050919050565b60006020528060005260406000206000915090508060000154908060010160009054906101000a900473ffffffffffffffffffffffffffffffffffffffff16908060020160009054906101000a900473ffffffffffffffffffffffffffffffffffffffff16908060030154908060040154908060050154908060060160009054906101000a900473ffffffffffffffffffffffffffffffffffffffff16908060070154908060080160009054906101000a900460ff16905089565b60026020528160005260406000208181548110610cbf57600080fd5b90600052602060002001600091509150505481565b600081359050610ce38161146a565b92915050565b600081519050610cf881611481565b92915050565b600081359050610d0d81611498565b92915050565b600060208284031215610d2557600080fd5b6000610d3384828501610cd4565b91505092915050565b60008060408385031215610d4f57600080fd5b6000610d5d85828601610cd4565b9250506020610d6e85828601610cfe565b9150509250929050565b60008060008060008060c08789031215610d9157600080fd5b6000610d9f89828a01610cd4565b9650506020610db089828a01610cfe565b9550506040610dc189828a01610cfe565b9450506060610dd289828a01610cfe565b9350506080610de389828a01610cd4565b92505060a0610df489828a01610cfe565b9150509295509295509295565b600060208284031215610e1357600080fd5b6000610e2184828501610ce9565b91505092915050565b600060208284031215610e3c57600080fd5b6000610e4a84828501610cfe565b91505092915050565b6000610e5f8383610fc8565b60208301905092915050565b610e748161127c565b82525050565b6000610e8582611242565b610e8f818561125a565b9350610e9a83611232565b8060005b83811015610ecb578151610eb28882610e53565b9750610ebd8361124d565b925050600181019050610e9e565b5085935050505092915050565b610ee18161128e565b82525050565b610ef0816112c4565b82525050565b6000610f0360168361126b565b9150610f0e8261134e565b602082019050919050565b6000610f2660338361126b565b9150610f3182611377565b604082019050919050565b6000610f4960168361126b565b9150610f54826113c6565b602082019050919050565b6000610f6c60158361126b565b9150610f77826113ef565b602082019050919050565b6000610f8f60128361126b565b9150610f9a82611418565b602082019050919050565b6000610fb2600e8361126b565b9150610fbd82611441565b602082019050919050565b610fd1816112ba565b82525050565b610fe0816112ba565b82525050565b6000602082019050610ffb6000830184610e6b565b92915050565b60006040820190506110166000830185610e6b565b6110236020830184610ee7565b9392505050565b600060208201905081810360008301526110448184610e7a565b905092915050565b6000602082019050818103600083015261106581610ef6565b9050919050565b6000602082019050818103600083015261108581610f19565b9050919050565b600060208201905081810360008301526110a581610f3c565b9050919050565b600060208201905081810360008301526110c581610f5f565b9050919050565b600060208201905081810360008301526110e581610f82565b9050919050565b6000602082019050818103600083015261110581610fa5565b9050919050565b60006020820190506111216000830184610fd7565b92915050565b60006101008201905061113d600083018b610fd7565b61114a602083018a610e6b565b6111576040830189610e6b565b6111646060830188610fd7565b6111716080830187610fd7565b61117e60a0830186610fd7565b61118b60c0830185610e6b565b61119860e0830184610fd7565b9998505050505050505050565b6000610120820190506111bb600083018c610fd7565b6111c8602083018b610e6b565b6111d5604083018a610e6b565b6111e26060830189610fd7565b6111ef6080830188610fd7565b6111fc60a0830187610fd7565b61120960c0830186610e6b565b61121660e0830185610fd7565b611224610100830184610ed8565b9a9950505050505050505050565b6000819050602082019050919050565b600081519050919050565b6000602082019050919050565b600082825260208201905092915050565b600082825260208201905092915050565b60006112878261129a565b9050919050565b60008115159050919050565b600073ffffffffffffffffffffffffffffffffffffffff82169050919050565b6000819050919050565b60006112cf826112ba565b9050919050565b60006112e1826112ba565b91507fffffffffffffffffffffffffffffffffffffffffffffffffffffffffffffffff8214156113145761131361131f565b5b600182019050919050565b7f4e487b7100000000000000000000000000000000000000000000000000000000600052601160045260246000fd5b7f496e76616c6964207374617274206475726174696f6e00000000000000000000600082015250565b7f4e6f7420617574686f72697a656420746f2063726561746520612072656e742e60008201527f205369676e207570206f6e2050726f66696c6500000000000000000000000000602082015250565b7f496e76616c69642072656e746572206164647265737300000000000000000000600082015250565b7f496e76616c69642072656e74206475726174696f6e0000000000000000000000600082015250565b7f52656e74206973206e6f74206163746976650000000000000000000000000000600082015250565b7f4e6f7420617574686f72697a6564000000000000000000000000000000000000600082015250565b6114738161127c565b811461147e57600080fd5b50565b61148a8161128e565b811461149557600080fd5b50565b6114a1816112ba565b81146114ac57600080fd5b5056fea264697066735822122035ed7b986392a1a571583c9b1d508407983143c7ba5b3ce9cb7495c0a775cb4464736f6c63430008040033",
  "immutableReferences": {},
  "source": "pragma solidity ^0.8.4;\n\nimport \"./Profile.sol\";\n\ncontract RentalAgreement {\n    struct RentAgreement {\n        uint256 rentId;\n        address owner;\n        address renter;\n        uint256 startDate;\n        uint256 endDate;\n        uint256 rentalFee;\n        address logsAddress;\n        uint256 logsId;\n        bool isActive;\n    }\n\n    mapping(uint256 => RentAgreement) public rentalAgreements;\n    mapping(address => uint256[]) public ownerAgreements;\n    mapping(address => uint256[]) public renterAgreements;\n\n    uint256 private rentIdCounter = 0;\n\n    modifier onlyActiveAgreement(uint256 _rentId) {\n        require(\n            rentalAgreements[_rentId].isActive == true,\n            \"Rent is not active\"\n        );\n        _;\n    }\n\n    modifier onlyOwner(uint256 _rentId) {\n        require(\n            rentalAgreements[_rentId].owner == msg.sender,\n            \"Not authorized\"\n        );\n        _;\n    }\n\n    modifier onlyRenter(uint256 _rentId) {\n        require(\n            rentalAgreements[_rentId].renter == msg.sender,\n            \"Not authorized\"\n        );\n        _;\n    }\n\n    Profile profile;\n\n    // receive address during deployment script\n    constructor(Profile _profile) {\n        profile = _profile;\n    }\n\n\n    event RentCreated(\n        uint256 rentId,\n        address owner,\n        address renter,\n        uint256 startDate,\n        uint256 endDate,\n        uint256 rentalFee,\n        address logsAddress,\n        uint256 logsId\n    );\n    event RentCancelled(uint256 rentId);\n    event RentCompleted(uint256 rentId);\n\n    function createRent(\n        address _renter,\n        uint256 _startDate,\n        uint256 _endDate,\n        uint256 _rentalFee,\n        address _logsAddress,\n        uint256 _logsId\n    ) external {\n        require(profile.checkMembership(msg.sender) == true, \"Not authorized to create a rent. Sign up on Profile\");\n        require(_renter != address(0), \"Invalid renter address\");\n        require(_startDate < _endDate, \"Invalid rent duration\");\n        require(_startDate > block.timestamp, \"Invalid start duration\");\n\n        rentIdCounter++;\n\n        rentalAgreements[rentIdCounter] = RentAgreement(\n            rentIdCounter,\n            msg.sender,\n            _renter,\n            _startDate,\n            _endDate,\n            _rentalFee,\n            _logsAddress,\n            _logsId,\n            true\n        );\n\n        ownerAgreements[msg.sender].push(rentIdCounter);\n        renterAgreements[_renter].push(rentIdCounter);\n\n        emit RentCreated(\n            rentIdCounter,\n            msg.sender,\n            _renter,\n            _startDate,\n            _endDate,\n            _rentalFee,\n            _logsAddress,\n            _logsId\n        );\n    }\n\n    function cancelAgreement(uint256 _rentId)\n        public\n        onlyOwner(_rentId)\n        onlyActiveAgreement(_rentId)\n    {\n        rentalAgreements[_rentId].isActive = false;\n\n        emit RentCancelled(_rentId);\n    }\n\n    function completeAgreement(\n        uint256 _rentId //only by renter who then pays\n    ) public payable onlyRenter(_rentId) onlyActiveAgreement(_rentId) {\n        rentalAgreements[_rentId].isActive = false;\n\n        // Clock points for renter\n        profile.earnPoints(msg.sender, 3);\n        emit RentCompleted(_rentId);\n    }\n\n    function getOwnerAgreements(address _owner)\n        public\n        view\n        returns (uint256[] memory)\n    {\n        return ownerAgreements[_owner];\n    }\n\n    function getRenterAgreements(address _renter)\n        public\n        view\n        returns (uint256[] memory)\n    {\n        return renterAgreements[_renter];\n    }\n\n}\n",
  "sourcePath": "/Users/colin/Desktop/NFT_Marketplace/contracts/RentalAgreement.sol",
  "compiler": {
    "name": "solc",
    "version": "0.8.4+commit.c7e474f2.Emscripten.clang"
  },
  "schemaVersion": "3.3.2",
  "updatedAt": "2023-03-30T06:07:26.349Z",
  "devdoc": {
    "kind": "dev",
    "methods": {},
    "version": 1
  },
  "userdoc": {
    "kind": "user",
    "methods": {},
    "version": 1
  }
}